{
  "address": "0x5E311Cc94e7615B68B426eC130504978a8951A42",
  "abi": [
    {
      "inputs": [
        {
          "internalType": "contract ENS",
          "name": "_ensRegistry",
          "type": "address"
        },
        {
          "internalType": "contract IENSGuilds",
          "name": "ensGuilds",
          "type": "address"
        },
        {
          "internalType": "address",
          "name": "reverseRecordOwner",
          "type": "address"
        }
      ],
      "stateMutability": "nonpayable",
      "type": "constructor"
    },
    {
      "inputs": [
        {
          "internalType": "bytes32",
          "name": "guildHash",
          "type": "bytes32"
        },
        {
          "internalType": "address",
          "name": "minter",
          "type": "address"
        }
      ],
      "name": "allowMint",
      "outputs": [],
      "stateMutability": "nonpayable",
      "type": "function"
    },
    {
      "inputs": [
        {
          "internalType": "bytes32",
          "name": "guildHash",
          "type": "bytes32"
        },
        {
          "internalType": "string",
          "name": "",
          "type": "string"
        },
        {
          "internalType": "address",
          "name": "claimant",
          "type": "address"
        },
        {
          "internalType": "address",
          "name": "",
          "type": "address"
        },
        {
          "internalType": "bytes",
          "name": "",
          "type": "bytes"
        }
      ],
      "name": "canClaimTag",
      "outputs": [
        {
          "internalType": "bool",
          "name": "",
          "type": "bool"
        }
      ],
      "stateMutability": "view",
      "type": "function"
    },
    {
      "inputs": [
        {
          "internalType": "address",
          "name": "",
          "type": "address"
        },
        {
          "internalType": "bytes32",
          "name": "",
          "type": "bytes32"
        },
        {
          "internalType": "string",
          "name": "",
          "type": "string"
        },
        {
          "internalType": "bytes",
          "name": "",
          "type": "bytes"
        }
      ],
      "name": "canRevokeTag",
      "outputs": [
        {
          "internalType": "bool",
          "name": "",
          "type": "bool"
        }
      ],
      "stateMutability": "view",
      "type": "function"
    },
    {
      "inputs": [
        {
          "internalType": "bytes32",
          "name": "",
          "type": "bytes32"
        },
        {
          "internalType": "string",
          "name": "",
          "type": "string"
        },
        {
          "internalType": "address",
          "name": "transferredBy",
          "type": "address"
        },
        {
          "internalType": "address",
          "name": "currentOwner",
          "type": "address"
        },
        {
          "internalType": "address",
          "name": "",
          "type": "address"
        },
        {
          "internalType": "bytes",
          "name": "",
          "type": "bytes"
        }
      ],
      "name": "canTransferTag",
      "outputs": [
        {
          "internalType": "bool",
          "name": "",
          "type": "bool"
        }
      ],
      "stateMutability": "pure",
      "type": "function"
    },
    {
      "inputs": [
        {
          "internalType": "bytes32",
          "name": "guildHash",
          "type": "bytes32"
        },
        {
          "internalType": "address",
          "name": "minter",
          "type": "address"
        }
      ],
      "name": "disallowMint",
      "outputs": [],
      "stateMutability": "nonpayable",
      "type": "function"
    },
    {
      "inputs": [],
      "name": "ensGuilds",
      "outputs": [
        {
          "internalType": "contract IENSGuilds",
          "name": "",
          "type": "address"
        }
      ],
      "stateMutability": "view",
      "type": "function"
    },
    {
      "inputs": [
        {
          "internalType": "bytes32",
          "name": "",
          "type": "bytes32"
        },
        {
          "internalType": "address",
          "name": "",
          "type": "address"
        }
      ],
      "name": "guildAllowlists",
      "outputs": [
        {
          "internalType": "bool",
          "name": "",
          "type": "bool"
        }
      ],
      "stateMutability": "view",
      "type": "function"
    },
    {
      "inputs": [
        {
          "internalType": "bytes32",
          "name": "guildEnsNode",
          "type": "bytes32"
        },
        {
          "internalType": "string",
          "name": "tag",
          "type": "string"
        },
        {
          "internalType": "address",
          "name": "claimant",
          "type": "address"
        },
        {
          "internalType": "address",
          "name": "recipient",
          "type": "address"
        },
        {
          "internalType": "bytes",
          "name": "extraClaimArgs",
          "type": "bytes"
        }
      ],
      "name": "onTagClaimed",
      "outputs": [
        {
          "internalType": "string",
          "name": "tagToRevoke",
          "type": "string"
        }
      ],
      "stateMutability": "nonpayable",
      "type": "function"
    },
    {
      "inputs": [
        {
          "internalType": "address",
          "name": "revokedBy",
          "type": "address"
        },
        {
          "internalType": "address",
          "name": "revokedFrom",
          "type": "address"
        },
        {
          "internalType": "bytes32",
          "name": "guildEnsNode",
          "type": "bytes32"
        },
        {
          "internalType": "string",
          "name": "tag",
          "type": "string"
        }
      ],
      "name": "onTagRevoked",
      "outputs": [],
      "stateMutability": "nonpayable",
      "type": "function"
    },
    {
      "inputs": [
        {
          "internalType": "bytes32",
          "name": "guildEnsNode",
          "type": "bytes32"
        },
        {
          "internalType": "string",
          "name": "tag",
          "type": "string"
        },
        {
          "internalType": "address",
          "name": "transferredBy",
          "type": "address"
        },
        {
          "internalType": "address",
          "name": "prevOwner",
          "type": "address"
        },
        {
          "internalType": "address",
          "name": "newOwner",
          "type": "address"
        }
      ],
      "name": "onTagTransferred",
      "outputs": [],
      "stateMutability": "nonpayable",
      "type": "function"
    },
    {
      "inputs": [
        {
          "internalType": "bytes4",
          "name": "interfaceID",
          "type": "bytes4"
        }
      ],
      "name": "supportsInterface",
      "outputs": [
        {
          "internalType": "bool",
          "name": "",
          "type": "bool"
        }
      ],
      "stateMutability": "view",
      "type": "function"
    }
  ],
  "transactionHash": "0xbb51a38fbeea142b792a76776c2afee2020c52cd3e73d7d459c78137fc2518f8",
  "args": [
    "0x00000000000C2E074eC69A0dFb2997BA6C7d2e1e",
    "0xF03021AAa150C0d3A57E62D2C64B4b8C064be8B1",
    "0xc17cB209D5aBdb2d00f566a1E48F558DEBC264E1"
  ],
  "numDeployments": 1,
  "solcInputHash": "7331d540f29a35a261d4daf89b5d421d",
  "bytecode": "0x60a06040523480156200001157600080fd5b5060405162000d1f38038062000d1f8339810160408190526200003491620001e8565b60016000556040516301ffc9a760e01b81526301d37a4160e51b60048201528390829084906001600160a01b038216906301ffc9a790602401602060405180830381865afa1580156200008b573d6000803e3d6000fd5b505050506040513d601f19601f82011682018060405250810190620000b191906200023c565b620000bb57600080fd5b6001600160a01b039081166080526040516302571be360e01b81527f91d1777781884d03a6757a803996e38de2a42967fb37eeaca72729271025a9e260048201526000918416906302571be390602401602060405180830381865afa15801562000129573d6000803e3d6000fd5b505050506040513d601f19601f820116820180604052508101906200014f919062000267565b604051630f41a04d60e11b81526001600160a01b03848116600483015291925090821690631e83409a906024016020604051808303816000875af11580156200019c573d6000803e3d6000fd5b505050506040513d601f19601f82011682018060405250810190620001c2919062000287565b50505050505050620002a1565b6001600160a01b0381168114620001e557600080fd5b50565b600080600060608486031215620001fe57600080fd5b83516200020b81620001cf565b60208501519093506200021e81620001cf565b60408501519092506200023181620001cf565b809150509250925092565b6000602082840312156200024f57600080fd5b815180151581146200026057600080fd5b9392505050565b6000602082840312156200027a57600080fd5b81516200026081620001cf565b6000602082840312156200029a57600080fd5b5051919050565b608051610a3f620002e0600039600081816101d0015281816102b10152818161036d015281816103e60152818161044c01526105030152610a3f6000f3fe608060405234801561001057600080fd5b50600436106100c95760003560e01c80639609fb1711610081578063d4f1d4e51161005b578063d4f1d4e5146101b8578063e2443ad2146101cb578063fda41c101461020a57600080fd5b80639609fb171461016c5780639e6fcc2f1461017f578063acdbdda11461019257600080fd5b80630c30e7c6116100b25780630c30e7c61461010957806329593e5a1461011e5780638effff981461013e57600080fd5b806301ffc9a7146100ce5780630910b77f146100f6575b600080fd5b6100e16100dc3660046105a4565b610224565b60405190151581526020015b60405180910390f35b6100e1610104366004610636565b61025b565b61011c6101173660046106d9565b61028d565b005b61013161012c366004610636565b610360565b6040516100ed9190610709565b6100e161014c3660046106d9565b600160209081526000928352604080842090915290825290205460ff1681565b61011c61017a36600461076d565b6103db565b61011c61018d3660046106d9565b610428565b6100e16101a036600461084d565b5050506001600160a01b039081169116149392505050565b61011c6101c6366004610904565b6104f8565b6101f27f000000000000000000000000000000000000000000000000000000000000000081565b6040516001600160a01b0390911681526020016100ed565b6100e1610218366004610989565b60009695505050505050565b60006001600160e01b031982166319e733b360e11b148061025557506301ffc9a760e01b6001600160e01b03198316145b92915050565b60008781526001602090815260408083206001600160a01b038816845290915290205460ff165b979650505050505050565b813360405163022c977f60e01b8152600481018390526001600160a01b03918216917f0000000000000000000000000000000000000000000000000000000000000000169063022c977f90602401602060405180830381865afa1580156102f8573d6000803e3d6000fd5b505050506040513d601f19601f8201168201806040525081019061031c9190610a15565b6001600160a01b03161461032f57600080fd5b5060009182526001602081815260408085206001600160a01b0390941685529290529120805460ff19169091179055565b606061036a610547565b337f00000000000000000000000000000000000000000000000000000000000000006001600160a01b03161461039f57600080fd5b5060008781526001602081815260408084206001600160a01b03891685528252808420805460ff19169055805191820190528281529155610282565b6103e3610547565b337f00000000000000000000000000000000000000000000000000000000000000006001600160a01b03161461041857600080fd5b6104226001600055565b50505050565b813360405163022c977f60e01b8152600481018390526001600160a01b03918216917f0000000000000000000000000000000000000000000000000000000000000000169063022c977f90602401602060405180830381865afa158015610493573d6000803e3d6000fd5b505050506040513d601f19601f820116820180604052508101906104b79190610a15565b6001600160a01b0316146104ca57600080fd5b5060009182526001602090815260408084206001600160a01b0390931684529190529020805460ff19169055565b610500610547565b337f00000000000000000000000000000000000000000000000000000000000000006001600160a01b03161461053557600080fd5b61053f6001600055565b505050505050565b60026000540361059d5760405162461bcd60e51b815260206004820152601f60248201527f5265656e7472616e637947756172643a207265656e7472616e742063616c6c00604482015260640160405180910390fd5b6002600055565b6000602082840312156105b657600080fd5b81356001600160e01b0319811681146105ce57600080fd5b9392505050565b60008083601f8401126105e757600080fd5b50813567ffffffffffffffff8111156105ff57600080fd5b60208301915083602082850101111561061757600080fd5b9250929050565b6001600160a01b038116811461063357600080fd5b50565b600080600080600080600060a0888a03121561065157600080fd5b87359650602088013567ffffffffffffffff8082111561067057600080fd5b61067c8b838c016105d5565b909850965060408a013591506106918261061e565b9094506060890135906106a38261061e565b909350608089013590808211156106b957600080fd5b506106c68a828b016105d5565b989b979a50959850939692959293505050565b600080604083850312156106ec57600080fd5b8235915060208301356106fe8161061e565b809150509250929050565b600060208083528351808285015260005b818110156107365785810183015185820160400152820161071a565b506000604082860101526040601f19601f8301168501019250505092915050565b634e487b7160e01b600052604160045260246000fd5b6000806000806080858703121561078357600080fd5b843561078e8161061e565b9350602085013561079e8161061e565b925060408501359150606085013567ffffffffffffffff808211156107c257600080fd5b818701915087601f8301126107d657600080fd5b8135818111156107e8576107e8610757565b604051601f8201601f19908116603f0116810190838211818310171561081057610810610757565b816040528281528a602084870101111561082957600080fd5b82602086016020830137600060208483010152809550505050505092959194509250565b60008060008060008060008060c0898b03121561086957600080fd5b88359750602089013567ffffffffffffffff8082111561088857600080fd5b6108948c838d016105d5565b909950975060408b013591506108a98261061e565b90955060608a0135906108bb8261061e565b90945060808a0135906108cd8261061e565b90935060a08a013590808211156108e357600080fd5b506108f08b828c016105d5565b999c989b5096995094979396929594505050565b60008060008060008060a0878903121561091d57600080fd5b86359550602087013567ffffffffffffffff81111561093b57600080fd5b61094789828a016105d5565b909650945050604087013561095b8161061e565b9250606087013561096b8161061e565b9150608087013561097b8161061e565b809150509295509295509295565b600080600080600080608087890312156109a257600080fd5b86356109ad8161061e565b955060208701359450604087013567ffffffffffffffff808211156109d157600080fd5b6109dd8a838b016105d5565b909650945060608901359150808211156109f657600080fd5b50610a0389828a016105d5565b979a9699509497509295939492505050565b600060208284031215610a2757600080fd5b81516105ce8161061e56fea164736f6c6343000811000a",
  "libraries": {
    "ERC165Checker": "0x7EB821Aa0cA01198A9EC28ee9f5d7491508233e4",
    "StringParsing": "0xe0c9b7B08a9A409eA6537c8fb307CE6758CfEd16",
    "Strings": "0x572CbB4dbd1f3bB4E23Cc3d8F4460B3E6d871826",
    "NameEncoder": "0x2b1D7EE297A345fF0C57B3c3B0F34b59951756b1",
    "ENSNameHash": "0x969254c8EC87eF59BeB6F6eA928f1A00bb649Ecc",
    "ENSByteUtils": "0x4A44B0Af7483Eb232F606418Aa099ad453F95A02",
    "ENSParentName": "0xeE1CcD12e954bFD828EEb4Ca3B76cfE4cbc42C76"
  },
  "devdoc": {
    "kind": "dev",
    "methods": {
      "canClaimTag(bytes32,string,address,address,bytes)": {
        "params": {
          "claimant": "The address attempting to claim the tag (not necessarily the address that will receive it)",
          "extraClaimArgs": "[Optional] Any guild-specific additional arguments required",
          "guildEnsNode": "The ENS namehash of the guild's domain",
          "recipient": "The address that would receive the tag",
          "tag": "The tag being claimed (e.g. 'foo' for foo.my-guild.eth)"
        }
      },
      "canRevokeTag(address,bytes32,string,bytes)": {
        "params": {
          "extraRevokeArgs": "Any additional arguments necessary for assessing whether a tag may be revoked",
          "guildEnsNode": "The ENS namehash of the guild's domain",
          "revokedBy": "The address that would attempt to revoke it",
          "tag": "The tag being revoked (e.g. 'foo' for foo.my-guild.eth)"
        }
      },
      "canTransferTag(bytes32,string,address,address,address,bytes)": {
        "params": {
          "currentOwner": "The address currently owning the given tag",
          "extraTransferArgs": "Any additional arguments necessary for assessing whether a tag may be transferred",
          "guildEnsNode": "The ENS namehash of the guild's domain",
          "newOwner": "The address that would receive the tag",
          "tag": "The tag being revoked (e.g. 'foo' for foo.my-guild.eth)",
          "transferredBy": "The address initiating the transfer. May be different than the currentOwner, such as an admin or a marketplace contract"
        }
      },
      "onTagClaimed(bytes32,string,address,address,bytes)": {
        "details": "protects against reentrancy and checks that caller is the Guilds contract. Updating any state is deferred to the implementation.",
        "params": {
          "claimant": "The address that claimed the tag (not necessarily the address that received it)",
          "extraClaimArgs": "[Optional] Any guild-specific additional arguments required",
          "guildEnsNode": "The ENS namehash of the guild's domain",
          "recipient": "The address that received receive the tag",
          "tag": "The tag being claimed (e.g. 'foo' for foo.my-guild.eth)"
        },
        "returns": {
          "tagToRevoke": "Any tag that should be revoked as a consequence of the given tag being claimed. Returns empty string if no tag should be revoked."
        }
      },
      "onTagRevoked(address,address,bytes32,string)": {
        "details": "protects against reentrancy and checks that caller is the Guilds contract. Updating any state is deferred to the implementation.",
        "params": {
          "guildEnsNode": "The ENS namehash of the guild's domain",
          "revokedBy": "The address that revoked it",
          "revokedFrom": "The address who owned it when it was revoked",
          "tag": "The tag being revoked (e.g. 'foo' for foo.my-guild.eth)"
        }
      },
      "onTagTransferred(bytes32,string,address,address,address)": {
        "details": "protects against reentrancy and checks that caller is the Guilds contract. Updating any state is deferred to the implementation.",
        "params": {
          "guildEnsNode": "The ENS namehash of the guild's domain",
          "newOwner": "The address that received the tag",
          "prevOwner": "The address that previously owned the tag",
          "tag": "The tag that was transferred",
          "transferredBy": "The address initiating the transfer"
        }
      }
    },
    "title": "AllowlistTagsAuthPolicy",
    "version": 1
  },
  "userdoc": {
    "kind": "user",
    "methods": {
      "canClaimTag(bytes32,string,address,address,bytes)": {
        "notice": "Checks whether a certain address (claimant) may claim a given guild tag that has been revoked or has never been claimed"
      },
      "canRevokeTag(address,bytes32,string,bytes)": {
        "notice": "Checks whether a given guild tag is eligible to be revoked"
      },
      "canTransferTag(bytes32,string,address,address,address,bytes)": {
        "notice": "Checks whether a tag can be transferred. Implementations may trust that `currentOwner` is the owner of the given tag."
      },
      "onTagRevoked(address,address,bytes32,string)": {
        "notice": "Called by ENSGuilds once a tag has been revoked."
      },
      "onTagTransferred(bytes32,string,address,address,address)": {
        "notice": "Called by ENSGuilds once a tag has been transferred"
      }
    },
    "notice": "A common implementation of TagsAuthPolicy that can be used to restrict minting guild tags to only allowlisted addresses. A separate allowlist is maintained per each guild, and may only be updated by that guild's registered admin.",
    "version": 1
  },
  "storageLayout": {
    "storage": [
      {
        "astId": 1477,
        "contract": "contracts/tagsAuthPolicies/AllowlistTagsAuthPolicy.sol:AllowlistTagsAuthPolicy",
        "label": "_status",
        "offset": 0,
        "slot": "0",
        "type": "t_uint256"
      },
      {
        "astId": 10488,
        "contract": "contracts/tagsAuthPolicies/AllowlistTagsAuthPolicy.sol:AllowlistTagsAuthPolicy",
        "label": "guildAllowlists",
        "offset": 0,
        "slot": "1",
        "type": "t_mapping(t_bytes32,t_mapping(t_address,t_bool))"
      }
    ],
    "types": {
      "t_address": {
        "encoding": "inplace",
        "label": "address",
        "numberOfBytes": "20"
      },
      "t_bool": {
        "encoding": "inplace",
        "label": "bool",
        "numberOfBytes": "1"
      },
      "t_bytes32": {
        "encoding": "inplace",
        "label": "bytes32",
        "numberOfBytes": "32"
      },
      "t_mapping(t_address,t_bool)": {
        "encoding": "mapping",
        "key": "t_address",
        "label": "mapping(address => bool)",
        "numberOfBytes": "32",
        "value": "t_bool"
      },
      "t_mapping(t_bytes32,t_mapping(t_address,t_bool))": {
        "encoding": "mapping",
        "key": "t_bytes32",
        "label": "mapping(bytes32 => mapping(address => bool))",
        "numberOfBytes": "32",
        "value": "t_mapping(t_address,t_bool)"
      },
      "t_uint256": {
        "encoding": "inplace",
        "label": "uint256",
        "numberOfBytes": "32"
      }
    }
  }
}