{
  "address": "0x2ca987b761a45F9c66Fc54b4eC77B82e8ABdC3FD",
  "abi": [
    {
      "inputs": [
        {
          "internalType": "contract ENS",
          "name": "_ensRegistry",
          "type": "address"
        },
        {
          "internalType": "contract INameWrapper",
          "name": "_ensNameWrapper",
          "type": "address"
        },
        {
          "internalType": "address",
          "name": "reverseRecordOwner",
          "type": "address"
        },
        {
          "internalType": "address",
          "name": "tokenContract",
          "type": "address"
        },
        {
          "internalType": "string",
          "name": "_url",
          "type": "string"
        }
      ],
      "stateMutability": "nonpayable",
      "type": "constructor"
    },
    {
      "inputs": [],
      "name": "InvalidOperation",
      "type": "error"
    },
    {
      "inputs": [
        {
          "internalType": "address",
          "name": "sender",
          "type": "address"
        },
        {
          "internalType": "string[]",
          "name": "urls",
          "type": "string[]"
        },
        {
          "internalType": "bytes",
          "name": "callData",
          "type": "bytes"
        },
        {
          "internalType": "bytes4",
          "name": "callbackFunction",
          "type": "bytes4"
        },
        {
          "internalType": "bytes",
          "name": "extraData",
          "type": "bytes"
        }
      ],
      "name": "OffchainLookup",
      "type": "error"
    },
    {
      "inputs": [],
      "name": "RecordTypeNotSupported",
      "type": "error"
    },
    {
      "anonymous": false,
      "inputs": [
        {
          "indexed": true,
          "internalType": "bytes32",
          "name": "node",
          "type": "bytes32"
        },
        {
          "indexed": true,
          "internalType": "uint256",
          "name": "contentType",
          "type": "uint256"
        }
      ],
      "name": "ABIChanged",
      "type": "event"
    },
    {
      "anonymous": false,
      "inputs": [
        {
          "indexed": true,
          "internalType": "bytes32",
          "name": "node",
          "type": "bytes32"
        },
        {
          "indexed": false,
          "internalType": "address",
          "name": "a",
          "type": "address"
        }
      ],
      "name": "AddrChanged",
      "type": "event"
    },
    {
      "anonymous": false,
      "inputs": [
        {
          "indexed": true,
          "internalType": "bytes32",
          "name": "node",
          "type": "bytes32"
        },
        {
          "indexed": false,
          "internalType": "uint256",
          "name": "coinType",
          "type": "uint256"
        },
        {
          "indexed": false,
          "internalType": "bytes",
          "name": "newAddress",
          "type": "bytes"
        }
      ],
      "name": "AddressChanged",
      "type": "event"
    },
    {
      "anonymous": false,
      "inputs": [
        {
          "indexed": true,
          "internalType": "bytes32",
          "name": "node",
          "type": "bytes32"
        },
        {
          "indexed": false,
          "internalType": "bytes",
          "name": "hash",
          "type": "bytes"
        }
      ],
      "name": "ContenthashChanged",
      "type": "event"
    },
    {
      "anonymous": false,
      "inputs": [
        {
          "indexed": true,
          "internalType": "bytes32",
          "name": "node",
          "type": "bytes32"
        },
        {
          "indexed": false,
          "internalType": "bytes",
          "name": "name",
          "type": "bytes"
        },
        {
          "indexed": false,
          "internalType": "uint16",
          "name": "resource",
          "type": "uint16"
        },
        {
          "indexed": false,
          "internalType": "bytes",
          "name": "record",
          "type": "bytes"
        }
      ],
      "name": "DNSRecordChanged",
      "type": "event"
    },
    {
      "anonymous": false,
      "inputs": [
        {
          "indexed": true,
          "internalType": "bytes32",
          "name": "node",
          "type": "bytes32"
        },
        {
          "indexed": false,
          "internalType": "bytes",
          "name": "name",
          "type": "bytes"
        },
        {
          "indexed": false,
          "internalType": "uint16",
          "name": "resource",
          "type": "uint16"
        }
      ],
      "name": "DNSRecordDeleted",
      "type": "event"
    },
    {
      "anonymous": false,
      "inputs": [
        {
          "indexed": true,
          "internalType": "bytes32",
          "name": "node",
          "type": "bytes32"
        },
        {
          "indexed": false,
          "internalType": "bytes",
          "name": "lastzonehash",
          "type": "bytes"
        },
        {
          "indexed": false,
          "internalType": "bytes",
          "name": "zonehash",
          "type": "bytes"
        }
      ],
      "name": "DNSZonehashChanged",
      "type": "event"
    },
    {
      "anonymous": false,
      "inputs": [
        {
          "indexed": true,
          "internalType": "bytes32",
          "name": "node",
          "type": "bytes32"
        },
        {
          "indexed": true,
          "internalType": "bytes4",
          "name": "interfaceID",
          "type": "bytes4"
        },
        {
          "indexed": false,
          "internalType": "address",
          "name": "implementer",
          "type": "address"
        }
      ],
      "name": "InterfaceChanged",
      "type": "event"
    },
    {
      "anonymous": false,
      "inputs": [
        {
          "indexed": true,
          "internalType": "bytes32",
          "name": "node",
          "type": "bytes32"
        },
        {
          "indexed": false,
          "internalType": "string",
          "name": "name",
          "type": "string"
        }
      ],
      "name": "NameChanged",
      "type": "event"
    },
    {
      "anonymous": false,
      "inputs": [
        {
          "indexed": true,
          "internalType": "address",
          "name": "previousOwner",
          "type": "address"
        },
        {
          "indexed": true,
          "internalType": "address",
          "name": "newOwner",
          "type": "address"
        }
      ],
      "name": "OwnershipTransferred",
      "type": "event"
    },
    {
      "anonymous": false,
      "inputs": [
        {
          "indexed": true,
          "internalType": "bytes32",
          "name": "node",
          "type": "bytes32"
        },
        {
          "indexed": false,
          "internalType": "bytes32",
          "name": "x",
          "type": "bytes32"
        },
        {
          "indexed": false,
          "internalType": "bytes32",
          "name": "y",
          "type": "bytes32"
        }
      ],
      "name": "PubkeyChanged",
      "type": "event"
    },
    {
      "anonymous": false,
      "inputs": [
        {
          "indexed": true,
          "internalType": "bytes32",
          "name": "node",
          "type": "bytes32"
        },
        {
          "indexed": true,
          "internalType": "string",
          "name": "indexedKey",
          "type": "string"
        },
        {
          "indexed": false,
          "internalType": "string",
          "name": "key",
          "type": "string"
        },
        {
          "indexed": false,
          "internalType": "string",
          "name": "value",
          "type": "string"
        }
      ],
      "name": "TextChanged",
      "type": "event"
    },
    {
      "anonymous": false,
      "inputs": [
        {
          "indexed": true,
          "internalType": "bytes32",
          "name": "node",
          "type": "bytes32"
        },
        {
          "indexed": false,
          "internalType": "uint64",
          "name": "newVersion",
          "type": "uint64"
        }
      ],
      "name": "VersionChanged",
      "type": "event"
    },
    {
      "inputs": [
        {
          "internalType": "bytes32",
          "name": "node",
          "type": "bytes32"
        },
        {
          "internalType": "uint256",
          "name": "contentTypes",
          "type": "uint256"
        }
      ],
      "name": "ABI",
      "outputs": [
        {
          "internalType": "uint256",
          "name": "a",
          "type": "uint256"
        },
        {
          "internalType": "bytes",
          "name": "b",
          "type": "bytes"
        }
      ],
      "stateMutability": "view",
      "type": "function"
    },
    {
      "inputs": [],
      "name": "RESOLVER_SIGNATURE__ADDR",
      "outputs": [
        {
          "internalType": "bytes4",
          "name": "",
          "type": "bytes4"
        }
      ],
      "stateMutability": "view",
      "type": "function"
    },
    {
      "inputs": [],
      "name": "RESOLVER_SIGNATURE__ADDR_WITH_COINTYPE",
      "outputs": [
        {
          "internalType": "bytes4",
          "name": "",
          "type": "bytes4"
        }
      ],
      "stateMutability": "view",
      "type": "function"
    },
    {
      "inputs": [],
      "name": "RESOLVER_SIGNATURE__TEXT",
      "outputs": [
        {
          "internalType": "bytes4",
          "name": "",
          "type": "bytes4"
        }
      ],
      "stateMutability": "view",
      "type": "function"
    },
    {
      "inputs": [
        {
          "internalType": "bytes32",
          "name": "node",
          "type": "bytes32"
        }
      ],
      "name": "addr",
      "outputs": [
        {
          "internalType": "address payable",
          "name": "result",
          "type": "address"
        }
      ],
      "stateMutability": "view",
      "type": "function"
    },
    {
      "inputs": [
        {
          "internalType": "bytes32",
          "name": "node",
          "type": "bytes32"
        },
        {
          "internalType": "uint256",
          "name": "coinType",
          "type": "uint256"
        }
      ],
      "name": "addr",
      "outputs": [
        {
          "internalType": "bytes",
          "name": "result",
          "type": "bytes"
        }
      ],
      "stateMutability": "view",
      "type": "function"
    },
    {
      "inputs": [
        {
          "internalType": "bytes32",
          "name": "node",
          "type": "bytes32"
        }
      ],
      "name": "clearRecords",
      "outputs": [],
      "stateMutability": "nonpayable",
      "type": "function"
    },
    {
      "inputs": [
        {
          "internalType": "bytes32",
          "name": "node",
          "type": "bytes32"
        }
      ],
      "name": "contenthash",
      "outputs": [
        {
          "internalType": "bytes",
          "name": "result",
          "type": "bytes"
        }
      ],
      "stateMutability": "view",
      "type": "function"
    },
    {
      "inputs": [],
      "name": "digidaigakuContract",
      "outputs": [
        {
          "internalType": "contract IERC721",
          "name": "",
          "type": "address"
        }
      ],
      "stateMutability": "view",
      "type": "function"
    },
    {
      "inputs": [
        {
          "internalType": "bytes32",
          "name": "node",
          "type": "bytes32"
        },
        {
          "internalType": "bytes32",
          "name": "name",
          "type": "bytes32"
        },
        {
          "internalType": "uint16",
          "name": "resource",
          "type": "uint16"
        }
      ],
      "name": "dnsRecord",
      "outputs": [
        {
          "internalType": "bytes",
          "name": "result",
          "type": "bytes"
        }
      ],
      "stateMutability": "view",
      "type": "function"
    },
    {
      "inputs": [],
      "name": "ensNameWrapper",
      "outputs": [
        {
          "internalType": "contract INameWrapper",
          "name": "",
          "type": "address"
        }
      ],
      "stateMutability": "view",
      "type": "function"
    },
    {
      "inputs": [],
      "name": "ensRegistry",
      "outputs": [
        {
          "internalType": "contract ENS",
          "name": "",
          "type": "address"
        }
      ],
      "stateMutability": "view",
      "type": "function"
    },
    {
      "inputs": [
        {
          "internalType": "bytes32",
          "name": "node",
          "type": "bytes32"
        }
      ],
      "name": "getPassthroughTarget",
      "outputs": [
        {
          "internalType": "address",
          "name": "resolver",
          "type": "address"
        }
      ],
      "stateMutability": "view",
      "type": "function"
    },
    {
      "inputs": [
        {
          "internalType": "bytes32",
          "name": "node",
          "type": "bytes32"
        },
        {
          "internalType": "bytes4",
          "name": "interfaceID",
          "type": "bytes4"
        }
      ],
      "name": "interfaceImplementer",
      "outputs": [
        {
          "internalType": "address",
          "name": "result",
          "type": "address"
        }
      ],
      "stateMutability": "view",
      "type": "function"
    },
    {
      "inputs": [
        {
          "internalType": "bytes32",
          "name": "node",
          "type": "bytes32"
        }
      ],
      "name": "name",
      "outputs": [
        {
          "internalType": "string",
          "name": "result",
          "type": "string"
        }
      ],
      "stateMutability": "view",
      "type": "function"
    },
    {
      "inputs": [],
      "name": "owner",
      "outputs": [
        {
          "internalType": "address",
          "name": "",
          "type": "address"
        }
      ],
      "stateMutability": "view",
      "type": "function"
    },
    {
      "inputs": [
        {
          "internalType": "bytes32",
          "name": "node",
          "type": "bytes32"
        }
      ],
      "name": "pubkey",
      "outputs": [
        {
          "internalType": "bytes32",
          "name": "x",
          "type": "bytes32"
        },
        {
          "internalType": "bytes32",
          "name": "y",
          "type": "bytes32"
        }
      ],
      "stateMutability": "view",
      "type": "function"
    },
    {
      "inputs": [
        {
          "internalType": "bytes32",
          "name": "",
          "type": "bytes32"
        }
      ],
      "name": "recordVersions",
      "outputs": [
        {
          "internalType": "uint64",
          "name": "",
          "type": "uint64"
        }
      ],
      "stateMutability": "view",
      "type": "function"
    },
    {
      "inputs": [],
      "name": "renounceOwnership",
      "outputs": [],
      "stateMutability": "nonpayable",
      "type": "function"
    },
    {
      "inputs": [
        {
          "internalType": "bytes",
          "name": "dnsEncodedName",
          "type": "bytes"
        },
        {
          "internalType": "bytes",
          "name": "resolverCalldata",
          "type": "bytes"
        }
      ],
      "name": "resolve",
      "outputs": [
        {
          "internalType": "bytes",
          "name": "",
          "type": "bytes"
        }
      ],
      "stateMutability": "view",
      "type": "function"
    },
    {
      "inputs": [
        {
          "internalType": "bytes",
          "name": "response",
          "type": "bytes"
        },
        {
          "internalType": "bytes",
          "name": "extraData",
          "type": "bytes"
        }
      ],
      "name": "resolveByNameCallback",
      "outputs": [
        {
          "internalType": "bytes",
          "name": "",
          "type": "bytes"
        }
      ],
      "stateMutability": "view",
      "type": "function"
    },
    {
      "inputs": [
        {
          "internalType": "bytes",
          "name": "response",
          "type": "bytes"
        },
        {
          "internalType": "bytes",
          "name": "extraData",
          "type": "bytes"
        }
      ],
      "name": "resolveCallback",
      "outputs": [
        {
          "internalType": "bytes",
          "name": "",
          "type": "bytes"
        }
      ],
      "stateMutability": "nonpayable",
      "type": "function"
    },
    {
      "inputs": [
        {
          "internalType": "bytes",
          "name": "response",
          "type": "bytes"
        },
        {
          "internalType": "bytes",
          "name": "extraData",
          "type": "bytes"
        }
      ],
      "name": "resolveTextByNameCallback",
      "outputs": [
        {
          "internalType": "bytes",
          "name": "",
          "type": "bytes"
        }
      ],
      "stateMutability": "view",
      "type": "function"
    },
    {
      "inputs": [
        {
          "internalType": "bytes32",
          "name": "node",
          "type": "bytes32"
        },
        {
          "internalType": "uint256",
          "name": "contentType",
          "type": "uint256"
        },
        {
          "internalType": "bytes",
          "name": "data",
          "type": "bytes"
        }
      ],
      "name": "setABI",
      "outputs": [],
      "stateMutability": "nonpayable",
      "type": "function"
    },
    {
      "inputs": [
        {
          "internalType": "bytes32",
          "name": "node",
          "type": "bytes32"
        },
        {
          "internalType": "uint256",
          "name": "coinType",
          "type": "uint256"
        },
        {
          "internalType": "bytes",
          "name": "a",
          "type": "bytes"
        }
      ],
      "name": "setAddr",
      "outputs": [],
      "stateMutability": "nonpayable",
      "type": "function"
    },
    {
      "inputs": [
        {
          "internalType": "bytes32",
          "name": "node",
          "type": "bytes32"
        },
        {
          "internalType": "address",
          "name": "a",
          "type": "address"
        }
      ],
      "name": "setAddr",
      "outputs": [],
      "stateMutability": "nonpayable",
      "type": "function"
    },
    {
      "inputs": [
        {
          "internalType": "bytes32",
          "name": "node",
          "type": "bytes32"
        },
        {
          "internalType": "bytes",
          "name": "hash",
          "type": "bytes"
        }
      ],
      "name": "setContenthash",
      "outputs": [],
      "stateMutability": "nonpayable",
      "type": "function"
    },
    {
      "inputs": [
        {
          "internalType": "bytes32",
          "name": "node",
          "type": "bytes32"
        },
        {
          "internalType": "bytes",
          "name": "data",
          "type": "bytes"
        }
      ],
      "name": "setDNSRecords",
      "outputs": [],
      "stateMutability": "nonpayable",
      "type": "function"
    },
    {
      "inputs": [
        {
          "internalType": "bytes32",
          "name": "node",
          "type": "bytes32"
        },
        {
          "internalType": "bytes4",
          "name": "interfaceID",
          "type": "bytes4"
        },
        {
          "internalType": "address",
          "name": "implementer",
          "type": "address"
        }
      ],
      "name": "setInterface",
      "outputs": [],
      "stateMutability": "nonpayable",
      "type": "function"
    },
    {
      "inputs": [
        {
          "internalType": "bytes32",
          "name": "node",
          "type": "bytes32"
        },
        {
          "internalType": "string",
          "name": "newName",
          "type": "string"
        }
      ],
      "name": "setName",
      "outputs": [],
      "stateMutability": "nonpayable",
      "type": "function"
    },
    {
      "inputs": [
        {
          "internalType": "bytes32",
          "name": "node",
          "type": "bytes32"
        },
        {
          "internalType": "bytes32",
          "name": "x",
          "type": "bytes32"
        },
        {
          "internalType": "bytes32",
          "name": "y",
          "type": "bytes32"
        }
      ],
      "name": "setPubkey",
      "outputs": [],
      "stateMutability": "nonpayable",
      "type": "function"
    },
    {
      "inputs": [
        {
          "internalType": "bytes32",
          "name": "node",
          "type": "bytes32"
        },
        {
          "internalType": "string",
          "name": "key",
          "type": "string"
        },
        {
          "internalType": "string",
          "name": "value",
          "type": "string"
        }
      ],
      "name": "setText",
      "outputs": [],
      "stateMutability": "nonpayable",
      "type": "function"
    },
    {
      "inputs": [
        {
          "internalType": "string",
          "name": "newUrl",
          "type": "string"
        }
      ],
      "name": "setUrl",
      "outputs": [],
      "stateMutability": "nonpayable",
      "type": "function"
    },
    {
      "inputs": [
        {
          "internalType": "bytes32",
          "name": "node",
          "type": "bytes32"
        },
        {
          "internalType": "bytes",
          "name": "hash",
          "type": "bytes"
        }
      ],
      "name": "setZonehash",
      "outputs": [],
      "stateMutability": "nonpayable",
      "type": "function"
    },
    {
      "inputs": [
        {
          "internalType": "bytes4",
          "name": "interfaceID",
          "type": "bytes4"
        }
      ],
      "name": "supportsInterface",
      "outputs": [
        {
          "internalType": "bool",
          "name": "",
          "type": "bool"
        }
      ],
      "stateMutability": "view",
      "type": "function"
    },
    {
      "inputs": [
        {
          "internalType": "bytes32",
          "name": "node",
          "type": "bytes32"
        },
        {
          "internalType": "string",
          "name": "key",
          "type": "string"
        }
      ],
      "name": "text",
      "outputs": [
        {
          "internalType": "string",
          "name": "result",
          "type": "string"
        }
      ],
      "stateMutability": "view",
      "type": "function"
    },
    {
      "inputs": [
        {
          "internalType": "address",
          "name": "newOwner",
          "type": "address"
        }
      ],
      "name": "transferOwnership",
      "outputs": [],
      "stateMutability": "nonpayable",
      "type": "function"
    },
    {
      "inputs": [],
      "name": "url",
      "outputs": [
        {
          "internalType": "string",
          "name": "",
          "type": "string"
        }
      ],
      "stateMutability": "view",
      "type": "function"
    },
    {
      "inputs": [
        {
          "internalType": "bytes32",
          "name": "node",
          "type": "bytes32"
        }
      ],
      "name": "zonehash",
      "outputs": [
        {
          "internalType": "bytes",
          "name": "result",
          "type": "bytes"
        }
      ],
      "stateMutability": "view",
      "type": "function"
    }
  ],
  "transactionHash": "0x751fdc1c756bda8292f358796af97719cfdcad025df09aeceb837bfe9f263278",
  "args": [
    "0x00000000000C2E074eC69A0dFb2997BA6C7d2e1e",
    "0xD4416b13d2b3a9aBae7AcD5D6C2BbDBE25686401",
    "0xc17cB209D5aBdb2d00f566a1E48F558DEBC264E1",
    "0xd1258DB6Ac08eB0e625B75b371C023dA478E94A9",
    "https://storage.googleapis.com/digidagiaku-by-name/{data}.json"
  ],
  "numDeployments": 1,
  "solcInputHash": "7331d540f29a35a261d4daf89b5d421d",
  "bytecode": "0x60c06040523480156200001157600080fd5b5060405162003e1238038062003e1283398101604081905262000034916200021d565b6001600160a01b03858116608081905290851660a0526040516302571be360e01b81527f91d1777781884d03a6757a803996e38de2a42967fb37eeaca72729271025a9e2600482015286918591600091906302571be390602401602060405180830381865afa158015620000ac573d6000803e3d6000fd5b505050506040513d601f19601f82011682018060405250810190620000d2919062000349565b604051630f41a04d60e11b81526001600160a01b03848116600483015291925090821690631e83409a906024016020604051808303816000875af11580156200011f573d6000803e3d6000fd5b505050506040513d601f19601f8201168201806040525081019062000145919062000370565b50505050620001636200015d6200019860201b60201c565b6200019c565b600580546001600160a01b0319166001600160a01b03841617905560046200018c828262000419565b505050505050620004e5565b3390565b600380546001600160a01b038381166001600160a01b0319831681179093556040519116919082907f8be0079c531659141344cd1fd0a4f28419497f9722a3daafe3b4186f6b6457e090600090a35050565b6001600160a01b03811681146200020457600080fd5b50565b634e487b7160e01b600052604160045260246000fd5b600080600080600060a086880312156200023657600080fd5b85516200024381620001ee565b809550506020808701516200025881620001ee565b60408801519095506200026b81620001ee565b60608801519094506200027e81620001ee565b60808801519093506001600160401b03808211156200029c57600080fd5b818901915089601f830112620002b157600080fd5b815181811115620002c657620002c662000207565b604051601f8201601f19908116603f01168101908382118183101715620002f157620002f162000207565b816040528281528c868487010111156200030a57600080fd5b600093505b828410156200032e57848401860151818501870152928501926200030f565b60008684830101528096505050505050509295509295909350565b6000602082840312156200035c57600080fd5b81516200036981620001ee565b9392505050565b6000602082840312156200038357600080fd5b5051919050565b600181811c908216806200039f57607f821691505b602082108103620003c057634e487b7160e01b600052602260045260246000fd5b50919050565b601f8211156200041457600081815260208120601f850160051c81016020861015620003ef5750805b601f850160051c820191505b818110156200041057828155600101620003fb565b5050505b505050565b81516001600160401b0381111562000435576200043562000207565b6200044d816200044684546200038a565b84620003c6565b602080601f8311600181146200048557600084156200046c5750858301515b600019600386901b1c1916600185901b17855562000410565b600085815260208120601f198616915b82811015620004b65788860151825594840194600190910190840162000495565b5085821015620004d55787850151600019600388901b60f8161c191681555b5050505050600190811b01905550565b60805160a0516138f262000520600039600081816104700152818161213d015261218a01526000818161055201526120ce01526138f26000f3fe608060405234801561001057600080fd5b50600436106102ad5760003560e01c8063691f34311161017b578063bacfdbe2116100d8578063d700ff331161008c578063ef47ee6211610071578063ef47ee62146106ae578063f1cb7e061461070a578063f2fde38b1461071d57600080fd5b8063d700ff3314610658578063e59d895d1461069b57600080fd5b8063c8690233116100bd578063c86902331461060a578063ce3decdc14610632578063d5fa2b001461064557600080fd5b8063bacfdbe2146105e4578063bc1c58d1146105f757600080fd5b80638da5cb5b1161012f5780639b886dd9116101145780639b886dd9146105ab578063a8fa5682146105be578063b4a85801146105d157600080fd5b80638da5cb5b146105875780639061b9231461059857600080fd5b80637737221311610160578063773722131461053a5780637d73b2311461054d5780638b95dd711461057457600080fd5b8063691f34311461051f578063715018a61461053257600080fd5b80632f9a1767116102295780635048cea0116101dd57806359d1d43c116101c257806359d1d43c146104e65780635c98042b146104f9578063623195b01461050c57600080fd5b80635048cea0146104925780635600f04f146104de57600080fd5b80633603d7581161020e5780633603d758146104455780633b3b57de1461045857806347c5da981461046b57600080fd5b80632f9a176714610412578063304e6ade1461043257600080fd5b8063124a319c11610280578063252498a211610265578063252498a21461037757806329cd62ea1461038a5780632d1705391461039d57600080fd5b8063124a319c146103435780632203ab561461035657600080fd5b806301ffc9a7146102b257806302001702146102da5780630af179d71461031b57806310f13a8c14610330575b600080fd5b6102c56102c0366004612b67565b610730565b60405190151581526020015b60405180910390f35b6103036102e8366004612b84565b6000908152600160205260409020546001600160a01b031690565b6040516001600160a01b0390911681526020016102d1565b61032e610329366004612bdf565b61075b565b005b61032e61033e366004612c2b565b6107ed565b610303610351366004612ca5565b610885565b610369610364366004612cd5565b61093b565b6040516102d1929190612d47565b61032e610385366004612e0d565b6109f3565b61032e610398366004612e56565b610a0b565b60408051808201909152601481527f7465787428627974657333322c737472696e67290000000000000000000000006020909101526103f97f59d1d43c37707a29830be065fcabd05d6e536466c5159d2e46cb27bda8e98d6581565b6040516001600160e01b031990911681526020016102d1565b610425610420366004612e82565b610a6a565b6040516102d19190612eee565b61032e610440366004612bdf565b610ab5565b61032e610453366004612b84565b610b0f565b610303610466366004612b84565b610bb2565b6103037f000000000000000000000000000000000000000000000000000000000000000081565b60408051808201909152600d81526c6164647228627974657333322960981b6020909101526103f97f3b3b57de213591bb50e06975ea011e4c8c4b3e6de4009450c1a9e55f66e4bfa481565b610425610c56565b6104256104f4366004612bdf565b610ce4565b610425610507366004612b84565b610d9a565b61032e61051a366004612f01565b610e39565b61042561052d366004612b84565b610ece565b61032e610f2c565b61032e610548366004612bdf565b610f40565b6103037f000000000000000000000000000000000000000000000000000000000000000081565b61032e610582366004612f68565b610f9a565b6003546001600160a01b0316610303565b6104256105a6366004612e82565b610ff4565b600554610303906001600160a01b031681565b6104256105cc366004612fb8565b611210565b6104256105df366004612e82565b61127f565b6104256105f2366004612e82565b611393565b610425610605366004612b84565b6113ea565b61061d610618366004612b84565b611448565b604080519283526020830191909152016102d1565b61032e610640366004612bdf565b6114f0565b61032e61065336600461300d565b61154a565b610682610666366004612b84565b60006020819052908152604090205467ffffffffffffffff1681565b60405167ffffffffffffffff90911681526020016102d1565b61032e6106a9366004613032565b6115dd565b60408051808201909152601581527f6164647228627974657333322c75696e743235362900000000000000000000006020909101526103f97ff1cb7e06eed69ff6b1133c27a055176e5b0f641e8f94df2da7711eae8558f7b181565b610425610718366004612cd5565b611646565b61032e61072b366004613069565b6116eb565b60006001600160e01b03198216639061b92360e01b1480610755575061075582611780565b92915050565b8261076581611898565b61076e57600080fd5b6000848152600160205260409020546001600160a01b03166001600160a01b0316630af179d78585856040518463ffffffff1660e01b81526004016107b5939291906130af565b600060405180830381600087803b1580156107cf57600080fd5b505af11580156107e3573d6000803e3d6000fd5b5050505050505050565b846107f781611898565b61080057600080fd5b6000868152600160205260409020546001600160a01b03166001600160a01b03166310f13a8c87878787876040518663ffffffff1660e01b815260040161084b9594939291906130d2565b600060405180830381600087803b15801561086557600080fd5b505af1158015610879573d6000803e3d6000fd5b50505050505050505050565b6000828152600160205260408120546001600160a01b03166108ae816304928c6760e21b6118b6565b15610934576040516304928c6760e21b8152600481018590526001600160e01b0319841660248201526001600160a01b0382169063124a319c90604401602060405180830381865afa158015610908573d6000803e3d6000fd5b505050506040513d601f19601f8201168201806040525081019061092c919061310b565b915050610755565b5092915050565b6000828152600160205260408120546060906001600160a01b031661096781631101d5ab60e11b6118b6565b156109ea57604051631101d5ab60e11b815260048101869052602481018590526001600160a01b03821690632203ab5690604401600060405180830381865afa1580156109b8573d6000803e3d6000fd5b505050506040513d6000823e601f3d908101601f191682016040526109e0919081019061316d565b92509250506109ec565b505b9250929050565b6109fb6118d2565b6004610a078282613237565b5050565b82610a1581611898565b610a1e57600080fd5b600084815260016020526040908190205490516314e6b17560e11b81526004810186905260248101859052604481018490526001600160a01b03909116906329cd62ea906064016107b5565b60606000610a7a85870187612b84565b9050610a858161192c565b604080516001600160a01b039092166020830152016040516020818303038152906040529150505b949350505050565b82610abf81611898565b610ac857600080fd5b6000848152600160205260409020546001600160a01b03166001600160a01b031663304e6ade8585856040518463ffffffff1660e01b81526004016107b5939291906130af565b80610b1981611898565b610b2257600080fd5b6000828152602081905260408120805467ffffffffffffffff1691610b468361330d565b82546101009290920a67ffffffffffffffff818102199093169183160217909155600084815260208181526040918290205491519190921681528492507fc6621ccb8f3f5a04bb6502154b2caf6adf5983fe76dfef1cfc9c42e3579db444910160405180910390a25050565b6000818152600160205260408120546001600160a01b0316610bdb81631d9dabef60e11b6118b6565b15610c5057604051631d9dabef60e11b8152600481018490526001600160a01b03821690633b3b57de90602401602060405180830381865afa158015610c25573d6000803e3d6000fd5b505050506040513d601f19601f82011682018060405250810190610c49919061310b565b9392505050565b50919050565b60048054610c63906131b4565b80601f0160208091040260200160405190810160405280929190818152602001828054610c8f906131b4565b8015610cdc5780601f10610cb157610100808354040283529160200191610cdc565b820191906000526020600020905b815481529060010190602001808311610cbf57829003601f168201915b505050505081565b6000838152600160205260409020546060906001600160a01b0316610d1081631674750f60e21b6118b6565b15610d9257604051631674750f60e21b81526001600160a01b038216906359d1d43c90610d45908890889088906004016130af565b600060405180830381865afa158015610d62573d6000803e3d6000fd5b505050506040513d6000823e601f3d908101601f19168201604052610d8a9190810190613334565b915050610c49565b509392505050565b6000818152600160205260409020546060906001600160a01b0316610dc681635c98042b60e01b6118b6565b15610c5057604051635c98042b60e01b8152600481018490526001600160a01b03821690635c98042b906024015b600060405180830381865afa158015610e11573d6000803e3d6000fd5b505050506040513d6000823e601f3d908101601f19168201604052610c499190810190613334565b83610e4381611898565b610e4c57600080fd5b6000858152600160205260409020546001600160a01b03166001600160a01b031663623195b0868686866040518563ffffffff1660e01b8152600401610e959493929190613369565b600060405180830381600087803b158015610eaf57600080fd5b505af1158015610ec3573d6000803e3d6000fd5b505050505050505050565b6000818152600160205260409020546060906001600160a01b0316610efa8163691f343160e01b6118b6565b15610c505760405163691f343160e01b8152600481018490526001600160a01b0382169063691f343190602401610df4565b610f346118d2565b610f3e60006119a2565b565b82610f4a81611898565b610f5357600080fd5b6000848152600160205260409020546001600160a01b03166001600160a01b031663773722138585856040518463ffffffff1660e01b81526004016107b5939291906130af565b82610fa481611898565b610fad57600080fd5b6000848152600160205260409020546001600160a01b03166001600160a01b0316638b95dd718585856040518463ffffffff1660e01b81526004016107b593929190613393565b6060600061100560048285876133b2565b61100e916133dc565b60408051808201909152600d81526c6164647228627974657333322960981b6020909101529050636262541160e11b6001600160e01b031982160161108a57600061105b87878787611a0c565b604080516001600160a01b03831660208201529192500160405160208183030381529060405292505050610aad565b60408051808201909152601581527f6164647228627974657333322c75696e7432353629000000000000000000000060209091015263071a40fd60e11b6001600160e01b031982160161115c5760006110e684600481886133b2565b8101906110f39190612cd5565b915050603c810361114957600061110c88888888611a0c565b9050611120816001600160a01b0316611c51565b6040516020016111309190612eee565b6040516020818303038152906040529350505050610aad565b6060806040516020016111309190612eee565b60408051808201909152601481527f7465787428627974657333322c737472696e672900000000000000000000000060209091015263298b8af160e21b6001600160e01b03198216016111f7573660006111b68686611c8a565b9150915060006111ca898985858b8b611ce2565b9050806040516020016111dd9190612eee565b604051602081830303815290604052945050505050610aad565b60405163dfbcb35160e01b815260040160405180910390fd5b6000838152600160205260409020546060906001600160a01b031661123c8163547d2b4160e11b6118b6565b15610d925760405163547d2b4160e11b8152600481018690526024810185905261ffff841660448201526001600160a01b0382169063a8fa568290606401610d45565b6060600080806112918587018761340c565b925092509250600080846001600160a01b0316848b8b866040516024016112ba93929190613458565b60408051601f198184030181529181526020820180517bffffffffffffffffffffffffffffffffffffffffffffffffffffffff166001600160e01b031990941693909317909252905161130d919061347e565b6000604051808303816000865af19150503d806000811461134a576040519150601f19603f3d011682016040523d82523d6000602084013e61134f565b606091505b5091509150811561137a578080602001905181019061136e9190613334565b95505050505050610aad565b604051631cc6a69960e11b815260040160405180910390fd5b606060006113a385870187612b84565b905060006113b384860186612e0d565b90506113bf8183611e65565b6040516020016113cf9190612eee565b60405160208183030381529060405292505050949350505050565b6000818152600160205260409020546060906001600160a01b03166114168163bc1c58d160e01b6118b6565b15610c505760405163bc1c58d160e01b8152600481018490526001600160a01b0382169063bc1c58d190602401610df4565b60008181526001602052604081205481906001600160a01b03166114738163c869023360e01b6118b6565b156114ea5760405163c869023360e01b8152600481018590526001600160a01b0382169063c8690233906024016040805180830381865afa1580156114bc573d6000803e3d6000fd5b505050506040513d601f19601f820116820180604052508101906114e0919061349a565b9250925050915091565b50915091565b826114fa81611898565b61150357600080fd5b6000848152600160205260409020546001600160a01b03166001600160a01b031663ce3decdc8585856040518463ffffffff1660e01b81526004016107b5939291906130af565b8161155481611898565b61155d57600080fd5b6000838152600160205260409020546001600160a01b031660405162d5fa2b60e81b8152600481018590526001600160a01b038481166024830152919091169063d5fa2b0090604401600060405180830381600087803b1580156115c057600080fd5b505af11580156115d4573d6000803e3d6000fd5b50505050505050565b826115e781611898565b6115f057600080fd5b6000848152600160205260409081902054905163e59d895d60e01b8152600481018690526001600160e01b0319851660248201526001600160a01b0384811660448301529091169063e59d895d906064016107b5565b6000828152600160205260409020546060906001600160a01b0316611672816378e5bf0360e11b6118b6565b15610934576040516378e5bf0360e11b815260048101859052602481018490526001600160a01b0382169063f1cb7e0690604401600060405180830381865afa1580156116c3573d6000803e3d6000fd5b505050506040513d6000823e601f3d908101601f1916820160405261092c9190810190613334565b6116f36118d2565b6001600160a01b0381166117745760405162461bcd60e51b815260206004820152602660248201527f4f776e61626c653a206e6577206f776e657220697320746865207a65726f206160448201527f646472657373000000000000000000000000000000000000000000000000000060648201526084015b60405180910390fd5b61177d816119a2565b50565b60006001600160e01b03198216631101d5ab60e11b14806117b157506001600160e01b03198216631d9dabef60e11b145b806117cc57506001600160e01b031982166378e5bf0360e11b145b806117e757506001600160e01b0319821663bc1c58d160e01b145b8061180257506001600160e01b0319821663547d2b4160e11b145b8061181d57506001600160e01b03198216635c98042b60e01b145b8061183857506001600160e01b031982166304928c6760e21b145b8061185357506001600160e01b0319821663691f343160e01b145b8061186e57506001600160e01b0319821663c869023360e01b145b8061188957506001600160e01b03198216631674750f60e21b145b80610755575061075582612076565b6000806118a4836120ab565b6001600160a01b031633149392505050565b60006118c1836121d9565b8015610c495750610c49838361220c565b6003546001600160a01b03163314610f3e5760405162461bcd60e51b815260206004820181905260248201527f4f776e61626c653a2063616c6c6572206973206e6f7420746865206f776e6572604482015260640161176b565b6005546040516331a9108f60e11b81526004810183905260009182916001600160a01b0390911690636352211e90602401602060405180830381865afa925050508015611996575060408051601f3d908101601f191682019092526119939181019061310b565b60015b610c4957506000610755565b600380546001600160a01b038381167fffffffffffffffffffffffff0000000000000000000000000000000000000000831681179093556040519116919082907f8be0079c531659141344cd1fd0a4f28419497f9722a3daafe3b4186f6b6457e090600090a35050565b6000806000611a1b87876122aa565b915091508115611a6957611a2e81610bb2565b92506001600160a01b038316611a64576000611a4b82603c611646565b90508051600014611a6257611a5f816122dd565b93505b505b611ab7565b366000366000611a798b8b612305565b935093509350935060028282604051611a939291906134be565b9081526020016040518091039020549450611ab084848484612379565b9650505050505b6000818152600160205260408120546001600160a01b031690506001600160a01b038416158015611afd5750611afd6001600160a01b038216639061b92360e01b6118b6565b15611c4657604051639061b92360e01b81526001600160a01b03821690639061b92390611b34908b908b908b908b906004016134ce565b600060405180830381865afa925050508015611b7257506040513d6000823e601f3d908101601f19168201604052611b6f9190810190613334565b60015b611c2e573d808015611ba0576040519150601f19603f3d011682016040523d82523d6000602084013e611ba5565b606091505b506000806000806000611bc6866004808951611bc191906134f5565b61249b565b806020019051810190611bd99190613518565b9450945094509450945030848463b4a8580160e01b888686604051602001611c039392919061364b565b60408051601f1981840301815290829052630556f18360e41b825261176b95949392916004016136d1565b80806020019051810190611c42919061310b565b9450505b505050949350505050565b6040805160148082528183019092526060916020820181803683375050506c010000000000000000000000009290920260208301525090565b366000604481611c9b826020613729565b90506000611cab8684818a6133b2565b810190611cb89190612b84565b9050868287611cc78483613729565b92611cd4939291906133b2565b945094505050509250929050565b6060600080611cf189896122aa565b915091508115611d0d57611d06818888610ce4565b9250611d5d565b366000366000611d1d8d8d612305565b935093509350935060028282604051611d379291906134be565b9081526020016040518091039020549450611d56848484848f8f6125c3565b9650505050505b6000818152600160205260408120546001600160a01b0316905083516000148015611d9d5750611d9d6001600160a01b038216639061b92360e01b6118b6565b15611e5857604051639061b92360e01b81526001600160a01b03821690639061b92390611dd4908d908d908b908b906004016134ce565b600060405180830381865afa925050508015611e1257506040513d6000823e601f3d908101601f19168201604052611e0f9190810190613334565b60015b611e40573d808015611ba0576040519150601f19603f3d011682016040523d82523d6000602084013e611ba5565b80806020019051810190611e549190613334565b9450505b5050509695505050505050565b6005546040516331a9108f60e11b8152600481018390526060916001600160a01b031690636352211e90602401602060405180830381865afa925050508015611ecb575060408051601f3d908101601f19168201909252611ec89181019061310b565b60015b611ee45750604080516020810190915260008152610755565b5060408051808201909152600681527f61766174617200000000000000000000000000000000000000000000000000006020918201528351908401207fd1f86c93d831119ad98fe983e643a7431e4ac992e3ead6e3007f4dd1adf6634303611f8b57600554611f5b906001600160a01b031661274b565b611f6483612761565b604051602001611f7592919061373c565b6040516020818303038152906040529050610755565b6040805180820190915260038152621d5c9b60ea1b6020918201528351908401207fb68b5f5089998f2978a1dcc681e8ef27962b90d5c26c4c0b9c1945814ffa5ef0036120605760055460405163c87b56dd60e01b8152600481018490526060916001600160a01b03169063c87b56dd90602401600060405180830381865afa92505050801561203d57506040513d6000823e601f3d908101601f1916820160405261203a9190810190613334565b60015b6120565750604080516020810190915260008152612059565b90505b9050610755565b5060408051602081019091526000815292915050565b60006001600160e01b0319821663d700ff3360e01b148061075557506301ffc9a760e01b6001600160e01b0319831614610755565b6040516302571be360e01b81526004810182905260009081906001600160a01b037f000000000000000000000000000000000000000000000000000000000000000016906302571be390602401602060405180830381865afa158015612115573d6000803e3d6000fd5b505050506040513d601f19601f82011682018060405250810190612139919061310b565b90507f00000000000000000000000000000000000000000000000000000000000000006001600160a01b0316816001600160a01b031603610755576040516331a9108f60e11b8152600481018490527f00000000000000000000000000000000000000000000000000000000000000006001600160a01b031690636352211e90602401602060405180830381865afa158015610c25573d6000803e3d6000fd5b60006121ec826301ffc9a760e01b61220c565b80156107555750612205826001600160e01b031961220c565b1592915050565b604080516001600160e01b03198316602480830191909152825180830390910181526044909101909152602080820180517bffffffffffffffffffffffffffffffffffffffffffffffffffffffff166301ffc9a760e01b178152825160009392849283928392918391908a617530fa92503d91506000519050828015612293575060208210155b801561229f5750600081115b979650505050505050565b600080600284846040516122bf9291906134be565b90815260405190819003602001902054801515925090509250929050565b600081516014146122ed57600080fd5b50602001516c01000000000000000000000000900490565b366000366000808686600081811061231f5761231f6137a1565b919091013560f81c915087905060018761233984836137b7565b60ff1692612349939291906133b2565b88886123568560016137b7565b60ff16908092612368939291906133b2565b929a91995097509095509350505050565b600080600061238887876127f4565b915091508161249257604080516001808252818301909252600091816020015b60608152602001906001900390816123a8579050509050600480546123cc906131b4565b80601f01602080910402602001604051908101604052809291908181526020018280546123f8906131b4565b80156124455780601f1061241a57610100808354040283529160200191612445565b820191906000526020600020905b81548152906001019060200180831161242857829003601f168201915b50505050508160008151811061245d5761245d6137a1565b6020908102919091010152604051630556f18360e41b815261176b90309083908b908b90632f9a176760e01b906004016137d0565b61229f8161192c565b6060816124a981601f613729565b10156124f75760405162461bcd60e51b815260206004820152600e60248201527f736c6963655f6f766572666c6f77000000000000000000000000000000000000604482015260640161176b565b6125018284613729565b845110156125515760405162461bcd60e51b815260206004820152601160248201527f736c6963655f6f75744f66426f756e6473000000000000000000000000000000604482015260640161176b565b60608215801561257057604051915060008252602082016040526125ba565b6040519150601f8416801560200281840101858101878315602002848b0101015b818310156125a9578051835260209283019201612591565b5050858452601f01601f1916604052505b50949350505050565b60606000806125d289896127f4565b91509150816126fd57604080516001808252818301909252600091816020015b60608152602001906001900390816125f257905050905060048054612616906131b4565b80601f0160208091040260200160405190810160405280929190818152602001828054612642906131b4565b801561268f5780601f106126645761010080835404028352916020019161268f565b820191906000526020600020905b81548152906001019060200180831161267257829003601f168201915b5050505050816000815181106126a7576126a76137a1565b602002602001018190525030818b8b63bacfdbe260e01b8a8a6040516020016126d1929190613831565b60408051601f1981840301815290829052630556f18360e41b825261176b969594939291600401613845565b61273e85858080601f016020809104026020016040519081016040528093929190818152602001838380828437600092019190915250859250611e65915050565b9998505050505050505050565b60606107556001600160a01b03831660146128d3565b6060600061276e83612a6f565b600101905060008167ffffffffffffffff81111561278e5761278e612d60565b6040519080825280601f01601f1916602001820160405280156127b8576020820181803683370190505b5090508181016020015b600019016f181899199a1a9b1b9c1cb0b131b232b360811b600a86061a8153600a85049450846127c257509392505050565b600080805b838110156128c757600360fc1b858583818110612818576128186137a1565b9050013560f81c60f81b6001600160f81b03191610806128605750603960f81b85858381811061284a5761284a6137a1565b9050013560f81c60f81b6001600160f81b031916115b156128725760008092509250506109ec565b60006030868684818110612888576128886137a1565b6128999392013560f81c90506134f5565b9050806128a784600a61389e565b6128b19190613729565b92505080806128bf906138b5565b9150506127f9565b60019250509250929050565b606060006128e283600261389e565b6128ed906002613729565b67ffffffffffffffff81111561290557612905612d60565b6040519080825280601f01601f19166020018201604052801561292f576020820181803683370190505b509050600360fc1b8160008151811061294a5761294a6137a1565b60200101906001600160f81b031916908160001a905350600f60fb1b81600181518110612979576129796137a1565b60200101906001600160f81b031916908160001a905350600061299d84600261389e565b6129a8906001613729565b90505b6001811115612a20576f181899199a1a9b1b9c1cb0b131b232b360811b85600f16601081106129dc576129dc6137a1565b1a60f81b8282815181106129f2576129f26137a1565b60200101906001600160f81b031916908160001a90535060049490941c93612a19816138ce565b90506129ab565b508315610c495760405162461bcd60e51b815260206004820181905260248201527f537472696e67733a20686578206c656e67746820696e73756666696369656e74604482015260640161176b565b6000807a184f03e93ff9f4daa797ed6e38ed64bf6a1f0100000000000000008310612ab8577a184f03e93ff9f4daa797ed6e38ed64bf6a1f010000000000000000830492506040015b6d04ee2d6d415b85acef81000000008310612ae4576d04ee2d6d415b85acef8100000000830492506020015b662386f26fc100008310612b0257662386f26fc10000830492506010015b6305f5e1008310612b1a576305f5e100830492506008015b6127108310612b2e57612710830492506004015b60648310612b40576064830492506002015b600a83106107555760010192915050565b6001600160e01b03198116811461177d57600080fd5b600060208284031215612b7957600080fd5b8135610c4981612b51565b600060208284031215612b9657600080fd5b5035919050565b60008083601f840112612baf57600080fd5b50813567ffffffffffffffff811115612bc757600080fd5b6020830191508360208285010111156109ec57600080fd5b600080600060408486031215612bf457600080fd5b83359250602084013567ffffffffffffffff811115612c1257600080fd5b612c1e86828701612b9d565b9497909650939450505050565b600080600080600060608688031215612c4357600080fd5b85359450602086013567ffffffffffffffff80821115612c6257600080fd5b612c6e89838a01612b9d565b90965094506040880135915080821115612c8757600080fd5b50612c9488828901612b9d565b969995985093965092949392505050565b60008060408385031215612cb857600080fd5b823591506020830135612cca81612b51565b809150509250929050565b60008060408385031215612ce857600080fd5b50508035926020909101359150565b60005b83811015612d12578181015183820152602001612cfa565b50506000910152565b60008151808452612d33816020860160208601612cf7565b601f01601f19169290920160200192915050565b828152604060208201526000610aad6040830184612d1b565b634e487b7160e01b600052604160045260246000fd5b604051601f8201601f1916810167ffffffffffffffff81118282101715612d9f57612d9f612d60565b604052919050565b600067ffffffffffffffff821115612dc157612dc1612d60565b50601f01601f191660200190565b6000612de2612ddd84612da7565b612d76565b9050828152838383011115612df657600080fd5b828260208301376000602084830101529392505050565b600060208284031215612e1f57600080fd5b813567ffffffffffffffff811115612e3657600080fd5b8201601f81018413612e4757600080fd5b610aad84823560208401612dcf565b600080600060608486031215612e6b57600080fd5b505081359360208301359350604090920135919050565b60008060008060408587031215612e9857600080fd5b843567ffffffffffffffff80821115612eb057600080fd5b612ebc88838901612b9d565b90965094506020870135915080821115612ed557600080fd5b50612ee287828801612b9d565b95989497509550505050565b602081526000610c496020830184612d1b565b60008060008060608587031215612f1757600080fd5b8435935060208501359250604085013567ffffffffffffffff811115612f3c57600080fd5b612ee287828801612b9d565b600082601f830112612f5957600080fd5b610c4983833560208501612dcf565b600080600060608486031215612f7d57600080fd5b8335925060208401359150604084013567ffffffffffffffff811115612fa257600080fd5b612fae86828701612f48565b9150509250925092565b600080600060608486031215612fcd57600080fd5b8335925060208401359150604084013561ffff81168114612fed57600080fd5b809150509250925092565b6001600160a01b038116811461177d57600080fd5b6000806040838503121561302057600080fd5b823591506020830135612cca81612ff8565b60008060006060848603121561304757600080fd5b83359250602084013561305981612b51565b91506040840135612fed81612ff8565b60006020828403121561307b57600080fd5b8135610c4981612ff8565b81835281816020850137506000828201602090810191909152601f909101601f19169091010190565b8381526040602082015260006130c9604083018486613086565b95945050505050565b8581526060602082015260006130ec606083018688613086565b82810360408401526130ff818587613086565b98975050505050505050565b60006020828403121561311d57600080fd5b8151610c4981612ff8565b600082601f83011261313957600080fd5b8151613147612ddd82612da7565b81815284602083860101111561315c57600080fd5b610aad826020830160208701612cf7565b6000806040838503121561318057600080fd5b82519150602083015167ffffffffffffffff81111561319e57600080fd5b6131aa85828601613128565b9150509250929050565b600181811c908216806131c857607f821691505b602082108103610c5057634e487b7160e01b600052602260045260246000fd5b601f82111561323257600081815260208120601f850160051c8101602086101561320f5750805b601f850160051c820191505b8181101561322e5782815560010161321b565b5050505b505050565b815167ffffffffffffffff81111561325157613251612d60565b6132658161325f84546131b4565b846131e8565b602080601f83116001811461329a57600084156132825750858301515b600019600386901b1c1916600185901b17855561322e565b600085815260208120601f198616915b828110156132c9578886015182559484019460019091019084016132aa565b50858210156132e75787850151600019600388901b60f8161c191681555b5050505050600190811b01905550565b634e487b7160e01b600052601160045260246000fd5b600067ffffffffffffffff80831681810361332a5761332a6132f7565b6001019392505050565b60006020828403121561334657600080fd5b815167ffffffffffffffff81111561335d57600080fd5b610aad84828501613128565b848152836020820152606060408201526000613389606083018486613086565b9695505050505050565b8381528260208201526060604082015260006130c96060830184612d1b565b600080858511156133c257600080fd5b838611156133cf57600080fd5b5050820193919092039150565b6001600160e01b031981358181169160048510156134045780818660040360031b1b83161692505b505092915050565b60008060006060848603121561342157600080fd5b833561342c81612ff8565b9250602084013561343c81612b51565b9150604084013567ffffffffffffffff811115612fa257600080fd5b60408152600061346c604083018587613086565b82810360208401526133898185612d1b565b60008251613490818460208701612cf7565b9190910192915050565b600080604083850312156134ad57600080fd5b505080516020909101519092909150565b8183823760009101908152919050565b6040815260006134e2604083018688613086565b828103602084015261229f818587613086565b81810381811115610755576107556132f7565b805161351381612b51565b919050565b600080600080600060a0868803121561353057600080fd5b855161353b81612ff8565b8095505060208087015167ffffffffffffffff8082111561355b57600080fd5b818901915089601f83011261356f57600080fd5b81518181111561358157613581612d60565b8060051b613590858201612d76565b918252838101850191858101908d8411156135aa57600080fd5b86860192505b838310156135e6578251858111156135c85760008081fd5b6135d68f89838a0101613128565b83525091860191908601906135b0565b60408d0151909a5095505050508083111561360057600080fd5b61360c8a848b01613128565b955061361a60608a01613508565b9450608089015192508083111561363057600080fd5b505061363e88828901613128565b9150509295509295909350565b6001600160a01b038416815263ffffffff60e01b831660208201526060604082015260006130c96060830184612d1b565b600081518084526020808501808196508360051b8101915082860160005b858110156136c45782840389526136b2848351612d1b565b9885019893509084019060010161369a565b5091979650505050505050565b6001600160a01b038616815260a0602082015260006136f360a083018761367c565b82810360408401526137058187612d1b565b6001600160e01b031986166060850152838103608085015290506130ff8185612d1b565b80820180821115610755576107556132f7565b7f6569703135353a312f6572633732313a00000000000000000000000000000000815260008351613774816010850160208801612cf7565b602f60f81b6010918401918201528351613795816011840160208801612cf7565b01601101949350505050565b634e487b7160e01b600052603260045260246000fd5b60ff8181168382160190811115610755576107556132f7565b6001600160a01b038616815260a0602082015260006137f260a083018761367c565b8281036040840152613805818688613086565b6001600160e01b0319949094166060840152505080820360809091015260008152602001949350505050565b602081526000610aad602083018486613086565b6001600160a01b038716815260a06020820152600061386760a083018861367c565b828103604084015261387a818789613086565b6001600160e01b0319861660608501528381036080850152905061273e8185612d1b565b8082028115828204841417610755576107556132f7565b6000600182016138c7576138c76132f7565b5060010190565b6000816138dd576138dd6132f7565b50600019019056fea164736f6c6343000811000a",
  "libraries": {
    "ERC165Checker": "0x7EB821Aa0cA01198A9EC28ee9f5d7491508233e4",
    "StringParsing": "0xe0c9b7B08a9A409eA6537c8fb307CE6758CfEd16",
    "Strings": "0x572CbB4dbd1f3bB4E23Cc3d8F4460B3E6d871826",
    "NameEncoder": "0x2b1D7EE297A345fF0C57B3c3B0F34b59951756b1",
    "ENSNameHash": "0x969254c8EC87eF59BeB6F6eA928f1A00bb649Ecc",
    "ENSByteUtils": "0x4A44B0Af7483Eb232F606418Aa099ad453F95A02",
    "ENSParentName": "0xeE1CcD12e954bFD828EEb4Ca3B76cfE4cbc42C76"
  },
  "devdoc": {
    "kind": "dev",
    "methods": {
      "ABI(bytes32,uint256)": {
        "params": {
          "contentTypes": "A bitwise OR of the ABI formats accepted by the caller.",
          "node": "The ENS node to query"
        },
        "returns": {
          "a": "contentType The content type of the return value",
          "b": "data The ABI data"
        }
      },
      "addr(bytes32)": {
        "params": {
          "node": "The ENS node to query."
        },
        "returns": {
          "result": "The associated address."
        }
      },
      "clearRecords(bytes32)": {
        "params": {
          "node": "The node to update."
        }
      },
      "contenthash(bytes32)": {
        "params": {
          "node": "The ENS node to query."
        },
        "returns": {
          "result": "The associated contenthash."
        }
      },
      "dnsRecord(bytes32,bytes32,uint16)": {
        "params": {
          "name": "the keccak-256 hash of the fully-qualified name for which to fetch the record",
          "node": "the namehash of the node for which to fetch the record",
          "resource": "the ID of the resource as per https://en.wikipedia.org/wiki/List_of_DNS_record_types"
        },
        "returns": {
          "result": "the DNS record in wire format if present, otherwise empty"
        }
      },
      "interfaceImplementer(bytes32,bytes4)": {
        "params": {
          "interfaceID": "The EIP 165 interface ID to check for.",
          "node": "The ENS node to query."
        },
        "returns": {
          "result": "The address that implements this interface, or 0 if the interface is unsupported."
        }
      },
      "name(bytes32)": {
        "params": {
          "node": "The ENS node to query."
        },
        "returns": {
          "result": "The associated name."
        }
      },
      "owner()": {
        "details": "Returns the address of the current owner."
      },
      "pubkey(bytes32)": {
        "params": {
          "node": "The ENS node to query"
        },
        "returns": {
          "x": "The X coordinate of the curve point for the public key.",
          "y": "The Y coordinate of the curve point for the public key."
        }
      },
      "renounceOwnership()": {
        "details": "Leaves the contract without owner. It will not be possible to call `onlyOwner` functions. Can only be called by the current owner. NOTE: Renouncing ownership will leave the contract without an owner, thereby disabling any functionality that is only available to the owner."
      },
      "text(bytes32,string)": {
        "params": {
          "key": "The text data key to query.",
          "node": "The ENS node to query."
        },
        "returns": {
          "result": "The associated text data."
        }
      },
      "transferOwnership(address)": {
        "details": "Transfers ownership of the contract to a new account (`newOwner`). Can only be called by the current owner."
      },
      "zonehash(bytes32)": {
        "params": {
          "node": "The ENS node to query."
        },
        "returns": {
          "result": "The associated contenthash."
        }
      }
    },
    "version": 1
  },
  "userdoc": {
    "kind": "user",
    "methods": {
      "ABI(bytes32,uint256)": {
        "notice": "Returns the ABI associated with an ENS node. Defined in EIP205."
      },
      "addr(bytes32)": {
        "notice": "Returns the address associated with an ENS node."
      },
      "clearRecords(bytes32)": {
        "notice": "Increments the record version associated with an ENS node. May only be called by the owner of that node in the ENS registry."
      },
      "contenthash(bytes32)": {
        "notice": "Returns the contenthash associated with an ENS node."
      },
      "dnsRecord(bytes32,bytes32,uint16)": {
        "notice": "Obtain a DNS record."
      },
      "interfaceImplementer(bytes32,bytes4)": {
        "notice": "Returns the address of a contract that implements the specified interface for this name. If an implementer has not been set for this interfaceID and name, the resolver will query the contract at `addr()`. If `addr()` is set, a contract exists at that address, and that contract implements EIP165 and returns `true` for the specified interfaceID, its address will be returned."
      },
      "name(bytes32)": {
        "notice": "Returns the name associated with an ENS node, for reverse records. Defined in EIP181."
      },
      "pubkey(bytes32)": {
        "notice": "Returns the SECP256k1 public key associated with an ENS node. Defined in EIP 619."
      },
      "text(bytes32,string)": {
        "notice": "Returns the text data associated with an ENS node and key."
      },
      "zonehash(bytes32)": {
        "notice": "zonehash obtains the hash for the zone."
      }
    },
    "version": 1
  },
  "storageLayout": {
    "storage": [
      {
        "astId": 243,
        "contract": "contracts/ensWildcardResolvers/DigidaigakuResolver.sol:DigidaigakuResolver",
        "label": "recordVersions",
        "offset": 0,
        "slot": "0",
        "type": "t_mapping(t_bytes32,t_uint64)"
      },
      {
        "astId": 8502,
        "contract": "contracts/ensWildcardResolvers/DigidaigakuResolver.sol:DigidaigakuResolver",
        "label": "_passthroughTargets",
        "offset": 0,
        "slot": "1",
        "type": "t_mapping(t_bytes32,t_address)"
      },
      {
        "astId": 9279,
        "contract": "contracts/ensWildcardResolvers/DigidaigakuResolver.sol:DigidaigakuResolver",
        "label": "parentEnsNodes",
        "offset": 0,
        "slot": "2",
        "type": "t_mapping(t_bytes_memory_ptr,t_bytes32)"
      },
      {
        "astId": 1358,
        "contract": "contracts/ensWildcardResolvers/DigidaigakuResolver.sol:DigidaigakuResolver",
        "label": "_owner",
        "offset": 0,
        "slot": "3",
        "type": "t_address"
      },
      {
        "astId": 7553,
        "contract": "contracts/ensWildcardResolvers/DigidaigakuResolver.sol:DigidaigakuResolver",
        "label": "url",
        "offset": 0,
        "slot": "4",
        "type": "t_string_storage"
      },
      {
        "astId": 7556,
        "contract": "contracts/ensWildcardResolvers/DigidaigakuResolver.sol:DigidaigakuResolver",
        "label": "digidaigakuContract",
        "offset": 0,
        "slot": "5",
        "type": "t_contract(IERC721)3211"
      }
    ],
    "types": {
      "t_address": {
        "encoding": "inplace",
        "label": "address",
        "numberOfBytes": "20"
      },
      "t_bytes32": {
        "encoding": "inplace",
        "label": "bytes32",
        "numberOfBytes": "32"
      },
      "t_bytes_memory_ptr": {
        "encoding": "bytes",
        "label": "bytes",
        "numberOfBytes": "32"
      },
      "t_contract(IERC721)3211": {
        "encoding": "inplace",
        "label": "contract IERC721",
        "numberOfBytes": "20"
      },
      "t_mapping(t_bytes32,t_address)": {
        "encoding": "mapping",
        "key": "t_bytes32",
        "label": "mapping(bytes32 => address)",
        "numberOfBytes": "32",
        "value": "t_address"
      },
      "t_mapping(t_bytes32,t_uint64)": {
        "encoding": "mapping",
        "key": "t_bytes32",
        "label": "mapping(bytes32 => uint64)",
        "numberOfBytes": "32",
        "value": "t_uint64"
      },
      "t_mapping(t_bytes_memory_ptr,t_bytes32)": {
        "encoding": "mapping",
        "key": "t_bytes_memory_ptr",
        "label": "mapping(bytes => bytes32)",
        "numberOfBytes": "32",
        "value": "t_bytes32"
      },
      "t_string_storage": {
        "encoding": "bytes",
        "label": "string",
        "numberOfBytes": "32"
      },
      "t_uint64": {
        "encoding": "inplace",
        "label": "uint64",
        "numberOfBytes": "8"
      }
    }
  }
}