{
  "address": "0xF03021AAa150C0d3A57E62D2C64B4b8C064be8B1",
  "abi": [
    {
      "inputs": [
        {
          "internalType": "string",
          "name": "defaultTokenMetadataUri",
          "type": "string"
        },
        {
          "internalType": "contract ENS",
          "name": "ensRegistry",
          "type": "address"
        },
        {
          "internalType": "contract INameWrapper",
          "name": "nameWrapper",
          "type": "address"
        },
        {
          "internalType": "contract GuildsResolver",
          "name": "guildsResolver",
          "type": "address"
        },
        {
          "internalType": "address",
          "name": "reverseRecordOwner",
          "type": "address"
        }
      ],
      "stateMutability": "nonpayable",
      "type": "constructor"
    },
    {
      "inputs": [],
      "name": "AlreadyRegistered",
      "type": "error"
    },
    {
      "inputs": [],
      "name": "ClaimUnauthorized",
      "type": "error"
    },
    {
      "inputs": [],
      "name": "ENSGuildsIsNotRegisteredOperator",
      "type": "error"
    },
    {
      "inputs": [],
      "name": "FeeError",
      "type": "error"
    },
    {
      "inputs": [],
      "name": "GuildAdminOnly",
      "type": "error"
    },
    {
      "inputs": [],
      "name": "GuildNotActive",
      "type": "error"
    },
    {
      "inputs": [],
      "name": "GuildsTokenTransferNotAllowed",
      "type": "error"
    },
    {
      "inputs": [
        {
          "internalType": "address",
          "name": "",
          "type": "address"
        }
      ],
      "name": "InvalidPolicy",
      "type": "error"
    },
    {
      "inputs": [],
      "name": "NotDomainOwner",
      "type": "error"
    },
    {
      "inputs": [],
      "name": "RevokeUnauthorized",
      "type": "error"
    },
    {
      "inputs": [],
      "name": "TagAlreadyClaimed",
      "type": "error"
    },
    {
      "inputs": [],
      "name": "TransferUnauthorized",
      "type": "error"
    },
    {
      "anonymous": false,
      "inputs": [
        {
          "indexed": true,
          "internalType": "bytes32",
          "name": "guildEnsNode",
          "type": "bytes32"
        },
        {
          "indexed": false,
          "internalType": "address",
          "name": "newAdmin",
          "type": "address"
        }
      ],
      "name": "AdminTransferred",
      "type": "event"
    },
    {
      "anonymous": false,
      "inputs": [
        {
          "indexed": true,
          "internalType": "address",
          "name": "account",
          "type": "address"
        },
        {
          "indexed": true,
          "internalType": "address",
          "name": "operator",
          "type": "address"
        },
        {
          "indexed": false,
          "internalType": "bool",
          "name": "approved",
          "type": "bool"
        }
      ],
      "name": "ApprovalForAll",
      "type": "event"
    },
    {
      "anonymous": false,
      "inputs": [
        {
          "indexed": true,
          "internalType": "bytes32",
          "name": "guildEnsNode",
          "type": "bytes32"
        }
      ],
      "name": "Deregistered",
      "type": "event"
    },
    {
      "anonymous": false,
      "inputs": [
        {
          "indexed": true,
          "internalType": "bytes32",
          "name": "guildEnsNode",
          "type": "bytes32"
        },
        {
          "indexed": false,
          "internalType": "address",
          "name": "feePolicy",
          "type": "address"
        }
      ],
      "name": "FeePolicyUpdated",
      "type": "event"
    },
    {
      "anonymous": false,
      "inputs": [
        {
          "indexed": true,
          "internalType": "bytes32",
          "name": "guildEnsNode",
          "type": "bytes32"
        }
      ],
      "name": "Registered",
      "type": "event"
    },
    {
      "anonymous": false,
      "inputs": [
        {
          "indexed": true,
          "internalType": "bytes32",
          "name": "guildEnsNode",
          "type": "bytes32"
        },
        {
          "indexed": false,
          "internalType": "bool",
          "name": "active",
          "type": "bool"
        }
      ],
      "name": "SetActive",
      "type": "event"
    },
    {
      "anonymous": false,
      "inputs": [
        {
          "indexed": true,
          "internalType": "bytes32",
          "name": "guildEnsNode",
          "type": "bytes32"
        },
        {
          "indexed": true,
          "internalType": "bytes32",
          "name": "tagHash",
          "type": "bytes32"
        },
        {
          "indexed": false,
          "internalType": "address",
          "name": "recipient",
          "type": "address"
        }
      ],
      "name": "TagClaimed",
      "type": "event"
    },
    {
      "anonymous": false,
      "inputs": [
        {
          "indexed": true,
          "internalType": "bytes32",
          "name": "guildEnsNode",
          "type": "bytes32"
        },
        {
          "indexed": true,
          "internalType": "bytes32",
          "name": "tagHash",
          "type": "bytes32"
        }
      ],
      "name": "TagRevoked",
      "type": "event"
    },
    {
      "anonymous": false,
      "inputs": [
        {
          "indexed": true,
          "internalType": "bytes32",
          "name": "guildEnsNode",
          "type": "bytes32"
        },
        {
          "indexed": true,
          "internalType": "bytes32",
          "name": "tagHash",
          "type": "bytes32"
        },
        {
          "indexed": false,
          "internalType": "address",
          "name": "from",
          "type": "address"
        },
        {
          "indexed": false,
          "internalType": "address",
          "name": "to",
          "type": "address"
        }
      ],
      "name": "TagTransferred",
      "type": "event"
    },
    {
      "anonymous": false,
      "inputs": [
        {
          "indexed": true,
          "internalType": "bytes32",
          "name": "guildEnsNode",
          "type": "bytes32"
        },
        {
          "indexed": false,
          "internalType": "address",
          "name": "tagsAuthPolicy",
          "type": "address"
        }
      ],
      "name": "TagsAuthPolicyUpdated",
      "type": "event"
    },
    {
      "anonymous": false,
      "inputs": [
        {
          "indexed": true,
          "internalType": "bytes32",
          "name": "guildEnsNode",
          "type": "bytes32"
        },
        {
          "indexed": false,
          "internalType": "string",
          "name": "uri",
          "type": "string"
        }
      ],
      "name": "TokenUriSet",
      "type": "event"
    },
    {
      "anonymous": false,
      "inputs": [
        {
          "indexed": true,
          "internalType": "address",
          "name": "operator",
          "type": "address"
        },
        {
          "indexed": true,
          "internalType": "address",
          "name": "from",
          "type": "address"
        },
        {
          "indexed": true,
          "internalType": "address",
          "name": "to",
          "type": "address"
        },
        {
          "indexed": false,
          "internalType": "uint256[]",
          "name": "ids",
          "type": "uint256[]"
        },
        {
          "indexed": false,
          "internalType": "uint256[]",
          "name": "values",
          "type": "uint256[]"
        }
      ],
      "name": "TransferBatch",
      "type": "event"
    },
    {
      "anonymous": false,
      "inputs": [
        {
          "indexed": true,
          "internalType": "address",
          "name": "operator",
          "type": "address"
        },
        {
          "indexed": true,
          "internalType": "address",
          "name": "from",
          "type": "address"
        },
        {
          "indexed": true,
          "internalType": "address",
          "name": "to",
          "type": "address"
        },
        {
          "indexed": false,
          "internalType": "uint256",
          "name": "id",
          "type": "uint256"
        },
        {
          "indexed": false,
          "internalType": "uint256",
          "name": "value",
          "type": "uint256"
        }
      ],
      "name": "TransferSingle",
      "type": "event"
    },
    {
      "anonymous": false,
      "inputs": [
        {
          "indexed": false,
          "internalType": "string",
          "name": "value",
          "type": "string"
        },
        {
          "indexed": true,
          "internalType": "uint256",
          "name": "id",
          "type": "uint256"
        }
      ],
      "name": "URI",
      "type": "event"
    },
    {
      "inputs": [
        {
          "internalType": "address",
          "name": "account",
          "type": "address"
        },
        {
          "internalType": "uint256",
          "name": "id",
          "type": "uint256"
        }
      ],
      "name": "balanceOf",
      "outputs": [
        {
          "internalType": "uint256",
          "name": "",
          "type": "uint256"
        }
      ],
      "stateMutability": "view",
      "type": "function"
    },
    {
      "inputs": [
        {
          "internalType": "address[]",
          "name": "accounts",
          "type": "address[]"
        },
        {
          "internalType": "uint256[]",
          "name": "ids",
          "type": "uint256[]"
        }
      ],
      "name": "balanceOfBatch",
      "outputs": [
        {
          "internalType": "uint256[]",
          "name": "",
          "type": "uint256[]"
        }
      ],
      "stateMutability": "view",
      "type": "function"
    },
    {
      "inputs": [
        {
          "internalType": "string",
          "name": "guildEnsName",
          "type": "string"
        },
        {
          "internalType": "string",
          "name": "tag",
          "type": "string"
        },
        {
          "internalType": "address",
          "name": "recipient",
          "type": "address"
        },
        {
          "internalType": "bytes",
          "name": "extraClaimArgs",
          "type": "bytes"
        }
      ],
      "name": "claimGuildTag",
      "outputs": [],
      "stateMutability": "payable",
      "type": "function"
    },
    {
      "inputs": [
        {
          "internalType": "bytes32",
          "name": "guildEnsNode",
          "type": "bytes32"
        },
        {
          "internalType": "string",
          "name": "tag",
          "type": "string"
        },
        {
          "internalType": "address",
          "name": "recipient",
          "type": "address"
        },
        {
          "internalType": "bytes",
          "name": "extraClaimArgs",
          "type": "bytes"
        }
      ],
      "name": "claimGuildTag",
      "outputs": [],
      "stateMutability": "payable",
      "type": "function"
    },
    {
      "inputs": [
        {
          "internalType": "bytes32",
          "name": "guildEnsNode",
          "type": "bytes32"
        },
        {
          "internalType": "string[]",
          "name": "tags",
          "type": "string[]"
        },
        {
          "internalType": "address[]",
          "name": "recipients",
          "type": "address[]"
        },
        {
          "internalType": "bytes[]",
          "name": "extraClaimArgs",
          "type": "bytes[]"
        }
      ],
      "name": "claimGuildTagsBatch",
      "outputs": [],
      "stateMutability": "payable",
      "type": "function"
    },
    {
      "inputs": [
        {
          "internalType": "string",
          "name": "guildEnsName",
          "type": "string"
        }
      ],
      "name": "deregisterGuild",
      "outputs": [],
      "stateMutability": "nonpayable",
      "type": "function"
    },
    {
      "inputs": [
        {
          "internalType": "bytes32",
          "name": "ensNode",
          "type": "bytes32"
        }
      ],
      "name": "deregisterGuild",
      "outputs": [],
      "stateMutability": "nonpayable",
      "type": "function"
    },
    {
      "inputs": [
        {
          "internalType": "bytes32",
          "name": "guildHash",
          "type": "bytes32"
        }
      ],
      "name": "guildAdmin",
      "outputs": [
        {
          "internalType": "address",
          "name": "",
          "type": "address"
        }
      ],
      "stateMutability": "view",
      "type": "function"
    },
    {
      "inputs": [
        {
          "internalType": "string",
          "name": "guildEnsName",
          "type": "string"
        }
      ],
      "name": "guildAdmin",
      "outputs": [
        {
          "internalType": "address",
          "name": "",
          "type": "address"
        }
      ],
      "stateMutability": "view",
      "type": "function"
    },
    {
      "inputs": [
        {
          "internalType": "bytes32",
          "name": "",
          "type": "bytes32"
        }
      ],
      "name": "guilds",
      "outputs": [
        {
          "internalType": "address",
          "name": "admin",
          "type": "address"
        },
        {
          "internalType": "contract IFeePolicy",
          "name": "feePolicy",
          "type": "address"
        },
        {
          "internalType": "contract ITagsAuthPolicy",
          "name": "tagsAuthPolicy",
          "type": "address"
        },
        {
          "internalType": "address",
          "name": "originalResolver",
          "type": "address"
        },
        {
          "internalType": "bool",
          "name": "active",
          "type": "bool"
        },
        {
          "internalType": "bool",
          "name": "deregistered",
          "type": "bool"
        },
        {
          "internalType": "bool",
          "name": "usesNameWrapper",
          "type": "bool"
        }
      ],
      "stateMutability": "view",
      "type": "function"
    },
    {
      "inputs": [
        {
          "internalType": "address",
          "name": "account",
          "type": "address"
        },
        {
          "internalType": "address",
          "name": "operator",
          "type": "address"
        }
      ],
      "name": "isApprovedForAll",
      "outputs": [
        {
          "internalType": "bool",
          "name": "",
          "type": "bool"
        }
      ],
      "stateMutability": "view",
      "type": "function"
    },
    {
      "inputs": [
        {
          "internalType": "address",
          "name": "",
          "type": "address"
        },
        {
          "internalType": "address",
          "name": "",
          "type": "address"
        },
        {
          "internalType": "uint256[]",
          "name": "",
          "type": "uint256[]"
        },
        {
          "internalType": "uint256[]",
          "name": "",
          "type": "uint256[]"
        },
        {
          "internalType": "bytes",
          "name": "",
          "type": "bytes"
        }
      ],
      "name": "onERC1155BatchReceived",
      "outputs": [
        {
          "internalType": "bytes4",
          "name": "",
          "type": "bytes4"
        }
      ],
      "stateMutability": "nonpayable",
      "type": "function"
    },
    {
      "inputs": [
        {
          "internalType": "address",
          "name": "",
          "type": "address"
        },
        {
          "internalType": "address",
          "name": "",
          "type": "address"
        },
        {
          "internalType": "uint256",
          "name": "",
          "type": "uint256"
        },
        {
          "internalType": "uint256",
          "name": "",
          "type": "uint256"
        },
        {
          "internalType": "bytes",
          "name": "",
          "type": "bytes"
        }
      ],
      "name": "onERC1155Received",
      "outputs": [
        {
          "internalType": "bytes4",
          "name": "",
          "type": "bytes4"
        }
      ],
      "stateMutability": "nonpayable",
      "type": "function"
    },
    {
      "inputs": [
        {
          "internalType": "string",
          "name": "guildName",
          "type": "string"
        },
        {
          "internalType": "address",
          "name": "admin",
          "type": "address"
        },
        {
          "internalType": "address",
          "name": "feePolicy",
          "type": "address"
        },
        {
          "internalType": "address",
          "name": "tagsAuthPolicy",
          "type": "address"
        }
      ],
      "name": "registerGuild",
      "outputs": [],
      "stateMutability": "nonpayable",
      "type": "function"
    },
    {
      "inputs": [
        {
          "internalType": "string",
          "name": "guildEnsName",
          "type": "string"
        },
        {
          "internalType": "string",
          "name": "tag",
          "type": "string"
        },
        {
          "internalType": "bytes",
          "name": "extraData",
          "type": "bytes"
        }
      ],
      "name": "revokeGuildTag",
      "outputs": [],
      "stateMutability": "nonpayable",
      "type": "function"
    },
    {
      "inputs": [
        {
          "internalType": "bytes32",
          "name": "guildEnsNode",
          "type": "bytes32"
        },
        {
          "internalType": "string",
          "name": "tag",
          "type": "string"
        },
        {
          "internalType": "bytes",
          "name": "extraData",
          "type": "bytes"
        }
      ],
      "name": "revokeGuildTag",
      "outputs": [],
      "stateMutability": "nonpayable",
      "type": "function"
    },
    {
      "inputs": [
        {
          "internalType": "bytes32",
          "name": "guildHash",
          "type": "bytes32"
        },
        {
          "internalType": "string[]",
          "name": "tags",
          "type": "string[]"
        },
        {
          "internalType": "bytes[]",
          "name": "extraData",
          "type": "bytes[]"
        }
      ],
      "name": "revokeGuildTagsBatch",
      "outputs": [],
      "stateMutability": "nonpayable",
      "type": "function"
    },
    {
      "inputs": [
        {
          "internalType": "address",
          "name": "from",
          "type": "address"
        },
        {
          "internalType": "address",
          "name": "to",
          "type": "address"
        },
        {
          "internalType": "uint256[]",
          "name": "ids",
          "type": "uint256[]"
        },
        {
          "internalType": "uint256[]",
          "name": "amounts",
          "type": "uint256[]"
        },
        {
          "internalType": "bytes",
          "name": "data",
          "type": "bytes"
        }
      ],
      "name": "safeBatchTransferFrom",
      "outputs": [],
      "stateMutability": "nonpayable",
      "type": "function"
    },
    {
      "inputs": [
        {
          "internalType": "address",
          "name": "",
          "type": "address"
        },
        {
          "internalType": "address",
          "name": "",
          "type": "address"
        },
        {
          "internalType": "uint256",
          "name": "",
          "type": "uint256"
        },
        {
          "internalType": "uint256",
          "name": "",
          "type": "uint256"
        },
        {
          "internalType": "bytes",
          "name": "",
          "type": "bytes"
        }
      ],
      "name": "safeTransferFrom",
      "outputs": [],
      "stateMutability": "nonpayable",
      "type": "function"
    },
    {
      "inputs": [
        {
          "internalType": "address",
          "name": "operator",
          "type": "address"
        },
        {
          "internalType": "bool",
          "name": "approved",
          "type": "bool"
        }
      ],
      "name": "setApprovalForAll",
      "outputs": [],
      "stateMutability": "nonpayable",
      "type": "function"
    },
    {
      "inputs": [
        {
          "internalType": "string",
          "name": "guildEnsName",
          "type": "string"
        },
        {
          "internalType": "address",
          "name": "fallbackResolver",
          "type": "address"
        }
      ],
      "name": "setFallbackResolver",
      "outputs": [],
      "stateMutability": "nonpayable",
      "type": "function"
    },
    {
      "inputs": [
        {
          "internalType": "bytes32",
          "name": "guildEnsNode",
          "type": "bytes32"
        },
        {
          "internalType": "address",
          "name": "fallbackResolver",
          "type": "address"
        }
      ],
      "name": "setFallbackResolver",
      "outputs": [],
      "stateMutability": "nonpayable",
      "type": "function"
    },
    {
      "inputs": [
        {
          "internalType": "bytes32",
          "name": "guildEnsNode",
          "type": "bytes32"
        },
        {
          "internalType": "bool",
          "name": "active",
          "type": "bool"
        }
      ],
      "name": "setGuildActive",
      "outputs": [],
      "stateMutability": "nonpayable",
      "type": "function"
    },
    {
      "inputs": [
        {
          "internalType": "string",
          "name": "guildEnsName",
          "type": "string"
        },
        {
          "internalType": "bool",
          "name": "active",
          "type": "bool"
        }
      ],
      "name": "setGuildActive",
      "outputs": [],
      "stateMutability": "nonpayable",
      "type": "function"
    },
    {
      "inputs": [
        {
          "internalType": "string",
          "name": "guildEnsName",
          "type": "string"
        },
        {
          "internalType": "string",
          "name": "uri",
          "type": "string"
        }
      ],
      "name": "setGuildTokenUri",
      "outputs": [],
      "stateMutability": "nonpayable",
      "type": "function"
    },
    {
      "inputs": [
        {
          "internalType": "bytes32",
          "name": "guildEnsNode",
          "type": "bytes32"
        },
        {
          "internalType": "string",
          "name": "uri",
          "type": "string"
        }
      ],
      "name": "setGuildTokenUri",
      "outputs": [],
      "stateMutability": "nonpayable",
      "type": "function"
    },
    {
      "inputs": [
        {
          "internalType": "bytes4",
          "name": "interfaceId",
          "type": "bytes4"
        }
      ],
      "name": "supportsInterface",
      "outputs": [
        {
          "internalType": "bool",
          "name": "",
          "type": "bool"
        }
      ],
      "stateMutability": "view",
      "type": "function"
    },
    {
      "inputs": [
        {
          "internalType": "string",
          "name": "guildEnsName",
          "type": "string"
        },
        {
          "internalType": "string",
          "name": "tag",
          "type": "string"
        }
      ],
      "name": "tagOwner",
      "outputs": [
        {
          "internalType": "address",
          "name": "",
          "type": "address"
        }
      ],
      "stateMutability": "view",
      "type": "function"
    },
    {
      "inputs": [
        {
          "internalType": "bytes32",
          "name": "guildEnsNode",
          "type": "bytes32"
        },
        {
          "internalType": "bytes32",
          "name": "tagHash",
          "type": "bytes32"
        }
      ],
      "name": "tagOwner",
      "outputs": [
        {
          "internalType": "address",
          "name": "",
          "type": "address"
        }
      ],
      "stateMutability": "view",
      "type": "function"
    },
    {
      "inputs": [
        {
          "internalType": "string",
          "name": "guildEnsName",
          "type": "string"
        },
        {
          "internalType": "address",
          "name": "newAdmin",
          "type": "address"
        }
      ],
      "name": "transferGuildAdmin",
      "outputs": [],
      "stateMutability": "nonpayable",
      "type": "function"
    },
    {
      "inputs": [
        {
          "internalType": "bytes32",
          "name": "guildEnsNode",
          "type": "bytes32"
        },
        {
          "internalType": "address",
          "name": "newAdmin",
          "type": "address"
        }
      ],
      "name": "transferGuildAdmin",
      "outputs": [],
      "stateMutability": "nonpayable",
      "type": "function"
    },
    {
      "inputs": [
        {
          "internalType": "string",
          "name": "guildEnsName",
          "type": "string"
        },
        {
          "internalType": "string",
          "name": "tag",
          "type": "string"
        },
        {
          "internalType": "address",
          "name": "recipient",
          "type": "address"
        },
        {
          "internalType": "bytes",
          "name": "extraTransferArgs",
          "type": "bytes"
        }
      ],
      "name": "transferGuildTag",
      "outputs": [],
      "stateMutability": "nonpayable",
      "type": "function"
    },
    {
      "inputs": [
        {
          "internalType": "bytes32",
          "name": "guildEnsNode",
          "type": "bytes32"
        },
        {
          "internalType": "string",
          "name": "tag",
          "type": "string"
        },
        {
          "internalType": "address",
          "name": "recipient",
          "type": "address"
        },
        {
          "internalType": "bytes",
          "name": "extraTransferArgs",
          "type": "bytes"
        }
      ],
      "name": "transferGuildTag",
      "outputs": [],
      "stateMutability": "nonpayable",
      "type": "function"
    },
    {
      "inputs": [
        {
          "internalType": "string",
          "name": "guildEnsName",
          "type": "string"
        },
        {
          "internalType": "address",
          "name": "feePolicy",
          "type": "address"
        }
      ],
      "name": "updateGuildFeePolicy",
      "outputs": [],
      "stateMutability": "nonpayable",
      "type": "function"
    },
    {
      "inputs": [
        {
          "internalType": "bytes32",
          "name": "guildEnsNode",
          "type": "bytes32"
        },
        {
          "internalType": "address",
          "name": "feePolicy",
          "type": "address"
        }
      ],
      "name": "updateGuildFeePolicy",
      "outputs": [],
      "stateMutability": "nonpayable",
      "type": "function"
    },
    {
      "inputs": [
        {
          "internalType": "string",
          "name": "guildEnsName",
          "type": "string"
        },
        {
          "internalType": "address",
          "name": "tagsAuthPolicy",
          "type": "address"
        }
      ],
      "name": "updateGuildTagsAuthPolicy",
      "outputs": [],
      "stateMutability": "nonpayable",
      "type": "function"
    },
    {
      "inputs": [
        {
          "internalType": "bytes32",
          "name": "guildEnsNode",
          "type": "bytes32"
        },
        {
          "internalType": "address",
          "name": "tagsAuthPolicy",
          "type": "address"
        }
      ],
      "name": "updateGuildTagsAuthPolicy",
      "outputs": [],
      "stateMutability": "nonpayable",
      "type": "function"
    },
    {
      "inputs": [
        {
          "internalType": "uint256",
          "name": "tokenId",
          "type": "uint256"
        }
      ],
      "name": "uri",
      "outputs": [
        {
          "internalType": "string",
          "name": "",
          "type": "string"
        }
      ],
      "stateMutability": "view",
      "type": "function"
    }
  ],
  "transactionHash": "0x93680585ab95d64de0a20c3f80bc8ddad66f4c48d78f242289e956e8a36d7728",
  "args": [
    "https://storage.googleapis.com/ens-guilds-xrdfqt4bpw4tkzxjn/default_metadata.json",
    "0x00000000000C2E074eC69A0dFb2997BA6C7d2e1e",
    "0xD4416b13d2b3a9aBae7AcD5D6C2BbDBE25686401",
    "0xd0830241E5C79b4dA4D7eD1ADA429DD1fEa7781e",
    "0xc17cB209D5aBdb2d00f566a1E48F558DEBC264E1"
  ],
  "numDeployments": 1,
  "solcInputHash": "7331d540f29a35a261d4daf89b5d421d",
  "bytecode": "0x60e06040523480156200001157600080fd5b5060405162005365380380620053658339810160408190526200003491620001ca565b838186620000428162000177565b50600160049081556040516302571be360e01b81526000916001600160a01b038516916302571be3916200009c917f91d1777781884d03a6757a803996e38de2a42967fb37eeaca72729271025a9e2910190815260200190565b602060405180830381865afa158015620000ba573d6000803e3d6000fd5b505050506040513d601f19601f82011682018060405250810190620000e09190620002ea565b604051630f41a04d60e11b81526001600160a01b03848116600483015291925090821690631e83409a906024016020604051808303816000875af11580156200012d573d6000803e3d6000fd5b505050506040513d601f19601f8201168201806040525081019062000153919062000311565b5050506001600160a01b03948516608052505090821660a0521660c0525062000486565b6002620001858282620003ba565b5050565b634e487b7160e01b600052604160045260246000fd5b6001600160a01b0381168114620001b557600080fd5b50565b8051620001c5816200019f565b919050565b600080600080600060a08688031215620001e357600080fd5b85516001600160401b0380821115620001fb57600080fd5b818801915088601f8301126200021057600080fd5b81518181111562000225576200022562000189565b604051601f8201601f19908116603f0116810190838211818310171562000250576200025062000189565b81604052828152602093508b848487010111156200026d57600080fd5b600091505b8282101562000291578482018401518183018501529083019062000272565b6000848483010152809950505050620002ac818901620001b8565b95505050620002be60408701620001b8565b9250620002ce60608701620001b8565b9150620002de60808701620001b8565b90509295509295909350565b600060208284031215620002fd57600080fd5b81516200030a816200019f565b9392505050565b6000602082840312156200032457600080fd5b5051919050565b600181811c908216806200034057607f821691505b6020821081036200036157634e487b7160e01b600052602260045260246000fd5b50919050565b601f821115620003b557600081815260208120601f850160051c81016020861015620003905750805b601f850160051c820191505b81811015620003b1578281556001016200039c565b5050505b505050565b81516001600160401b03811115620003d657620003d662000189565b620003ee81620003e784546200032b565b8462000367565b602080601f8311600181146200042657600084156200040d5750858301515b600019600386901b1c1916600185901b178555620003b1565b600085815260208120601f198616915b82811015620004575788860151825594840194600190910190840162000436565b5085821015620004765787850151600019600388901b60f8161c191681555b5050505050600190811b01905550565b60805160a05160c051614e466200051f600039600081816110780152818161110e015281816111490152818161150a015281816118c001528181611db50152818161213d015281816124f70152613101015260008181610b2501528181610b7201528181610c600152612a00015260008181610ab401528181610d2701528181610e7801528181611f0b0152612a7f0152614e466000f3fe6080604052600436106102845760003560e01c806380ceca5a11610153578063c7b7b660116100cb578063e985e9c51161007f578063f242432a11610064578063f242432a14610828578063f886a32e14610848578063fdfb410c1461086857600080fd5b8063e985e9c5146107b3578063f23a6e61146107fc57600080fd5b8063d919713f116100b0578063d919713f146106b4578063dc94472014610773578063defa45af1461079357600080fd5b8063c7b7b66014610674578063d4ec5bbc1461069457600080fd5b8063a22cb46511610122578063bb2b1e8211610107578063bb2b1e82146105fc578063bc197c811461061c578063c31fcace1461066157600080fd5b8063a22cb465146105bc578063a4c28248146105dc57600080fd5b806380ceca5a146105495780638308af031461055c5780638a86edba1461057c5780639c9925f51461059c57600080fd5b80634c4cc36f116102015780636cea75cc116101b5578063784609f81161019a578063784609f8146104e95780637c18c56e146105095780637e6536121461052957600080fd5b80636cea75cc146104a9578063734d3348146104c957600080fd5b8063516877f6116101e6578063516877f614610456578063620440e8146104765780636913ba891461048957600080fd5b80634c4cc36f146104095780634e1273f41461042957600080fd5b806310c68cd811610258578063348f18f71161023d578063348f18f7146103a95780633a6cf220146103c95780633f774c4d146103e957600080fd5b806310c68cd8146103675780632eb2c2d61461038957600080fd5b8062fdd58e1461028957806301ffc9a7146102bc578063022c977f146102ec5780630e89341c1461033a575b600080fd5b34801561029557600080fd5b506102a96102a4366004613bba565b610888565b6040519081526020015b60405180910390f35b3480156102c857600080fd5b506102dc6102d7366004613bfc565b610934565b60405190151581526020016102b3565b3480156102f857600080fd5b50610322610307366004613c19565b6000908152600560205260409020546001600160a01b031690565b6040516001600160a01b0390911681526020016102b3565b34801561034657600080fd5b5061035a610355366004613c19565b610987565b6040516102b39190613c82565b34801561037357600080fd5b50610387610382366004613cde565b610a4f565b005b34801561039557600080fd5b506103876103a4366004613eb7565b6111e8565b3480156103b557600080fd5b506103876103c4366004613f65565b61128a565b3480156103d557600080fd5b506103876103e4366004613fbc565b6112dd565b3480156103f557600080fd5b50610387610404366004613f65565b611338565b34801561041557600080fd5b5061038761042436600461406b565b611385565b34801561043557600080fd5b506104496104443660046140f9565b611642565b6040516102b39190614201565b34801561046257600080fd5b50610387610471366004614214565b611780565b610387610484366004613fbc565b6117d9565b34801561049557600080fd5b506103226104a436600461428f565b61182a565b3480156104b557600080fd5b506103876104c4366004613f65565b611853565b3480156104d557600080fd5b506103226104e43660046142e9565b6118a0565b3480156104f557600080fd5b50610387610504366004614319565b611933565b34801561051557600080fd5b50610387610524366004614349565b611a2f565b34801561053557600080fd5b506103876105443660046143b5565b611a7d565b61038761055736600461443c565b611ace565b34801561056857600080fd5b506103876105773660046144cd565b611b5e565b34801561058857600080fd5b50610387610597366004613f65565b611bab565b3480156105a857600080fd5b506103876105b7366004614519565b611bf4565b3480156105c857600080fd5b506103876105d736600461453e565b611d0b565b3480156105e857600080fd5b506103876105f7366004614519565b611d1a565b34801561060857600080fd5b5061032261061736600461456c565b611e0d565b34801561062857600080fd5b50610648610637366004613eb7565b63bc197c8160e01b95945050505050565b6040516001600160e01b031990911681526020016102b3565b61038761066f36600461406b565b611e39565b34801561068057600080fd5b5061038761068f3660046145a9565b6121f9565b3480156106a057600080fd5b506103876106af366004614519565b612331565b3480156106c057600080fd5b506107286106cf366004613c19565b60056020526000908152604090208054600182015460028301546003909301546001600160a01b0392831693918316929182169181169060ff600160a01b8204811691600160a81b8104821691600160b01b9091041687565b604080516001600160a01b0398891681529688166020880152948716948601949094529490911660608401521515608083015291151560a082015290151560c082015260e0016102b3565b34801561077f57600080fd5b5061038761078e366004614623565b612403565b34801561079f57600080fd5b506103876107ae366004613c19565b61246c565b3480156107bf57600080fd5b506102dc6107ce36600461468c565b6001600160a01b03918216600090815260016020908152604080832093909416825291909152205460ff1690565b34801561080857600080fd5b506106486108173660046146ba565b63f23a6e6160e01b95945050505050565b34801561083457600080fd5b506103876108433660046146ba565b6126db565b34801561085457600080fd5b50610387610863366004614723565b6126f4565b34801561087457600080fd5b50610387610883366004614519565b6127b5565b60006001600160a01b03831661090b5760405162461bcd60e51b815260206004820152602a60248201527f455243313135353a2061646472657373207a65726f206973206e6f742061207660448201527f616c6964206f776e65720000000000000000000000000000000000000000000060648201526084015b60405180910390fd5b506000818152602081815260408083206001600160a01b03861684529091529020545b92915050565b60006001600160e01b031982166301d37a4160e51b14806109595750610959826128cc565b806109685750610968826128d7565b8061092e57506301ffc9a760e01b6001600160e01b031983161461092e565b600081815260036020526040902080546060919081906109a69061476f565b159050610a3f578080546109b99061476f565b80601f01602080910402602001604051908101604052809291908181526020018280546109e59061476f565b8015610a325780601f10610a0757610100808354040283529160200191610a32565b820191906000526020600020905b815481529060010190602001808311610a1557829003601f168201915b5050505050915050919050565b610a48836128fc565b9392505050565b6000610a9086868080601f01602080910402602001604051908101604052809392919081815260200183838082843760009201919091525061299092505050565b6040516302571be360e01b8152600481018290529091506000906001600160a01b037f000000000000000000000000000000000000000000000000000000000000000016906302571be390602401602060405180830381865afa158015610afb573d6000803e3d6000fd5b505050506040513d601f19601f82011682018060405250810190610b1f91906147a9565b905060007f00000000000000000000000000000000000000000000000000000000000000006001600160a01b0316826001600160a01b031603610bec576040516331a9108f60e11b8152600481018490527f00000000000000000000000000000000000000000000000000000000000000006001600160a01b031690636352211e90602401602060405180830381865afa158015610bc1573d6000803e3d6000fd5b505050506040513d601f19601f82011682018060405250810190610be591906147a9565b9150600190505b6001600160a01b0382163314610c15576040516326fdee4b60e11b815260040160405180910390fd5b6000838152600560205260409020600101546001600160a01b031615610c4e57604051630ea075bf60e21b815260040160405180910390fd5b808015610cf657506001600160a01b037f00000000000000000000000000000000000000000000000000000000000000001663e985e9c5336040516001600160e01b031960e084901b1681526001600160a01b039091166004820152306024820152604401602060405180830381865afa158015610cd0573d6000803e3d6000fd5b505050506040513d601f19601f82011682018060405250810190610cf491906147c6565b155b15610d1457604051636fd1a8ab60e01b815260040160405180910390fd5b80158015610dbd57506001600160a01b037f00000000000000000000000000000000000000000000000000000000000000001663e985e9c5336040516001600160e01b031960e084901b1681526001600160a01b039091166004820152306024820152604401602060405180830381865afa158015610d97573d6000803e3d6000fd5b505050506040513d601f19601f82011682018060405250810190610dbb91906147c6565b155b15610ddb57604051636fd1a8ab60e01b815260040160405180910390fd5b610df56001600160a01b038616632d286e3f60e11b61299d565b610e1d5760405163592e05dd60e11b81526001600160a01b0386166004820152602401610902565b610e376001600160a01b0385166319e733b360e11b61299d565b610e5f5760405163592e05dd60e11b81526001600160a01b0385166004820152602401610902565b604051630178b8bf60e01b8152600481018490526000907f00000000000000000000000000000000000000000000000000000000000000006001600160a01b031690630178b8bf90602401602060405180830381865afa158015610ec7573d6000803e3d6000fd5b505050506040513d601f19601f82011682018060405250810190610eeb91906147a9565b90506040518060e00160405280886001600160a01b03168152602001876001600160a01b03168152602001866001600160a01b03168152602001826001600160a01b031681526020016001151581526020016000151581526020018315158152506005600086815260200190815260200160002060008201518160000160006101000a8154816001600160a01b0302191690836001600160a01b0316021790555060208201518160010160006101000a8154816001600160a01b0302191690836001600160a01b0316021790555060408201518160020160006101000a8154816001600160a01b0302191690836001600160a01b0316021790555060608201518160030160006101000a8154816001600160a01b0302191690836001600160a01b0316021790555060808201518160030160146101000a81548160ff02191690831515021790555060a08201518160030160156101000a81548160ff02191690831515021790555060c08201518160030160166101000a81548160ff0219169083151502179055509050507f00000000000000000000000000000000000000000000000000000000000000006001600160a01b03166326caf2ce85836040518363ffffffff1660e01b81526004016110d69291909182526001600160a01b0316602082015260400190565b600060405180830381600087803b1580156110f057600080fd5b505af1158015611104573d6000803e3d6000fd5b50505050611132847f00000000000000000000000000000000000000000000000000000000000000006129b9565b60405163ce52b7ff60e01b81526001600160a01b037f0000000000000000000000000000000000000000000000000000000000000000169063ce52b7ff90611180908c908c9060040161480c565b600060405180830381600087803b15801561119a57600080fd5b505af11580156111ae573d6000803e3d6000fd5b50506040518692507f10906fae603eebfac53ddc0f103bee8a044dd7643c425c7a90f921dfa15ef62c9150600090a2505050505050505050565b6001600160a01b038516331480611204575061120485336107ce565b6112765760405162461bcd60e51b815260206004820152602e60248201527f455243313135353a2063616c6c6572206973206e6f7420746f6b656e206f776e60448201527f6572206f7220617070726f7665640000000000000000000000000000000000006064820152608401610902565b6112838585858585612aae565b5050505050565b60006112cb84848080601f01602080910402602001604051908101604052809392919081815260200183838082843760009201919091525061299092505050565b90506112d78183612331565b50505050565b600061131e88888080601f01602080910402602001604051908101604052809392919081815260200183838082843760009201919091525061299092505050565b905061132e818787878787611385565b5050505050505050565b600061137984848080601f01602080910402602001604051908101604052809392919081815260200183838082843760009201919091525061299092505050565b90506112d781836127b5565b61138d612d19565b6000868152600560205260409020600301548690600160a01b900460ff1615806113cf5750600081815260056020526040902060030154600160a81b900460ff165b156113ed57604051634db8e46160e01b815260040160405180910390fd5b600086866040516113ff929190614820565b60405180910390209050600061141589836118a0565b90506001600160a01b03811661143e576040516308b8bf8960e11b815260040160405180910390fd5b6000898152600560205260409020600201546001600160a01b03168063acdbdda18b8b8b33878d8d8d6040518963ffffffff1660e01b815260040161148a989796959493929190614830565b602060405180830381865afa1580156114a7573d6000803e3d6000fd5b505050506040513d601f19601f820116820180604052508101906114cb91906147c6565b6114e8576040516308b8bf8960e11b815260040160405180910390fd5b6114f38a8389612d72565b60405163bf6c19b360e01b81526001600160a01b037f0000000000000000000000000000000000000000000000000000000000000000169063bf6c19b390611545908d908d908d908d9060040161488b565b600060405180830381600087803b15801561155f57600080fd5b505af1158015611573573d6000803e3d6000fd5b50505050806001600160a01b031663d4f1d4e58b8b8b6115903390565b878d6040518763ffffffff1660e01b81526004016115b3969594939291906148bf565b600060405180830381600087803b1580156115cd57600080fd5b505af11580156115e1573d6000803e3d6000fd5b5050604080516001600160a01b0380871682528b1660208201528693508d92507fe71b261687fde74a108e8198965b544c08212303ab125c590a2045b7c644b7b3910160405180910390a35050505061163a6001600455565b505050505050565b606081518351146116bb5760405162461bcd60e51b815260206004820152602960248201527f455243313135353a206163636f756e747320616e6420696473206c656e67746860448201527f206d69736d6174636800000000000000000000000000000000000000000000006064820152608401610902565b6000835167ffffffffffffffff8111156116d7576116d7613d5b565b604051908082528060200260200182016040528015611700578160200160208202803683370190505b50905060005b84518110156117785761174b85828151811061172457611724614904565b602002602001015185838151811061173e5761173e614904565b6020026020010151610888565b82828151811061175d5761175d614904565b602090810291909101015261177181614930565b9050611706565b509392505050565b60006117c187878080601f01602080910402602001604051908101604052809392919081815260200183838082843760009201919091525061299092505050565b90506117d081868686866121f9565b50505050505050565b600061181a88888080601f01602080910402602001604051908101604052809392919081815260200183838082843760009201919091525061299092505050565b905061132e818787878787611e39565b60008061183684612990565b8351602085012090915061184a82826118a0565b95945050505050565b600061189484848080601f01602080910402602001604051908101604052809392919081815260200183838082843760009201919091525061299092505050565b90506112d78183611d1a565b604051634bb5861760e11b815260048101839052602481018290526000907f00000000000000000000000000000000000000000000000000000000000000006001600160a01b03169063976b0c2e90604401602060405180830381865afa15801561190f573d6000803e3d6000fd5b505050506040513d601f19601f82011682018060405250810190610a4891906147a9565b60008281526005602052604090205482906001600160a01b0316331461196c57604051630e64a9cf60e21b815260040160405180910390fd5b6000838152600560205260409020600301548390600160a81b900460ff16156119a857604051634db8e46160e01b815260040160405180910390fd5b600084815260056020526040908190206003018054851515600160a01b027fffffffffffffffffffffff00ffffffffffffffffffffffffffffffffffffffff9091161790555184907fcddecc2f17a0c961cfad3af69d94ee8d5ece1542dc95fd53f898ab77781272c490611a2190861515815260200190565b60405180910390a250505050565b6000611a7085858080601f01602080910402602001604051908101604052809392919081815260200183838082843760009201919091525061299092505050565b90506112838184846126f4565b6000611abe83838080601f01602080910402602001604051908101604052809392919081815260200183838082843760009201919091525061299092505050565b9050611ac98161246c565b505050565b60005b8581101561132e57611b4c88888884818110611aef57611aef614904565b9050602002810190611b019190614949565b888886818110611b1357611b13614904565b9050602002016020810190611b289190614990565b878787818110611b3a57611b3a614904565b905060200281019061066f9190614949565b80611b5681614930565b915050611ad1565b6000611b9f84848080601f01602080910402602001604051908101604052809392919081815260200183838082843760009201919091525061299092505050565b90506112d78183611933565b6000611bec84848080601f01602080910402602001604051908101604052809392919081815260200183838082843760009201919091525061299092505050565b90506112d781835b60008281526005602052604090205482906001600160a01b03163314611c2d57604051630e64a9cf60e21b815260040160405180910390fd5b6000838152600560205260409020600301548390600160a81b900460ff1615611c6957604051634db8e46160e01b815260040160405180910390fd5b611c836001600160a01b038416632d286e3f60e11b61299d565b611cab5760405163592e05dd60e11b81526001600160a01b0384166004820152602401610902565b60008481526005602090815260409182902060010180546001600160a01b0319166001600160a01b038716908117909155915191825285917fe3e6191059989ec6f70a99fca0dfbb5c0cac787bba9232a0f364180133d3e7159101611a21565b611d16338383612d92565b5050565b60008281526005602052604090205482906001600160a01b03163314611d5357604051630e64a9cf60e21b815260040160405180910390fd5b6000838152600560205260409020600301548390600160a81b900460ff1615611d8f57604051634db8e46160e01b815260040160405180910390fd5b604051631365796760e11b8152600481018590526001600160a01b0384811660248301527f000000000000000000000000000000000000000000000000000000000000000016906326caf2ce90604401600060405180830381600087803b158015611df957600080fd5b505af115801561132e573d6000803e3d6000fd5b600080611e1983612990565b6000818152600560205260409020549091506001600160a01b0316610a48565b611e41612d19565b6000868152600560205260409020600301548690600160a01b900460ff161580611e835750600081815260056020526040902060030154600160a81b900460ff165b15611ea157604051634db8e46160e01b815260040160405180910390fd5b60008686604051611eb3929190614820565b60408051918290038220602083018b9052908201819052915060009060600160408051808303601f190181529082905280516020909101206302571be360e01b82526004820181905291506000906001600160a01b037f000000000000000000000000000000000000000000000000000000000000000016906302571be390602401602060405180830381865afa158015611f52573d6000803e3d6000fd5b505050506040513d601f19601f82011682018060405250810190611f7691906147a9565b6001600160a01b031614611f9d57604051630344c41960e11b815260040160405180910390fd5b6000611fa98a846118a0565b6001600160a01b031614611fd057604051630344c41960e11b815260040160405180910390fd5b6000898152600560205260409020600201546001600160a01b031680630910b77f8b8b8b338c8c8c6040518863ffffffff1660e01b815260040161201a97969594939291906149ad565b602060405180830381865afa158015612037573d6000803e3d6000fd5b505050506040513d601f19601f8201168201806040525081019061205b91906147c6565b612078576040516302b7adcd60e11b815260040160405180910390fd5b6120858a8a8a8989612e86565b61208f8a8861308f565b6040516314ac9f2d60e11b81526000906001600160a01b038316906329593e5a906120ca908e908e908e9033908f908f908f906004016149ad565b6000604051808303816000875af11580156120e9573d6000803e3d6000fd5b505050506040513d6000823e601f3d908101601f1916820160405261211191908101906149ff565b90508051600014612126576121268b826130ae565b60405163bf6c19b360e01b81526001600160a01b037f0000000000000000000000000000000000000000000000000000000000000000169063bf6c19b390612178908e908e908e908e9060040161488b565b600060405180830381600087803b15801561219257600080fd5b505af11580156121a6573d6000803e3d6000fd5b50506040516001600160a01b038b1681528692508d91507fe8a6fa6264fd384a35210116a2a84bba9f414551a0c0a794dacbf8092d8e99b19060200160405180910390a3505050505061163a6001600455565b612201612d19565b6000858152600560205260409020600301548590600160a81b900460ff161561223d57604051634db8e46160e01b815260040160405180910390fd5b600086815260056020526040902060028101546001600160a01b03168063fda41c10338a8a8a8a8a6040518763ffffffff1660e01b815260040161228696959493929190614a81565b602060405180830381865afa1580156122a3573d6000803e3d6000fd5b505050506040513d601f19601f820116820180604052508101906122c791906147c6565b6122e45760405163645b259360e11b815260040160405180910390fd5b6123248888888080601f0160208091040260200160405190810160405280939291908181526020018383808284376000920191909152506130ae92505050565b5050506112836001600455565b60008281526005602052604090205482906001600160a01b0316331461236a57604051630e64a9cf60e21b815260040160405180910390fd5b6000838152600560205260409020600301548390600160a81b900460ff16156123a657604051634db8e46160e01b815260040160405180910390fd5b60008481526005602090815260409182902080546001600160a01b0319166001600160a01b038716908117909155915191825285917f44ae681d782ebebc775c8c23cc18621486d68ac94ae4a8271f59892d6c8cec239101611a21565b60005b8381101561163a5761245a8686868481811061242457612424614904565b90506020028101906124369190614949565b86868681811061244857612448614904565b905060200281019061068f9190614949565b8061246481614930565b915050612406565b60008181526005602052604090205481906001600160a01b031633146124a557604051630e64a9cf60e21b815260040160405180910390fd5b6000828152600560205260409020600301548290600160a81b900460ff16156124e157604051634db8e46160e01b815260040160405180910390fd5b6040516302284b7f60e61b8152600481018490527f00000000000000000000000000000000000000000000000000000000000000006001600160a01b031690638a12dfc090602401600060405180830381600087803b15801561254357600080fd5b505af1158015612557573d6000803e3d6000fd5b5050506000848152600560205260409020600301546001600160a01b0316905061258184826129b9565b6040805160e081018252600080825260208083018281528385018381526060850184815260808601858152600160a0880181815260c089018881528e89526005909752898820985189546001600160a01b039182166001600160a01b0319918216178b559651928a01805493821693881693909317909255935160028901805491831691909616179094559051600390960180549151925194511515600160b01b027fffffffffffffffffff00ffffffffffffffffffffffffffffffffffffffffffff951515600160a81b02959095167fffffffffffffffffff0000ffffffffffffffffffffffffffffffffffffffffff931515600160a01b027fffffffffffffffffffffff000000000000000000000000000000000000000000909316979094169690961717161717909155905185917fa8167a993f10ce22abac512a74e81171d978a9d52acc66d0a46d3ff05f21ca0b91a250505050565b6040516338730eb560e11b815260040160405180910390fd5b60008381526005602052604090205483906001600160a01b0316331461272d57604051630e64a9cf60e21b815260040160405180910390fd5b6000848152600560205260409020600301548490600160a81b900460ff161561276957604051634db8e46160e01b815260040160405180910390fd5b612774858585613231565b847f1e982e37f016db65d783b0f7dff625aa83511e58ddbdd7b45a5ea9d510abe35585856040516127a692919061480c565b60405180910390a25050505050565b60008281526005602052604090205482906001600160a01b031633146127ee57604051630e64a9cf60e21b815260040160405180910390fd5b6000838152600560205260409020600301548390600160a81b900460ff161561282a57604051634db8e46160e01b815260040160405180910390fd5b6128446001600160a01b0384166319e733b360e11b61299d565b61286c5760405163592e05dd60e11b81526001600160a01b0384166004820152602401610902565b60008481526005602090815260409182902060020180546001600160a01b0319166001600160a01b038716908117909155915191825285917f276dcdaae75cd5831871106265565c93b5a5ba18286a11f7f661826476a89e5d9101611a21565b600061092e8261324a565b60006001600160e01b03198216630271189760e51b148061092e575061092e826128cc565b60606002805461290b9061476f565b80601f01602080910402602001604051908101604052809291908181526020018280546129379061476f565b80156129845780601f1061295957610100808354040283529160200191612984565b820191906000526020600020905b81548152906001019060200180831161296757829003601f168201915b50505050509050919050565b600061092e826000613299565b60006129a883613313565b8015610a485750610a488383613346565b600082815260056020526040902060030154600160b01b900460ff1615612a5957604051630c4b7b8560e11b8152600481018390526001600160a01b0382811660248301527f00000000000000000000000000000000000000000000000000000000000000001690631896f70a906044015b600060405180830381600087803b158015612a4557600080fd5b505af115801561163a573d6000803e3d6000fd5b604051630c4b7b8560e11b8152600481018390526001600160a01b0382811660248301527f00000000000000000000000000000000000000000000000000000000000000001690631896f70a90604401612a2b565b8151835114612b255760405162461bcd60e51b815260206004820152602860248201527f455243313135353a2069647320616e6420616d6f756e7473206c656e6774682060448201527f6d69736d617463680000000000000000000000000000000000000000000000006064820152608401610902565b6001600160a01b038416612b895760405162461bcd60e51b815260206004820152602560248201527f455243313135353a207472616e7366657220746f20746865207a65726f206164604482015264647265737360d81b6064820152608401610902565b3360005b8451811015612cb3576000858281518110612baa57612baa614904565b602002602001015190506000858381518110612bc857612bc8614904565b602090810291909101810151600084815280835260408082206001600160a01b038e168352909352919091205490915081811015612c5b5760405162461bcd60e51b815260206004820152602a60248201527f455243313135353a20696e73756666696369656e742062616c616e636520666f60448201526939103a3930b739b332b960b11b6064820152608401610902565b6000838152602081815260408083206001600160a01b038e8116855292528083208585039055908b16825281208054849290612c98908490614aca565b9250508190555050505080612cac90614930565b9050612b8d565b50846001600160a01b0316866001600160a01b0316826001600160a01b03167f4a39dc06d4c0dbc64b70af90fd698a233a518aa5d07e595d983b8c0526c8f7fb8787604051612d03929190614add565b60405180910390a461163a8187878787876133e4565b600260045403612d6b5760405162461bcd60e51b815260206004820152601f60248201527f5265656e7472616e637947756172643a207265656e7472616e742063616c6c006044820152606401610902565b6002600455565b611ac982828560001c600160405180602001604052806000815250613589565b816001600160a01b0316836001600160a01b031603612e195760405162461bcd60e51b815260206004820152602960248201527f455243313135353a2073657474696e6720617070726f76616c2073746174757360448201527f20666f722073656c6600000000000000000000000000000000000000000000006064820152608401610902565b6001600160a01b03838116600081815260016020908152604080832094871680845294825291829020805460ff191686151590811790915591519182527f17307eab39ab6107e8899845ad3d59bd9653f200f220920489ca2b5937696c31910160405180910390a3505050565b600085815260056020526040812060010154819081906001600160a01b0316635a50dc7e898989338a8a6040518763ffffffff1660e01b8152600401612ed196959493929190614b02565b606060405180830381865afa158015612eee573d6000803e3d6000fd5b505050506040513d601f19601f82011682018060405250810190612f129190614b3e565b9250925092508160001461132e576001600160a01b038316612fc857813414612f4e576040516320c4d7fb60e21b815260040160405180910390fd5b6000816001600160a01b03163460405160006040518083038185875af1925050503d8060008114612f9b576040519150601f19603f3d011682016040523d82523d6000602084013e612fa0565b606091505b5050905080612fc2576040516320c4d7fb60e21b815260040160405180910390fd5b5061132e565b6001600160a01b0383166323b872dd336040516001600160e01b031960e084901b1681526001600160a01b0391821660048201529084166024820152604481018590526064016020604051808303816000875af1925050508015613049575060408051601f3d908101601f19168201909252613046918101906147c6565b60015b613066576040516320c4d7fb60e21b815260040160405180910390fd5b80613084576040516320c4d7fb60e21b815260040160405180910390fd5b505050505050505050565b611d16818360001c600160405180602001604052806000815250613729565b8051602082012060006130c184836118a0565b90506001600160a01b0381166130ea5760405163645b259360e11b815260040160405180910390fd5b60405163bf6c19b360e01b81526001600160a01b037f0000000000000000000000000000000000000000000000000000000000000000169063bf6c19b39061313b9087908790600090600401614b76565b600060405180830381600087803b15801561315557600080fd5b505af1158015613169573d6000803e3d6000fd5b505050506131778482613834565b6000848152600560205260409020600201546001600160a01b031680156131fd57604051639609fb1760e01b81526001600160a01b03821690639609fb17906131ca90339086908a908a90600401614ba8565b600060405180830381600087803b1580156131e457600080fd5b505af11580156131f8573d6000803e3d6000fd5b505050505b604051839086907f208d25d051d04de1de9bf0b973d43dcab4e9f7aad493f0768689beace7864e1790600090a35050505050565b60008381526003602052604090206112d7828483614c20565b60006001600160e01b03198216636cdb3d1360e11b148061096857506001600160e01b031982166303a24d0760e21b148061092e57506301ffc9a760e01b6001600160e01b031983161461092e565b6000818351116132ab5750600061092e565b60006132b78484613840565b90506132d7846132c78386614aca565b6132d2906001614aca565b613299565b6132e28585846138bb565b6040805160208101939093528201526060016040516020818303038152906040528051906020012091505092915050565b6000613326826301ffc9a760e01b613346565b801561092e575061333f826001600160e01b0319613346565b1592915050565b604080516001600160e01b03198316602480830191909152825180830390910181526044909101909152602080820180517bffffffffffffffffffffffffffffffffffffffffffffffffffffffff166301ffc9a760e01b178152825160009392849283928392918391908a617530fa92503d915060005190508280156133cd575060208210155b80156133d95750600081115b979650505050505050565b6001600160a01b0384163b1561163a5760405163bc197c8160e01b81526001600160a01b0385169063bc197c81906134289089908990889088908890600401614ce0565b6020604051808303816000875af1925050508015613463575060408051601f3d908101601f1916820190925261346091810190614d3e565b60015b6135185761346f614d5b565b806308c379a0036134a85750613483614d77565b8061348e57506134aa565b8060405162461bcd60e51b81526004016109029190613c82565b505b60405162461bcd60e51b815260206004820152603460248201527f455243313135353a207472616e7366657220746f206e6f6e2d4552433131353560448201527f526563656976657220696d706c656d656e7465720000000000000000000000006064820152608401610902565b6001600160e01b0319811663bc197c8160e01b146117d05760405162461bcd60e51b815260206004820152602860248201527f455243313135353a204552433131353552656365697665722072656a656374656044820152676420746f6b656e7360c01b6064820152608401610902565b6001600160a01b0384166135ed5760405162461bcd60e51b815260206004820152602560248201527f455243313135353a207472616e7366657220746f20746865207a65726f206164604482015264647265737360d81b6064820152608401610902565b3360006135f9856138df565b90506000613606856138df565b90506000868152602081815260408083206001600160a01b038c1684529091529020548581101561368c5760405162461bcd60e51b815260206004820152602a60248201527f455243313135353a20696e73756666696369656e742062616c616e636520666f60448201526939103a3930b739b332b960b11b6064820152608401610902565b6000878152602081815260408083206001600160a01b038d8116855292528083208985039055908a168252812080548892906136c9908490614aca565b909155505060408051888152602081018890526001600160a01b03808b16928c821692918816917fc3d58168c5ae7397731d063d5bbf3d657854427343f4c083240f7aacaa2d0f62910160405180910390a4613084848a8a8a8a8a61392a565b6001600160a01b0384166137895760405162461bcd60e51b815260206004820152602160248201527f455243313135353a206d696e7420746f20746865207a65726f206164647265736044820152607360f81b6064820152608401610902565b336000613795856138df565b905060006137a2856138df565b90506000868152602081815260408083206001600160a01b038b168452909152812080548792906137d4908490614aca565b909155505060408051878152602081018790526001600160a01b03808a1692600092918716917fc3d58168c5ae7397731d063d5bbf3d657854427343f4c083240f7aacaa2d0f62910160405180910390a46117d08360008989898961392a565b611d1681836001613a26565b6000805b83516138508285614aca565b141580156138a45750836138648285614aca565b8151811061387457613874614904565b6020910101517fff0000000000000000000000000000000000000000000000000000000000000016601760f91b14155b15610a4857806138b381614930565b915050613844565b82516000906138ca8385614aca565b11156138d557600080fd5b5091016020012090565b6040805160018082528183019092526060916000919060208083019080368337019050509050828160008151811061391957613919614904565b602090810291909101015292915050565b6001600160a01b0384163b1561163a5760405163f23a6e6160e01b81526001600160a01b0385169063f23a6e619061396e9089908990889088908890600401614e01565b6020604051808303816000875af19250505080156139a9575060408051601f3d908101601f191682019092526139a691810190614d3e565b60015b6139b55761346f614d5b565b6001600160e01b0319811663f23a6e6160e01b146117d05760405162461bcd60e51b815260206004820152602860248201527f455243313135353a204552433131353552656365697665722072656a656374656044820152676420746f6b656e7360c01b6064820152608401610902565b6001600160a01b038316613a885760405162461bcd60e51b815260206004820152602360248201527f455243313135353a206275726e2066726f6d20746865207a65726f206164647260448201526265737360e81b6064820152608401610902565b336000613a94846138df565b90506000613aa1846138df565b60408051602080820183526000918290528882528181528282206001600160a01b038b1683529052205490915084811015613b2a5760405162461bcd60e51b8152602060048201526024808201527f455243313135353a206275726e20616d6f756e7420657863656564732062616c604482015263616e636560e01b6064820152608401610902565b6000868152602081815260408083206001600160a01b038b81168086529184528285208a8703905582518b81529384018a90529092908816917fc3d58168c5ae7397731d063d5bbf3d657854427343f4c083240f7aacaa2d0f62910160405180910390a46040805160208101909152600090526117d0565b6001600160a01b0381168114613bb757600080fd5b50565b60008060408385031215613bcd57600080fd5b8235613bd881613ba2565b946020939093013593505050565b6001600160e01b031981168114613bb757600080fd5b600060208284031215613c0e57600080fd5b8135610a4881613be6565b600060208284031215613c2b57600080fd5b5035919050565b60005b83811015613c4d578181015183820152602001613c35565b50506000910152565b60008151808452613c6e816020860160208601613c32565b601f01601f19169290920160200192915050565b602081526000610a486020830184613c56565b60008083601f840112613ca757600080fd5b50813567ffffffffffffffff811115613cbf57600080fd5b602083019150836020828501011115613cd757600080fd5b9250929050565b600080600080600060808688031215613cf657600080fd5b853567ffffffffffffffff811115613d0d57600080fd5b613d1988828901613c95565b9096509450506020860135613d2d81613ba2565b92506040860135613d3d81613ba2565b91506060860135613d4d81613ba2565b809150509295509295909350565b634e487b7160e01b600052604160045260246000fd5b601f8201601f1916810167ffffffffffffffff81118282101715613d9757613d97613d5b565b6040525050565b600067ffffffffffffffff821115613db857613db8613d5b565b5060051b60200190565b600082601f830112613dd357600080fd5b81356020613de082613d9e565b604051613ded8282613d71565b83815260059390931b8501820192828101915086841115613e0d57600080fd5b8286015b84811015613e285780358352918301918301613e11565b509695505050505050565b600067ffffffffffffffff821115613e4d57613e4d613d5b565b50601f01601f191660200190565b600082601f830112613e6c57600080fd5b8135613e7781613e33565b604051613e848282613d71565b828152856020848701011115613e9957600080fd5b82602086016020830137600092810160200192909252509392505050565b600080600080600060a08688031215613ecf57600080fd5b8535613eda81613ba2565b94506020860135613eea81613ba2565b9350604086013567ffffffffffffffff80821115613f0757600080fd5b613f1389838a01613dc2565b94506060880135915080821115613f2957600080fd5b613f3589838a01613dc2565b93506080880135915080821115613f4b57600080fd5b50613f5888828901613e5b565b9150509295509295909350565b600080600060408486031215613f7a57600080fd5b833567ffffffffffffffff811115613f9157600080fd5b613f9d86828701613c95565b9094509250506020840135613fb181613ba2565b809150509250925092565b60008060008060008060006080888a031215613fd757600080fd5b873567ffffffffffffffff80821115613fef57600080fd5b613ffb8b838c01613c95565b909950975060208a013591508082111561401457600080fd5b6140208b838c01613c95565b909750955060408a0135915061403582613ba2565b9093506060890135908082111561404b57600080fd5b506140588a828b01613c95565b989b979a50959850939692959293505050565b6000806000806000806080878903121561408457600080fd5b86359550602087013567ffffffffffffffff808211156140a357600080fd5b6140af8a838b01613c95565b9097509550604089013591506140c482613ba2565b909350606088013590808211156140da57600080fd5b506140e789828a01613c95565b979a9699509497509295939492505050565b6000806040838503121561410c57600080fd5b823567ffffffffffffffff8082111561412457600080fd5b818501915085601f83011261413857600080fd5b8135602061414582613d9e565b6040516141528282613d71565b83815260059390931b850182019282810191508984111561417257600080fd5b948201945b8386101561419957853561418a81613ba2565b82529482019490820190614177565b965050860135925050808211156141af57600080fd5b506141bc85828601613dc2565b9150509250929050565b600081518084526020808501945080840160005b838110156141f6578151875295820195908201906001016141da565b509495945050505050565b602081526000610a4860208301846141c6565b6000806000806000806060878903121561422d57600080fd5b863567ffffffffffffffff8082111561424557600080fd5b6142518a838b01613c95565b9098509650602089013591508082111561426a57600080fd5b6142768a838b01613c95565b909650945060408901359150808211156140da57600080fd5b600080604083850312156142a257600080fd5b823567ffffffffffffffff808211156142ba57600080fd5b6142c686838701613e5b565b935060208501359150808211156142dc57600080fd5b506141bc85828601613e5b565b600080604083850312156142fc57600080fd5b50508035926020909101359150565b8015158114613bb757600080fd5b6000806040838503121561432c57600080fd5b82359150602083013561433e8161430b565b809150509250929050565b6000806000806040858703121561435f57600080fd5b843567ffffffffffffffff8082111561437757600080fd5b61438388838901613c95565b9096509450602087013591508082111561439c57600080fd5b506143a987828801613c95565b95989497509550505050565b600080602083850312156143c857600080fd5b823567ffffffffffffffff8111156143df57600080fd5b6143eb85828601613c95565b90969095509350505050565b60008083601f84011261440957600080fd5b50813567ffffffffffffffff81111561442157600080fd5b6020830191508360208260051b8501011115613cd757600080fd5b60008060008060008060006080888a03121561445757600080fd5b87359650602088013567ffffffffffffffff8082111561447657600080fd5b6144828b838c016143f7565b909850965060408a013591508082111561449b57600080fd5b6144a78b838c016143f7565b909650945060608a01359150808211156144c057600080fd5b506140588a828b016143f7565b6000806000604084860312156144e257600080fd5b833567ffffffffffffffff8111156144f957600080fd5b61450586828701613c95565b9094509250506020840135613fb18161430b565b6000806040838503121561452c57600080fd5b82359150602083013561433e81613ba2565b6000806040838503121561455157600080fd5b823561455c81613ba2565b9150602083013561433e8161430b565b60006020828403121561457e57600080fd5b813567ffffffffffffffff81111561459557600080fd5b6145a184828501613e5b565b949350505050565b6000806000806000606086880312156145c157600080fd5b85359450602086013567ffffffffffffffff808211156145e057600080fd5b6145ec89838a01613c95565b9096509450604088013591508082111561460557600080fd5b5061461288828901613c95565b969995985093965092949392505050565b60008060008060006060868803121561463b57600080fd5b85359450602086013567ffffffffffffffff8082111561465a57600080fd5b61466689838a016143f7565b9096509450604088013591508082111561467f57600080fd5b50614612888289016143f7565b6000806040838503121561469f57600080fd5b82356146aa81613ba2565b9150602083013561433e81613ba2565b600080600080600060a086880312156146d257600080fd5b85356146dd81613ba2565b945060208601356146ed81613ba2565b93506040860135925060608601359150608086013567ffffffffffffffff81111561471757600080fd5b613f5888828901613e5b565b60008060006040848603121561473857600080fd5b83359250602084013567ffffffffffffffff81111561475657600080fd5b61476286828701613c95565b9497909650939450505050565b600181811c9082168061478357607f821691505b6020821081036147a357634e487b7160e01b600052602260045260246000fd5b50919050565b6000602082840312156147bb57600080fd5b8151610a4881613ba2565b6000602082840312156147d857600080fd5b8151610a488161430b565b81835281816020850137506000828201602090810191909152601f909101601f19169091010190565b6020815260006145a16020830184866147e3565b8183823760009101908152919050565b88815260c06020820152600061484a60c08301898b6147e3565b6001600160a01b03888116604085015287811660608501528616608084015282810360a084015261487c8185876147e3565b9b9a5050505050505050505050565b8481526060602082015260006148a56060830185876147e3565b90506001600160a01b038316604083015295945050505050565b86815260a0602082015260006148d960a0830187896147e3565b6001600160a01b03958616604084015293851660608301525092166080909201919091529392505050565b634e487b7160e01b600052603260045260246000fd5b634e487b7160e01b600052601160045260246000fd5b6000600182016149425761494261491a565b5060010190565b6000808335601e1984360301811261496057600080fd5b83018035915067ffffffffffffffff82111561497b57600080fd5b602001915036819003821315613cd757600080fd5b6000602082840312156149a257600080fd5b8135610a4881613ba2565b87815260a0602082015260006149c760a08301888a6147e3565b6001600160a01b0387811660408501528616606084015282810360808401526149f18185876147e3565b9a9950505050505050505050565b600060208284031215614a1157600080fd5b815167ffffffffffffffff811115614a2857600080fd5b8201601f81018413614a3957600080fd5b8051614a4481613e33565b604051614a518282613d71565b828152866020848601011115614a6657600080fd5b614a77836020830160208701613c32565b9695505050505050565b6001600160a01b0387168152856020820152608060408201526000614aaa6080830186886147e3565b8281036060840152614abd8185876147e3565b9998505050505050505050565b8082018082111561092e5761092e61491a565b604081526000614af060408301856141c6565b828103602084015261184a81856141c6565b868152608060208201526000614b1c6080830187896147e3565b6001600160a01b03861660408401528281036060840152614abd8185876147e3565b600080600060608486031215614b5357600080fd5b8351614b5e81613ba2565b602085015160408601519194509250613fb181613ba2565b838152606060208201526000614b8f6060830185613c56565b90506001600160a01b0383166040830152949350505050565b60006001600160a01b03808716835280861660208401525083604083015260806060830152614a776080830184613c56565b601f821115611ac957600081815260208120601f850160051c81016020861015614c015750805b601f850160051c820191505b8181101561163a57828155600101614c0d565b67ffffffffffffffff831115614c3857614c38613d5b565b614c4c83614c46835461476f565b83614bda565b6000601f841160018114614c805760008515614c685750838201355b600019600387901b1c1916600186901b178355611283565b600083815260209020601f19861690835b82811015614cb15786850135825560209485019460019092019101614c91565b5086821015614cce5760001960f88860031b161c19848701351681555b505060018560011b0183555050505050565b60006001600160a01b03808816835280871660208401525060a06040830152614d0c60a08301866141c6565b8281036060840152614d1e81866141c6565b90508281036080840152614d328185613c56565b98975050505050505050565b600060208284031215614d5057600080fd5b8151610a4881613be6565b600060033d1115614d745760046000803e5060005160e01c5b90565b600060443d1015614d855790565b6040516003193d81016004833e81513d67ffffffffffffffff8160248401118184111715614db557505050505090565b8285019150815181811115614dcd5750505050505090565b843d8701016020828501011115614de75750505050505090565b614df660208286010187613d71565b509095945050505050565b60006001600160a01b03808816835280871660208401525084604083015283606083015260a060808301526133d960a0830184613c5656fea164736f6c6343000811000a",
  "libraries": {
    "ERC165Checker": "0x7EB821Aa0cA01198A9EC28ee9f5d7491508233e4",
    "StringParsing": "0xe0c9b7B08a9A409eA6537c8fb307CE6758CfEd16",
    "Strings": "0x572CbB4dbd1f3bB4E23Cc3d8F4460B3E6d871826",
    "NameEncoder": "0x2b1D7EE297A345fF0C57B3c3B0F34b59951756b1",
    "ENSNameHash": "0x969254c8EC87eF59BeB6F6eA928f1A00bb649Ecc",
    "ENSByteUtils": "0x4A44B0Af7483Eb232F606418Aa099ad453F95A02",
    "ENSParentName": "0xeE1CcD12e954bFD828EEb4Ca3B76cfE4cbc42C76"
  },
  "devdoc": {
    "kind": "dev",
    "methods": {
      "balanceOf(address,uint256)": {
        "details": "See {IERC1155-balanceOf}. Requirements: - `account` cannot be the zero address."
      },
      "balanceOfBatch(address[],uint256[])": {
        "details": "See {IERC1155-balanceOfBatch}. Requirements: - `accounts` and `ids` must have the same length."
      },
      "claimGuildTag(bytes32,string,address,bytes)": {
        "params": {
          "extraClaimArgs": "[Optional] Any additional arguments necessary for guild-specific logic,  such as authorization",
          "guildEnsNode": "The namehash of the guild for which the tag should be claimed (e.g. namehash('my-guild.eth'))",
          "recipient": "The address that will receive this guild tag (usually same as the caller)",
          "tag": "The tag name to claim (e.g. 'foo' for foo.my-guild.eth). Assumes `tag` is already normalized per ENS Name Processing rules"
        }
      },
      "claimGuildTag(string,string,address,bytes)": {
        "params": {
          "extraClaimArgs": "[Optional] Any additional arguments necessary for guild-specific logic,  such as authorization",
          "guildEnsName": "The guild's full domain name (e.g. 'my-guild.eth')",
          "recipient": "The address that will receive this guild tag (usually same as the caller)",
          "tag": "The tag to claim (e.g. 'foobar')"
        }
      },
      "claimGuildTagsBatch(bytes32,string[],address[],bytes[])": {
        "params": {
          "extraClaimArgs": "Per-tag extra arguments required for guild-specific logic, such as authorization. Must have same length as array of tagHashes, even if each array element is itself empty bytes",
          "guildEnsNode": "The ENS namehash of the guild's domain",
          "recipients": "Recipients of each tag to be claimed",
          "tags": "Tags to be claimed"
        }
      },
      "deregisterGuild(bytes32)": {
        "params": {
          "guildEnsNode": "The ENS namehash of the guild's domain"
        }
      },
      "deregisterGuild(string)": {
        "params": {
          "guildEnsName": "The guild's full domain name (e.g. 'my-guild.eth')"
        }
      },
      "guildAdmin(bytes32)": {
        "params": {
          "guildEnsNode": "The ENS namehash of the guild's domain"
        }
      },
      "guildAdmin(string)": {
        "params": {
          "guildEnsName": "The guild's full domain name (e.g. 'my-guild.eth')"
        }
      },
      "isApprovedForAll(address,address)": {
        "details": "See {IERC1155-isApprovedForAll}."
      },
      "registerGuild(string,address,address,address)": {
        "params": {
          "ensName": "The guild's full ENS name (e.g. 'my-guild.eth')",
          "feePolicy": "The address of an implementation of FeePolicy to use for minting new tags within this guild",
          "guildAdmin": "The address that will administrate this guild",
          "tagsAuthPolicy": "The address of an implementation of TagsAuthPolicy to use for minting new tags within this guild"
        }
      },
      "revokeGuildTag(bytes32,string,bytes)": {
        "params": {
          "extraData": "[Optional] Any additional arguments necessary for assessing whether a tag may be revoked",
          "guildEnsNode": "The ENS namehash of the guild's domain",
          "tag": "The tag to revoke"
        }
      },
      "revokeGuildTag(string,string,bytes)": {
        "params": {
          "extraData": "[Optional] Any additional arguments necessary for assessing whether a tag may be revoked",
          "guildEnsName": "The guild's full domain name (e.g. 'my-guild.eth')",
          "tag": "The tag to revoke (e.g. 'foobar')"
        }
      },
      "revokeGuildTagsBatch(bytes32,string[],bytes[])": {
        "params": {
          "extraData": "Additional arguments necessary for assessing whether a tag may be revoked",
          "guildEnsNode": "The ENS namehash of the guild's domain",
          "tags": "tags to revoke"
        }
      },
      "safeBatchTransferFrom(address,address,uint256[],uint256[],bytes)": {
        "details": "See {IERC1155-safeBatchTransferFrom}."
      },
      "safeTransferFrom(address,address,uint256,uint256,bytes)": {
        "details": "ENSGuilds NFTs are non-transferrable and may only be directly minted and burned with their corresponding guild tags."
      },
      "setApprovalForAll(address,bool)": {
        "details": "See {IERC1155-setApprovalForAll}."
      },
      "setFallbackResolver(bytes32,address)": {
        "params": {
          "fallbackResolver": "The fallback resolver",
          "guildEnsNode": "The ENS namehash of the guild's domain"
        }
      },
      "setFallbackResolver(string,address)": {
        "params": {
          "fallbackResolver": "The fallback resolver",
          "guildEnsName": "The guild's full domain name (e.g. 'my-guild.eth')"
        }
      },
      "setGuildActive(bytes32,bool)": {
        "params": {
          "active": "The new status",
          "guildEnsNode": "The ENS namehash of the guild's domain"
        }
      },
      "setGuildActive(string,bool)": {
        "params": {
          "active": "The new status",
          "guildEnsName": "The guild's full domain name (e.g. 'my-guild.eth')"
        }
      },
      "setGuildTokenUri(bytes32,string)": {
        "params": {
          "guildEnsNode": "The ENS namehash of the guild's domain",
          "uri": "The ERC1155 metadata URL template"
        }
      },
      "setGuildTokenUri(string,string)": {
        "params": {
          "guildEnsName": "The guild's full domain name (e.g. 'my-guild.eth')",
          "uri": "The ERC1155 metadata URL template"
        }
      },
      "supportsInterface(bytes4)": {
        "details": "See {IERC165-supportsInterface}."
      },
      "tagOwner(bytes32,bytes32)": {
        "params": {
          "guildEnsNode": "The ENS namehash of the guild's domain",
          "tagHash": "The ENS namehash of the tag (e.g. keccak256('foo') for foo.my-guild.eth)"
        }
      },
      "tagOwner(string,string)": {
        "params": {
          "guildEnsName": "The guild's full domain name (e.g. 'my-guild.eth')",
          "tag": "The tag (e.g. 'foobar')"
        }
      },
      "transferGuildAdmin(bytes32,address)": {
        "params": {
          "guildEnsNode": "The ENS namehash of the guild's domain",
          "newAdmin": "The new admin"
        }
      },
      "transferGuildAdmin(string,address)": {
        "params": {
          "guildEnsName": "The guild's full domain name (e.g. 'my-guild.eth')",
          "newAdmin": "The new admin"
        }
      },
      "transferGuildTag(bytes32,string,address,bytes)": {
        "params": {
          "extraTransferArgs": "[Optional] Any additional arguments necessary for guild-specific logic,  such as authorization",
          "guildEnsNode": "The namehash of the guild for which the tag should be transferred (e.g. namehash('my-guild.eth'))",
          "recipient": "The address that will receive this guild tag",
          "tag": "The tag name to transfer (e.g. 'foo' for foo.my-guild.eth). Assumes `tag` is already normalized per ENS Name Processing rules"
        }
      },
      "updateGuildFeePolicy(bytes32,address)": {
        "params": {
          "feePolicy": "The address of an implementation of FeePolicy to use for minting new tags within this guild",
          "guildEnsNode": "The ENS namehash of the guild's domain"
        }
      },
      "updateGuildFeePolicy(string,address)": {
        "params": {
          "feePolicy": "The address of an implementation of FeePolicy to use for minting new tags within this guild",
          "guildEnsName": "The guild's full domain name (e.g. 'my-guild.eth')"
        }
      },
      "updateGuildTagsAuthPolicy(bytes32,address)": {
        "params": {
          "guildEnsNode": "The ENS namehash of the guild's domain",
          "tagsAuthPolicy": "The address of an implementation of TagsAuthPolicy to use for minting new tags within this guild"
        }
      },
      "updateGuildTagsAuthPolicy(string,address)": {
        "params": {
          "guildEnsName": "The guild's full domain name (e.g. 'my-guild.eth')",
          "tagsAuthPolicy": "The address of an implementation of TagsAuthPolicy to use for minting new tags within this guild"
        }
      },
      "uri(uint256)": {
        "details": "See {IERC1155MetadataURI-uri}.",
        "params": {
          "tokenId": "The token whose URI is returned"
        }
      }
    },
    "version": 1
  },
  "userdoc": {
    "errors": {
      "AlreadyRegistered()": [
        {
          "notice": "Errors "
        }
      ]
    },
    "events": {
      "Registered(bytes32)": {
        "notice": "Events "
      }
    },
    "kind": "user",
    "methods": {
      "claimGuildTag(bytes32,string,address,bytes)": {
        "notice": "Claims a guild tag"
      },
      "claimGuildTag(string,string,address,bytes)": {
        "notice": "Claims a guild tag"
      },
      "claimGuildTagsBatch(bytes32,string[],address[],bytes[])": {
        "notice": "Claims multiple tags for a guild at once"
      },
      "deregisterGuild(bytes32)": {
        "notice": "De-registers a registered guild. Designates guild as inactive and marks all tags previously minted for that guild as eligible for revocation."
      },
      "deregisterGuild(string)": {
        "notice": "De-registers a registered guild. Designates guild as inactive and marks all tags previously minted for that guild as eligible for revocation."
      },
      "guildAdmin(bytes32)": {
        "notice": "Returns the current admin registered for the given guild."
      },
      "guildAdmin(string)": {
        "notice": "Returns the current admin registered for the given guild."
      },
      "registerGuild(string,address,address,address)": {
        "notice": "Registers a new guild from an existing ENS domain. Caller must be the ENS node's owner and ENSGuilds must have been designated an \"operator\" for the caller."
      },
      "revokeGuildTag(bytes32,string,bytes)": {
        "notice": "Attempts to revoke an existing guild tag, if authorized by the guild's AuthPolicy. Deregistered guilds will bypass auth checks for revocation of all tags."
      },
      "revokeGuildTag(string,string,bytes)": {
        "notice": "Attempts to revoke an existing guild tag, if authorized by the guild's AuthPolicy. Deregistered guilds will bypass auth checks for revocation of all tags."
      },
      "revokeGuildTagsBatch(bytes32,string[],bytes[])": {
        "notice": "Attempts to revoke multiple guild tags"
      },
      "setFallbackResolver(bytes32,address)": {
        "notice": "Registers a resolver for the guild's root ENS name that will answer queries about the parent name itself, or any child names that are not Guild tags"
      },
      "setFallbackResolver(string,address)": {
        "notice": "Registers a resolver for the guild's root ENS name that will answer queries about the parent name itself, or any child names that are not Guild tags"
      },
      "setGuildActive(bytes32,bool)": {
        "notice": "Sets a guild as active or inactive. May only be called by the guild's registered admin."
      },
      "setGuildActive(string,bool)": {
        "notice": "Sets a guild as active or inactive. May only be called by the guild's registered admin."
      },
      "setGuildTokenUri(bytes32,string)": {
        "notice": "Sets the metadata URI string for fetching metadata for a guild's tag NFTs. May only be called by the guild's registered admin."
      },
      "setGuildTokenUri(string,string)": {
        "notice": "Sets the metadata URI template string for fetching metadata for a guild's tag NFTs. May only be called by the guild's registered admin."
      },
      "tagOwner(bytes32,bytes32)": {
        "notice": "Returns the current owner of the given guild tag. Returns address(0) if no such guild or tag exists, or if the guild has been deregistered."
      },
      "tagOwner(string,string)": {
        "notice": "Returns the current owner of the given guild tag. Returns address(0) if no such guild or tag exists, or if the guild has been deregistered."
      },
      "transferGuildAdmin(bytes32,address)": {
        "notice": "Transfers the role of guild admin to the given address. May only be called by the guild's registered admin."
      },
      "transferGuildAdmin(string,address)": {
        "notice": "Transfers the role of guild admin to the given address. May only be called by the guild's registered admin."
      },
      "transferGuildTag(bytes32,string,address,bytes)": {
        "notice": "Transfers an existing guild tag"
      },
      "updateGuildFeePolicy(bytes32,address)": {
        "notice": "Updates the FeePolicy for an existing guild. May only be called by the guild's registered admin."
      },
      "updateGuildFeePolicy(string,address)": {
        "notice": "Updates the FeePolicy for an existing guild. May only be called by the guild's registered admin."
      },
      "updateGuildTagsAuthPolicy(bytes32,address)": {
        "notice": "Updates the TagsAuthPolicy for an existing guild. May only be called by the guild's registered admin."
      },
      "updateGuildTagsAuthPolicy(string,address)": {
        "notice": "Updates the TagsAuthPolicy for an existing guild. May only be called by the guild's registered admin."
      }
    },
    "version": 1
  },
  "storageLayout": {
    "storage": [
      {
        "astId": 1557,
        "contract": "contracts/ensGuilds/ENSGuilds.sol:ENSGuilds",
        "label": "_balances",
        "offset": 0,
        "slot": "0",
        "type": "t_mapping(t_uint256,t_mapping(t_address,t_uint256))"
      },
      {
        "astId": 1563,
        "contract": "contracts/ensGuilds/ENSGuilds.sol:ENSGuilds",
        "label": "_operatorApprovals",
        "offset": 0,
        "slot": "1",
        "type": "t_mapping(t_address,t_mapping(t_address,t_bool))"
      },
      {
        "astId": 1565,
        "contract": "contracts/ensGuilds/ENSGuilds.sol:ENSGuilds",
        "label": "_uri",
        "offset": 0,
        "slot": "2",
        "type": "t_string_storage"
      },
      {
        "astId": 7371,
        "contract": "contracts/ensGuilds/ENSGuilds.sol:ENSGuilds",
        "label": "guilds",
        "offset": 0,
        "slot": "3",
        "type": "t_mapping(t_bytes32,t_struct(GuildTokenInfo)7366_storage)"
      },
      {
        "astId": 1477,
        "contract": "contracts/ensGuilds/ENSGuilds.sol:ENSGuilds",
        "label": "_status",
        "offset": 0,
        "slot": "4",
        "type": "t_uint256"
      },
      {
        "astId": 5108,
        "contract": "contracts/ensGuilds/ENSGuilds.sol:ENSGuilds",
        "label": "guilds",
        "offset": 0,
        "slot": "5",
        "type": "t_mapping(t_bytes32,t_struct(GuildInfo)5087_storage)"
      }
    ],
    "types": {
      "t_address": {
        "encoding": "inplace",
        "label": "address",
        "numberOfBytes": "20"
      },
      "t_bool": {
        "encoding": "inplace",
        "label": "bool",
        "numberOfBytes": "1"
      },
      "t_bytes32": {
        "encoding": "inplace",
        "label": "bytes32",
        "numberOfBytes": "32"
      },
      "t_contract(IFeePolicy)10156": {
        "encoding": "inplace",
        "label": "contract IFeePolicy",
        "numberOfBytes": "20"
      },
      "t_contract(ITagsAuthPolicy)10998": {
        "encoding": "inplace",
        "label": "contract ITagsAuthPolicy",
        "numberOfBytes": "20"
      },
      "t_mapping(t_address,t_bool)": {
        "encoding": "mapping",
        "key": "t_address",
        "label": "mapping(address => bool)",
        "numberOfBytes": "32",
        "value": "t_bool"
      },
      "t_mapping(t_address,t_mapping(t_address,t_bool))": {
        "encoding": "mapping",
        "key": "t_address",
        "label": "mapping(address => mapping(address => bool))",
        "numberOfBytes": "32",
        "value": "t_mapping(t_address,t_bool)"
      },
      "t_mapping(t_address,t_uint256)": {
        "encoding": "mapping",
        "key": "t_address",
        "label": "mapping(address => uint256)",
        "numberOfBytes": "32",
        "value": "t_uint256"
      },
      "t_mapping(t_bytes32,t_struct(GuildInfo)5087_storage)": {
        "encoding": "mapping",
        "key": "t_bytes32",
        "label": "mapping(bytes32 => struct ENSGuilds.GuildInfo)",
        "numberOfBytes": "32",
        "value": "t_struct(GuildInfo)5087_storage"
      },
      "t_mapping(t_bytes32,t_struct(GuildTokenInfo)7366_storage)": {
        "encoding": "mapping",
        "key": "t_bytes32",
        "label": "mapping(bytes32 => struct GuildTagTokens.GuildTokenInfo)",
        "numberOfBytes": "32",
        "value": "t_struct(GuildTokenInfo)7366_storage"
      },
      "t_mapping(t_uint256,t_mapping(t_address,t_uint256))": {
        "encoding": "mapping",
        "key": "t_uint256",
        "label": "mapping(uint256 => mapping(address => uint256))",
        "numberOfBytes": "32",
        "value": "t_mapping(t_address,t_uint256)"
      },
      "t_string_storage": {
        "encoding": "bytes",
        "label": "string",
        "numberOfBytes": "32"
      },
      "t_struct(GuildInfo)5087_storage": {
        "encoding": "inplace",
        "label": "struct ENSGuilds.GuildInfo",
        "members": [
          {
            "astId": 5072,
            "contract": "contracts/ensGuilds/ENSGuilds.sol:ENSGuilds",
            "label": "admin",
            "offset": 0,
            "slot": "0",
            "type": "t_address"
          },
          {
            "astId": 5075,
            "contract": "contracts/ensGuilds/ENSGuilds.sol:ENSGuilds",
            "label": "feePolicy",
            "offset": 0,
            "slot": "1",
            "type": "t_contract(IFeePolicy)10156"
          },
          {
            "astId": 5078,
            "contract": "contracts/ensGuilds/ENSGuilds.sol:ENSGuilds",
            "label": "tagsAuthPolicy",
            "offset": 0,
            "slot": "2",
            "type": "t_contract(ITagsAuthPolicy)10998"
          },
          {
            "astId": 5080,
            "contract": "contracts/ensGuilds/ENSGuilds.sol:ENSGuilds",
            "label": "originalResolver",
            "offset": 0,
            "slot": "3",
            "type": "t_address"
          },
          {
            "astId": 5082,
            "contract": "contracts/ensGuilds/ENSGuilds.sol:ENSGuilds",
            "label": "active",
            "offset": 20,
            "slot": "3",
            "type": "t_bool"
          },
          {
            "astId": 5084,
            "contract": "contracts/ensGuilds/ENSGuilds.sol:ENSGuilds",
            "label": "deregistered",
            "offset": 21,
            "slot": "3",
            "type": "t_bool"
          },
          {
            "astId": 5086,
            "contract": "contracts/ensGuilds/ENSGuilds.sol:ENSGuilds",
            "label": "usesNameWrapper",
            "offset": 22,
            "slot": "3",
            "type": "t_bool"
          }
        ],
        "numberOfBytes": "128"
      },
      "t_struct(GuildTokenInfo)7366_storage": {
        "encoding": "inplace",
        "label": "struct GuildTagTokens.GuildTokenInfo",
        "members": [
          {
            "astId": 7365,
            "contract": "contracts/ensGuilds/ENSGuilds.sol:ENSGuilds",
            "label": "metadataUri",
            "offset": 0,
            "slot": "0",
            "type": "t_string_storage"
          }
        ],
        "numberOfBytes": "32"
      },
      "t_uint256": {
        "encoding": "inplace",
        "label": "uint256",
        "numberOfBytes": "32"
      }
    }
  }
}