{
  "address": "0xd04B04F72Be9E3A9cf7e97A0ea26E1ebF7633444",
  "abi": [
    {
      "inputs": [
        {
          "internalType": "contract ENS",
          "name": "_ensRegistry",
          "type": "address"
        },
        {
          "internalType": "address",
          "name": "_ensGuilds",
          "type": "address"
        },
        {
          "internalType": "address",
          "name": "reverseRecordOwner",
          "type": "address"
        }
      ],
      "stateMutability": "nonpayable",
      "type": "constructor"
    },
    {
      "inputs": [],
      "name": "ensGuilds",
      "outputs": [
        {
          "internalType": "contract IENSGuilds",
          "name": "",
          "type": "address"
        }
      ],
      "stateMutability": "view",
      "type": "function"
    },
    {
      "inputs": [
        {
          "internalType": "bytes32",
          "name": "",
          "type": "bytes32"
        }
      ],
      "name": "guildFees",
      "outputs": [
        {
          "internalType": "address",
          "name": "feeToken",
          "type": "address"
        },
        {
          "internalType": "uint256",
          "name": "fee",
          "type": "uint256"
        },
        {
          "internalType": "address",
          "name": "feePaidTo",
          "type": "address"
        }
      ],
      "stateMutability": "view",
      "type": "function"
    },
    {
      "inputs": [
        {
          "internalType": "bytes32",
          "name": "guildHash",
          "type": "bytes32"
        },
        {
          "internalType": "address",
          "name": "feeToken",
          "type": "address"
        },
        {
          "internalType": "uint256",
          "name": "fee",
          "type": "uint256"
        },
        {
          "internalType": "address",
          "name": "feePaidTo",
          "type": "address"
        }
      ],
      "name": "setFlatFee",
      "outputs": [],
      "stateMutability": "nonpayable",
      "type": "function"
    },
    {
      "inputs": [
        {
          "internalType": "bytes4",
          "name": "interfaceID",
          "type": "bytes4"
        }
      ],
      "name": "supportsInterface",
      "outputs": [
        {
          "internalType": "bool",
          "name": "",
          "type": "bool"
        }
      ],
      "stateMutability": "view",
      "type": "function"
    },
    {
      "inputs": [
        {
          "internalType": "bytes32",
          "name": "guildHash",
          "type": "bytes32"
        },
        {
          "internalType": "string",
          "name": "",
          "type": "string"
        },
        {
          "internalType": "address",
          "name": "",
          "type": "address"
        },
        {
          "internalType": "bytes",
          "name": "",
          "type": "bytes"
        }
      ],
      "name": "tagClaimFee",
      "outputs": [
        {
          "internalType": "address",
          "name": "tokenContract",
          "type": "address"
        },
        {
          "internalType": "uint256",
          "name": "fee",
          "type": "uint256"
        },
        {
          "internalType": "address",
          "name": "feePaidTo",
          "type": "address"
        }
      ],
      "stateMutability": "view",
      "type": "function"
    }
  ],
  "transactionHash": "0xc22860714cf1d8334b03c25f32d16b3a098f4a5fa0a939ba4b4c92b6c9b77537",
  "args": [
    "0x00000000000C2E074eC69A0dFb2997BA6C7d2e1e",
    "0xF03021AAa150C0d3A57E62D2C64B4b8C064be8B1",
    "0xc17cB209D5aBdb2d00f566a1E48F558DEBC264E1"
  ],
  "numDeployments": 1,
  "solcInputHash": "7331d540f29a35a261d4daf89b5d421d",
  "bytecode": "0x60a060405234801561001057600080fd5b5060405161088d38038061088d83398101604081905261002f9161026d565b6040516302571be360e01b81527f91d1777781884d03a6757a803996e38de2a42967fb37eeaca72729271025a9e26004820152839082906000906001600160a01b038416906302571be390602401602060405180830381865afa15801561009a573d6000803e3d6000fd5b505050506040513d601f19601f820116820180604052508101906100be91906102ba565b604051630f41a04d60e11b81526001600160a01b03848116600483015291925090821690631e83409a906024016020604051808303816000875af115801561010a573d6000803e3d6000fd5b505050506040513d601f19601f8201168201806040525081019061012e91906102d7565b505050506101596301d37a4160e51b836001600160a01b031661017560201b6102e11790919060201c565b61016257600080fd5b506001600160a01b0316608052506102f0565b600061018083610198565b8015610191575061019183836101cc565b9392505050565b60006101ab826301ffc9a760e01b6101cc565b80156101c657506101c4826001600160e01b03196101cc565b155b92915050565b604080516001600160e01b03198316602480830191909152825180830390910181526044909101909152602080820180516001600160e01b03166301ffc9a760e01b178152825160009392849283928392918391908a617530fa92503d9150600051905082801561023e575060208210155b801561024a5750600081115b979650505050505050565b6001600160a01b038116811461026a57600080fd5b50565b60008060006060848603121561028257600080fd5b835161028d81610255565b602085015190935061029e81610255565b60408501519092506102af81610255565b809150509250925092565b6000602082840312156102cc57600080fd5b815161019181610255565b6000602082840312156102e957600080fd5b5051919050565b60805161057b6103126000396000818161015101526101e5015261057b6000f3fe608060405234801561001057600080fd5b50600436106100675760003560e01c806337f83f341161005057806337f83f34146100a95780635a50dc7e1461010d578063e2443ad21461014c57600080fd5b806301ffc9a71461006c57806303eb8bf714610094575b600080fd5b61007f61007a3660046103d5565b61018b565b60405190151581526020015b60405180910390f35b6100a76100a2366004610417565b6101c2565b005b6100e36100b7366004610461565b6000602081905290815260409020805460018201546002909201546001600160a01b0391821692911683565b604080516001600160a01b039485168152602081019390935292169181019190915260600161008b565b6100e361011b3660046104c3565b50505060009283525050602081905260409020805460018201546002909201546001600160a01b0391821693911690565b6101737f000000000000000000000000000000000000000000000000000000000000000081565b6040516001600160a01b03909116815260200161008b565b60006001600160e01b03198216632d286e3f60e11b14806101bc57506301ffc9a760e01b6001600160e01b03198316145b92915050565b3360405163022c977f60e01b8152600481018690526001600160a01b03918216917f0000000000000000000000000000000000000000000000000000000000000000169063022c977f90602401602060405180830381865afa15801561022c573d6000803e3d6000fd5b505050506040513d601f19601f820116820180604052508101906102509190610551565b6001600160a01b03161461026357600080fd5b604080516060810182526001600160a01b03948516815260208082019485529285168183019081526000968752928690529420935184549084167fffffffffffffffffffffffff0000000000000000000000000000000000000000918216178555915160018501555160029093018054939092169216919091179055565b60006102ec83610304565b80156102fd57506102fd8383610337565b9392505050565b6000610317826301ffc9a760e01b610337565b80156101bc5750610330826001600160e01b0319610337565b1592915050565b604080516001600160e01b03198316602480830191909152825180830390910181526044909101909152602080820180517bffffffffffffffffffffffffffffffffffffffffffffffffffffffff166301ffc9a760e01b178152825160009392849283928392918391908a617530fa92503d915060005190508280156103be575060208210155b80156103ca5750600081115b979650505050505050565b6000602082840312156103e757600080fd5b81356001600160e01b0319811681146102fd57600080fd5b6001600160a01b038116811461041457600080fd5b50565b6000806000806080858703121561042d57600080fd5b84359350602085013561043f816103ff565b9250604085013591506060850135610456816103ff565b939692955090935050565b60006020828403121561047357600080fd5b5035919050565b60008083601f84011261048c57600080fd5b50813567ffffffffffffffff8111156104a457600080fd5b6020830191508360208285010111156104bc57600080fd5b9250929050565b600080600080600080608087890312156104dc57600080fd5b86359550602087013567ffffffffffffffff808211156104fb57600080fd5b6105078a838b0161047a565b90975095506040890135915061051c826103ff565b9093506060880135908082111561053257600080fd5b5061053f89828a0161047a565b979a9699509497509295939492505050565b60006020828403121561056357600080fd5b81516102fd816103ff56fea164736f6c6343000811000a",
  "libraries": {
    "ERC165Checker": "0x7EB821Aa0cA01198A9EC28ee9f5d7491508233e4",
    "StringParsing": "0xe0c9b7B08a9A409eA6537c8fb307CE6758CfEd16",
    "Strings": "0x572CbB4dbd1f3bB4E23Cc3d8F4460B3E6d871826",
    "NameEncoder": "0x2b1D7EE297A345fF0C57B3c3B0F34b59951756b1",
    "ENSNameHash": "0x969254c8EC87eF59BeB6F6eA928f1A00bb649Ecc",
    "ENSByteUtils": "0x4A44B0Af7483Eb232F606418Aa099ad453F95A02",
    "ENSParentName": "0xeE1CcD12e954bFD828EEb4Ca3B76cfE4cbc42C76"
  },
  "devdoc": {
    "kind": "dev",
    "methods": {
      "setFlatFee(bytes32,address,uint256,address)": {
        "params": {
          "fee": "The amount (in base unit) that must be paid",
          "feePaidTo": "The address that should receive payment of the fee",
          "feeToken": "The token contract the fee must be paid in (if any). Address(0) designates native Ether.",
          "guildHash": "The ENS namehash of the guild's domain"
        }
      },
      "tagClaimFee(bytes32,string,address,bytes)": {
        "params": {
          "claimant": "The address attempting to claim the tag (not necessarily the address that will receive it)",
          "extraClaimArgs": "Any additional arguments that would be passed by the minter to the claimGuildTag() function",
          "guildHash": "The ENS namehash of the guild's domain",
          "tag": "The tag being claimed (e.g. 'foo' for foo.my-guild.eth)"
        },
        "returns": {
          "fee": "The amount (in base unit) that must be paid",
          "feePaidTo": "The address that should receive payment of the fee",
          "tokenContract": "The token contract the fee must be paid in (if any). Address(0) designates native Ether."
        }
      }
    },
    "title": "FlatFeePolicy",
    "version": 1
  },
  "userdoc": {
    "kind": "user",
    "methods": {
      "setFlatFee(bytes32,address,uint256,address)": {
        "notice": "Configures a flat fee for the given guild. The caller must be the guild's admin"
      },
      "tagClaimFee(bytes32,string,address,bytes)": {
        "notice": "Returns the fee required to mint the given guild tag by the given minter"
      }
    },
    "notice": "A common implementation of IFeePolicy that can be used to configure flat-rate fees for multiple guilds simultaneously",
    "version": 1
  },
  "storageLayout": {
    "storage": [
      {
        "astId": 10030,
        "contract": "contracts/feePolicies/FlatFeePolicy.sol:FlatFeePolicy",
        "label": "guildFees",
        "offset": 0,
        "slot": "0",
        "type": "t_mapping(t_bytes32,t_struct(FeeInfo)10025_storage)"
      }
    ],
    "types": {
      "t_address": {
        "encoding": "inplace",
        "label": "address",
        "numberOfBytes": "20"
      },
      "t_bytes32": {
        "encoding": "inplace",
        "label": "bytes32",
        "numberOfBytes": "32"
      },
      "t_mapping(t_bytes32,t_struct(FeeInfo)10025_storage)": {
        "encoding": "mapping",
        "key": "t_bytes32",
        "label": "mapping(bytes32 => struct FlatFeePolicy.FeeInfo)",
        "numberOfBytes": "32",
        "value": "t_struct(FeeInfo)10025_storage"
      },
      "t_struct(FeeInfo)10025_storage": {
        "encoding": "inplace",
        "label": "struct FlatFeePolicy.FeeInfo",
        "members": [
          {
            "astId": 10020,
            "contract": "contracts/feePolicies/FlatFeePolicy.sol:FlatFeePolicy",
            "label": "feeToken",
            "offset": 0,
            "slot": "0",
            "type": "t_address"
          },
          {
            "astId": 10022,
            "contract": "contracts/feePolicies/FlatFeePolicy.sol:FlatFeePolicy",
            "label": "fee",
            "offset": 0,
            "slot": "1",
            "type": "t_uint256"
          },
          {
            "astId": 10024,
            "contract": "contracts/feePolicies/FlatFeePolicy.sol:FlatFeePolicy",
            "label": "feePaidTo",
            "offset": 0,
            "slot": "2",
            "type": "t_address"
          }
        ],
        "numberOfBytes": "96"
      },
      "t_uint256": {
        "encoding": "inplace",
        "label": "uint256",
        "numberOfBytes": "32"
      }
    }
  }
}