{
  "address": "0xd0830241E5C79b4dA4D7eD1ADA429DD1fEa7781e",
  "abi": [
    {
      "inputs": [
        {
          "internalType": "contract ENS",
          "name": "_ensRegistry",
          "type": "address"
        },
        {
          "internalType": "contract INameWrapper",
          "name": "_ensNameWrapper",
          "type": "address"
        },
        {
          "internalType": "address",
          "name": "reverseRecordOwner",
          "type": "address"
        }
      ],
      "stateMutability": "nonpayable",
      "type": "constructor"
    },
    {
      "inputs": [],
      "name": "InvalidOperation",
      "type": "error"
    },
    {
      "inputs": [
        {
          "internalType": "address",
          "name": "sender",
          "type": "address"
        },
        {
          "internalType": "string[]",
          "name": "urls",
          "type": "string[]"
        },
        {
          "internalType": "bytes",
          "name": "callData",
          "type": "bytes"
        },
        {
          "internalType": "bytes4",
          "name": "callbackFunction",
          "type": "bytes4"
        },
        {
          "internalType": "bytes",
          "name": "extraData",
          "type": "bytes"
        }
      ],
      "name": "OffchainLookup",
      "type": "error"
    },
    {
      "inputs": [],
      "name": "RecordTypeNotSupported",
      "type": "error"
    },
    {
      "anonymous": false,
      "inputs": [
        {
          "indexed": true,
          "internalType": "bytes32",
          "name": "node",
          "type": "bytes32"
        },
        {
          "indexed": true,
          "internalType": "uint256",
          "name": "contentType",
          "type": "uint256"
        }
      ],
      "name": "ABIChanged",
      "type": "event"
    },
    {
      "anonymous": false,
      "inputs": [
        {
          "indexed": true,
          "internalType": "bytes32",
          "name": "node",
          "type": "bytes32"
        },
        {
          "indexed": false,
          "internalType": "address",
          "name": "a",
          "type": "address"
        }
      ],
      "name": "AddrChanged",
      "type": "event"
    },
    {
      "anonymous": false,
      "inputs": [
        {
          "indexed": true,
          "internalType": "bytes32",
          "name": "node",
          "type": "bytes32"
        },
        {
          "indexed": false,
          "internalType": "uint256",
          "name": "coinType",
          "type": "uint256"
        },
        {
          "indexed": false,
          "internalType": "bytes",
          "name": "newAddress",
          "type": "bytes"
        }
      ],
      "name": "AddressChanged",
      "type": "event"
    },
    {
      "anonymous": false,
      "inputs": [
        {
          "indexed": true,
          "internalType": "bytes32",
          "name": "node",
          "type": "bytes32"
        },
        {
          "indexed": false,
          "internalType": "bytes",
          "name": "hash",
          "type": "bytes"
        }
      ],
      "name": "ContenthashChanged",
      "type": "event"
    },
    {
      "anonymous": false,
      "inputs": [
        {
          "indexed": true,
          "internalType": "bytes32",
          "name": "node",
          "type": "bytes32"
        },
        {
          "indexed": false,
          "internalType": "bytes",
          "name": "name",
          "type": "bytes"
        },
        {
          "indexed": false,
          "internalType": "uint16",
          "name": "resource",
          "type": "uint16"
        },
        {
          "indexed": false,
          "internalType": "bytes",
          "name": "record",
          "type": "bytes"
        }
      ],
      "name": "DNSRecordChanged",
      "type": "event"
    },
    {
      "anonymous": false,
      "inputs": [
        {
          "indexed": true,
          "internalType": "bytes32",
          "name": "node",
          "type": "bytes32"
        },
        {
          "indexed": false,
          "internalType": "bytes",
          "name": "name",
          "type": "bytes"
        },
        {
          "indexed": false,
          "internalType": "uint16",
          "name": "resource",
          "type": "uint16"
        }
      ],
      "name": "DNSRecordDeleted",
      "type": "event"
    },
    {
      "anonymous": false,
      "inputs": [
        {
          "indexed": true,
          "internalType": "bytes32",
          "name": "node",
          "type": "bytes32"
        },
        {
          "indexed": false,
          "internalType": "bytes",
          "name": "lastzonehash",
          "type": "bytes"
        },
        {
          "indexed": false,
          "internalType": "bytes",
          "name": "zonehash",
          "type": "bytes"
        }
      ],
      "name": "DNSZonehashChanged",
      "type": "event"
    },
    {
      "anonymous": false,
      "inputs": [
        {
          "indexed": true,
          "internalType": "bytes32",
          "name": "node",
          "type": "bytes32"
        },
        {
          "indexed": true,
          "internalType": "bytes4",
          "name": "interfaceID",
          "type": "bytes4"
        },
        {
          "indexed": false,
          "internalType": "address",
          "name": "implementer",
          "type": "address"
        }
      ],
      "name": "InterfaceChanged",
      "type": "event"
    },
    {
      "anonymous": false,
      "inputs": [
        {
          "indexed": true,
          "internalType": "bytes32",
          "name": "node",
          "type": "bytes32"
        },
        {
          "indexed": false,
          "internalType": "string",
          "name": "name",
          "type": "string"
        }
      ],
      "name": "NameChanged",
      "type": "event"
    },
    {
      "anonymous": false,
      "inputs": [
        {
          "indexed": true,
          "internalType": "bytes32",
          "name": "node",
          "type": "bytes32"
        },
        {
          "indexed": false,
          "internalType": "bytes32",
          "name": "x",
          "type": "bytes32"
        },
        {
          "indexed": false,
          "internalType": "bytes32",
          "name": "y",
          "type": "bytes32"
        }
      ],
      "name": "PubkeyChanged",
      "type": "event"
    },
    {
      "anonymous": false,
      "inputs": [
        {
          "indexed": true,
          "internalType": "bytes32",
          "name": "node",
          "type": "bytes32"
        },
        {
          "indexed": true,
          "internalType": "string",
          "name": "indexedKey",
          "type": "string"
        },
        {
          "indexed": false,
          "internalType": "string",
          "name": "key",
          "type": "string"
        },
        {
          "indexed": false,
          "internalType": "string",
          "name": "value",
          "type": "string"
        }
      ],
      "name": "TextChanged",
      "type": "event"
    },
    {
      "anonymous": false,
      "inputs": [
        {
          "indexed": true,
          "internalType": "bytes32",
          "name": "node",
          "type": "bytes32"
        },
        {
          "indexed": false,
          "internalType": "uint64",
          "name": "newVersion",
          "type": "uint64"
        }
      ],
      "name": "VersionChanged",
      "type": "event"
    },
    {
      "inputs": [
        {
          "internalType": "bytes32",
          "name": "node",
          "type": "bytes32"
        },
        {
          "internalType": "uint256",
          "name": "contentTypes",
          "type": "uint256"
        }
      ],
      "name": "ABI",
      "outputs": [
        {
          "internalType": "uint256",
          "name": "a",
          "type": "uint256"
        },
        {
          "internalType": "bytes",
          "name": "b",
          "type": "bytes"
        }
      ],
      "stateMutability": "view",
      "type": "function"
    },
    {
      "inputs": [],
      "name": "RESOLVER_SIGNATURE__ADDR",
      "outputs": [
        {
          "internalType": "bytes4",
          "name": "",
          "type": "bytes4"
        }
      ],
      "stateMutability": "view",
      "type": "function"
    },
    {
      "inputs": [],
      "name": "RESOLVER_SIGNATURE__ADDR_WITH_COINTYPE",
      "outputs": [
        {
          "internalType": "bytes4",
          "name": "",
          "type": "bytes4"
        }
      ],
      "stateMutability": "view",
      "type": "function"
    },
    {
      "inputs": [],
      "name": "RESOLVER_SIGNATURE__TEXT",
      "outputs": [
        {
          "internalType": "bytes4",
          "name": "",
          "type": "bytes4"
        }
      ],
      "stateMutability": "view",
      "type": "function"
    },
    {
      "inputs": [
        {
          "internalType": "bytes32",
          "name": "node",
          "type": "bytes32"
        }
      ],
      "name": "addr",
      "outputs": [
        {
          "internalType": "address payable",
          "name": "result",
          "type": "address"
        }
      ],
      "stateMutability": "view",
      "type": "function"
    },
    {
      "inputs": [
        {
          "internalType": "bytes32",
          "name": "node",
          "type": "bytes32"
        },
        {
          "internalType": "uint256",
          "name": "coinType",
          "type": "uint256"
        }
      ],
      "name": "addr",
      "outputs": [
        {
          "internalType": "bytes",
          "name": "result",
          "type": "bytes"
        }
      ],
      "stateMutability": "view",
      "type": "function"
    },
    {
      "inputs": [
        {
          "internalType": "bytes32",
          "name": "guildEnsNode",
          "type": "bytes32"
        }
      ],
      "name": "clearEnsRecordsForGuild",
      "outputs": [],
      "stateMutability": "nonpayable",
      "type": "function"
    },
    {
      "inputs": [
        {
          "internalType": "bytes32",
          "name": "node",
          "type": "bytes32"
        }
      ],
      "name": "clearRecords",
      "outputs": [],
      "stateMutability": "nonpayable",
      "type": "function"
    },
    {
      "inputs": [
        {
          "internalType": "bytes32",
          "name": "node",
          "type": "bytes32"
        }
      ],
      "name": "contenthash",
      "outputs": [
        {
          "internalType": "bytes",
          "name": "result",
          "type": "bytes"
        }
      ],
      "stateMutability": "view",
      "type": "function"
    },
    {
      "inputs": [
        {
          "internalType": "bytes32",
          "name": "node",
          "type": "bytes32"
        },
        {
          "internalType": "bytes32",
          "name": "name",
          "type": "bytes32"
        },
        {
          "internalType": "uint16",
          "name": "resource",
          "type": "uint16"
        }
      ],
      "name": "dnsRecord",
      "outputs": [
        {
          "internalType": "bytes",
          "name": "result",
          "type": "bytes"
        }
      ],
      "stateMutability": "view",
      "type": "function"
    },
    {
      "inputs": [],
      "name": "ensGuilds",
      "outputs": [
        {
          "internalType": "contract IENSGuilds",
          "name": "",
          "type": "address"
        }
      ],
      "stateMutability": "view",
      "type": "function"
    },
    {
      "inputs": [],
      "name": "ensNameWrapper",
      "outputs": [
        {
          "internalType": "contract INameWrapper",
          "name": "",
          "type": "address"
        }
      ],
      "stateMutability": "view",
      "type": "function"
    },
    {
      "inputs": [],
      "name": "ensRegistry",
      "outputs": [
        {
          "internalType": "contract ENS",
          "name": "",
          "type": "address"
        }
      ],
      "stateMutability": "view",
      "type": "function"
    },
    {
      "inputs": [
        {
          "internalType": "bytes32",
          "name": "node",
          "type": "bytes32"
        }
      ],
      "name": "getPassthroughTarget",
      "outputs": [
        {
          "internalType": "address",
          "name": "resolver",
          "type": "address"
        }
      ],
      "stateMutability": "view",
      "type": "function"
    },
    {
      "inputs": [
        {
          "internalType": "bytes32",
          "name": "guildEnsNode",
          "type": "bytes32"
        },
        {
          "internalType": "bytes32",
          "name": "tagHash",
          "type": "bytes32"
        }
      ],
      "name": "getTagOwner",
      "outputs": [
        {
          "internalType": "address",
          "name": "",
          "type": "address"
        }
      ],
      "stateMutability": "view",
      "type": "function"
    },
    {
      "inputs": [
        {
          "internalType": "contract IENSGuilds",
          "name": "_ensGuilds",
          "type": "address"
        }
      ],
      "name": "initialize",
      "outputs": [],
      "stateMutability": "nonpayable",
      "type": "function"
    },
    {
      "inputs": [
        {
          "internalType": "bytes32",
          "name": "node",
          "type": "bytes32"
        },
        {
          "internalType": "bytes4",
          "name": "interfaceID",
          "type": "bytes4"
        }
      ],
      "name": "interfaceImplementer",
      "outputs": [
        {
          "internalType": "address",
          "name": "result",
          "type": "address"
        }
      ],
      "stateMutability": "view",
      "type": "function"
    },
    {
      "inputs": [
        {
          "internalType": "bytes32",
          "name": "node",
          "type": "bytes32"
        }
      ],
      "name": "name",
      "outputs": [
        {
          "internalType": "string",
          "name": "result",
          "type": "string"
        }
      ],
      "stateMutability": "view",
      "type": "function"
    },
    {
      "inputs": [
        {
          "internalType": "string",
          "name": "guildName",
          "type": "string"
        }
      ],
      "name": "onGuildRegistered",
      "outputs": [],
      "stateMutability": "nonpayable",
      "type": "function"
    },
    {
      "inputs": [
        {
          "internalType": "bytes32",
          "name": "node",
          "type": "bytes32"
        }
      ],
      "name": "pubkey",
      "outputs": [
        {
          "internalType": "bytes32",
          "name": "x",
          "type": "bytes32"
        },
        {
          "internalType": "bytes32",
          "name": "y",
          "type": "bytes32"
        }
      ],
      "stateMutability": "view",
      "type": "function"
    },
    {
      "inputs": [
        {
          "internalType": "bytes32",
          "name": "",
          "type": "bytes32"
        }
      ],
      "name": "recordVersions",
      "outputs": [
        {
          "internalType": "uint64",
          "name": "",
          "type": "uint64"
        }
      ],
      "stateMutability": "view",
      "type": "function"
    },
    {
      "inputs": [
        {
          "internalType": "bytes",
          "name": "dnsEncodedName",
          "type": "bytes"
        },
        {
          "internalType": "bytes",
          "name": "resolverCalldata",
          "type": "bytes"
        }
      ],
      "name": "resolve",
      "outputs": [
        {
          "internalType": "bytes",
          "name": "",
          "type": "bytes"
        }
      ],
      "stateMutability": "view",
      "type": "function"
    },
    {
      "inputs": [
        {
          "internalType": "bytes",
          "name": "response",
          "type": "bytes"
        },
        {
          "internalType": "bytes",
          "name": "extraData",
          "type": "bytes"
        }
      ],
      "name": "resolveCallback",
      "outputs": [
        {
          "internalType": "bytes",
          "name": "",
          "type": "bytes"
        }
      ],
      "stateMutability": "nonpayable",
      "type": "function"
    },
    {
      "inputs": [
        {
          "internalType": "bytes32",
          "name": "node",
          "type": "bytes32"
        },
        {
          "internalType": "uint256",
          "name": "contentType",
          "type": "uint256"
        },
        {
          "internalType": "bytes",
          "name": "data",
          "type": "bytes"
        }
      ],
      "name": "setABI",
      "outputs": [],
      "stateMutability": "nonpayable",
      "type": "function"
    },
    {
      "inputs": [
        {
          "internalType": "bytes32",
          "name": "node",
          "type": "bytes32"
        },
        {
          "internalType": "uint256",
          "name": "coinType",
          "type": "uint256"
        },
        {
          "internalType": "bytes",
          "name": "a",
          "type": "bytes"
        }
      ],
      "name": "setAddr",
      "outputs": [],
      "stateMutability": "nonpayable",
      "type": "function"
    },
    {
      "inputs": [
        {
          "internalType": "bytes32",
          "name": "node",
          "type": "bytes32"
        },
        {
          "internalType": "address",
          "name": "a",
          "type": "address"
        }
      ],
      "name": "setAddr",
      "outputs": [],
      "stateMutability": "nonpayable",
      "type": "function"
    },
    {
      "inputs": [
        {
          "internalType": "bytes32",
          "name": "node",
          "type": "bytes32"
        },
        {
          "internalType": "bytes",
          "name": "hash",
          "type": "bytes"
        }
      ],
      "name": "setContenthash",
      "outputs": [],
      "stateMutability": "nonpayable",
      "type": "function"
    },
    {
      "inputs": [
        {
          "internalType": "bytes32",
          "name": "node",
          "type": "bytes32"
        },
        {
          "internalType": "bytes",
          "name": "data",
          "type": "bytes"
        }
      ],
      "name": "setDNSRecords",
      "outputs": [],
      "stateMutability": "nonpayable",
      "type": "function"
    },
    {
      "inputs": [
        {
          "internalType": "bytes32",
          "name": "guildEnsNode",
          "type": "bytes32"
        },
        {
          "internalType": "string",
          "name": "tag",
          "type": "string"
        },
        {
          "internalType": "address",
          "name": "_addr",
          "type": "address"
        }
      ],
      "name": "setEnsForwardRecord",
      "outputs": [],
      "stateMutability": "nonpayable",
      "type": "function"
    },
    {
      "inputs": [
        {
          "internalType": "bytes32",
          "name": "node",
          "type": "bytes32"
        },
        {
          "internalType": "bytes4",
          "name": "interfaceID",
          "type": "bytes4"
        },
        {
          "internalType": "address",
          "name": "implementer",
          "type": "address"
        }
      ],
      "name": "setInterface",
      "outputs": [],
      "stateMutability": "nonpayable",
      "type": "function"
    },
    {
      "inputs": [
        {
          "internalType": "bytes32",
          "name": "node",
          "type": "bytes32"
        },
        {
          "internalType": "string",
          "name": "newName",
          "type": "string"
        }
      ],
      "name": "setName",
      "outputs": [],
      "stateMutability": "nonpayable",
      "type": "function"
    },
    {
      "inputs": [
        {
          "internalType": "bytes32",
          "name": "guildEnsNode",
          "type": "bytes32"
        },
        {
          "internalType": "address",
          "name": "resolver",
          "type": "address"
        }
      ],
      "name": "setPassthroughTarget",
      "outputs": [],
      "stateMutability": "nonpayable",
      "type": "function"
    },
    {
      "inputs": [
        {
          "internalType": "bytes32",
          "name": "node",
          "type": "bytes32"
        },
        {
          "internalType": "bytes32",
          "name": "x",
          "type": "bytes32"
        },
        {
          "internalType": "bytes32",
          "name": "y",
          "type": "bytes32"
        }
      ],
      "name": "setPubkey",
      "outputs": [],
      "stateMutability": "nonpayable",
      "type": "function"
    },
    {
      "inputs": [
        {
          "internalType": "bytes32",
          "name": "node",
          "type": "bytes32"
        },
        {
          "internalType": "string",
          "name": "key",
          "type": "string"
        },
        {
          "internalType": "string",
          "name": "value",
          "type": "string"
        }
      ],
      "name": "setText",
      "outputs": [],
      "stateMutability": "nonpayable",
      "type": "function"
    },
    {
      "inputs": [
        {
          "internalType": "bytes32",
          "name": "node",
          "type": "bytes32"
        },
        {
          "internalType": "bytes",
          "name": "hash",
          "type": "bytes"
        }
      ],
      "name": "setZonehash",
      "outputs": [],
      "stateMutability": "nonpayable",
      "type": "function"
    },
    {
      "inputs": [
        {
          "internalType": "bytes4",
          "name": "interfaceID",
          "type": "bytes4"
        }
      ],
      "name": "supportsInterface",
      "outputs": [
        {
          "internalType": "bool",
          "name": "",
          "type": "bool"
        }
      ],
      "stateMutability": "view",
      "type": "function"
    },
    {
      "inputs": [
        {
          "internalType": "bytes32",
          "name": "node",
          "type": "bytes32"
        },
        {
          "internalType": "string",
          "name": "key",
          "type": "string"
        }
      ],
      "name": "text",
      "outputs": [
        {
          "internalType": "string",
          "name": "result",
          "type": "string"
        }
      ],
      "stateMutability": "view",
      "type": "function"
    },
    {
      "inputs": [
        {
          "internalType": "bytes32",
          "name": "node",
          "type": "bytes32"
        }
      ],
      "name": "zonehash",
      "outputs": [
        {
          "internalType": "bytes",
          "name": "result",
          "type": "bytes"
        }
      ],
      "stateMutability": "view",
      "type": "function"
    }
  ],
  "transactionHash": "0xa9763c3062bb78f058e1fed74e82f04017aa6249bf25073ee4fba881d471a230",
  "args": [
    "0x00000000000C2E074eC69A0dFb2997BA6C7d2e1e",
    "0xD4416b13d2b3a9aBae7AcD5D6C2BbDBE25686401",
    "0xc17cB209D5aBdb2d00f566a1E48F558DEBC264E1"
  ],
  "numDeployments": 1,
  "solcInputHash": "7331d540f29a35a261d4daf89b5d421d",
  "bytecode": "0x60c06040523480156200001157600080fd5b50604051620032553803806200325583398101604081905262000034916200016b565b6001600160a01b03838116608081905290831660a0526040516302571be360e01b81527f91d1777781884d03a6757a803996e38de2a42967fb37eeaca72729271025a9e2600482015284918391600091906302571be390602401602060405180830381865afa158015620000ac573d6000803e3d6000fd5b505050506040513d601f19601f82011682018060405250810190620000d29190620001bf565b604051630f41a04d60e11b81526001600160a01b03848116600483015291925090821690631e83409a906024016020604051808303816000875af11580156200011f573d6000803e3d6000fd5b505050506040513d601f19601f82011682018060405250810190620001459190620001e6565b5050505050505062000200565b6001600160a01b03811681146200016857600080fd5b50565b6000806000606084860312156200018157600080fd5b83516200018e8162000152565b6020850151909350620001a18162000152565b6040850151909250620001b48162000152565b809150509250925092565b600060208284031215620001d257600080fd5b8151620001df8162000152565b9392505050565b600060208284031215620001f957600080fd5b5051919050565b60805160a05161301a6200023b60003960008181610435015281816120a301526120f00152600081816105140152612034015261301a6000f3fe608060405234801561001057600080fd5b50600436106102925760003560e01c80637d73b23111610160578063c4d66de8116100d8578063d700ff331161008c578063e59d895d11610071578063e59d895d146106c9578063ef47ee62146106dc578063f1cb7e061461073857600080fd5b8063d700ff3314610673578063e2443ad2146106b657600080fd5b8063ce3decdc116100bd578063ce3decdc1461063a578063ce52b7ff1461064d578063d5fa2b001461066057600080fd5b8063c4d66de8146105ff578063c86902331461061257600080fd5b8063976b0c2e1161012f578063b4a8580111610114578063b4a85801146105c6578063bc1c58d1146105d9578063bf6c19b3146105ec57600080fd5b8063976b0c2e1461056f578063a8fa5682146105b357600080fd5b80637d73b2311461050f5780638a12dfc0146105365780638b95dd71146105495780639061b9231461055c57600080fd5b8063304e6ade1161020e57806359d1d43c116101c2578063623195b0116101a7578063623195b0146104d6578063691f3431146104e957806377372213146104fc57600080fd5b806359d1d43c146104a35780635c98042b146104c357600080fd5b80633b3b57de116101f35780633b3b57de1461041d57806347c5da98146104305780635048cea01461045757600080fd5b8063304e6ade146103f75780633603d7581461040a57600080fd5b8063124a319c1161026557806326caf2ce1161024a57806326caf2ce1461035c57806329cd62ea1461036f5780632d1705391461038257600080fd5b8063124a319c146103285780632203ab561461033b57600080fd5b806301ffc9a71461029757806302001702146102bf5780630af179d71461030057806310f13a8c14610315575b600080fd5b6102aa6102a53660046124c1565b61074b565b60405190151581526020015b60405180910390f35b6102e86102cd3660046124de565b6000908152600160205260409020546001600160a01b031690565b6040516001600160a01b0390911681526020016102b6565b61031361030e366004612539565b610776565b005b610313610323366004612585565b610808565b6102e86103363660046125ff565b6108a0565b61034e61034936600461262f565b610956565b6040516102b69291906126a1565b61031361036a3660046126cf565b610a0e565b61031361037d3660046126f4565b610a66565b60408051808201909152601481527f7465787428627974657333322c737472696e67290000000000000000000000006020909101526103de7f59d1d43c37707a29830be065fcabd05d6e536466c5159d2e46cb27bda8e98d6581565b6040516001600160e01b031990911681526020016102b6565b610313610405366004612539565b610ac5565b6103136104183660046124de565b610b1f565b6102e861042b3660046124de565b610bc2565b6102e87f000000000000000000000000000000000000000000000000000000000000000081565b60408051808201909152600d81526c6164647228627974657333322960981b6020909101526103de7f3b3b57de213591bb50e06975ea011e4c8c4b3e6de4009450c1a9e55f66e4bfa481565b6104b66104b1366004612539565b610c66565b6040516102b69190612720565b6104b66104d13660046124de565b610d1c565b6103136104e4366004612733565b610dbb565b6104b66104f73660046124de565b610e50565b61031361050a366004612539565b610eae565b6102e87f000000000000000000000000000000000000000000000000000000000000000081565b6103136105443660046124de565b610f08565b610313610557366004612853565b610f4a565b6104b661056a3660046128a3565b610fa4565b6102e861057d36600461262f565b6000918252600560209081526040808420546004835281852090855282528084209284529190529020546001600160a01b031690565b6104b66105c1366004612903565b6111c8565b6104b66105d43660046128a3565b611237565b6104b66105e73660046124de565b61134b565b6103136105fa366004612943565b6113a9565b61031361060d3660046129a7565b611428565b6106256106203660046124de565b6114e5565b604080519283526020830191909152016102b6565b610313610648366004612539565b61158d565b61031361065b3660046129c4565b6115e7565b61031361066e3660046126cf565b611674565b61069d6106813660046124de565b60006020819052908152604090205467ffffffffffffffff1681565b60405167ffffffffffffffff90911681526020016102b6565b6003546102e8906001600160a01b031681565b6103136106d7366004612a06565b611707565b60408051808201909152601581527f6164647228627974657333322c75696e743235362900000000000000000000006020909101526103de7ff1cb7e06eed69ff6b1133c27a055176e5b0f641e8f94df2da7711eae8558f7b181565b6104b661074636600461262f565b611770565b60006001600160e01b03198216639061b92360e01b1480610770575061077082611815565b92915050565b826107808161192d565b61078957600080fd5b6000848152600160205260409020546001600160a01b03166001600160a01b0316630af179d78585856040518463ffffffff1660e01b81526004016107d093929190612a66565b600060405180830381600087803b1580156107ea57600080fd5b505af11580156107fe573d6000803e3d6000fd5b5050505050505050565b846108128161192d565b61081b57600080fd5b6000868152600160205260409020546001600160a01b03166001600160a01b03166310f13a8c87878787876040518663ffffffff1660e01b8152600401610866959493929190612a89565b600060405180830381600087803b15801561088057600080fd5b505af1158015610894573d6000803e3d6000fd5b50505050505050505050565b6000828152600160205260408120546001600160a01b03166108c9816304928c6760e21b611952565b1561094f576040516304928c6760e21b8152600481018590526001600160e01b0319841660248201526001600160a01b0382169063124a319c90604401602060405180830381865afa158015610923573d6000803e3d6000fd5b505050506040513d601f19601f820116820180604052508101906109479190612ac2565b915050610770565b5092915050565b6000828152600160205260408120546060906001600160a01b031661098281631101d5ab60e11b611952565b15610a0557604051631101d5ab60e11b815260048101869052602481018590526001600160a01b03821690632203ab5690604401600060405180830381865afa1580156109d3573d6000803e3d6000fd5b505050506040513d6000823e601f3d908101601f191682016040526109fb9190810190612b24565b9250925050610a07565b505b9250929050565b6003546001600160a01b0316336001600160a01b031614610a2e57600080fd5b6000828152600160205260409020805473ffffffffffffffffffffffffffffffffffffffff19166001600160a01b0383161790555050565b82610a708161192d565b610a7957600080fd5b600084815260016020526040908190205490516314e6b17560e11b81526004810186905260248101859052604481018490526001600160a01b03909116906329cd62ea906064016107d0565b82610acf8161192d565b610ad857600080fd5b6000848152600160205260409020546001600160a01b03166001600160a01b031663304e6ade8585856040518463ffffffff1660e01b81526004016107d093929190612a66565b80610b298161192d565b610b3257600080fd5b6000828152602081905260408120805467ffffffffffffffff1691610b5683612b81565b82546101009290920a67ffffffffffffffff818102199093169183160217909155600084815260208181526040918290205491519190921681528492507fc6621ccb8f3f5a04bb6502154b2caf6adf5983fe76dfef1cfc9c42e3579db444910160405180910390a25050565b6000818152600160205260408120546001600160a01b0316610beb81631d9dabef60e11b611952565b15610c6057604051631d9dabef60e11b8152600481018490526001600160a01b03821690633b3b57de90602401602060405180830381865afa158015610c35573d6000803e3d6000fd5b505050506040513d601f19601f82011682018060405250810190610c599190612ac2565b9392505050565b50919050565b6000838152600160205260409020546060906001600160a01b0316610c9281631674750f60e21b611952565b15610d1457604051631674750f60e21b81526001600160a01b038216906359d1d43c90610cc790889088908890600401612a66565b600060405180830381865afa158015610ce4573d6000803e3d6000fd5b505050506040513d6000823e601f3d908101601f19168201604052610d0c9190810190612ba8565b915050610c59565b509392505050565b6000818152600160205260409020546060906001600160a01b0316610d4881635c98042b60e01b611952565b15610c6057604051635c98042b60e01b8152600481018490526001600160a01b03821690635c98042b906024015b600060405180830381865afa158015610d93573d6000803e3d6000fd5b505050506040513d6000823e601f3d908101601f19168201604052610c599190810190612ba8565b83610dc58161192d565b610dce57600080fd5b6000858152600160205260409020546001600160a01b03166001600160a01b031663623195b0868686866040518563ffffffff1660e01b8152600401610e179493929190612bdd565b600060405180830381600087803b158015610e3157600080fd5b505af1158015610e45573d6000803e3d6000fd5b505050505050505050565b6000818152600160205260409020546060906001600160a01b0316610e7c8163691f343160e01b611952565b15610c605760405163691f343160e01b8152600481018490526001600160a01b0382169063691f343190602401610d76565b82610eb88161192d565b610ec157600080fd5b6000848152600160205260409020546001600160a01b03166001600160a01b031663773722138585856040518463ffffffff1660e01b81526004016107d093929190612a66565b6003546001600160a01b0316336001600160a01b031614610f2857600080fd5b6000818152600560205260408120805491610f4283612c07565b919050555050565b82610f548161192d565b610f5d57600080fd5b6000848152600160205260409020546001600160a01b03166001600160a01b0316638b95dd718585856040518463ffffffff1660e01b81526004016107d093929190612c20565b60606000610fb56004828587612c3f565b610fbe91612c69565b60408051808201909152600d81526c6164647228627974657333322960981b6020909101529050636262541160e11b6001600160e01b031982160161103a57600061100b8787878761196e565b604080516001600160a01b038316602082015291925001604051602081830303815290604052925050506111c0565b60408051808201909152601581527f6164647228627974657333322c75696e7432353629000000000000000000000060209091015263071a40fd60e11b6001600160e01b031982160161110c5760006110968460048188612c3f565b8101906110a3919061262f565b915050603c81036110f95760006110bc8888888861196e565b90506110d0816001600160a01b0316611bbc565b6040516020016110e09190612720565b60405160208183030381529060405293505050506111c0565b6060806040516020016110e09190612720565b60408051808201909152601481527f7465787428627974657333322c737472696e672900000000000000000000000060209091015263298b8af160e21b6001600160e01b03198216016111a7573660006111668686611bf5565b91509150600061117a898985858b8b611c4d565b90508060405160200161118d9190612720565b6040516020818303038152906040529450505050506111c0565b60405163dfbcb35160e01b815260040160405180910390fd5b949350505050565b6000838152600160205260409020546060906001600160a01b03166111f48163547d2b4160e11b611952565b15610d145760405163547d2b4160e11b8152600481018690526024810185905261ffff841660448201526001600160a01b0382169063a8fa568290606401610cc7565b60606000808061124985870187612c99565b925092509250600080846001600160a01b0316848b8b8660405160240161127293929190612ce5565b60408051601f198184030181529181526020820180517bffffffffffffffffffffffffffffffffffffffffffffffffffffffff166001600160e01b03199094169390931790925290516112c59190612d0b565b6000604051808303816000865af19150503d8060008114611302576040519150601f19603f3d011682016040523d82523d6000602084013e611307565b606091505b5091509150811561133257808060200190518101906113269190612ba8565b955050505050506111c0565b604051631cc6a69960e11b815260040160405180910390fd5b6000818152600160205260409020546060906001600160a01b03166113778163bc1c58d160e01b611952565b15610c605760405163bc1c58d160e01b8152600481018490526001600160a01b0382169063bc1c58d190602401610d76565b6003546001600160a01b0316336001600160a01b0316146113c957600080fd5b600092835260056020908152604080852054845194830194909420600483528186209486529382528085209385529290529120805473ffffffffffffffffffffffffffffffffffffffff19166001600160a01b03909216919091179055565b6003546001600160a01b03161561143e57600080fd5b6040516301ffc9a760e01b81526301d37a4160e51b60048201526001600160a01b038216906301ffc9a790602401602060405180830381865afa158015611489573d6000803e3d6000fd5b505050506040513d601f19601f820116820180604052508101906114ad9190612d27565b6114b657600080fd5b6003805473ffffffffffffffffffffffffffffffffffffffff19166001600160a01b0392909216919091179055565b60008181526001602052604081205481906001600160a01b03166115108163c869023360e01b611952565b156115875760405163c869023360e01b8152600481018590526001600160a01b0382169063c8690233906024016040805180830381865afa158015611559573d6000803e3d6000fd5b505050506040513d601f19601f8201168201806040525081019061157d9190612d49565b9250925050915091565b50915091565b826115978161192d565b6115a057600080fd5b6000848152600160205260409020546001600160a01b03166001600160a01b031663ce3decdc8585856040518463ffffffff1660e01b81526004016107d093929190612a66565b6003546001600160a01b0316336001600160a01b03161461160757600080fd5b60008061164984848080601f016020809104026020016040519081016040528093929190818152602001838380828437600092019190915250611dcf92505050565b915091508060028360405161165e9190612d0b565b9081526040519081900360200190205550505050565b8161167e8161192d565b61168757600080fd5b6000838152600160205260409020546001600160a01b031660405162d5fa2b60e81b8152600481018590526001600160a01b038481166024830152919091169063d5fa2b0090604401600060405180830381600087803b1580156116ea57600080fd5b505af11580156116fe573d6000803e3d6000fd5b50505050505050565b826117118161192d565b61171a57600080fd5b6000848152600160205260409081902054905163e59d895d60e01b8152600481018690526001600160e01b0319851660248201526001600160a01b0384811660448301529091169063e59d895d906064016107d0565b6000828152600160205260409020546060906001600160a01b031661179c816378e5bf0360e11b611952565b1561094f576040516378e5bf0360e11b815260048101859052602481018490526001600160a01b0382169063f1cb7e0690604401600060405180830381865afa1580156117ed573d6000803e3d6000fd5b505050506040513d6000823e601f3d908101601f191682016040526109479190810190612ba8565b60006001600160e01b03198216631101d5ab60e11b148061184657506001600160e01b03198216631d9dabef60e11b145b8061186157506001600160e01b031982166378e5bf0360e11b145b8061187c57506001600160e01b0319821663bc1c58d160e01b145b8061189757506001600160e01b0319821663547d2b4160e11b145b806118b257506001600160e01b03198216635c98042b60e01b145b806118cd57506001600160e01b031982166304928c6760e21b145b806118e857506001600160e01b0319821663691f343160e01b145b8061190357506001600160e01b0319821663c869023360e01b145b8061191e57506001600160e01b03198216631674750f60e21b145b80610770575061077082611fdc565b600061193882612011565b6001600160a01b0316336001600160a01b03161492915050565b600061195d8361213f565b8015610c595750610c598383612172565b600080600061197d8787612210565b9150915081156119cb5761199081610bc2565b92506001600160a01b0383166119c65760006119ad82603c611770565b905080516000146119c4576119c181612243565b93505b505b611a19565b3660003660006119db8b8b61226b565b9350935093509350600282826040516119f5929190612d6d565b9081526020016040518091039020549450611a12848484846122df565b9650505050505b6000818152600160205260408120546001600160a01b031690506001600160a01b038416158015611a5f5750611a5f6001600160a01b038216639061b92360e01b611952565b15611bb157604051639061b92360e01b81526001600160a01b03821690639061b92390611a96908b908b908b908b90600401612d7d565b600060405180830381865afa925050508015611ad457506040513d6000823e601f3d908101601f19168201604052611ad19190810190612ba8565b60015b611b99573d808015611b02576040519150601f19603f3d011682016040523d82523d6000602084013e611b07565b606091505b506000806000806000611b28866004808951611b239190612da4565b61235c565b806020019051810190611b3b9190612dc7565b9450945094509450945030848463b4a8580160e01b888686604051602001611b6593929190612efa565b60408051601f1981840301815290829052630556f18360e41b8252611b909594939291600401612f2b565b60405180910390fd5b80806020019051810190611bad9190612ac2565b9450505b505050949350505050565b6040805160148082528183019092526060916020820181803683375050506c010000000000000000000000009290920260208301525090565b366000604481611c06826020612fcb565b90506000611c168684818a612c3f565b810190611c2391906124de565b9050868287611c328483612fcb565b92611c3f93929190612c3f565b945094505050509250929050565b6060600080611c5c8989612210565b915091508115611c7857611c71818888610c66565b9250611cc7565b366000366000611c888d8d61226b565b935093509350935060028282604051611ca2929190612d6d565b9081526040805160209281900383018120549281019091526000815297509450505050505b6000818152600160205260408120546001600160a01b0316905083516000148015611d075750611d076001600160a01b038216639061b92360e01b611952565b15611dc257604051639061b92360e01b81526001600160a01b03821690639061b92390611d3e908d908d908b908b90600401612d7d565b600060405180830381865afa925050508015611d7c57506040513d6000823e601f3d908101601f19168201604052611d799190810190612ba8565b60015b611daa573d808015611b02576040519150601f19603f3d011682016040523d82523d6000602084013e611b07565b80806020019051810190611dbe9190612ba8565b9450505b5050509695505050505050565b805160609060009081908490611de6816002612fcb565b67ffffffffffffffff811115611dfe57611dfe612786565b6040519080825280601f01601f191660200182016040528015611e28576020820181803683370190505b50945060009350808403611e6d57600060f81b85600081518110611e4e57611e4e612fde565b60200101906001600160f81b031916908160001a905350505050915091565b60001981015b828181518110611e8557611e85612fde565b01602001517fff0000000000000000000000000000000000000000000000000000000000000016601760f91b03611f2b578360f81b868260010181518110611ecf57611ecf612fde565b60200101906001600160f81b031916908160001a90535084611ef8846001840160ff8816612484565b60408051602081019390935282015260600160405160208183030381529060405280519060200120945060009350611f7b565b600184019350828181518110611f4357611f43612fde565b602001015160f81c60f81b868260010181518110611f6357611f63612fde565b60200101906001600160f81b031916908160001a9053505b8015611f8a5760001901611e73565b5083611f9b83600060ff8716612484565b6040805160208101939093528201526060016040516020818303038152906040528051906020012093508260f81b85600081518110611e4e57611e4e612fde565b60006001600160e01b0319821663d700ff3360e01b148061077057506301ffc9a760e01b6001600160e01b0319831614610770565b6040516302571be360e01b81526004810182905260009081906001600160a01b037f000000000000000000000000000000000000000000000000000000000000000016906302571be390602401602060405180830381865afa15801561207b573d6000803e3d6000fd5b505050506040513d601f19601f8201168201806040525081019061209f9190612ac2565b90507f00000000000000000000000000000000000000000000000000000000000000006001600160a01b0316816001600160a01b031603610770576040516331a9108f60e11b8152600481018490527f00000000000000000000000000000000000000000000000000000000000000006001600160a01b031690636352211e90602401602060405180830381865afa158015610c35573d6000803e3d6000fd5b6000612152826301ffc9a760e01b612172565b8015610770575061216b826001600160e01b0319612172565b1592915050565b604080516001600160e01b03198316602480830191909152825180830390910181526044909101909152602080820180517bffffffffffffffffffffffffffffffffffffffffffffffffffffffff166301ffc9a760e01b178152825160009392849283928392918391908a617530fa92503d915060005190508280156121f9575060208210155b80156122055750600081115b979650505050505050565b60008060028484604051612225929190612d6d565b90815260405190819003602001902054801515925090509250929050565b6000815160141461225357600080fd5b50602001516c01000000000000000000000000900490565b366000366000808686600081811061228557612285612fde565b919091013560f81c915087905060018761229f8483612ff4565b60ff16926122af93929190612c3f565b88886122bc856001612ff4565b60ff169080926122ce93929190612c3f565b929a91995097509095509350505050565b600080600284846040516122f4929190612d6d565b908152602001604051809103902054905060008686604051612317929190612d6d565b6040518091039020905061220582826000918252600560209081526040808420546004835281852090855282528084209284529190529020546001600160a01b031690565b60608161236a81601f612fcb565b10156123b85760405162461bcd60e51b815260206004820152600e60248201527f736c6963655f6f766572666c6f770000000000000000000000000000000000006044820152606401611b90565b6123c28284612fcb565b845110156124125760405162461bcd60e51b815260206004820152601160248201527f736c6963655f6f75744f66426f756e64730000000000000000000000000000006044820152606401611b90565b606082158015612431576040519150600082526020820160405261247b565b6040519150601f8416801560200281840101858101878315602002848b0101015b8183101561246a578051835260209283019201612452565b5050858452601f01601f1916604052505b50949350505050565b82516000906124938385612fcb565b111561249e57600080fd5b5091016020012090565b6001600160e01b0319811681146124be57600080fd5b50565b6000602082840312156124d357600080fd5b8135610c59816124a8565b6000602082840312156124f057600080fd5b5035919050565b60008083601f84011261250957600080fd5b50813567ffffffffffffffff81111561252157600080fd5b602083019150836020828501011115610a0757600080fd5b60008060006040848603121561254e57600080fd5b83359250602084013567ffffffffffffffff81111561256c57600080fd5b612578868287016124f7565b9497909650939450505050565b60008060008060006060868803121561259d57600080fd5b85359450602086013567ffffffffffffffff808211156125bc57600080fd5b6125c889838a016124f7565b909650945060408801359150808211156125e157600080fd5b506125ee888289016124f7565b969995985093965092949392505050565b6000806040838503121561261257600080fd5b823591506020830135612624816124a8565b809150509250929050565b6000806040838503121561264257600080fd5b50508035926020909101359150565b60005b8381101561266c578181015183820152602001612654565b50506000910152565b6000815180845261268d816020860160208601612651565b601f01601f19169290920160200192915050565b8281526040602082015260006111c06040830184612675565b6001600160a01b03811681146124be57600080fd5b600080604083850312156126e257600080fd5b823591506020830135612624816126ba565b60008060006060848603121561270957600080fd5b505081359360208301359350604090920135919050565b602081526000610c596020830184612675565b6000806000806060858703121561274957600080fd5b8435935060208501359250604085013567ffffffffffffffff81111561276e57600080fd5b61277a878288016124f7565b95989497509550505050565b634e487b7160e01b600052604160045260246000fd5b604051601f8201601f1916810167ffffffffffffffff811182821017156127c5576127c5612786565b604052919050565b600067ffffffffffffffff8211156127e7576127e7612786565b50601f01601f191660200190565b6000612808612803846127cd565b61279c565b905082815283838301111561281c57600080fd5b828260208301376000602084830101529392505050565b600082601f83011261284457600080fd5b610c59838335602085016127f5565b60008060006060848603121561286857600080fd5b8335925060208401359150604084013567ffffffffffffffff81111561288d57600080fd5b61289986828701612833565b9150509250925092565b600080600080604085870312156128b957600080fd5b843567ffffffffffffffff808211156128d157600080fd5b6128dd888389016124f7565b909650945060208701359150808211156128f657600080fd5b5061277a878288016124f7565b60008060006060848603121561291857600080fd5b8335925060208401359150604084013561ffff8116811461293857600080fd5b809150509250925092565b60008060006060848603121561295857600080fd5b83359250602084013567ffffffffffffffff81111561297657600080fd5b8401601f8101861361298757600080fd5b612996868235602084016127f5565b9250506040840135612938816126ba565b6000602082840312156129b957600080fd5b8135610c59816126ba565b600080602083850312156129d757600080fd5b823567ffffffffffffffff8111156129ee57600080fd5b6129fa858286016124f7565b90969095509350505050565b600080600060608486031215612a1b57600080fd5b833592506020840135612a2d816124a8565b91506040840135612938816126ba565b81835281816020850137506000828201602090810191909152601f909101601f19169091010190565b838152604060208201526000612a80604083018486612a3d565b95945050505050565b858152606060208201526000612aa3606083018688612a3d565b8281036040840152612ab6818587612a3d565b98975050505050505050565b600060208284031215612ad457600080fd5b8151610c59816126ba565b600082601f830112612af057600080fd5b8151612afe612803826127cd565b818152846020838601011115612b1357600080fd5b6111c0826020830160208701612651565b60008060408385031215612b3757600080fd5b82519150602083015167ffffffffffffffff811115612b5557600080fd5b612b6185828601612adf565b9150509250929050565b634e487b7160e01b600052601160045260246000fd5b600067ffffffffffffffff808316818103612b9e57612b9e612b6b565b6001019392505050565b600060208284031215612bba57600080fd5b815167ffffffffffffffff811115612bd157600080fd5b6111c084828501612adf565b848152836020820152606060408201526000612bfd606083018486612a3d565b9695505050505050565b600060018201612c1957612c19612b6b565b5060010190565b838152826020820152606060408201526000612a806060830184612675565b60008085851115612c4f57600080fd5b83861115612c5c57600080fd5b5050820193919092039150565b6001600160e01b03198135818116916004851015612c915780818660040360031b1b83161692505b505092915050565b600080600060608486031215612cae57600080fd5b8335612cb9816126ba565b92506020840135612cc9816124a8565b9150604084013567ffffffffffffffff81111561288d57600080fd5b604081526000612cf9604083018587612a3d565b8281036020840152612bfd8185612675565b60008251612d1d818460208701612651565b9190910192915050565b600060208284031215612d3957600080fd5b81518015158114610c5957600080fd5b60008060408385031215612d5c57600080fd5b505080516020909101519092909150565b8183823760009101908152919050565b604081526000612d91604083018688612a3d565b8281036020840152612205818587612a3d565b8181038181111561077057610770612b6b565b8051612dc2816124a8565b919050565b600080600080600060a08688031215612ddf57600080fd5b8551612dea816126ba565b8095505060208087015167ffffffffffffffff80821115612e0a57600080fd5b818901915089601f830112612e1e57600080fd5b815181811115612e3057612e30612786565b8060051b612e3f85820161279c565b918252838101850191858101908d841115612e5957600080fd5b86860192505b83831015612e9557825185811115612e775760008081fd5b612e858f89838a0101612adf565b8352509186019190860190612e5f565b60408d0151909a50955050505080831115612eaf57600080fd5b612ebb8a848b01612adf565b9550612ec960608a01612db7565b94506080890151925080831115612edf57600080fd5b5050612eed88828901612adf565b9150509295509295909350565b6001600160a01b038416815263ffffffff60e01b83166020820152606060408201526000612a806060830184612675565b600060a082016001600160a01b0388168352602060a08185015281885180845260c08601915060c08160051b8701019350828a0160005b82811015612f905760bf19888703018452612f7e868351612675565b95509284019290840190600101612f62565b50505050508281036040840152612fa78187612675565b6001600160e01b03198616606085015290508281036080840152612ab68185612675565b8082018082111561077057610770612b6b565b634e487b7160e01b600052603260045260246000fd5b60ff818116838216019081111561077057610770612b6b56fea164736f6c6343000811000a",
  "libraries": {
    "ERC165Checker": "0x7EB821Aa0cA01198A9EC28ee9f5d7491508233e4",
    "StringParsing": "0xe0c9b7B08a9A409eA6537c8fb307CE6758CfEd16",
    "Strings": "0x572CbB4dbd1f3bB4E23Cc3d8F4460B3E6d871826",
    "NameEncoder": "0x2b1D7EE297A345fF0C57B3c3B0F34b59951756b1",
    "ENSNameHash": "0x969254c8EC87eF59BeB6F6eA928f1A00bb649Ecc",
    "ENSByteUtils": "0x4A44B0Af7483Eb232F606418Aa099ad453F95A02",
    "ENSParentName": "0xeE1CcD12e954bFD828EEb4Ca3B76cfE4cbc42C76"
  },
  "devdoc": {
    "kind": "dev",
    "methods": {
      "ABI(bytes32,uint256)": {
        "params": {
          "contentTypes": "A bitwise OR of the ABI formats accepted by the caller.",
          "node": "The ENS node to query"
        },
        "returns": {
          "a": "contentType The content type of the return value",
          "b": "data The ABI data"
        }
      },
      "addr(bytes32)": {
        "params": {
          "node": "The ENS node to query."
        },
        "returns": {
          "result": "The associated address."
        }
      },
      "clearRecords(bytes32)": {
        "params": {
          "node": "The node to update."
        }
      },
      "contenthash(bytes32)": {
        "params": {
          "node": "The ENS node to query."
        },
        "returns": {
          "result": "The associated contenthash."
        }
      },
      "dnsRecord(bytes32,bytes32,uint16)": {
        "params": {
          "name": "the keccak-256 hash of the fully-qualified name for which to fetch the record",
          "node": "the namehash of the node for which to fetch the record",
          "resource": "the ID of the resource as per https://en.wikipedia.org/wiki/List_of_DNS_record_types"
        },
        "returns": {
          "result": "the DNS record in wire format if present, otherwise empty"
        }
      },
      "interfaceImplementer(bytes32,bytes4)": {
        "params": {
          "interfaceID": "The EIP 165 interface ID to check for.",
          "node": "The ENS node to query."
        },
        "returns": {
          "result": "The address that implements this interface, or 0 if the interface is unsupported."
        }
      },
      "name(bytes32)": {
        "params": {
          "node": "The ENS node to query."
        },
        "returns": {
          "result": "The associated name."
        }
      },
      "pubkey(bytes32)": {
        "params": {
          "node": "The ENS node to query"
        },
        "returns": {
          "x": "The X coordinate of the curve point for the public key.",
          "y": "The Y coordinate of the curve point for the public key."
        }
      },
      "text(bytes32,string)": {
        "params": {
          "key": "The text data key to query.",
          "node": "The ENS node to query."
        },
        "returns": {
          "result": "The associated text data."
        }
      },
      "zonehash(bytes32)": {
        "params": {
          "node": "The ENS node to query."
        },
        "returns": {
          "result": "The associated contenthash."
        }
      }
    },
    "version": 1
  },
  "userdoc": {
    "kind": "user",
    "methods": {
      "ABI(bytes32,uint256)": {
        "notice": "Returns the ABI associated with an ENS node. Defined in EIP205."
      },
      "addr(bytes32)": {
        "notice": "Returns the address associated with an ENS node."
      },
      "clearRecords(bytes32)": {
        "notice": "Increments the record version associated with an ENS node. May only be called by the owner of that node in the ENS registry."
      },
      "contenthash(bytes32)": {
        "notice": "Returns the contenthash associated with an ENS node."
      },
      "dnsRecord(bytes32,bytes32,uint16)": {
        "notice": "Obtain a DNS record."
      },
      "interfaceImplementer(bytes32,bytes4)": {
        "notice": "Returns the address of a contract that implements the specified interface for this name. If an implementer has not been set for this interfaceID and name, the resolver will query the contract at `addr()`. If `addr()` is set, a contract exists at that address, and that contract implements EIP165 and returns `true` for the specified interfaceID, its address will be returned."
      },
      "name(bytes32)": {
        "notice": "Returns the name associated with an ENS node, for reverse records. Defined in EIP181."
      },
      "pubkey(bytes32)": {
        "notice": "Returns the SECP256k1 public key associated with an ENS node. Defined in EIP 619."
      },
      "setEnsForwardRecord(bytes32,string,address)": {
        "notice": "Sets the address associated with a guild tag. May only be called by descendants of this contract"
      },
      "text(bytes32,string)": {
        "notice": "Returns the text data associated with an ENS node and key."
      },
      "zonehash(bytes32)": {
        "notice": "zonehash obtains the hash for the zone."
      }
    },
    "version": 1
  },
  "storageLayout": {
    "storage": [
      {
        "astId": 243,
        "contract": "contracts/ensGuilds/GuildsResolver.sol:GuildsResolver",
        "label": "recordVersions",
        "offset": 0,
        "slot": "0",
        "type": "t_mapping(t_bytes32,t_uint64)"
      },
      {
        "astId": 8502,
        "contract": "contracts/ensGuilds/GuildsResolver.sol:GuildsResolver",
        "label": "_passthroughTargets",
        "offset": 0,
        "slot": "1",
        "type": "t_mapping(t_bytes32,t_address)"
      },
      {
        "astId": 9279,
        "contract": "contracts/ensGuilds/GuildsResolver.sol:GuildsResolver",
        "label": "parentEnsNodes",
        "offset": 0,
        "slot": "2",
        "type": "t_mapping(t_bytes_memory_ptr,t_bytes32)"
      },
      {
        "astId": 6376,
        "contract": "contracts/ensGuilds/GuildsResolver.sol:GuildsResolver",
        "label": "ensGuilds",
        "offset": 0,
        "slot": "3",
        "type": "t_contract(IENSGuilds)6843"
      },
      {
        "astId": 6384,
        "contract": "contracts/ensGuilds/GuildsResolver.sol:GuildsResolver",
        "label": "_guildRecords",
        "offset": 0,
        "slot": "4",
        "type": "t_mapping(t_bytes32,t_mapping(t_uint256,t_mapping(t_bytes32,t_address)))"
      },
      {
        "astId": 6388,
        "contract": "contracts/ensGuilds/GuildsResolver.sol:GuildsResolver",
        "label": "_guildRecordVersions",
        "offset": 0,
        "slot": "5",
        "type": "t_mapping(t_bytes32,t_uint256)"
      }
    ],
    "types": {
      "t_address": {
        "encoding": "inplace",
        "label": "address",
        "numberOfBytes": "20"
      },
      "t_bytes32": {
        "encoding": "inplace",
        "label": "bytes32",
        "numberOfBytes": "32"
      },
      "t_bytes_memory_ptr": {
        "encoding": "bytes",
        "label": "bytes",
        "numberOfBytes": "32"
      },
      "t_contract(IENSGuilds)6843": {
        "encoding": "inplace",
        "label": "contract IENSGuilds",
        "numberOfBytes": "20"
      },
      "t_mapping(t_bytes32,t_address)": {
        "encoding": "mapping",
        "key": "t_bytes32",
        "label": "mapping(bytes32 => address)",
        "numberOfBytes": "32",
        "value": "t_address"
      },
      "t_mapping(t_bytes32,t_mapping(t_uint256,t_mapping(t_bytes32,t_address)))": {
        "encoding": "mapping",
        "key": "t_bytes32",
        "label": "mapping(bytes32 => mapping(uint256 => mapping(bytes32 => address)))",
        "numberOfBytes": "32",
        "value": "t_mapping(t_uint256,t_mapping(t_bytes32,t_address))"
      },
      "t_mapping(t_bytes32,t_uint256)": {
        "encoding": "mapping",
        "key": "t_bytes32",
        "label": "mapping(bytes32 => uint256)",
        "numberOfBytes": "32",
        "value": "t_uint256"
      },
      "t_mapping(t_bytes32,t_uint64)": {
        "encoding": "mapping",
        "key": "t_bytes32",
        "label": "mapping(bytes32 => uint64)",
        "numberOfBytes": "32",
        "value": "t_uint64"
      },
      "t_mapping(t_bytes_memory_ptr,t_bytes32)": {
        "encoding": "mapping",
        "key": "t_bytes_memory_ptr",
        "label": "mapping(bytes => bytes32)",
        "numberOfBytes": "32",
        "value": "t_bytes32"
      },
      "t_mapping(t_uint256,t_mapping(t_bytes32,t_address))": {
        "encoding": "mapping",
        "key": "t_uint256",
        "label": "mapping(uint256 => mapping(bytes32 => address))",
        "numberOfBytes": "32",
        "value": "t_mapping(t_bytes32,t_address)"
      },
      "t_uint256": {
        "encoding": "inplace",
        "label": "uint256",
        "numberOfBytes": "32"
      },
      "t_uint64": {
        "encoding": "inplace",
        "label": "uint64",
        "numberOfBytes": "8"
      }
    }
  }
}