{
  "address": "0x36E8C60Ebf4Ce520C820F9389BBfCE8dA83Dfbc1",
  "abi": [
    {
      "inputs": [
        {
          "internalType": "contract ENS",
          "name": "_ensRegistry",
          "type": "address"
        },
        {
          "internalType": "contract IENSGuilds",
          "name": "ensGuilds",
          "type": "address"
        },
        {
          "internalType": "address",
          "name": "reverseRecordOwner",
          "type": "address"
        }
      ],
      "stateMutability": "nonpayable",
      "type": "constructor"
    },
    {
      "inputs": [],
      "name": "TokenIDTagMustMatchCallerTokenID",
      "type": "error"
    },
    {
      "inputs": [
        {
          "internalType": "bytes32",
          "name": "guildEnsNode",
          "type": "bytes32"
        },
        {
          "internalType": "string",
          "name": "tag",
          "type": "string"
        },
        {
          "internalType": "address",
          "name": "claimant",
          "type": "address"
        },
        {
          "internalType": "address",
          "name": "",
          "type": "address"
        },
        {
          "internalType": "bytes",
          "name": "extraClaimArgs",
          "type": "bytes"
        }
      ],
      "name": "canClaimTag",
      "outputs": [
        {
          "internalType": "bool",
          "name": "",
          "type": "bool"
        }
      ],
      "stateMutability": "view",
      "type": "function"
    },
    {
      "inputs": [
        {
          "internalType": "address",
          "name": "",
          "type": "address"
        },
        {
          "internalType": "bytes32",
          "name": "guildEnsNode",
          "type": "bytes32"
        },
        {
          "internalType": "string",
          "name": "tag",
          "type": "string"
        },
        {
          "internalType": "bytes",
          "name": "extraRevokeArgs",
          "type": "bytes"
        }
      ],
      "name": "canRevokeTag",
      "outputs": [
        {
          "internalType": "bool",
          "name": "",
          "type": "bool"
        }
      ],
      "stateMutability": "view",
      "type": "function"
    },
    {
      "inputs": [
        {
          "internalType": "bytes32",
          "name": "",
          "type": "bytes32"
        },
        {
          "internalType": "string",
          "name": "",
          "type": "string"
        },
        {
          "internalType": "address",
          "name": "transferredBy",
          "type": "address"
        },
        {
          "internalType": "address",
          "name": "currentOwner",
          "type": "address"
        },
        {
          "internalType": "address",
          "name": "",
          "type": "address"
        },
        {
          "internalType": "bytes",
          "name": "",
          "type": "bytes"
        }
      ],
      "name": "canTransferTag",
      "outputs": [
        {
          "internalType": "bool",
          "name": "",
          "type": "bool"
        }
      ],
      "stateMutability": "pure",
      "type": "function"
    },
    {
      "inputs": [],
      "name": "ensGuilds",
      "outputs": [
        {
          "internalType": "contract IENSGuilds",
          "name": "",
          "type": "address"
        }
      ],
      "stateMutability": "view",
      "type": "function"
    },
    {
      "inputs": [
        {
          "internalType": "bytes32",
          "name": "",
          "type": "bytes32"
        }
      ],
      "name": "guilds",
      "outputs": [
        {
          "internalType": "address",
          "name": "tokenContract",
          "type": "address"
        },
        {
          "internalType": "enum NFTTagsAuthPolicy.TokenStandard",
          "name": "tokenStandard",
          "type": "uint8"
        }
      ],
      "stateMutability": "view",
      "type": "function"
    },
    {
      "inputs": [
        {
          "internalType": "bytes32",
          "name": "guildEnsNode",
          "type": "bytes32"
        },
        {
          "internalType": "string",
          "name": "tag",
          "type": "string"
        },
        {
          "internalType": "address",
          "name": "claimant",
          "type": "address"
        },
        {
          "internalType": "address",
          "name": "recipient",
          "type": "address"
        },
        {
          "internalType": "bytes",
          "name": "extraClaimArgs",
          "type": "bytes"
        }
      ],
      "name": "onTagClaimed",
      "outputs": [
        {
          "internalType": "string",
          "name": "tagToRevoke",
          "type": "string"
        }
      ],
      "stateMutability": "nonpayable",
      "type": "function"
    },
    {
      "inputs": [
        {
          "internalType": "address",
          "name": "revokedBy",
          "type": "address"
        },
        {
          "internalType": "address",
          "name": "revokedFrom",
          "type": "address"
        },
        {
          "internalType": "bytes32",
          "name": "guildEnsNode",
          "type": "bytes32"
        },
        {
          "internalType": "string",
          "name": "tag",
          "type": "string"
        }
      ],
      "name": "onTagRevoked",
      "outputs": [],
      "stateMutability": "nonpayable",
      "type": "function"
    },
    {
      "inputs": [
        {
          "internalType": "bytes32",
          "name": "guildEnsNode",
          "type": "bytes32"
        },
        {
          "internalType": "string",
          "name": "tag",
          "type": "string"
        },
        {
          "internalType": "address",
          "name": "transferredBy",
          "type": "address"
        },
        {
          "internalType": "address",
          "name": "prevOwner",
          "type": "address"
        },
        {
          "internalType": "address",
          "name": "newOwner",
          "type": "address"
        }
      ],
      "name": "onTagTransferred",
      "outputs": [],
      "stateMutability": "nonpayable",
      "type": "function"
    },
    {
      "inputs": [
        {
          "internalType": "bytes32",
          "name": "guildEnsNode",
          "type": "bytes32"
        },
        {
          "internalType": "address",
          "name": "tokenContract",
          "type": "address"
        }
      ],
      "name": "setTokenContract",
      "outputs": [],
      "stateMutability": "nonpayable",
      "type": "function"
    },
    {
      "inputs": [
        {
          "internalType": "bytes4",
          "name": "interfaceID",
          "type": "bytes4"
        }
      ],
      "name": "supportsInterface",
      "outputs": [
        {
          "internalType": "bool",
          "name": "",
          "type": "bool"
        }
      ],
      "stateMutability": "view",
      "type": "function"
    }
  ],
  "transactionHash": "0xbf8675e40157f975baabdd4446cb8764ae42cae98b546da52a8604184dc39f92",
  "args": [
    "0x00000000000C2E074eC69A0dFb2997BA6C7d2e1e",
    "0xF03021AAa150C0d3A57E62D2C64B4b8C064be8B1",
    "0xc17cB209D5aBdb2d00f566a1E48F558DEBC264E1"
  ],
  "numDeployments": 1,
  "solcInputHash": "7331d540f29a35a261d4daf89b5d421d",
  "bytecode": "0x60a06040523480156200001157600080fd5b5060405162001656380380620016568339810160408190526200003491620001e8565b60016000556040516301ffc9a760e01b81526301d37a4160e51b60048201528390829084906001600160a01b038216906301ffc9a790602401602060405180830381865afa1580156200008b573d6000803e3d6000fd5b505050506040513d601f19601f82011682018060405250810190620000b191906200023c565b620000bb57600080fd5b6001600160a01b039081166080526040516302571be360e01b81527f91d1777781884d03a6757a803996e38de2a42967fb37eeaca72729271025a9e260048201526000918416906302571be390602401602060405180830381865afa15801562000129573d6000803e3d6000fd5b505050506040513d601f19601f820116820180604052508101906200014f919062000267565b604051630f41a04d60e11b81526001600160a01b03848116600483015291925090821690631e83409a906024016020604051808303816000875af11580156200019c573d6000803e3d6000fd5b505050506040513d601f19601f82011682018060405250810190620001c2919062000287565b50505050505050620002a1565b6001600160a01b0381168114620001e557600080fd5b50565b600080600060608486031215620001fe57600080fd5b83516200020b81620001cf565b60208501519093506200021e81620001cf565b60408501519092506200023181620001cf565b809150509250925092565b6000602082840312156200024f57600080fd5b815180151581146200026057600080fd5b9392505050565b6000602082840312156200027a57600080fd5b81516200026081620001cf565b6000602082840312156200029a57600080fd5b5051919050565b60805161137d620002d9600039600081816101c70152818161041601528181610487015281816105d70152610624015261137d6000f3fe608060405234801561001057600080fd5b50600436106100be5760003560e01c8063acdbdda111610076578063d919713f1161005b578063d919713f1461017f578063e2443ad2146101c2578063fda41c101461020157600080fd5b8063acdbdda114610146578063d4f1d4e51461016c57600080fd5b806329593e5a116100a757806329593e5a146100fe578063513388491461011e5780639609fb171461013357600080fd5b806301ffc9a7146100c35780630910b77f146100eb575b600080fd5b6100d66100d1366004610c87565b610214565b60405190151581526020015b60405180910390f35b6100d66100f9366004610d0b565b61024b565b61011161010c366004610d0b565b610409565b6040516100e29190610dae565b61013161012c366004610dfc565b610463565b005b610131610141366004610e42565b6105cc565b6100d6610154366004610f22565b5050506001600160a01b039081169116149392505050565b61013161017a366004610fd9565b610619565b6101b461018d36600461105e565b6001602052600090815260409020546001600160a01b03811690600160a01b900460ff1682565b6040516100e292919061108d565b6101e97f000000000000000000000000000000000000000000000000000000000000000081565b6040516001600160a01b0390911681526020016100e2565b6100d661020f3660046110c8565b610668565b60006001600160e01b031982166319e733b360e11b148061024557506301ffc9a760e01b6001600160e01b03198316145b92915050565b60008781526001602090815260408220805490916001600160a01b0390911690841461027c576000925050506103fe565b60006102888587611154565b90506000808454600160a01b900460ff1660018111156102aa576102aa611077565b0361032e576040516331a9108f60e11b8152600481018390526001600160a01b03808b169190851690636352211e90602401602060405180830381865afa1580156102f9573d6000803e3d6000fd5b505050506040513d601f19601f8201168201806040525081019061031d9190611172565b6001600160a01b03161490506103a5565b604051627eeac760e11b81526001600160a01b038a81166004830152602482018490526000919085169062fdd58e90604401602060405180830381865afa15801561037d573d6000803e3d6000fd5b505050506040513d601f19601f820116820180604052508101906103a1919061118f565b1190505b806103b75760009450505050506103fe565b6000806103c48d8d6108e2565b915091508180156103d55750838114155b156103f35760405163398a3b7d60e21b815260040160405180910390fd5b600196505050505050505b979650505050505050565b60606104136109f2565b337f00000000000000000000000000000000000000000000000000000000000000006001600160a01b03161461044857600080fd5b61045788888888888888610a4f565b90506103fe6001600055565b813360405163022c977f60e01b8152600481018390526001600160a01b03918216917f0000000000000000000000000000000000000000000000000000000000000000169063022c977f90602401602060405180830381865afa1580156104ce573d6000803e3d6000fd5b505050506040513d601f19601f820116820180604052508101906104f29190611172565b6001600160a01b03161461050557600080fd5b61051f6001600160a01b0383166380ac58cd60e01b610b81565b1561054c576000838152600160205260408120805460ff60a01b1916600160a01b835b0217905550610590565b6105666001600160a01b038316636cdb3d1360e11b610b81565b156100be576000838152600160208190526040909120805460ff60a01b1916600160a01b83610542565b50600091825260016020526040909120805473ffffffffffffffffffffffffffffffffffffffff19166001600160a01b03909216919091179055565b6105d46109f2565b337f00000000000000000000000000000000000000000000000000000000000000006001600160a01b03161461060957600080fd5b6106136001600055565b50505050565b6106216109f2565b337f00000000000000000000000000000000000000000000000000000000000000006001600160a01b03161461065657600080fd5b6106606001600055565b505050505050565b60006020821461067a575060006108d8565b60006106868385611154565b60008881526001602090815260409182902080548351601f8b01849004840281018401909452898452939450926001600160a01b031691610782918a908a90819084018382808284376000920182905250888152600188016020526040902080549093506106f6925090506111a8565b80601f0160208091040260200160405190810160405280929190818152602001828054610722906111a8565b801561076f5780601f106107445761010080835404028352916020019161076f565b820191906000526020600020905b81548152906001019060200180831161075257829003601f168201915b5050505050610ba490919063ffffffff16565b61079257600093505050506108d8565b600083815260018084016020526040822001546001600160a01b0316908354600160a01b900460ff1660018111156107cc576107cc611077565b03610861576040516331a9108f60e11b8152600481018590526000906001600160a01b03841690636352211e90602401602060405180830381865afa158015610819573d6000803e3d6000fd5b505050506040513d601f19601f8201168201806040525081019061083d9190611172565b9050816001600160a01b0316816001600160a01b03161415955050505050506108d8565b604051627eeac760e11b81526001600160a01b0382811660048301526024820186905283169062fdd58e90604401602060405180830381865afa1580156108ac573d6000803e3d6000fd5b505050506040513d601f19601f820116820180604052508101906108d0919061118f565b159450505050505b9695505050505050565b600080805b838110156109e557600360fc1b858583818110610906576109066111e2565b9050013560f81c60f81b7effffffffffffffffffffffffffffffffffffffffffffffffffffffffffffff1916108061097e5750603960f81b858583818110610950576109506111e2565b9050013560f81c60f81b7effffffffffffffffffffffffffffffffffffffffffffffffffffffffffffff1916115b156109905760008092509250506109eb565b600060308686848181106109a6576109a66111e2565b6109b79392013560f81c905061120e565b9050806109c584600a611221565b6109cf9190611238565b92505080806109dd9061124b565b9150506108e7565b60019250505b9250929050565b600260005403610a485760405162461bcd60e51b815260206004820152601f60248201527f5265656e7472616e637947756172643a207265656e7472616e742063616c6c00604482015260640160405180910390fd5b6002600055565b60606000610a5d8385611154565b60008a815260016020818152604080842085855290920190529020805491925090610a87906111a8565b80601f0160208091040260200160405190810160405280929190818152602001828054610ab3906111a8565b8015610b005780601f10610ad557610100808354040283529160200191610b00565b820191906000526020600020905b815481529060010190602001808311610ae357829003601f168201915b50505060008c815260016020818152604080842088855290920190529020929450610b3091508990508a836112af565b50600089815260016020818152604080842094845293820190529190200180546001600160a01b03871673ffffffffffffffffffffffffffffffffffffffff19909116179055979650505050505050565b6000610b8c83610bba565b8015610b9d5750610b9d8383610bed565b9392505050565b8051602091820120825192909101919091201490565b6000610bcd826301ffc9a760e01b610bed565b80156102455750610be6826001600160e01b0319610bed565b1592915050565b604080516001600160e01b03198316602480830191909152825180830390910181526044909101909152602080820180517bffffffffffffffffffffffffffffffffffffffffffffffffffffffff166301ffc9a760e01b178152825160009392849283928392918391908a617530fa92503d91506000519050828015610c74575060208210155b80156103fe575015159695505050505050565b600060208284031215610c9957600080fd5b81356001600160e01b031981168114610b9d57600080fd5b60008083601f840112610cc357600080fd5b50813567ffffffffffffffff811115610cdb57600080fd5b6020830191508360208285010111156109eb57600080fd5b6001600160a01b0381168114610d0857600080fd5b50565b600080600080600080600060a0888a031215610d2657600080fd5b87359650602088013567ffffffffffffffff80821115610d4557600080fd5b610d518b838c01610cb1565b909850965060408a01359150610d6682610cf3565b909450606089013590610d7882610cf3565b90935060808901359080821115610d8e57600080fd5b50610d9b8a828b01610cb1565b989b979a50959850939692959293505050565b600060208083528351808285015260005b81811015610ddb57858101830151858201604001528201610dbf565b506000604082860101526040601f19601f8301168501019250505092915050565b60008060408385031215610e0f57600080fd5b823591506020830135610e2181610cf3565b809150509250929050565b634e487b7160e01b600052604160045260246000fd5b60008060008060808587031215610e5857600080fd5b8435610e6381610cf3565b93506020850135610e7381610cf3565b925060408501359150606085013567ffffffffffffffff80821115610e9757600080fd5b818701915087601f830112610eab57600080fd5b813581811115610ebd57610ebd610e2c565b604051601f8201601f19908116603f01168101908382118183101715610ee557610ee5610e2c565b816040528281528a6020848701011115610efe57600080fd5b82602086016020830137600060208483010152809550505050505092959194509250565b60008060008060008060008060c0898b031215610f3e57600080fd5b88359750602089013567ffffffffffffffff80821115610f5d57600080fd5b610f698c838d01610cb1565b909950975060408b01359150610f7e82610cf3565b90955060608a013590610f9082610cf3565b90945060808a013590610fa282610cf3565b90935060a08a01359080821115610fb857600080fd5b50610fc58b828c01610cb1565b999c989b5096995094979396929594505050565b60008060008060008060a08789031215610ff257600080fd5b86359550602087013567ffffffffffffffff81111561101057600080fd5b61101c89828a01610cb1565b909650945050604087013561103081610cf3565b9250606087013561104081610cf3565b9150608087013561105081610cf3565b809150509295509295509295565b60006020828403121561107057600080fd5b5035919050565b634e487b7160e01b600052602160045260246000fd5b6001600160a01b038316815260408101600283106110bb57634e487b7160e01b600052602160045260246000fd5b8260208301529392505050565b600080600080600080608087890312156110e157600080fd5b86356110ec81610cf3565b955060208701359450604087013567ffffffffffffffff8082111561111057600080fd5b61111c8a838b01610cb1565b9096509450606089013591508082111561113557600080fd5b5061114289828a01610cb1565b979a9699509497509295939492505050565b8035602083101561024557600019602084900360031b1b1692915050565b60006020828403121561118457600080fd5b8151610b9d81610cf3565b6000602082840312156111a157600080fd5b5051919050565b600181811c908216806111bc57607f821691505b6020821081036111dc57634e487b7160e01b600052602260045260246000fd5b50919050565b634e487b7160e01b600052603260045260246000fd5b634e487b7160e01b600052601160045260246000fd5b81810381811115610245576102456111f8565b8082028115828204841417610245576102456111f8565b80820180821115610245576102456111f8565b60006001820161125d5761125d6111f8565b5060010190565b601f8211156112aa57600081815260208120601f850160051c8101602086101561128b5750805b601f850160051c820191505b8181101561066057828155600101611297565b505050565b67ffffffffffffffff8311156112c7576112c7610e2c565b6112db836112d583546111a8565b83611264565b6000601f84116001811461130f57600085156112f75750838201355b600019600387901b1c1916600186901b178355611369565b600083815260209020601f19861690835b828110156113405786850135825560209485019460019092019101611320565b508682101561135d5760001960f88860031b161c19848701351681555b505060018560011b0183555b505050505056fea164736f6c6343000811000a",
  "libraries": {
    "ERC165Checker": "0x7EB821Aa0cA01198A9EC28ee9f5d7491508233e4",
    "StringParsing": "0xe0c9b7B08a9A409eA6537c8fb307CE6758CfEd16",
    "Strings": "0x572CbB4dbd1f3bB4E23Cc3d8F4460B3E6d871826",
    "NameEncoder": "0x2b1D7EE297A345fF0C57B3c3B0F34b59951756b1",
    "ENSNameHash": "0x969254c8EC87eF59BeB6F6eA928f1A00bb649Ecc",
    "ENSByteUtils": "0x4A44B0Af7483Eb232F606418Aa099ad453F95A02",
    "ENSParentName": "0xeE1CcD12e954bFD828EEb4Ca3B76cfE4cbc42C76"
  },
  "devdoc": {
    "kind": "dev",
    "methods": {
      "canClaimTag(bytes32,string,address,address,bytes)": {
        "details": "Expects that the caller will supply the NFT's TokenID in `extraClaimArgs`. The caller must own the given TokenID.",
        "params": {
          "claimant": "The address attempting to claim the tag (not necessarily the address that will receive it)",
          "extraClaimArgs": "[Optional] Any guild-specific additional arguments required",
          "guildEnsNode": "The ENS namehash of the guild's domain",
          "recipient": "The address that would receive the tag",
          "tag": "The tag being claimed (e.g. 'foo' for foo.my-guild.eth)"
        }
      },
      "canRevokeTag(address,bytes32,string,bytes)": {
        "params": {
          "extraRevokeArgs": "Any additional arguments necessary for assessing whether a tag may be revoked",
          "guildEnsNode": "The ENS namehash of the guild's domain",
          "revokedBy": "The address that would attempt to revoke it",
          "tag": "The tag being revoked (e.g. 'foo' for foo.my-guild.eth)"
        }
      },
      "canTransferTag(bytes32,string,address,address,address,bytes)": {
        "params": {
          "currentOwner": "The address currently owning the given tag",
          "extraTransferArgs": "Any additional arguments necessary for assessing whether a tag may be transferred",
          "guildEnsNode": "The ENS namehash of the guild's domain",
          "newOwner": "The address that would receive the tag",
          "tag": "The tag being revoked (e.g. 'foo' for foo.my-guild.eth)",
          "transferredBy": "The address initiating the transfer. May be different than the currentOwner, such as an admin or a marketplace contract"
        }
      },
      "onTagClaimed(bytes32,string,address,address,bytes)": {
        "details": "protects against reentrancy and checks that caller is the Guilds contract. Updating any state is deferred to the implementation.",
        "params": {
          "claimant": "The address that claimed the tag (not necessarily the address that received it)",
          "extraClaimArgs": "[Optional] Any guild-specific additional arguments required",
          "guildEnsNode": "The ENS namehash of the guild's domain",
          "recipient": "The address that received receive the tag",
          "tag": "The tag being claimed (e.g. 'foo' for foo.my-guild.eth)"
        },
        "returns": {
          "tagToRevoke": "Any tag that should be revoked as a consequence of the given tag being claimed. Returns empty string if no tag should be revoked."
        }
      },
      "onTagRevoked(address,address,bytes32,string)": {
        "details": "protects against reentrancy and checks that caller is the Guilds contract. Updating any state is deferred to the implementation.",
        "params": {
          "guildEnsNode": "The ENS namehash of the guild's domain",
          "revokedBy": "The address that revoked it",
          "revokedFrom": "The address who owned it when it was revoked",
          "tag": "The tag being revoked (e.g. 'foo' for foo.my-guild.eth)"
        }
      },
      "onTagTransferred(bytes32,string,address,address,address)": {
        "details": "protects against reentrancy and checks that caller is the Guilds contract. Updating any state is deferred to the implementation.",
        "params": {
          "guildEnsNode": "The ENS namehash of the guild's domain",
          "newOwner": "The address that received the tag",
          "prevOwner": "The address that previously owned the tag",
          "tag": "The tag that was transferred",
          "transferredBy": "The address initiating the transfer"
        }
      },
      "setTokenContract(bytes32,address)": {
        "params": {
          "guildEnsNode": "The ENS namehash of the guild's domain",
          "tokenContract": "The ERC721 or ERC1155 collection to use"
        }
      }
    },
    "title": "NFTTagsAuthPolicy",
    "version": 1
  },
  "userdoc": {
    "kind": "user",
    "methods": {
      "canClaimTag(bytes32,string,address,address,bytes)": {
        "notice": "Checks whether a certain address (claimant) may claim a given guild tag that has been revoked or has never been claimed"
      },
      "canRevokeTag(address,bytes32,string,bytes)": {
        "notice": "Checks whether a given guild tag is eligible to be revoked"
      },
      "canTransferTag(bytes32,string,address,address,address,bytes)": {
        "notice": "Checks whether a tag can be transferred. Implementations may trust that `currentOwner` is the owner of the given tag."
      },
      "onTagRevoked(address,address,bytes32,string)": {
        "notice": "Called by ENSGuilds once a tag has been revoked."
      },
      "onTagTransferred(bytes32,string,address,address,address)": {
        "notice": "Called by ENSGuilds once a tag has been transferred"
      },
      "setTokenContract(bytes32,address)": {
        "notice": "Registers the specific NFT collection that a user must be a member of to mint a guild tag"
      }
    },
    "notice": "A common implementation of TagsAuthPolicy that can be used to restrict minting guild tags to only addresses that own an NFT from a given collection, configured per-guild by each guild's admin. An address may mint a tag once per each item in the collection that it owns. Minting two tags from the same TokenID will result in the first being revoked once the second is minted, regardless of whether ownership of that TokenID has changed. A user's guild tag is eligible for revocation once that user ceases to own the TokenID used in minting that tag.",
    "version": 1
  },
  "storageLayout": {
    "storage": [
      {
        "astId": 1477,
        "contract": "contracts/tagsAuthPolicies/NFTTagsAuthPolicy.sol:NFTTagsAuthPolicy",
        "label": "_status",
        "offset": 0,
        "slot": "0",
        "type": "t_uint256"
      },
      {
        "astId": 11060,
        "contract": "contracts/tagsAuthPolicies/NFTTagsAuthPolicy.sol:NFTTagsAuthPolicy",
        "label": "guilds",
        "offset": 0,
        "slot": "1",
        "type": "t_mapping(t_bytes32,t_struct(GuildInfo)11055_storage)"
      }
    ],
    "types": {
      "t_address": {
        "encoding": "inplace",
        "label": "address",
        "numberOfBytes": "20"
      },
      "t_bytes32": {
        "encoding": "inplace",
        "label": "bytes32",
        "numberOfBytes": "32"
      },
      "t_enum(TokenStandard)11039": {
        "encoding": "inplace",
        "label": "enum NFTTagsAuthPolicy.TokenStandard",
        "numberOfBytes": "1"
      },
      "t_mapping(t_bytes32,t_struct(GuildInfo)11055_storage)": {
        "encoding": "mapping",
        "key": "t_bytes32",
        "label": "mapping(bytes32 => struct NFTTagsAuthPolicy.GuildInfo)",
        "numberOfBytes": "32",
        "value": "t_struct(GuildInfo)11055_storage"
      },
      "t_mapping(t_uint256,t_struct(TagClaim)11044_storage)": {
        "encoding": "mapping",
        "key": "t_uint256",
        "label": "mapping(uint256 => struct NFTTagsAuthPolicy.TagClaim)",
        "numberOfBytes": "32",
        "value": "t_struct(TagClaim)11044_storage"
      },
      "t_string_storage": {
        "encoding": "bytes",
        "label": "string",
        "numberOfBytes": "32"
      },
      "t_struct(GuildInfo)11055_storage": {
        "encoding": "inplace",
        "label": "struct NFTTagsAuthPolicy.GuildInfo",
        "members": [
          {
            "astId": 11046,
            "contract": "contracts/tagsAuthPolicies/NFTTagsAuthPolicy.sol:NFTTagsAuthPolicy",
            "label": "tokenContract",
            "offset": 0,
            "slot": "0",
            "type": "t_address"
          },
          {
            "astId": 11049,
            "contract": "contracts/tagsAuthPolicies/NFTTagsAuthPolicy.sol:NFTTagsAuthPolicy",
            "label": "tokenStandard",
            "offset": 20,
            "slot": "0",
            "type": "t_enum(TokenStandard)11039"
          },
          {
            "astId": 11054,
            "contract": "contracts/tagsAuthPolicies/NFTTagsAuthPolicy.sol:NFTTagsAuthPolicy",
            "label": "tagClaims",
            "offset": 0,
            "slot": "1",
            "type": "t_mapping(t_uint256,t_struct(TagClaim)11044_storage)"
          }
        ],
        "numberOfBytes": "64"
      },
      "t_struct(TagClaim)11044_storage": {
        "encoding": "inplace",
        "label": "struct NFTTagsAuthPolicy.TagClaim",
        "members": [
          {
            "astId": 11041,
            "contract": "contracts/tagsAuthPolicies/NFTTagsAuthPolicy.sol:NFTTagsAuthPolicy",
            "label": "tag",
            "offset": 0,
            "slot": "0",
            "type": "t_string_storage"
          },
          {
            "astId": 11043,
            "contract": "contracts/tagsAuthPolicies/NFTTagsAuthPolicy.sol:NFTTagsAuthPolicy",
            "label": "claimedBy",
            "offset": 0,
            "slot": "1",
            "type": "t_address"
          }
        ],
        "numberOfBytes": "64"
      },
      "t_uint256": {
        "encoding": "inplace",
        "label": "uint256",
        "numberOfBytes": "32"
      }
    }
  }
}