{
  "address": "0x9e5CBcE6Ffb9fB9d1742Ca25124628b01FD37E58",
  "abi": [
    {
      "inputs": [
        {
          "internalType": "contract ENS",
          "name": "_ensRegistry",
          "type": "address"
        },
        {
          "internalType": "address",
          "name": "reverseRecordOwner",
          "type": "address"
        }
      ],
      "stateMutability": "nonpayable",
      "type": "constructor"
    },
    {
      "inputs": [
        {
          "internalType": "bytes32",
          "name": "",
          "type": "bytes32"
        },
        {
          "internalType": "string",
          "name": "",
          "type": "string"
        },
        {
          "internalType": "address",
          "name": "",
          "type": "address"
        },
        {
          "internalType": "address",
          "name": "",
          "type": "address"
        },
        {
          "internalType": "bytes",
          "name": "",
          "type": "bytes"
        }
      ],
      "name": "canClaimTag",
      "outputs": [
        {
          "internalType": "bool",
          "name": "",
          "type": "bool"
        }
      ],
      "stateMutability": "pure",
      "type": "function"
    },
    {
      "inputs": [
        {
          "internalType": "address",
          "name": "",
          "type": "address"
        },
        {
          "internalType": "bytes32",
          "name": "",
          "type": "bytes32"
        },
        {
          "internalType": "string",
          "name": "",
          "type": "string"
        },
        {
          "internalType": "bytes",
          "name": "",
          "type": "bytes"
        }
      ],
      "name": "canRevokeTag",
      "outputs": [
        {
          "internalType": "bool",
          "name": "",
          "type": "bool"
        }
      ],
      "stateMutability": "pure",
      "type": "function"
    },
    {
      "inputs": [
        {
          "internalType": "bytes32",
          "name": "",
          "type": "bytes32"
        },
        {
          "internalType": "string",
          "name": "",
          "type": "string"
        },
        {
          "internalType": "address",
          "name": "transferredBy",
          "type": "address"
        },
        {
          "internalType": "address",
          "name": "currentOwner",
          "type": "address"
        },
        {
          "internalType": "address",
          "name": "",
          "type": "address"
        },
        {
          "internalType": "bytes",
          "name": "",
          "type": "bytes"
        }
      ],
      "name": "canTransferTag",
      "outputs": [
        {
          "internalType": "bool",
          "name": "",
          "type": "bool"
        }
      ],
      "stateMutability": "pure",
      "type": "function"
    },
    {
      "inputs": [
        {
          "internalType": "bytes32",
          "name": "",
          "type": "bytes32"
        },
        {
          "internalType": "string",
          "name": "",
          "type": "string"
        },
        {
          "internalType": "address",
          "name": "",
          "type": "address"
        },
        {
          "internalType": "address",
          "name": "",
          "type": "address"
        },
        {
          "internalType": "bytes",
          "name": "",
          "type": "bytes"
        }
      ],
      "name": "onTagClaimed",
      "outputs": [
        {
          "internalType": "string",
          "name": "tagToRevoke",
          "type": "string"
        }
      ],
      "stateMutability": "nonpayable",
      "type": "function"
    },
    {
      "inputs": [
        {
          "internalType": "address",
          "name": "",
          "type": "address"
        },
        {
          "internalType": "address",
          "name": "",
          "type": "address"
        },
        {
          "internalType": "bytes32",
          "name": "",
          "type": "bytes32"
        },
        {
          "internalType": "string",
          "name": "",
          "type": "string"
        }
      ],
      "name": "onTagRevoked",
      "outputs": [],
      "stateMutability": "pure",
      "type": "function"
    },
    {
      "inputs": [
        {
          "internalType": "bytes32",
          "name": "",
          "type": "bytes32"
        },
        {
          "internalType": "string",
          "name": "",
          "type": "string"
        },
        {
          "internalType": "address",
          "name": "",
          "type": "address"
        },
        {
          "internalType": "address",
          "name": "",
          "type": "address"
        },
        {
          "internalType": "address",
          "name": "",
          "type": "address"
        }
      ],
      "name": "onTagTransferred",
      "outputs": [],
      "stateMutability": "pure",
      "type": "function"
    },
    {
      "inputs": [
        {
          "internalType": "bytes4",
          "name": "interfaceID",
          "type": "bytes4"
        }
      ],
      "name": "supportsInterface",
      "outputs": [
        {
          "internalType": "bool",
          "name": "",
          "type": "bool"
        }
      ],
      "stateMutability": "view",
      "type": "function"
    }
  ],
  "transactionHash": "0xfe0a86d1caf395dfc8227c7570b7db648e674111a8cbde081e2ba6815fa85715",
  "args": [
    "0x00000000000C2E074eC69A0dFb2997BA6C7d2e1e",
    "0xc17cB209D5aBdb2d00f566a1E48F558DEBC264E1"
  ],
  "numDeployments": 1,
  "solcInputHash": "bd4bcb26d619e74f6e56ea7167e7db78",
  "bytecode": "0x608060405234801561001057600080fd5b506040516107c53803806107c583398101604081905261002f91610151565b6040516302571be360e01b81527f91d1777781884d03a6757a803996e38de2a42967fb37eeaca72729271025a9e26004820152829082906000906001600160a01b038416906302571be390602401602060405180830381865afa15801561009a573d6000803e3d6000fd5b505050506040513d601f19601f820116820180604052508101906100be919061018b565b604051630f41a04d60e11b81526001600160a01b03848116600483015291925090821690631e83409a906024016020604051808303816000875af115801561010a573d6000803e3d6000fd5b505050506040513d601f19601f8201168201806040525081019061012e91906101af565b5050505050506101c8565b6001600160a01b038116811461014e57600080fd5b50565b6000806040838503121561016457600080fd5b825161016f81610139565b602084015190925061018081610139565b809150509250929050565b60006020828403121561019d57600080fd5b81516101a881610139565b9392505050565b6000602082840312156101c157600080fd5b5051919050565b6105ee806101d76000396000f3fe608060405234801561001057600080fd5b506004361061007d5760003560e01c80639609fb171161005b5780639609fb17146100fa578063acdbdda114610110578063d4f1d4e514610143578063fda41c101461015957600080fd5b806301ffc9a7146100825780630910b77f146100aa57806329593e5a146100c5575b600080fd5b6100956100903660046101aa565b610173565b60405190151581526020015b60405180910390f35b6100956100b836600461024d565b6001979650505050505050565b6100ed6100d336600461024d565b604080516020810190915260008152979650505050505050565b6040516100a191906102eb565b61010e61010836600461034f565b50505050565b005b61009561011e36600461042b565b50505073ffffffffffffffffffffffffffffffffffffffff9081169116149392505050565b61010e6101513660046104d9565b505050505050565b610095610167366004610557565b60009695505050505050565b60006001600160e01b031982166319e733b360e11b14806101a457506301ffc9a760e01b6001600160e01b03198316145b92915050565b6000602082840312156101bc57600080fd5b81356001600160e01b0319811681146101d457600080fd5b9392505050565b60008083601f8401126101ed57600080fd5b50813567ffffffffffffffff81111561020557600080fd5b60208301915083602082850101111561021d57600080fd5b9250929050565b803573ffffffffffffffffffffffffffffffffffffffff8116811461024857600080fd5b919050565b600080600080600080600060a0888a03121561026857600080fd5b87359650602088013567ffffffffffffffff8082111561028757600080fd5b6102938b838c016101db565b90985096508691506102a760408b01610224565b95506102b560608b01610224565b945060808a01359150808211156102cb57600080fd5b506102d88a828b016101db565b989b979a50959850939692959293505050565b600060208083528351808285015260005b81811015610318578581018301518582016040015282016102fc565b506000604082860101526040601f19601f8301168501019250505092915050565b634e487b7160e01b600052604160045260246000fd5b6000806000806080858703121561036557600080fd5b61036e85610224565b935061037c60208601610224565b925060408501359150606085013567ffffffffffffffff808211156103a057600080fd5b818701915087601f8301126103b457600080fd5b8135818111156103c6576103c6610339565b604051601f8201601f19908116603f011681019083821181831017156103ee576103ee610339565b816040528281528a602084870101111561040757600080fd5b82602086016020830137600060208483010152809550505050505092959194509250565b60008060008060008060008060c0898b03121561044757600080fd5b88359750602089013567ffffffffffffffff8082111561046657600080fd5b6104728c838d016101db565b909950975087915061048660408c01610224565b965061049460608c01610224565b95506104a260808c01610224565b945060a08b01359150808211156104b857600080fd5b506104c58b828c016101db565b999c989b5096995094979396929594505050565b60008060008060008060a087890312156104f257600080fd5b86359550602087013567ffffffffffffffff81111561051057600080fd5b61051c89828a016101db565b909650945061052f905060408801610224565b925061053d60608801610224565b915061054b60808801610224565b90509295509295509295565b6000806000806000806080878903121561057057600080fd5b61057987610224565b955060208701359450604087013567ffffffffffffffff8082111561059d57600080fd5b6105a98a838b016101db565b909650945060608901359150808211156105c257600080fd5b506105cf89828a016101db565b979a969950949750929593949250505056fea164736f6c6343000811000a",
  "libraries": {
    "ERC165Checker": "0x7EB821Aa0cA01198A9EC28ee9f5d7491508233e4",
    "StringParsing": "0xe0c9b7B08a9A409eA6537c8fb307CE6758CfEd16",
    "Strings": "0x572CbB4dbd1f3bB4E23Cc3d8F4460B3E6d871826",
    "NameEncoder": "0x2b1D7EE297A345fF0C57B3c3B0F34b59951756b1",
    "ENSNameHash": "0x969254c8EC87eF59BeB6F6eA928f1A00bb649Ecc",
    "ENSByteUtils": "0x4A44B0Af7483Eb232F606418Aa099ad453F95A02",
    "ENSParentName": "0xeE1CcD12e954bFD828EEb4Ca3B76cfE4cbc42C76"
  },
  "devdoc": {
    "kind": "dev",
    "methods": {},
    "version": 1
  },
  "userdoc": {
    "kind": "user",
    "methods": {},
    "version": 1
  },
  "storageLayout": {
    "storage": [],
    "types": null
  }
}