{
  "address": "0x1e5751a32325A028eCBc36D35f0cA2Ed01270A14",
  "abi": [
    {
      "inputs": [
        {
          "internalType": "contract IENSGuilds",
          "name": "ensGuilds",
          "type": "address"
        }
      ],
      "stateMutability": "nonpayable",
      "type": "constructor"
    },
    {
      "inputs": [
        {
          "internalType": "bytes32",
          "name": "guildHash",
          "type": "bytes32"
        },
        {
          "internalType": "address",
          "name": "minter",
          "type": "address"
        }
      ],
      "name": "allowMint",
      "outputs": [],
      "stateMutability": "nonpayable",
      "type": "function"
    },
    {
      "inputs": [
        {
          "internalType": "bytes32",
          "name": "guildHash",
          "type": "bytes32"
        },
        {
          "internalType": "string",
          "name": "",
          "type": "string"
        },
        {
          "internalType": "address",
          "name": "claimant",
          "type": "address"
        },
        {
          "internalType": "address",
          "name": "",
          "type": "address"
        },
        {
          "internalType": "bytes",
          "name": "",
          "type": "bytes"
        }
      ],
      "name": "canClaimTag",
      "outputs": [
        {
          "internalType": "bool",
          "name": "",
          "type": "bool"
        }
      ],
      "stateMutability": "view",
      "type": "function"
    },
    {
      "inputs": [
        {
          "internalType": "bytes32",
          "name": "guildHash",
          "type": "bytes32"
        },
        {
          "internalType": "address",
          "name": "minter",
          "type": "address"
        }
      ],
      "name": "disallowMint",
      "outputs": [],
      "stateMutability": "nonpayable",
      "type": "function"
    },
    {
      "inputs": [
        {
          "internalType": "bytes32",
          "name": "",
          "type": "bytes32"
        },
        {
          "internalType": "address",
          "name": "",
          "type": "address"
        }
      ],
      "name": "guildAllowlists",
      "outputs": [
        {
          "internalType": "bool",
          "name": "",
          "type": "bool"
        }
      ],
      "stateMutability": "view",
      "type": "function"
    },
    {
      "inputs": [
        {
          "internalType": "bytes32",
          "name": "guildHash",
          "type": "bytes32"
        },
        {
          "internalType": "string",
          "name": "tag",
          "type": "string"
        },
        {
          "internalType": "address",
          "name": "claimant",
          "type": "address"
        },
        {
          "internalType": "address",
          "name": "recipient",
          "type": "address"
        },
        {
          "internalType": "bytes",
          "name": "extraClaimArgs",
          "type": "bytes"
        }
      ],
      "name": "onTagClaimed",
      "outputs": [
        {
          "internalType": "bytes32",
          "name": "tagToRevoke",
          "type": "bytes32"
        }
      ],
      "stateMutability": "nonpayable",
      "type": "function"
    },
    {
      "inputs": [
        {
          "internalType": "bytes4",
          "name": "interfaceID",
          "type": "bytes4"
        }
      ],
      "name": "supportsInterface",
      "outputs": [
        {
          "internalType": "bool",
          "name": "",
          "type": "bool"
        }
      ],
      "stateMutability": "view",
      "type": "function"
    },
    {
      "inputs": [
        {
          "internalType": "address",
          "name": "",
          "type": "address"
        },
        {
          "internalType": "bytes32",
          "name": "",
          "type": "bytes32"
        },
        {
          "internalType": "string",
          "name": "",
          "type": "string"
        },
        {
          "internalType": "bytes",
          "name": "",
          "type": "bytes"
        }
      ],
      "name": "tagCanBeRevoked",
      "outputs": [
        {
          "internalType": "bool",
          "name": "",
          "type": "bool"
        }
      ],
      "stateMutability": "view",
      "type": "function"
    }
  ],
  "args": [
    "0xac0C325fDc7af8ce362E7b565e908BCc8AB4C821"
  ],
  "numDeployments": 1,
  "solcInputHash": "3a32f099b226e81e32ffbca8f8873f42",
  "bytecode": "0x60a060405234801561001057600080fd5b5060405161077e38038061077e83398101604081905261002f916100c0565b60016000556040516301ffc9a760e01b81526340b9de5d60e11b600482015281906001600160a01b038216906301ffc9a790602401602060405180830381865afa158015610081573d6000803e3d6000fd5b505050506040513d601f19601f820116820180604052508101906100a591906100f0565b6100ae57600080fd5b6001600160a01b031660805250610112565b6000602082840312156100d257600080fd5b81516001600160a01b03811681146100e957600080fd5b9392505050565b60006020828403121561010257600080fd5b815180151581146100e957600080fd5b60805161064361013b600039600081816101db01528181610297015261031f01526106436000f3fe608060405234801561001057600080fd5b506004361061007d5760003560e01c806329593e5a1161005b57806329593e5a146100d25780632cad1767146100f35780638effff981461010d5780639e6fcc2f1461013b57600080fd5b806301ffc9a7146100825780630910b77f146100aa5780630c30e7c6146100bd575b600080fd5b610095610090366004610428565b61014e565b60405190151581526020015b60405180910390f35b6100956100b83660046104ba565b610185565b6100d06100cb36600461055d565b6101b7565b005b6100e56100e03660046104ba565b61028a565b6040519081526020016100a1565b61009561010136600461058d565b60009695505050505050565b61009561011b36600461055d565b600160209081526000928352604080842090915290825290205460ff1681565b6100d061014936600461055d565b6102fb565b60006001600160e01b031982166306724f2160e11b148061017f57506301ffc9a760e01b6001600160e01b03198316145b92915050565b60008781526001602090815260408083206001600160a01b038816845290915290205460ff165b979650505050505050565b813360405163022c977f60e01b8152600481018390526001600160a01b03918216917f0000000000000000000000000000000000000000000000000000000000000000169063022c977f90602401602060405180830381865afa158015610222573d6000803e3d6000fd5b505050506040513d601f19601f820116820180604052508101906102469190610619565b6001600160a01b03161461025957600080fd5b5060009182526001602081815260408085206001600160a01b0390941685529290529120805460ff19169091179055565b60006102946103cb565b337f00000000000000000000000000000000000000000000000000000000000000006001600160a01b0316146102c957600080fd5b5060008781526001602081815260408084206001600160a01b03891685529091528220805460ff1916905581556101ac565b813360405163022c977f60e01b8152600481018390526001600160a01b03918216917f0000000000000000000000000000000000000000000000000000000000000000169063022c977f90602401602060405180830381865afa158015610366573d6000803e3d6000fd5b505050506040513d601f19601f8201168201806040525081019061038a9190610619565b6001600160a01b03161461039d57600080fd5b5060009182526001602090815260408084206001600160a01b0390931684529190529020805460ff19169055565b6002600054036104215760405162461bcd60e51b815260206004820152601f60248201527f5265656e7472616e637947756172643a207265656e7472616e742063616c6c00604482015260640160405180910390fd5b6002600055565b60006020828403121561043a57600080fd5b81356001600160e01b03198116811461045257600080fd5b9392505050565b60008083601f84011261046b57600080fd5b50813567ffffffffffffffff81111561048357600080fd5b60208301915083602082850101111561049b57600080fd5b9250929050565b6001600160a01b03811681146104b757600080fd5b50565b600080600080600080600060a0888a0312156104d557600080fd5b87359650602088013567ffffffffffffffff808211156104f457600080fd5b6105008b838c01610459565b909850965060408a01359150610515826104a2565b909450606089013590610527826104a2565b9093506080890135908082111561053d57600080fd5b5061054a8a828b01610459565b989b979a50959850939692959293505050565b6000806040838503121561057057600080fd5b823591506020830135610582816104a2565b809150509250929050565b600080600080600080608087890312156105a657600080fd5b86356105b1816104a2565b955060208701359450604087013567ffffffffffffffff808211156105d557600080fd5b6105e18a838b01610459565b909650945060608901359150808211156105fa57600080fd5b5061060789828a01610459565b979a9699509497509295939492505050565b60006020828403121561062b57600080fd5b8151610452816104a256fea164736f6c6343000811000a",
  "devdoc": {
    "kind": "dev",
    "methods": {
      "canClaimTag(bytes32,string,address,address,bytes)": {
        "params": {
          "claimant": "The address attempting to claim the tag (not necessarily the address that will receive it)",
          "extraClaimArgs": "[Optional] Any guild-specific additional arguments required",
          "guildHash": "The ENS namehash of the guild's domain",
          "recipient": "The address that would receive the tag",
          "tag": "The tag being claimed (e.g. 'foo' for foo.my-guild.eth)"
        }
      },
      "onTagClaimed(bytes32,string,address,address,bytes)": {
        "details": "protects against reentrancy and checks that caller is the Guilds contract. Updating any state is deferred to the implementation.",
        "params": {
          "claimant": "The address that claimed the tag (not necessarily the address that received it)",
          "extraClaimArgs": "[Optional] Any guild-specific additional arguments required",
          "guildHash": "The ENS namehash of the guild's domain",
          "recipient": "The address that received receive the tag",
          "tag": "The tag being claimed (e.g. 'foo' for foo.my-guild.eth)"
        },
        "returns": {
          "tagToRevoke": "The ENS namehash of any tag that should be revoked as a consequence of the given tag being claimed. Returns zero if no tag should be revoked."
        }
      },
      "tagCanBeRevoked(address,bytes32,string,bytes)": {
        "params": {
          "extraRevokeArgs": "Any additional arguments necessary for assessing whether a tag may be revoked",
          "guildHash": "The ENS namehash of the guild's domain",
          "revokedBy": "The address that would attempt to revoke it",
          "tag": "The tag being revoked (e.g. 'foo' for foo.my-guild.eth)"
        }
      }
    },
    "title": "AllowlistTagsAuthPolicy",
    "version": 1
  },
  "userdoc": {
    "kind": "user",
    "methods": {
      "canClaimTag(bytes32,string,address,address,bytes)": {
        "notice": "Checks whether a certain address (claimant) may claim a given guild tag"
      },
      "tagCanBeRevoked(address,bytes32,string,bytes)": {
        "notice": "Checks whether a given guild tag is eligible to be revoked"
      }
    },
    "notice": "A common implementation of TagsAuthPolicy that can be used to restrict minting guild tags to only allowlisted addresses. A separate allowlist is maintained per each guild, and may only be updated by that guild's registered admin.",
    "version": 1
  },
  "storageLayout": {
    "storage": [
      {
        "astId": 1556,
        "contract": "contracts/tagsAuthPolicies/AllowlistTagsAuthPolicy.sol:AllowlistTagsAuthPolicy",
        "label": "_status",
        "offset": 0,
        "slot": "0",
        "type": "t_uint256"
      },
      {
        "astId": 10048,
        "contract": "contracts/tagsAuthPolicies/AllowlistTagsAuthPolicy.sol:AllowlistTagsAuthPolicy",
        "label": "guildAllowlists",
        "offset": 0,
        "slot": "1",
        "type": "t_mapping(t_bytes32,t_mapping(t_address,t_bool))"
      }
    ],
    "types": {
      "t_address": {
        "encoding": "inplace",
        "label": "address",
        "numberOfBytes": "20"
      },
      "t_bool": {
        "encoding": "inplace",
        "label": "bool",
        "numberOfBytes": "1"
      },
      "t_bytes32": {
        "encoding": "inplace",
        "label": "bytes32",
        "numberOfBytes": "32"
      },
      "t_mapping(t_address,t_bool)": {
        "encoding": "mapping",
        "key": "t_address",
        "label": "mapping(address => bool)",
        "numberOfBytes": "32",
        "value": "t_bool"
      },
      "t_mapping(t_bytes32,t_mapping(t_address,t_bool))": {
        "encoding": "mapping",
        "key": "t_bytes32",
        "label": "mapping(bytes32 => mapping(address => bool))",
        "numberOfBytes": "32",
        "value": "t_mapping(t_address,t_bool)"
      },
      "t_uint256": {
        "encoding": "inplace",
        "label": "uint256",
        "numberOfBytes": "32"
      }
    }
  }
}