{
  "address": "0x4C29BCFEEe30a7174Cd56A27FC85d4bD8565C7B8",
  "abi": [
    {
      "inputs": [
        {
          "internalType": "address",
          "name": "_ensGuilds",
          "type": "address"
        }
      ],
      "stateMutability": "nonpayable",
      "type": "constructor"
    },
    {
      "inputs": [
        {
          "internalType": "bytes32",
          "name": "guildHash",
          "type": "bytes32"
        },
        {
          "internalType": "address",
          "name": "minter",
          "type": "address"
        }
      ],
      "name": "allowMint",
      "outputs": [],
      "stateMutability": "nonpayable",
      "type": "function"
    },
    {
      "inputs": [
        {
          "internalType": "bytes32",
          "name": "guildHash",
          "type": "bytes32"
        },
        {
          "internalType": "bytes32",
          "name": "",
          "type": "bytes32"
        },
        {
          "internalType": "address",
          "name": "claimant",
          "type": "address"
        },
        {
          "internalType": "address",
          "name": "",
          "type": "address"
        },
        {
          "internalType": "bytes",
          "name": "",
          "type": "bytes"
        }
      ],
      "name": "canClaimTag",
      "outputs": [
        {
          "internalType": "bool",
          "name": "",
          "type": "bool"
        }
      ],
      "stateMutability": "nonpayable",
      "type": "function"
    },
    {
      "inputs": [
        {
          "internalType": "bytes32",
          "name": "",
          "type": "bytes32"
        },
        {
          "internalType": "address",
          "name": "",
          "type": "address"
        }
      ],
      "name": "guildAllowlists",
      "outputs": [
        {
          "internalType": "bool",
          "name": "",
          "type": "bool"
        }
      ],
      "stateMutability": "view",
      "type": "function"
    },
    {
      "inputs": [
        {
          "internalType": "bytes32",
          "name": "guildHash",
          "type": "bytes32"
        },
        {
          "internalType": "bytes32",
          "name": "",
          "type": "bytes32"
        },
        {
          "internalType": "address",
          "name": "claimant",
          "type": "address"
        },
        {
          "internalType": "address",
          "name": "",
          "type": "address"
        },
        {
          "internalType": "bytes",
          "name": "",
          "type": "bytes"
        }
      ],
      "name": "onTagClaimed",
      "outputs": [
        {
          "internalType": "bytes32",
          "name": "tagToRevoke",
          "type": "bytes32"
        }
      ],
      "stateMutability": "nonpayable",
      "type": "function"
    },
    {
      "inputs": [
        {
          "internalType": "bytes4",
          "name": "interfaceID",
          "type": "bytes4"
        }
      ],
      "name": "supportsInterface",
      "outputs": [
        {
          "internalType": "bool",
          "name": "",
          "type": "bool"
        }
      ],
      "stateMutability": "view",
      "type": "function"
    },
    {
      "inputs": [
        {
          "internalType": "bytes32",
          "name": "",
          "type": "bytes32"
        },
        {
          "internalType": "bytes32",
          "name": "",
          "type": "bytes32"
        },
        {
          "internalType": "bytes",
          "name": "",
          "type": "bytes"
        }
      ],
      "name": "tagCanBeRevoked",
      "outputs": [
        {
          "internalType": "bool",
          "name": "",
          "type": "bool"
        }
      ],
      "stateMutability": "nonpayable",
      "type": "function"
    }
  ],
  "transactionHash": "0xe26b3a0f802ad815d678dfd11a88f55f9baf8563fb51c886da7a45f89b4a9893",
  "args": [
    "0x21Ca61a68969620A326431e17a72a292b19F5edF"
  ],
  "numDeployments": 1,
  "solcInputHash": "3ed54fb3374fcea5f11209f663dcf047",
  "bytecode": "0x608060405234801561001057600080fd5b5060405161075238038061075283398101604081905261002f91610167565b60016000556100596001600160a01b0382166398280fbb60e01b610087602090811b6102ae17901c565b61006257600080fd5b600180546001600160a01b0319166001600160a01b0392909216919091179055610190565b6000610092836100aa565b80156100a357506100a383836100de565b9392505050565b60006100bd826301ffc9a760e01b6100de565b80156100d857506100d6826001600160e01b03196100de565b155b92915050565b604080516001600160e01b03198316602480830191909152825180830390910181526044909101909152602080820180516001600160e01b03166301ffc9a760e01b178152825160009392849283928392918391908a617530fa92503d91506000519050828015610150575060208210155b801561015c5750600081115b979650505050505050565b60006020828403121561017957600080fd5b81516001600160a01b03811681146100a357600080fd5b6105b38061019f6000396000f3fe608060405234801561001057600080fd5b50600436106100725760003560e01c80638fcae51d116100505780638fcae51d146100e2578063c5f23c3014610103578063f02cbfbb1461011b57600080fd5b806301ffc9a7146100775780630c30e7c61461009f5780638effff98146100b4575b600080fd5b61008a6100853660046103ff565b610159565b60405190151581526020015b60405180910390f35b6100b26100ad366004610441565b610190565b005b61008a6100c2366004610441565b600260209081526000928352604080842090915290825290205460ff1681565b6100f56100f03660046104ba565b610245565b604051908152602001610096565b61008a610111366004610536565b6000949350505050565b61008a6101293660046104ba565b60008681526002602090815260408083206001600160a01b038816845290915290205460ff169695505050505050565b60006001600160e01b0319821663bbebaf3160e01b148061018a57506301ffc9a760e01b6001600160e01b03198316145b92915050565b3360015460405163022c977f60e01b8152600481018590526001600160a01b03928316929091169063022c977f90602401602060405180830381865afa1580156101de573d6000803e3d6000fd5b505050506040513d601f19601f820116820180604052508101906102029190610589565b6001600160a01b03161461021557600080fd5b60009182526002602090815260408084206001600160a01b0390931684529190529020805460ff19166001179055565b600061024f6102d1565b6001546001600160a01b0316336001600160a01b03161461026f57600080fd5b5060008681526002602090815260408083206001600160a01b03881684529091528120805460ff191690556102a46001600055565b9695505050505050565b60006102b98361032e565b80156102ca57506102ca8383610361565b9392505050565b6002600054036103275760405162461bcd60e51b815260206004820152601f60248201527f5265656e7472616e637947756172643a207265656e7472616e742063616c6c00604482015260640160405180910390fd5b6002600055565b6000610341826301ffc9a760e01b610361565b801561018a575061035a826001600160e01b0319610361565b1592915050565b604080516001600160e01b03198316602480830191909152825180830390910181526044909101909152602080820180517bffffffffffffffffffffffffffffffffffffffffffffffffffffffff166301ffc9a760e01b178152825160009392849283928392918391908a617530fa92503d915060005190508280156103e8575060208210155b80156103f45750600081115b979650505050505050565b60006020828403121561041157600080fd5b81356001600160e01b0319811681146102ca57600080fd5b6001600160a01b038116811461043e57600080fd5b50565b6000806040838503121561045457600080fd5b82359150602083013561046681610429565b809150509250929050565b60008083601f84011261048357600080fd5b50813567ffffffffffffffff81111561049b57600080fd5b6020830191508360208285010111156104b357600080fd5b9250929050565b60008060008060008060a087890312156104d357600080fd5b863595506020870135945060408701356104ec81610429565b935060608701356104fc81610429565b9250608087013567ffffffffffffffff81111561051857600080fd5b61052489828a01610471565b979a9699509497509295939492505050565b6000806000806060858703121561054c57600080fd5b8435935060208501359250604085013567ffffffffffffffff81111561057157600080fd5b61057d87828801610471565b95989497509550505050565b60006020828403121561059b57600080fd5b81516102ca8161042956fea164736f6c6343000811000a",
  "devdoc": {
    "kind": "dev",
    "methods": {},
    "version": 1
  },
  "userdoc": {
    "kind": "user",
    "methods": {},
    "version": 1
  },
  "storageLayout": {
    "storage": [
      {
        "astId": 839,
        "contract": "contracts/tagsAuthPolicies/AllowlistTagsAuthPolicy.sol:AllowlistTagsAuthPolicy",
        "label": "_status",
        "offset": 0,
        "slot": "0",
        "type": "t_uint256"
      },
      {
        "astId": 6781,
        "contract": "contracts/tagsAuthPolicies/AllowlistTagsAuthPolicy.sol:AllowlistTagsAuthPolicy",
        "label": "ensGuilds",
        "offset": 0,
        "slot": "1",
        "type": "t_contract(IENSGuilds)5688"
      },
      {
        "astId": 6787,
        "contract": "contracts/tagsAuthPolicies/AllowlistTagsAuthPolicy.sol:AllowlistTagsAuthPolicy",
        "label": "guildAllowlists",
        "offset": 0,
        "slot": "2",
        "type": "t_mapping(t_bytes32,t_mapping(t_address,t_bool))"
      }
    ],
    "types": {
      "t_address": {
        "encoding": "inplace",
        "label": "address",
        "numberOfBytes": "20"
      },
      "t_bool": {
        "encoding": "inplace",
        "label": "bool",
        "numberOfBytes": "1"
      },
      "t_bytes32": {
        "encoding": "inplace",
        "label": "bytes32",
        "numberOfBytes": "32"
      },
      "t_contract(IENSGuilds)5688": {
        "encoding": "inplace",
        "label": "contract IENSGuilds",
        "numberOfBytes": "20"
      },
      "t_mapping(t_address,t_bool)": {
        "encoding": "mapping",
        "key": "t_address",
        "label": "mapping(address => bool)",
        "numberOfBytes": "32",
        "value": "t_bool"
      },
      "t_mapping(t_bytes32,t_mapping(t_address,t_bool))": {
        "encoding": "mapping",
        "key": "t_bytes32",
        "label": "mapping(bytes32 => mapping(address => bool))",
        "numberOfBytes": "32",
        "value": "t_mapping(t_address,t_bool)"
      },
      "t_uint256": {
        "encoding": "inplace",
        "label": "uint256",
        "numberOfBytes": "32"
      }
    }
  }
}