{
  "address": "0x78c8B2e1A3236950B89E1d9C074de0d8c94e341B",
  "abi": [
    {
      "inputs": [
        {
          "internalType": "contract IENSGuilds",
          "name": "ensGuilds",
          "type": "address"
        }
      ],
      "stateMutability": "nonpayable",
      "type": "constructor"
    },
    {
      "inputs": [
        {
          "internalType": "bytes32",
          "name": "guildHash",
          "type": "bytes32"
        },
        {
          "internalType": "address",
          "name": "minter",
          "type": "address"
        }
      ],
      "name": "allowMint",
      "outputs": [],
      "stateMutability": "nonpayable",
      "type": "function"
    },
    {
      "inputs": [
        {
          "internalType": "bytes32",
          "name": "guildHash",
          "type": "bytes32"
        },
        {
          "internalType": "bytes32",
          "name": "",
          "type": "bytes32"
        },
        {
          "internalType": "address",
          "name": "claimant",
          "type": "address"
        },
        {
          "internalType": "address",
          "name": "",
          "type": "address"
        },
        {
          "internalType": "bytes",
          "name": "",
          "type": "bytes"
        }
      ],
      "name": "canClaimTag",
      "outputs": [
        {
          "internalType": "bool",
          "name": "",
          "type": "bool"
        }
      ],
      "stateMutability": "nonpayable",
      "type": "function"
    },
    {
      "inputs": [
        {
          "internalType": "bytes32",
          "name": "guildHash",
          "type": "bytes32"
        },
        {
          "internalType": "address",
          "name": "minter",
          "type": "address"
        }
      ],
      "name": "disallowMint",
      "outputs": [],
      "stateMutability": "nonpayable",
      "type": "function"
    },
    {
      "inputs": [
        {
          "internalType": "bytes32",
          "name": "",
          "type": "bytes32"
        },
        {
          "internalType": "address",
          "name": "",
          "type": "address"
        }
      ],
      "name": "guildAllowlists",
      "outputs": [
        {
          "internalType": "bool",
          "name": "",
          "type": "bool"
        }
      ],
      "stateMutability": "view",
      "type": "function"
    },
    {
      "inputs": [
        {
          "internalType": "bytes32",
          "name": "guildHash",
          "type": "bytes32"
        },
        {
          "internalType": "bytes32",
          "name": "tagHash",
          "type": "bytes32"
        },
        {
          "internalType": "address",
          "name": "claimant",
          "type": "address"
        },
        {
          "internalType": "address",
          "name": "recipient",
          "type": "address"
        },
        {
          "internalType": "bytes",
          "name": "extraClaimArgs",
          "type": "bytes"
        }
      ],
      "name": "onTagClaimed",
      "outputs": [
        {
          "internalType": "bytes32",
          "name": "tagToRevoke",
          "type": "bytes32"
        }
      ],
      "stateMutability": "nonpayable",
      "type": "function"
    },
    {
      "inputs": [
        {
          "internalType": "bytes4",
          "name": "interfaceID",
          "type": "bytes4"
        }
      ],
      "name": "supportsInterface",
      "outputs": [
        {
          "internalType": "bool",
          "name": "",
          "type": "bool"
        }
      ],
      "stateMutability": "view",
      "type": "function"
    },
    {
      "inputs": [
        {
          "internalType": "address",
          "name": "",
          "type": "address"
        },
        {
          "internalType": "bytes32",
          "name": "",
          "type": "bytes32"
        },
        {
          "internalType": "bytes32",
          "name": "",
          "type": "bytes32"
        },
        {
          "internalType": "bytes",
          "name": "",
          "type": "bytes"
        }
      ],
      "name": "tagCanBeRevoked",
      "outputs": [
        {
          "internalType": "bool",
          "name": "",
          "type": "bool"
        }
      ],
      "stateMutability": "nonpayable",
      "type": "function"
    }
  ],
  "transactionHash": "0xcd3e6e60c0783619e6e479af4cdc64264ae4c13cc1230e140a9ed7dc694f3cf0",
  "args": [
    "0x2518c0DbADB4915BcB4Da639d6A2b0701ca56F4C"
  ],
  "numDeployments": 1,
  "solcInputHash": "0631b431846be4ff98a1da75bde425c1",
  "bytecode": "0x608060405234801561001057600080fd5b506040516106e03803806106e083398101604081905261002f916100d4565b60016000556040516301ffc9a760e01b8152630115c55760e31b600482015281906001600160a01b038216906301ffc9a790602401602060405180830381865afa158015610081573d6000803e3d6000fd5b505050506040513d601f19601f820116820180604052508101906100a59190610104565b6100ae57600080fd5b600180546001600160a01b0319166001600160a01b039290921691909117905550610126565b6000602082840312156100e657600080fd5b81516001600160a01b03811681146100fd57600080fd5b9392505050565b60006020828403121561011657600080fd5b815180151581146100fd57600080fd5b6105ab806101356000396000f3fe608060405234801561001057600080fd5b506004361061007d5760003560e01c80638fcae51d1161005b5780638fcae51d146100ed5780639e6fcc2f1461010e578063dc10750214610121578063f02cbfbb1461013a57600080fd5b806301ffc9a7146100825780630c30e7c6146100aa5780638effff98146100bf575b600080fd5b6100956100903660046103d9565b610178565b60405190151581526020015b60405180910390f35b6100bd6100b8366004610422565b6101af565b005b6100956100cd366004610422565b600260209081526000928352604080842090915290825290205460ff1681565b6101006100fb36600461049b565b610266565b6040519081526020016100a1565b6100bd61011c366004610422565b6102c8565b61009561012f366004610517565b600095945050505050565b61009561014836600461049b565b60008681526002602090815260408083206001600160a01b038816845290915290205460ff169695505050505050565b60006001600160e01b031982166328fd8be960e21b14806101a957506301ffc9a760e01b6001600160e01b03198316145b92915050565b813360015460405163022c977f60e01b8152600481018490526001600160a01b03928316929091169063022c977f90602401602060405180830381865afa1580156101fe573d6000803e3d6000fd5b505050506040513d601f19601f820116820180604052508101906102229190610581565b6001600160a01b03161461023557600080fd5b5060009182526002602090815260408084206001600160a01b0390931684529190529020805460ff19166001179055565b600061027061037c565b6001546001600160a01b0316336001600160a01b03161461029057600080fd5b5050506000938452506002602090815260408085206001600160a01b039390931685529190528220805460ff19169055506001815590565b813360015460405163022c977f60e01b8152600481018490526001600160a01b03928316929091169063022c977f90602401602060405180830381865afa158015610317573d6000803e3d6000fd5b505050506040513d601f19601f8201168201806040525081019061033b9190610581565b6001600160a01b03161461034e57600080fd5b5060009182526002602090815260408084206001600160a01b0390931684529190529020805460ff19169055565b6002600054036103d25760405162461bcd60e51b815260206004820152601f60248201527f5265656e7472616e637947756172643a207265656e7472616e742063616c6c00604482015260640160405180910390fd5b6002600055565b6000602082840312156103eb57600080fd5b81356001600160e01b03198116811461040357600080fd5b9392505050565b6001600160a01b038116811461041f57600080fd5b50565b6000806040838503121561043557600080fd5b8235915060208301356104478161040a565b809150509250929050565b60008083601f84011261046457600080fd5b50813567ffffffffffffffff81111561047c57600080fd5b60208301915083602082850101111561049457600080fd5b9250929050565b60008060008060008060a087890312156104b457600080fd5b863595506020870135945060408701356104cd8161040a565b935060608701356104dd8161040a565b9250608087013567ffffffffffffffff8111156104f957600080fd5b61050589828a01610452565b979a9699509497509295939492505050565b60008060008060006080868803121561052f57600080fd5b853561053a8161040a565b94506020860135935060408601359250606086013567ffffffffffffffff81111561056457600080fd5b61057088828901610452565b969995985093965092949392505050565b60006020828403121561059357600080fd5b81516104038161040a56fea164736f6c6343000811000a",
  "devdoc": {
    "kind": "dev",
    "methods": {
      "canClaimTag(bytes32,bytes32,address,address,bytes)": {
        "params": {
          "claimant": "The address attempting to claim the tag (not necessarily the address that will receive it)",
          "extraClaimArgs": "[Optional] Any guild-specific additional arguments required",
          "guildHash": "The ENS namehash of the guild's domain",
          "recipient": "The address that would receive the tag",
          "tagHash": "The ENS namehash of the tag being claimed (e.g. keccak256('foo') for foo.my-guild.eth)"
        }
      },
      "onTagClaimed(bytes32,bytes32,address,address,bytes)": {
        "details": "protects against reentrancy and checks that caller is the Guilds contract. Updating any state is deferred to the implementation.",
        "params": {
          "claimant": "The address that claimed the tag (not necessarily the address that received it)",
          "extraClaimArgs": "[Optional] Any guild-specific additional arguments required",
          "guildHash": "The ENS namehash of the guild's domain",
          "recipient": "The address that received receive the tag",
          "tagHash": "The ENS namehash of the tag being claimed (e.g. keccak256('foo') for foo.my-guild.eth)"
        }
      },
      "tagCanBeRevoked(address,bytes32,bytes32,bytes)": {
        "params": {
          "extraRevokeArgs": "Any additional arguments necessary for assessing whether a tag may be revoked",
          "guildHash": "The ENS namehash of the guild's domain",
          "revokedBy": "The address that would attempt to revoke it",
          "tagHash": "The ENS namehash of the tag being claimed (e.g. keccak256('foo') for foo.my-guild.eth)"
        }
      }
    },
    "title": "AllowlistTagsAuthPolicy",
    "version": 1
  },
  "userdoc": {
    "kind": "user",
    "methods": {
      "canClaimTag(bytes32,bytes32,address,address,bytes)": {
        "notice": "Checks whether a certain address (claimant) may claim a given guild tag"
      },
      "tagCanBeRevoked(address,bytes32,bytes32,bytes)": {
        "notice": "Checks whether a given guild tag is elligible to be revoked"
      }
    },
    "notice": "A common implementation of TagsAuthPolicy that can be used to restrict minting guild tags to only allowlisted addresses. A separate allowlist is maintained per each guild, and may only be updated by that guild's registered admin.",
    "version": 1
  },
  "storageLayout": {
    "storage": [
      {
        "astId": 49,
        "contract": "contracts/tagsAuthPolicies/AllowlistTagsAuthPolicy.sol:AllowlistTagsAuthPolicy",
        "label": "_status",
        "offset": 0,
        "slot": "0",
        "type": "t_uint256"
      },
      {
        "astId": 957,
        "contract": "contracts/tagsAuthPolicies/AllowlistTagsAuthPolicy.sol:AllowlistTagsAuthPolicy",
        "label": "_ensGuilds",
        "offset": 0,
        "slot": "1",
        "type": "t_contract(IENSGuilds)787"
      },
      {
        "astId": 799,
        "contract": "contracts/tagsAuthPolicies/AllowlistTagsAuthPolicy.sol:AllowlistTagsAuthPolicy",
        "label": "guildAllowlists",
        "offset": 0,
        "slot": "2",
        "type": "t_mapping(t_bytes32,t_mapping(t_address,t_bool))"
      }
    ],
    "types": {
      "t_address": {
        "encoding": "inplace",
        "label": "address",
        "numberOfBytes": "20"
      },
      "t_bool": {
        "encoding": "inplace",
        "label": "bool",
        "numberOfBytes": "1"
      },
      "t_bytes32": {
        "encoding": "inplace",
        "label": "bytes32",
        "numberOfBytes": "32"
      },
      "t_contract(IENSGuilds)787": {
        "encoding": "inplace",
        "label": "contract IENSGuilds",
        "numberOfBytes": "20"
      },
      "t_mapping(t_address,t_bool)": {
        "encoding": "mapping",
        "key": "t_address",
        "label": "mapping(address => bool)",
        "numberOfBytes": "32",
        "value": "t_bool"
      },
      "t_mapping(t_bytes32,t_mapping(t_address,t_bool))": {
        "encoding": "mapping",
        "key": "t_bytes32",
        "label": "mapping(bytes32 => mapping(address => bool))",
        "numberOfBytes": "32",
        "value": "t_mapping(t_address,t_bool)"
      },
      "t_uint256": {
        "encoding": "inplace",
        "label": "uint256",
        "numberOfBytes": "32"
      }
    }
  }
}