{
  "address": "0x21Ca61a68969620A326431e17a72a292b19F5edF",
  "abi": [
    {
      "inputs": [
        {
          "internalType": "string",
          "name": "defaultTokenMetadataUri",
          "type": "string"
        },
        {
          "internalType": "contract ENS",
          "name": "_ensRegistry",
          "type": "address"
        },
        {
          "internalType": "contract IAddressResolver",
          "name": "_fallbackEnsResolver",
          "type": "address"
        }
      ],
      "stateMutability": "nonpayable",
      "type": "constructor"
    },
    {
      "inputs": [],
      "name": "AlreadyRegistered",
      "type": "error"
    },
    {
      "inputs": [],
      "name": "ClaimUnauthorized",
      "type": "error"
    },
    {
      "inputs": [],
      "name": "ENSGuildsIsNotRegisteredOperator",
      "type": "error"
    },
    {
      "inputs": [],
      "name": "FeeError",
      "type": "error"
    },
    {
      "inputs": [],
      "name": "GuildAdminOnly",
      "type": "error"
    },
    {
      "inputs": [],
      "name": "GuildNotActive",
      "type": "error"
    },
    {
      "inputs": [],
      "name": "GuildsTokenTransferNotAllowed",
      "type": "error"
    },
    {
      "inputs": [
        {
          "internalType": "address",
          "name": "",
          "type": "address"
        }
      ],
      "name": "InvalidPolicy",
      "type": "error"
    },
    {
      "inputs": [],
      "name": "NotDomainOwner",
      "type": "error"
    },
    {
      "inputs": [],
      "name": "RevokeUnauthorized",
      "type": "error"
    },
    {
      "inputs": [],
      "name": "TagAlreadyClaimed",
      "type": "error"
    },
    {
      "anonymous": false,
      "inputs": [
        {
          "indexed": true,
          "internalType": "bytes32",
          "name": "node",
          "type": "bytes32"
        },
        {
          "indexed": false,
          "internalType": "address",
          "name": "a",
          "type": "address"
        }
      ],
      "name": "AddrChanged",
      "type": "event"
    },
    {
      "anonymous": false,
      "inputs": [
        {
          "indexed": true,
          "internalType": "bytes32",
          "name": "node",
          "type": "bytes32"
        },
        {
          "indexed": false,
          "internalType": "uint256",
          "name": "coinType",
          "type": "uint256"
        },
        {
          "indexed": false,
          "internalType": "bytes",
          "name": "newAddress",
          "type": "bytes"
        }
      ],
      "name": "AddressChanged",
      "type": "event"
    },
    {
      "anonymous": false,
      "inputs": [
        {
          "indexed": true,
          "internalType": "bytes32",
          "name": "guildId",
          "type": "bytes32"
        },
        {
          "indexed": false,
          "internalType": "address",
          "name": "newAdmin",
          "type": "address"
        }
      ],
      "name": "AdminTransferred",
      "type": "event"
    },
    {
      "anonymous": false,
      "inputs": [
        {
          "indexed": true,
          "internalType": "address",
          "name": "account",
          "type": "address"
        },
        {
          "indexed": true,
          "internalType": "address",
          "name": "operator",
          "type": "address"
        },
        {
          "indexed": false,
          "internalType": "bool",
          "name": "approved",
          "type": "bool"
        }
      ],
      "name": "ApprovalForAll",
      "type": "event"
    },
    {
      "anonymous": false,
      "inputs": [
        {
          "indexed": true,
          "internalType": "bytes32",
          "name": "guildHash",
          "type": "bytes32"
        }
      ],
      "name": "Deregistered",
      "type": "event"
    },
    {
      "anonymous": false,
      "inputs": [
        {
          "indexed": true,
          "internalType": "bytes32",
          "name": "guildId",
          "type": "bytes32"
        },
        {
          "indexed": false,
          "internalType": "address",
          "name": "feePolicy",
          "type": "address"
        }
      ],
      "name": "FeePolicyUpdated",
      "type": "event"
    },
    {
      "anonymous": false,
      "inputs": [
        {
          "indexed": false,
          "internalType": "address",
          "name": "account",
          "type": "address"
        }
      ],
      "name": "Paused",
      "type": "event"
    },
    {
      "anonymous": false,
      "inputs": [
        {
          "indexed": true,
          "internalType": "bytes32",
          "name": "guildHash",
          "type": "bytes32"
        }
      ],
      "name": "Registered",
      "type": "event"
    },
    {
      "anonymous": false,
      "inputs": [
        {
          "indexed": true,
          "internalType": "bytes32",
          "name": "role",
          "type": "bytes32"
        },
        {
          "indexed": true,
          "internalType": "bytes32",
          "name": "previousAdminRole",
          "type": "bytes32"
        },
        {
          "indexed": true,
          "internalType": "bytes32",
          "name": "newAdminRole",
          "type": "bytes32"
        }
      ],
      "name": "RoleAdminChanged",
      "type": "event"
    },
    {
      "anonymous": false,
      "inputs": [
        {
          "indexed": true,
          "internalType": "bytes32",
          "name": "role",
          "type": "bytes32"
        },
        {
          "indexed": true,
          "internalType": "address",
          "name": "account",
          "type": "address"
        },
        {
          "indexed": true,
          "internalType": "address",
          "name": "sender",
          "type": "address"
        }
      ],
      "name": "RoleGranted",
      "type": "event"
    },
    {
      "anonymous": false,
      "inputs": [
        {
          "indexed": true,
          "internalType": "bytes32",
          "name": "role",
          "type": "bytes32"
        },
        {
          "indexed": true,
          "internalType": "address",
          "name": "account",
          "type": "address"
        },
        {
          "indexed": true,
          "internalType": "address",
          "name": "sender",
          "type": "address"
        }
      ],
      "name": "RoleRevoked",
      "type": "event"
    },
    {
      "anonymous": false,
      "inputs": [
        {
          "indexed": true,
          "internalType": "bytes32",
          "name": "guildId",
          "type": "bytes32"
        },
        {
          "indexed": false,
          "internalType": "bool",
          "name": "active",
          "type": "bool"
        }
      ],
      "name": "SetActive",
      "type": "event"
    },
    {
      "anonymous": false,
      "inputs": [
        {
          "indexed": true,
          "internalType": "bytes32",
          "name": "guildId",
          "type": "bytes32"
        },
        {
          "indexed": true,
          "internalType": "bytes32",
          "name": "tagHash",
          "type": "bytes32"
        },
        {
          "indexed": false,
          "internalType": "address",
          "name": "recipient",
          "type": "address"
        }
      ],
      "name": "TagClaimed",
      "type": "event"
    },
    {
      "anonymous": false,
      "inputs": [
        {
          "indexed": true,
          "internalType": "bytes32",
          "name": "guildId",
          "type": "bytes32"
        },
        {
          "indexed": false,
          "internalType": "address",
          "name": "tagsAuthPolicy",
          "type": "address"
        }
      ],
      "name": "TagsAuthPolicyUpdated",
      "type": "event"
    },
    {
      "anonymous": false,
      "inputs": [
        {
          "indexed": true,
          "internalType": "address",
          "name": "operator",
          "type": "address"
        },
        {
          "indexed": true,
          "internalType": "address",
          "name": "from",
          "type": "address"
        },
        {
          "indexed": true,
          "internalType": "address",
          "name": "to",
          "type": "address"
        },
        {
          "indexed": false,
          "internalType": "uint256[]",
          "name": "ids",
          "type": "uint256[]"
        },
        {
          "indexed": false,
          "internalType": "uint256[]",
          "name": "values",
          "type": "uint256[]"
        }
      ],
      "name": "TransferBatch",
      "type": "event"
    },
    {
      "anonymous": false,
      "inputs": [
        {
          "indexed": true,
          "internalType": "address",
          "name": "operator",
          "type": "address"
        },
        {
          "indexed": true,
          "internalType": "address",
          "name": "from",
          "type": "address"
        },
        {
          "indexed": true,
          "internalType": "address",
          "name": "to",
          "type": "address"
        },
        {
          "indexed": false,
          "internalType": "uint256",
          "name": "id",
          "type": "uint256"
        },
        {
          "indexed": false,
          "internalType": "uint256",
          "name": "value",
          "type": "uint256"
        }
      ],
      "name": "TransferSingle",
      "type": "event"
    },
    {
      "anonymous": false,
      "inputs": [
        {
          "indexed": false,
          "internalType": "string",
          "name": "value",
          "type": "string"
        },
        {
          "indexed": true,
          "internalType": "uint256",
          "name": "id",
          "type": "uint256"
        }
      ],
      "name": "URI",
      "type": "event"
    },
    {
      "anonymous": false,
      "inputs": [
        {
          "indexed": false,
          "internalType": "address",
          "name": "account",
          "type": "address"
        }
      ],
      "name": "Unpaused",
      "type": "event"
    },
    {
      "inputs": [],
      "name": "DEFAULT_ADMIN_ROLE",
      "outputs": [
        {
          "internalType": "bytes32",
          "name": "",
          "type": "bytes32"
        }
      ],
      "stateMutability": "view",
      "type": "function"
    },
    {
      "inputs": [],
      "name": "PAUSER_ROLE",
      "outputs": [
        {
          "internalType": "bytes32",
          "name": "",
          "type": "bytes32"
        }
      ],
      "stateMutability": "view",
      "type": "function"
    },
    {
      "inputs": [
        {
          "internalType": "bytes32",
          "name": "node",
          "type": "bytes32"
        }
      ],
      "name": "addr",
      "outputs": [
        {
          "internalType": "address payable",
          "name": "",
          "type": "address"
        }
      ],
      "stateMutability": "view",
      "type": "function"
    },
    {
      "inputs": [
        {
          "internalType": "bytes32",
          "name": "node",
          "type": "bytes32"
        },
        {
          "internalType": "uint256",
          "name": "coinType",
          "type": "uint256"
        }
      ],
      "name": "addr",
      "outputs": [
        {
          "internalType": "bytes",
          "name": "",
          "type": "bytes"
        }
      ],
      "stateMutability": "view",
      "type": "function"
    },
    {
      "inputs": [
        {
          "internalType": "bytes32",
          "name": "",
          "type": "bytes32"
        }
      ],
      "name": "addresses",
      "outputs": [
        {
          "internalType": "address",
          "name": "",
          "type": "address"
        }
      ],
      "stateMutability": "view",
      "type": "function"
    },
    {
      "inputs": [
        {
          "internalType": "address",
          "name": "account",
          "type": "address"
        },
        {
          "internalType": "uint256",
          "name": "id",
          "type": "uint256"
        }
      ],
      "name": "balanceOf",
      "outputs": [
        {
          "internalType": "uint256",
          "name": "",
          "type": "uint256"
        }
      ],
      "stateMutability": "view",
      "type": "function"
    },
    {
      "inputs": [
        {
          "internalType": "address[]",
          "name": "accounts",
          "type": "address[]"
        },
        {
          "internalType": "uint256[]",
          "name": "ids",
          "type": "uint256[]"
        }
      ],
      "name": "balanceOfBatch",
      "outputs": [
        {
          "internalType": "uint256[]",
          "name": "",
          "type": "uint256[]"
        }
      ],
      "stateMutability": "view",
      "type": "function"
    },
    {
      "inputs": [
        {
          "internalType": "string",
          "name": "guildEnsName",
          "type": "string"
        },
        {
          "internalType": "string",
          "name": "tag",
          "type": "string"
        },
        {
          "internalType": "address",
          "name": "recipient",
          "type": "address"
        },
        {
          "internalType": "bytes",
          "name": "extraClaimArgs",
          "type": "bytes"
        }
      ],
      "name": "claimGuildTag",
      "outputs": [],
      "stateMutability": "payable",
      "type": "function"
    },
    {
      "inputs": [
        {
          "internalType": "bytes32",
          "name": "guildEnsNode",
          "type": "bytes32"
        },
        {
          "internalType": "bytes32",
          "name": "tagHash",
          "type": "bytes32"
        },
        {
          "internalType": "address",
          "name": "recipient",
          "type": "address"
        },
        {
          "internalType": "bytes",
          "name": "extraClaimArgs",
          "type": "bytes"
        }
      ],
      "name": "claimGuildTag",
      "outputs": [],
      "stateMutability": "payable",
      "type": "function"
    },
    {
      "inputs": [
        {
          "internalType": "string",
          "name": "guildEnsName",
          "type": "string"
        }
      ],
      "name": "deregisterGuild",
      "outputs": [],
      "stateMutability": "nonpayable",
      "type": "function"
    },
    {
      "inputs": [
        {
          "internalType": "bytes32",
          "name": "ensNode",
          "type": "bytes32"
        }
      ],
      "name": "deregisterGuild",
      "outputs": [],
      "stateMutability": "nonpayable",
      "type": "function"
    },
    {
      "inputs": [],
      "name": "ensRegistry",
      "outputs": [
        {
          "internalType": "contract ENS",
          "name": "",
          "type": "address"
        }
      ],
      "stateMutability": "view",
      "type": "function"
    },
    {
      "inputs": [
        {
          "internalType": "bytes32",
          "name": "role",
          "type": "bytes32"
        }
      ],
      "name": "getRoleAdmin",
      "outputs": [
        {
          "internalType": "bytes32",
          "name": "",
          "type": "bytes32"
        }
      ],
      "stateMutability": "view",
      "type": "function"
    },
    {
      "inputs": [
        {
          "internalType": "bytes32",
          "name": "role",
          "type": "bytes32"
        },
        {
          "internalType": "uint256",
          "name": "index",
          "type": "uint256"
        }
      ],
      "name": "getRoleMember",
      "outputs": [
        {
          "internalType": "address",
          "name": "",
          "type": "address"
        }
      ],
      "stateMutability": "view",
      "type": "function"
    },
    {
      "inputs": [
        {
          "internalType": "bytes32",
          "name": "role",
          "type": "bytes32"
        }
      ],
      "name": "getRoleMemberCount",
      "outputs": [
        {
          "internalType": "uint256",
          "name": "",
          "type": "uint256"
        }
      ],
      "stateMutability": "view",
      "type": "function"
    },
    {
      "inputs": [
        {
          "internalType": "bytes32",
          "name": "role",
          "type": "bytes32"
        },
        {
          "internalType": "address",
          "name": "account",
          "type": "address"
        }
      ],
      "name": "grantRole",
      "outputs": [],
      "stateMutability": "nonpayable",
      "type": "function"
    },
    {
      "inputs": [
        {
          "internalType": "bytes32",
          "name": "guildHash",
          "type": "bytes32"
        }
      ],
      "name": "guildAdmin",
      "outputs": [
        {
          "internalType": "address",
          "name": "",
          "type": "address"
        }
      ],
      "stateMutability": "view",
      "type": "function"
    },
    {
      "inputs": [
        {
          "internalType": "string",
          "name": "guildEnsName",
          "type": "string"
        }
      ],
      "name": "guildAdmin",
      "outputs": [
        {
          "internalType": "address",
          "name": "",
          "type": "address"
        }
      ],
      "stateMutability": "view",
      "type": "function"
    },
    {
      "inputs": [
        {
          "internalType": "bytes32",
          "name": "",
          "type": "bytes32"
        }
      ],
      "name": "guilds",
      "outputs": [
        {
          "internalType": "address",
          "name": "admin",
          "type": "address"
        },
        {
          "internalType": "contract FeePolicy",
          "name": "feePolicy",
          "type": "address"
        },
        {
          "internalType": "contract TagsAuthPolicy",
          "name": "tagsAuthPolicy",
          "type": "address"
        },
        {
          "internalType": "bool",
          "name": "active",
          "type": "bool"
        }
      ],
      "stateMutability": "view",
      "type": "function"
    },
    {
      "inputs": [
        {
          "internalType": "bytes32",
          "name": "role",
          "type": "bytes32"
        },
        {
          "internalType": "address",
          "name": "account",
          "type": "address"
        }
      ],
      "name": "hasRole",
      "outputs": [
        {
          "internalType": "bool",
          "name": "",
          "type": "bool"
        }
      ],
      "stateMutability": "view",
      "type": "function"
    },
    {
      "inputs": [
        {
          "internalType": "address",
          "name": "account",
          "type": "address"
        },
        {
          "internalType": "address",
          "name": "operator",
          "type": "address"
        }
      ],
      "name": "isApprovedForAll",
      "outputs": [
        {
          "internalType": "bool",
          "name": "",
          "type": "bool"
        }
      ],
      "stateMutability": "view",
      "type": "function"
    },
    {
      "inputs": [],
      "name": "pause",
      "outputs": [],
      "stateMutability": "nonpayable",
      "type": "function"
    },
    {
      "inputs": [],
      "name": "paused",
      "outputs": [
        {
          "internalType": "bool",
          "name": "",
          "type": "bool"
        }
      ],
      "stateMutability": "view",
      "type": "function"
    },
    {
      "inputs": [
        {
          "internalType": "string",
          "name": "ensName",
          "type": "string"
        },
        {
          "internalType": "address",
          "name": "admin",
          "type": "address"
        },
        {
          "internalType": "address",
          "name": "feePolicy",
          "type": "address"
        },
        {
          "internalType": "address",
          "name": "tagsAuthPolicy",
          "type": "address"
        }
      ],
      "name": "registerGuild",
      "outputs": [],
      "stateMutability": "nonpayable",
      "type": "function"
    },
    {
      "inputs": [
        {
          "internalType": "bytes32",
          "name": "ensNode",
          "type": "bytes32"
        },
        {
          "internalType": "address",
          "name": "admin",
          "type": "address"
        },
        {
          "internalType": "address",
          "name": "feePolicy",
          "type": "address"
        },
        {
          "internalType": "address",
          "name": "tagsAuthPolicy",
          "type": "address"
        }
      ],
      "name": "registerGuild",
      "outputs": [],
      "stateMutability": "nonpayable",
      "type": "function"
    },
    {
      "inputs": [
        {
          "internalType": "bytes32",
          "name": "role",
          "type": "bytes32"
        },
        {
          "internalType": "address",
          "name": "account",
          "type": "address"
        }
      ],
      "name": "renounceRole",
      "outputs": [],
      "stateMutability": "nonpayable",
      "type": "function"
    },
    {
      "inputs": [
        {
          "internalType": "string",
          "name": "guildEnsName",
          "type": "string"
        },
        {
          "internalType": "string",
          "name": "tag",
          "type": "string"
        },
        {
          "internalType": "bytes",
          "name": "extraData",
          "type": "bytes"
        }
      ],
      "name": "revokeGuildTag",
      "outputs": [],
      "stateMutability": "nonpayable",
      "type": "function"
    },
    {
      "inputs": [
        {
          "internalType": "bytes32",
          "name": "guildEnsNode",
          "type": "bytes32"
        },
        {
          "internalType": "bytes32",
          "name": "tagHash",
          "type": "bytes32"
        },
        {
          "internalType": "bytes",
          "name": "extraData",
          "type": "bytes"
        }
      ],
      "name": "revokeGuildTag",
      "outputs": [],
      "stateMutability": "nonpayable",
      "type": "function"
    },
    {
      "inputs": [
        {
          "internalType": "bytes32",
          "name": "role",
          "type": "bytes32"
        },
        {
          "internalType": "address",
          "name": "account",
          "type": "address"
        }
      ],
      "name": "revokeRole",
      "outputs": [],
      "stateMutability": "nonpayable",
      "type": "function"
    },
    {
      "inputs": [
        {
          "internalType": "address",
          "name": "from",
          "type": "address"
        },
        {
          "internalType": "address",
          "name": "to",
          "type": "address"
        },
        {
          "internalType": "uint256[]",
          "name": "ids",
          "type": "uint256[]"
        },
        {
          "internalType": "uint256[]",
          "name": "amounts",
          "type": "uint256[]"
        },
        {
          "internalType": "bytes",
          "name": "data",
          "type": "bytes"
        }
      ],
      "name": "safeBatchTransferFrom",
      "outputs": [],
      "stateMutability": "nonpayable",
      "type": "function"
    },
    {
      "inputs": [
        {
          "internalType": "address",
          "name": "",
          "type": "address"
        },
        {
          "internalType": "address",
          "name": "",
          "type": "address"
        },
        {
          "internalType": "uint256",
          "name": "",
          "type": "uint256"
        },
        {
          "internalType": "uint256",
          "name": "",
          "type": "uint256"
        },
        {
          "internalType": "bytes",
          "name": "",
          "type": "bytes"
        }
      ],
      "name": "safeTransferFrom",
      "outputs": [],
      "stateMutability": "nonpayable",
      "type": "function"
    },
    {
      "inputs": [
        {
          "internalType": "address",
          "name": "operator",
          "type": "address"
        },
        {
          "internalType": "bool",
          "name": "approved",
          "type": "bool"
        }
      ],
      "name": "setApprovalForAll",
      "outputs": [],
      "stateMutability": "nonpayable",
      "type": "function"
    },
    {
      "inputs": [
        {
          "internalType": "bytes32",
          "name": "guildEnsNode",
          "type": "bytes32"
        },
        {
          "internalType": "bool",
          "name": "active",
          "type": "bool"
        }
      ],
      "name": "setGuildActive",
      "outputs": [],
      "stateMutability": "nonpayable",
      "type": "function"
    },
    {
      "inputs": [
        {
          "internalType": "string",
          "name": "guildEnsName",
          "type": "string"
        },
        {
          "internalType": "bool",
          "name": "active",
          "type": "bool"
        }
      ],
      "name": "setGuildActive",
      "outputs": [],
      "stateMutability": "nonpayable",
      "type": "function"
    },
    {
      "inputs": [
        {
          "internalType": "bytes32",
          "name": "guildEnsNode",
          "type": "bytes32"
        },
        {
          "internalType": "string",
          "name": "uriTemplate",
          "type": "string"
        }
      ],
      "name": "setGuildTokenUriTemplate",
      "outputs": [],
      "stateMutability": "nonpayable",
      "type": "function"
    },
    {
      "inputs": [
        {
          "internalType": "string",
          "name": "guildEnsName",
          "type": "string"
        },
        {
          "internalType": "string",
          "name": "uriTemplate",
          "type": "string"
        }
      ],
      "name": "setGuildTokenUriTemplate",
      "outputs": [],
      "stateMutability": "nonpayable",
      "type": "function"
    },
    {
      "inputs": [
        {
          "internalType": "bytes4",
          "name": "interfaceId",
          "type": "bytes4"
        }
      ],
      "name": "supportsInterface",
      "outputs": [
        {
          "internalType": "bool",
          "name": "",
          "type": "bool"
        }
      ],
      "stateMutability": "view",
      "type": "function"
    },
    {
      "inputs": [
        {
          "internalType": "string",
          "name": "guildEnsName",
          "type": "string"
        },
        {
          "internalType": "address",
          "name": "newAdmin",
          "type": "address"
        }
      ],
      "name": "transferGuildAdmin",
      "outputs": [],
      "stateMutability": "nonpayable",
      "type": "function"
    },
    {
      "inputs": [
        {
          "internalType": "bytes32",
          "name": "guildEnsNode",
          "type": "bytes32"
        },
        {
          "internalType": "address",
          "name": "newAdmin",
          "type": "address"
        }
      ],
      "name": "transferGuildAdmin",
      "outputs": [],
      "stateMutability": "nonpayable",
      "type": "function"
    },
    {
      "inputs": [],
      "name": "unpause",
      "outputs": [],
      "stateMutability": "nonpayable",
      "type": "function"
    },
    {
      "inputs": [
        {
          "internalType": "string",
          "name": "guildEnsName",
          "type": "string"
        },
        {
          "internalType": "address",
          "name": "feePolicy",
          "type": "address"
        }
      ],
      "name": "updateGuildFeePolicy",
      "outputs": [],
      "stateMutability": "nonpayable",
      "type": "function"
    },
    {
      "inputs": [
        {
          "internalType": "bytes32",
          "name": "guildEnsNode",
          "type": "bytes32"
        },
        {
          "internalType": "address",
          "name": "feePolicy",
          "type": "address"
        }
      ],
      "name": "updateGuildFeePolicy",
      "outputs": [],
      "stateMutability": "nonpayable",
      "type": "function"
    },
    {
      "inputs": [
        {
          "internalType": "string",
          "name": "guildEnsName",
          "type": "string"
        },
        {
          "internalType": "address",
          "name": "tagsAuthPolicy",
          "type": "address"
        }
      ],
      "name": "updateGuildTagsAuthPolicy",
      "outputs": [],
      "stateMutability": "nonpayable",
      "type": "function"
    },
    {
      "inputs": [
        {
          "internalType": "bytes32",
          "name": "guildEnsNode",
          "type": "bytes32"
        },
        {
          "internalType": "address",
          "name": "tagsAuthPolicy",
          "type": "address"
        }
      ],
      "name": "updateGuildTagsAuthPolicy",
      "outputs": [],
      "stateMutability": "nonpayable",
      "type": "function"
    },
    {
      "inputs": [
        {
          "internalType": "uint256",
          "name": "tokenId",
          "type": "uint256"
        }
      ],
      "name": "uri",
      "outputs": [
        {
          "internalType": "string",
          "name": "",
          "type": "string"
        }
      ],
      "stateMutability": "view",
      "type": "function"
    }
  ],
  "transactionHash": "0x431ccfe587a03471d44cb0e86950c6110c193f078fa3ef0625b1e7b8da1805bf",
  "args": [
    "stubMetadataUri",
    "0x00000000000C2E074eC69A0dFb2997BA6C7d2e1e",
    "0x4B1488B7a6B320d2D721406204aBc3eeAa9AD329"
  ],
  "numDeployments": 1,
  "solcInputHash": "552de5a12012ac94326fe2116f1ea129",
  "bytecode": "0x60806040523480156200001157600080fd5b50604051620045e3380380620045e3833981016040819052620000349162000267565b80836200004181620000c7565b50600680546001600160a01b03909216610100026001600160a81b031990921691909117905560016008556200009f7f65d7a28e3265b37a6474929f336521b332c1681b933f6cb9f3376673440d862a620000993390565b620000d9565b50600980546001600160a01b0319166001600160a01b039290921691909117905550620004bb565b6004620000d58282620003ef565b5050565b620000d58282620000f682826200012260201b62001e811760201c565b60008281526001602090815260409091206200011d91839062001f1f620001c2821b17901c565b505050565b6000828152602081815260408083206001600160a01b038516845290915290205460ff16620000d5576000828152602081815260408083206001600160a01b03851684529091529020805460ff191660011790556200017e3390565b6001600160a01b0316816001600160a01b0316837f2f8788117e7eff1d82e926ec794901d17c78024a50270940304540a733656f0d60405160405180910390a45050565b6000620001d9836001600160a01b038416620001e2565b90505b92915050565b60008181526001830160205260408120546200022b57508154600181810184556000848152602080822090930184905584548482528286019093526040902091909155620001dc565b506000620001dc565b634e487b7160e01b600052604160045260246000fd5b80516001600160a01b03811681146200026257600080fd5b919050565b6000806000606084860312156200027d57600080fd5b83516001600160401b03808211156200029557600080fd5b818601915086601f830112620002aa57600080fd5b815181811115620002bf57620002bf62000234565b604051601f8201601f19908116603f01168101908382118183101715620002ea57620002ea62000234565b816040528281526020935089848487010111156200030757600080fd5b600091505b828210156200032b57848201840151818301850152908301906200030c565b6000848483010152809750505050620003468187016200024a565b9350505062000358604085016200024a565b90509250925092565b600181811c908216806200037657607f821691505b6020821081036200039757634e487b7160e01b600052602260045260246000fd5b50919050565b601f8211156200011d57600081815260208120601f850160051c81016020861015620003c65750805b601f850160051c820191505b81811015620003e757828155600101620003d2565b505050505050565b81516001600160401b038111156200040b576200040b62000234565b62000423816200041c845462000361565b846200039d565b602080601f8311600181146200045b5760008415620004425750858301515b600019600386901b1c1916600185901b178555620003e7565b600085815260208120601f198616915b828110156200048c578886015182559484019460019091019084016200046b565b5085821015620004ab5787850151600019600388901b60f8161c191681555b5050505050600190811b01905550565b61411880620004cb6000396000f3fe6080604052600436106102f15760003560e01c80638308af031161018f578063bb2b1e82116100e1578063defa45af1161008a578063f1cb7e0611610064578063f1cb7e0614610951578063f242432a14610971578063fdfb410c1461099157600080fd5b8063defa45af146108b4578063e63ab1e9146108d4578063e985e9c51461090857600080fd5b8063d4ec5bbc116100bb578063d4ec5bbc146107ea578063d547741f1461080a578063d919713f1461082a57600080fd5b8063bb2b1e821461078a578063ca15c873146107aa578063cf4c5d69146107ca57600080fd5b80639c9925f511610143578063a217fddf1161011d578063a217fddf14610735578063a22cb4651461074a578063a484fba61461076a57600080fd5b80639c9925f5146106e25780639e5388ba14610702578063a062d1f71461071557600080fd5b80638a86edba116101745780638a86edba1461065e5780639010d07c1461067e57806391d148541461069e57600080fd5b80638308af03146106295780638456cb591461064957600080fd5b80633f4ba83a11610248578063620440e8116101fc578063784beff2116101d6578063784beff2146105c95780637d73b231146105e95780637e6536121461060957600080fd5b8063620440e814610560578063699f200f14610573578063784609f8146105a957600080fd5b80634e1273f41161022d5780634e1273f4146104fb578063516877f6146105285780635c975abb1461054857600080fd5b80633f4ba83a146104c65780633f774c4d146104db57600080fd5b8063248a9ca3116102aa578063348f18f711610284578063348f18f71461046657806336568abe146104865780633b3b57de146104a657600080fd5b8063248a9ca3146103f65780632eb2c2d6146104265780632f2ff15d1461044657600080fd5b8063022c977f116102db578063022c977f146103595780630e89341c146103a757806310c68cd8146103d457600080fd5b8062fdd58e146102f657806301ffc9a714610329575b600080fd5b34801561030257600080fd5b506103166103113660046131ea565b6109b1565b6040519081526020015b60405180910390f35b34801561033557600080fd5b5061034961034436600461322c565b610a5f565b6040519015158152602001610320565b34801561036557600080fd5b5061038f610374366004613249565b6000908152600a60205260409020546001600160a01b031690565b6040516001600160a01b039091168152602001610320565b3480156103b357600080fd5b506103c76103c2366004613249565b610ac1565b60405161032091906132b2565b3480156103e057600080fd5b506103f46103ef36600461338c565b610ba6565b005b34801561040257600080fd5b50610316610411366004613249565b60009081526020819052604090206001015490565b34801561043257600080fd5b506103f4610441366004613496565b610bc6565b34801561045257600080fd5b506103f4610461366004613544565b610c61565b34801561047257600080fd5b506103f4610481366004613574565b610c8b565b34801561049257600080fd5b506103f46104a1366004613544565b610ca2565b3480156104b257600080fd5b5061038f6104c1366004613249565b610d2e565b3480156104d257600080fd5b506103f4610d60565b3480156104e757600080fd5b506103f46104f6366004613574565b610e06565b34801561050757600080fd5b5061051b6105163660046135bb565b610e1d565b60405161032091906136c3565b34801561053457600080fd5b506103f461054336600461371f565b610f5b565b34801561055457600080fd5b5060065460ff16610349565b6103f461056e3660046137aa565b610f84565b34801561057f57600080fd5b5061038f61058e366004613249565b6007602052600090815260409020546001600160a01b031681565b3480156105b557600080fd5b506103f46105c436600461385c565b610faf565b3480156105d557600080fd5b506103f46105e4366004613881565b61106e565b3480156105f557600080fd5b5060095461038f906001600160a01b031681565b34801561061557600080fd5b506103f46106243660046138c8565b61115f565b34801561063557600080fd5b506103f46106443660046138fd565b611175565b34801561065557600080fd5b506103f461118c565b34801561066a57600080fd5b506103f4610679366004613574565b611230565b34801561068a57600080fd5b5061038f610699366004613944565b611247565b3480156106aa57600080fd5b506103496106b9366004613544565b6000918252602082815260408084206001600160a01b0393909316845291905290205460ff1690565b3480156106ee57600080fd5b506103f46106fd366004613544565b61125f565b6103f4610710366004613966565b61133a565b34801561072157600080fd5b506103f46107303660046139bf565b6117fe565b34801561074157600080fd5b50610316600081565b34801561075657600080fd5b506103f4610765366004613a0b565b611848565b34801561077657600080fd5b506103f4610785366004613a39565b611853565b34801561079657600080fd5b5061038f6107a53660046138c8565b61186b565b3480156107b657600080fd5b506103166107c5366004613249565b611897565b3480156107d657600080fd5b506103f46107e5366004613a95565b6118ae565b3480156107f657600080fd5b506103f4610805366004613544565b611b71565b34801561081657600080fd5b506103f4610825366004613544565b611c07565b34801561083657600080fd5b5061087f610845366004613249565b600a602052600090815260409020805460018201546002909201546001600160a01b0391821692821691811690600160a01b900460ff1684565b60405161032094939291906001600160a01b039485168152928416602084015292166040820152901515606082015260800190565b3480156108c057600080fd5b506103f46108cf366004613249565b611c2c565b3480156108e057600080fd5b506103167f65d7a28e3265b37a6474929f336521b332c1681b933f6cb9f3376673440d862a81565b34801561091457600080fd5b50610349610923366004613abd565b6001600160a01b03918216600090815260036020908152604080832093909416825291909152205460ff1690565b34801561095d57600080fd5b506103c761096c366004613944565b611cd8565b34801561097d57600080fd5b506103f461098c366004613aeb565b611d8d565b34801561099d57600080fd5b506103f46109ac366004613544565b611da6565b60006001600160a01b038316610a345760405162461bcd60e51b815260206004820152602a60248201527f455243313135353a2061646472657373207a65726f206973206e6f742061207660448201527f616c6964206f776e65720000000000000000000000000000000000000000000060648201526084015b60405180910390fd5b5060008181526002602090815260408083206001600160a01b03861684529091529020545b92915050565b60006001600160e01b031982166398280fbb60e01b1480610a845750610a8482611f34565b80610a935750610a9382611f70565b80610aa25750610aa282611f7b565b80610a5957506301ffc9a760e01b6001600160e01b0319831614610a59565b6fffffffffffffffffffffffffffffffff198116600081815260056020526040902060010180546060929182918190610af990613b54565b159050610b9457808054610b0c90613b54565b80601f0160208091040260200160405190810160405280929190818152602001828054610b3890613b54565b8015610b855780601f10610b5a57610100808354040283529160200191610b85565b820191906000526020600020905b815481529060010190602001808311610b6857829003601f168201915b50505050509350505050919050565b610b9d85611fa0565b95945050505050565b6000610bb185612034565b9050610bbf818585856118ae565b5050505050565b6001600160a01b038516331480610be25750610be28533610923565b610c545760405162461bcd60e51b815260206004820152602e60248201527f455243313135353a2063616c6c6572206973206e6f7420746f6b656e206f776e60448201527f6572206f7220617070726f7665640000000000000000000000000000000000006064820152608401610a2b565b610bbf8585858585612041565b600082815260208190526040902060010154610c7c816122da565b610c8683836122e7565b505050565b6000610c9683612034565b9050610c868183611b71565b6001600160a01b0381163314610d205760405162461bcd60e51b815260206004820152602f60248201527f416363657373436f6e74726f6c3a2063616e206f6e6c792072656e6f756e636560448201527f20726f6c657320666f722073656c6600000000000000000000000000000000006064820152608401610a2b565b610d2a8282612309565b5050565b600080610d3c83603c611cd8565b90508051600003610d505750600092915050565b610d598161232b565b9392505050565b610d8a7f65d7a28e3265b37a6474929f336521b332c1681b933f6cb9f3376673440d862a336106b9565b610dfc5760405162461bcd60e51b815260206004820152602b60248201527f454e534775696c64733a206d75737420686176652070617573657220726f6c6560448201527f20746f20756e70617573650000000000000000000000000000000000000000006064820152608401610a2b565b610e04612353565b565b6000610e1183612034565b9050610c868183611da6565b60608151835114610e965760405162461bcd60e51b815260206004820152602960248201527f455243313135353a206163636f756e747320616e6420696473206c656e67746860448201527f206d69736d6174636800000000000000000000000000000000000000000000006064820152608401610a2b565b6000835167ffffffffffffffff811115610eb257610eb26132c5565b604051908082528060200260200182016040528015610edb578160200160208202803683370190505b50905060005b8451811015610f5357610f26858281518110610eff57610eff613b8e565b6020026020010151858381518110610f1957610f19613b8e565b60200260200101516109b1565b828281518110610f3857610f38613b8e565b6020908102919091010152610f4c81613bba565b9050610ee1565b509392505050565b6000610f6685612034565b84516020860120909150610f7c8282868661106e565b505050505050565b6000610f8f86612034565b85516020870120909150610fa6828287878761133a565b50505050505050565b6000828152600a602052604090205482906001600160a01b03163314610fe857604051630e64a9cf60e21b815260040160405180910390fd5b6000838152600a6020526040908190206002018054841515600160a01b027fffffffffffffffffffffff00ffffffffffffffffffffffffffffffffffffffff9091161790555183907fcddecc2f17a0c961cfad3af69d94ee8d5ece1542dc95fd53f898ab77781272c49061106190851515815260200190565b60405180910390a2505050565b6000848152600a602052604090819020600201549051630c5f23c360e41b81526001600160a01b0390911690819063c5f23c30906110b6908890889088908890600401613bfc565b6020604051808303816000875af11580156110d5573d6000803e3d6000fd5b505050506040513d601f19601f820116820180604052508101906110f99190613c26565b6111165760405163645b259360e11b815260040160405180910390fd5b60408051602080820187905281830188905282518083038401815260609092018352815191810191909120600090815260079091522080546001600160a01b0319169055610bbf565b600061116a82612034565b9050610d2a81611c2c565b600061118083612034565b9050610c868183610faf565b6111b67f65d7a28e3265b37a6474929f336521b332c1681b933f6cb9f3376673440d862a336106b9565b6112285760405162461bcd60e51b815260206004820152602960248201527f454e534775696c64733a206d75737420686176652070617573657220726f6c6560448201527f20746f20706175736500000000000000000000000000000000000000000000006064820152608401610a2b565b610e046123a5565b600061123b83612034565b9050610c86818361125f565b6000828152600160205260408120610d5990836123e2565b6000828152600a602052604090205482906001600160a01b0316331461129857604051630e64a9cf60e21b815260040160405180910390fd5b6112b26001600160a01b038316632763ed8d60e21b6123ee565b6112da5760405163592e05dd60e11b81526001600160a01b0383166004820152602401610a2b565b6000838152600a602090815260409182902060010180546001600160a01b0319166001600160a01b038616908117909155915191825284917fe3e6191059989ec6f70a99fca0dfbb5c0cac787bba9232a0f364180133d3e7159101611061565b61134261240a565b6000858152600a6020526040902060020154600160a01b900460ff1661137b57604051634db8e46160e01b815260040160405180910390fd5b6040805160208082018890528183018790528251808303840181526060909201909252805191012060006113ae82610d2e565b6001600160a01b0316146113d557604051630344c41960e11b815260040160405180910390fd5b6000868152600a60205260409020600201546001600160a01b03168063f02cbfbb8888338989896040518763ffffffff1660e01b815260040161141d96959493929190613c43565b6020604051808303816000875af115801561143c573d6000803e3d6000fd5b505050506040513d601f19601f820116820180604052508101906114609190613c26565b61147d576040516302b7adcd60e11b815260040160405180910390fd5b6000878152600a6020526040812060010154819081906001600160a01b0316639c707f938b8b338b8b6040518663ffffffff1660e01b81526004016114c6959493929190613c88565b606060405180830381865afa1580156114e3573d6000803e3d6000fd5b505050506040513d601f19601f820116820180604052508101906115079190613cb7565b9250925092508160001461167b576001600160a01b0383166115bd57813414611543576040516320c4d7fb60e21b815260040160405180910390fd5b6000816001600160a01b03163460405160006040518083038185875af1925050503d8060008114611590576040519150601f19603f3d011682016040523d82523d6000602084013e611595565b606091505b50509050806115b7576040516320c4d7fb60e21b815260040160405180910390fd5b5061167b565b6001600160a01b0383166323b872dd336040516001600160e01b031960e084901b1681526001600160a01b0391821660048201529084166024820152604481018590526064016020604051808303816000875af192505050801561163e575060408051601f3d908101601f1916820190925261163b91810190613c26565b60015b61165b576040516320c4d7fb60e21b815260040160405180910390fd5b80611679576040516320c4d7fb60e21b815260040160405180910390fd5b505b6116858a89612463565b604051638fcae51d60e01b81526000906001600160a01b03861690638fcae51d906116be908e908e9033908f908f908f90600401613c43565b6020604051808303816000875af11580156116dd573d6000803e3d6000fd5b505050506040513d601f19601f820116820180604052508101906117019190613cfa565b9050801561174e576040805160208082018490528183018e905282518083038401815260609092018352815191810191909120600090815260079091522080546001600160a01b03191690555b6009546040516305ef2c7f60e41b8152600481018d9052602481018c905230604482018190526064820152600060848201526001600160a01b0390911690635ef2c7f09060a401600060405180830381600087803b1580156117af57600080fd5b505af11580156117c3573d6000803e3d6000fd5b505050600087815260076020526040902080546001600160a01b0319166001600160a01b038c1617905550505050505050610bbf6001600855565b6000838152600a602052604090205483906001600160a01b0316331461183757604051630e64a9cf60e21b815260040160405180910390fd5b611842848484612541565b50505050565b610d2a338383612573565b600061185e84612034565b90506118428184846117fe565b60008061187783612034565b6000818152600a60205260409020549091506001600160a01b0316610d59565b6000818152600160205260408120610a5990612667565b336009546040516302571be360e01b8152600481018790526001600160a01b0392831692909116906302571be390602401602060405180830381865afa1580156118fc573d6000803e3d6000fd5b505050506040513d601f19601f820116820180604052508101906119209190613d13565b6001600160a01b031614611947576040516326fdee4b60e11b815260040160405180910390fd5b6000848152600a60205260409020600101546001600160a01b03161561198057604051630ea075bf60e21b815260040160405180910390fd5b6009546001600160a01b031663e985e9c5336040516001600160e01b031960e084901b1681526001600160a01b039091166004820152306024820152604401602060405180830381865afa1580156119dc573d6000803e3d6000fd5b505050506040513d601f19601f82011682018060405250810190611a009190613c26565b611a1d57604051636fd1a8ab60e01b815260040160405180910390fd5b611a376001600160a01b038316632763ed8d60e21b6123ee565b611a5f5760405163592e05dd60e11b81526001600160a01b0383166004820152602401610a2b565b611a796001600160a01b03821663bbebaf3160e01b6123ee565b611aa15760405163592e05dd60e11b81526001600160a01b0382166004820152602401610a2b565b604080516080810182526001600160a01b038086168252848116602080840191825285831684860190815260016060860181815260008c8152600a909452878420965187549087166001600160a01b0319918216178855945191870180549287169290951691909117909355516002909401805492511515600160a01b0274ffffffffffffffffffffffffffffffffffffffffff199093169490931693909317179055905185917f10906fae603eebfac53ddc0f103bee8a044dd7643c425c7a90f921dfa15ef62c91a250505050565b6000828152600a602052604090205482906001600160a01b03163314611baa57604051630e64a9cf60e21b815260040160405180910390fd5b6000838152600a602090815260409182902080546001600160a01b0319166001600160a01b038616908117909155915191825284917f44ae681d782ebebc775c8c23cc18621486d68ac94ae4a8271f59892d6c8cec239101611061565b600082815260208190526040902060010154611c22816122da565b610c868383612309565b6000818152600a602052604090205481906001600160a01b03163314611c6557604051630e64a9cf60e21b815260040160405180910390fd5b6000828152600a602052604080822080546001600160a01b031990811682556001820180549091169055600201805474ffffffffffffffffffffffffffffffffffffffffff191690555183917fa8167a993f10ce22abac512a74e81171d978a9d52acc66d0a46d3ff05f21ca0b91a25050565b6000828152600760205260409020546060906001600160a01b031680611d7c576006546040516378e5bf0360e11b815260048101869052602481018590526101009091046001600160a01b03169063f1cb7e0690604401600060405180830381865afa158015611d4c573d6000803e3d6000fd5b505050506040513d6000823e601f3d908101601f19168201604052611d749190810190613d30565b915050610a59565b611d8581612671565b949350505050565b6040516338730eb560e11b815260040160405180910390fd5b6000828152600a602052604090205482906001600160a01b03163314611ddf57604051630e64a9cf60e21b815260040160405180910390fd5b611df96001600160a01b03831663bbebaf3160e01b6123ee565b611e215760405163592e05dd60e11b81526001600160a01b0383166004820152602401610a2b565b6000838152600a602090815260409182902060020180546001600160a01b0319166001600160a01b038616908117909155915191825284917f276dcdaae75cd5831871106265565c93b5a5ba18286a11f7f661826476a89e5d9101611061565b6000828152602081815260408083206001600160a01b038516845290915290205460ff16610d2a576000828152602081815260408083206001600160a01b03851684529091529020805460ff19166001179055611edb3390565b6001600160a01b0316816001600160a01b0316837f2f8788117e7eff1d82e926ec794901d17c78024a50270940304540a733656f0d60405160405180910390a45050565b6000610d59836001600160a01b0384166126aa565b60006001600160e01b03198216631d9dabef60e11b1480611f6557506001600160e01b031982166378e5bf0360e11b145b80610a595750610a59825b6000610a59826126f9565b60006001600160e01b03198216635a05180f60e01b1480610a595750610a5982612739565b606060048054611faf90613b54565b80601f0160208091040260200160405190810160405280929190818152602001828054611fdb90613b54565b80156120285780601f10611ffd57610100808354040283529160200191612028565b820191906000526020600020905b81548152906001019060200180831161200b57829003601f168201915b50505050509050919050565b6000610a5982600061276e565b81518351146120b85760405162461bcd60e51b815260206004820152602860248201527f455243313135353a2069647320616e6420616d6f756e7473206c656e6774682060448201527f6d69736d617463680000000000000000000000000000000000000000000000006064820152608401610a2b565b6001600160a01b0384166121345760405162461bcd60e51b815260206004820152602560248201527f455243313135353a207472616e7366657220746f20746865207a65726f20616460448201527f64726573730000000000000000000000000000000000000000000000000000006064820152608401610a2b565b3360005b845181101561227457600085828151811061215557612155613b8e565b60200260200101519050600085838151811061217357612173613b8e565b60209081029190910181015160008481526002835260408082206001600160a01b038e16835290935291909120549091508181101561221a5760405162461bcd60e51b815260206004820152602a60248201527f455243313135353a20696e73756666696369656e742062616c616e636520666f60448201527f72207472616e73666572000000000000000000000000000000000000000000006064820152608401610a2b565b60008381526002602090815260408083206001600160a01b038e8116855292528083208585039055908b16825281208054849290612259908490613da8565b925050819055505050508061226d90613bba565b9050612138565b50846001600160a01b0316866001600160a01b0316826001600160a01b03167f4a39dc06d4c0dbc64b70af90fd698a233a518aa5d07e595d983b8c0526c8f7fb87876040516122c4929190613dbb565b60405180910390a4610f7c8187878787876127e8565b6122e4813361298d565b50565b6122f18282611e81565b6000828152600160205260409020610c869082611f1f565b6123138282612a00565b6000828152600160205260409020610c869082612a7f565b6000815160141461233b57600080fd5b50602001516c01000000000000000000000000900490565b61235b612a94565b6006805460ff191690557f5db9ee0a495bf2e6ff9c91a7834c1ba4fdd244a5e8aa4e537bd38aeae4b073aa335b6040516001600160a01b03909116815260200160405180910390a1565b6123ad612ae6565b6006805460ff191660011790557f62e78cea01bee320cd4e420270b5ea74000d11b0c9f74754ebdbfc544b05a2586123883390565b6000610d598383612b39565b60006123f983612b63565b8015610d595750610d598383612b96565b60026008540361245c5760405162461bcd60e51b815260206004820152601f60248201527f5265656e7472616e637947756172643a207265656e7472616e742063616c6c006044820152606401610a2b565b6002600855565b6fffffffffffffffffffffffffffffffff19821660009081526005602052604090205482906fffffffffffffffffffffffffffffffff81106124e75760405162461bcd60e51b815260206004820152601460248201527f746f6b656e436f756e7465724f766572666c6f770000000000000000000000006044820152606401610a2b565b6fffffffffffffffffffffffffffffffff1982166000908152600560205260409020805460010190556fffffffffffffffffffffffffffffffff19841660006125308383613da8565b90506060610fa68683600184612c34565b6fffffffffffffffffffffffffffffffff19831660009081526005602052604090208390600101610bbf838583613e26565b816001600160a01b0316836001600160a01b0316036125fa5760405162461bcd60e51b815260206004820152602960248201527f455243313135353a2073657474696e6720617070726f76616c2073746174757360448201527f20666f722073656c6600000000000000000000000000000000000000000000006064820152608401610a2b565b6001600160a01b03838116600081815260036020908152604080832094871680845294825291829020805460ff191686151590811790915591519182527f17307eab39ab6107e8899845ad3d59bd9653f200f220920489ca2b5937696c31910160405180910390a3505050565b6000610a59825490565b6040805160148082528183019092526060916020820181803683375050506c010000000000000000000000009290920260208301525090565b60008181526001830160205260408120546126f157508154600181810184556000848152602080822090930184905584548482528286019093526040902091909155610a59565b506000610a59565b60006001600160e01b03198216636cdb3d1360e11b148061272a57506001600160e01b031982166303a24d0760e21b145b80610a595750610a5982611f7b565b60006001600160e01b03198216637965db0b60e01b1480610a5957506301ffc9a760e01b6001600160e01b0319831614610a59565b60008183511161278057506000610a59565b600061278c8484612d41565b90506127ac8461279c8386613da8565b6127a7906001613da8565b61276e565b6127b7858584612dbc565b6040805160208101939093528201526060016040516020818303038152906040528051906020012091505092915050565b6001600160a01b0384163b15610f7c5760405163bc197c8160e01b81526001600160a01b0385169063bc197c819061282c9089908990889088908890600401613ee6565b6020604051808303816000875af1925050508015612867575060408051601f3d908101601f1916820190925261286491810190613f38565b60015b61291c57612873613f55565b806308c379a0036128ac5750612887613f71565b8061289257506128ae565b8060405162461bcd60e51b8152600401610a2b91906132b2565b505b60405162461bcd60e51b815260206004820152603460248201527f455243313135353a207472616e7366657220746f206e6f6e2d4552433131353560448201527f526563656976657220696d706c656d656e7465720000000000000000000000006064820152608401610a2b565b6001600160e01b0319811663bc197c8160e01b14610fa65760405162461bcd60e51b815260206004820152602860248201527f455243313135353a204552433131353552656365697665722072656a656374656044820152676420746f6b656e7360c01b6064820152608401610a2b565b6000828152602081815260408083206001600160a01b038516845290915290205460ff16610d2a576129be81612de0565b6129c9836020612df2565b6040516020016129da929190613ffb565b60408051601f198184030181529082905262461bcd60e51b8252610a2b916004016132b2565b6000828152602081815260408083206001600160a01b038516845290915290205460ff1615610d2a576000828152602081815260408083206001600160a01b0385168085529252808320805460ff1916905551339285917ff6391f5c32d9c69d2a47ea670b442974b53935d1edc7fd64eb21e047a839171b9190a45050565b6000610d59836001600160a01b038416612f9b565b60065460ff16610e045760405162461bcd60e51b815260206004820152601460248201527f5061757361626c653a206e6f74207061757365640000000000000000000000006044820152606401610a2b565b60065460ff1615610e045760405162461bcd60e51b815260206004820152601060248201527f5061757361626c653a20706175736564000000000000000000000000000000006044820152606401610a2b565b6000826000018281548110612b5057612b50613b8e565b9060005260206000200154905092915050565b6000612b76826301ffc9a760e01b612b96565b8015610a595750612b8f826001600160e01b0319612b96565b1592915050565b604080516001600160e01b03198316602480830191909152825180830390910181526044909101909152602080820180517bffffffffffffffffffffffffffffffffffffffffffffffffffffffff166301ffc9a760e01b178152825160009392849283928392918391908a617530fa92503d91506000519050828015612c1d575060208210155b8015612c295750600081115b979650505050505050565b6001600160a01b038416612c945760405162461bcd60e51b815260206004820152602160248201527f455243313135353a206d696e7420746f20746865207a65726f206164647265736044820152607360f81b6064820152608401610a2b565b336000612ca08561308e565b90506000612cad8561308e565b905060008681526002602090815260408083206001600160a01b038b16845290915281208054879290612ce1908490613da8565b909155505060408051878152602081018790526001600160a01b03808a1692600092918716917fc3d58168c5ae7397731d063d5bbf3d657854427343f4c083240f7aacaa2d0f62910160405180910390a4610fa6836000898989896130d9565b6000805b8351612d518285613da8565b14158015612da5575083612d658285613da8565b81518110612d7557612d75613b8e565b6020910101517fff0000000000000000000000000000000000000000000000000000000000000016601760f91b14155b15610d595780612db481613bba565b915050612d45565b8251600090612dcb8385613da8565b1115612dd657600080fd5b5091016020012090565b6060610a596001600160a01b03831660145b60606000612e0183600261407c565b612e0c906002613da8565b67ffffffffffffffff811115612e2457612e246132c5565b6040519080825280601f01601f191660200182016040528015612e4e576020820181803683370190505b509050600360fc1b81600081518110612e6957612e69613b8e565b60200101906001600160f81b031916908160001a905350600f60fb1b81600181518110612e9857612e98613b8e565b60200101906001600160f81b031916908160001a9053506000612ebc84600261407c565b612ec7906001613da8565b90505b6001811115612f4c577f303132333435363738396162636465660000000000000000000000000000000085600f1660108110612f0857612f08613b8e565b1a60f81b828281518110612f1e57612f1e613b8e565b60200101906001600160f81b031916908160001a90535060049490941c93612f4581614093565b9050612eca565b508315610d595760405162461bcd60e51b815260206004820181905260248201527f537472696e67733a20686578206c656e67746820696e73756666696369656e746044820152606401610a2b565b60008181526001830160205260408120548015613084576000612fbf6001836140aa565b8554909150600090612fd3906001906140aa565b9050818114613038576000866000018281548110612ff357612ff3613b8e565b906000526020600020015490508087600001848154811061301657613016613b8e565b6000918252602080832090910192909255918252600188019052604090208390555b8554869080613049576130496140bd565b600190038181906000526020600020016000905590558560010160008681526020019081526020016000206000905560019350505050610a59565b6000915050610a59565b604080516001808252818301909252606091600091906020808301908036833701905050905082816000815181106130c8576130c8613b8e565b602090810291909101015292915050565b6001600160a01b0384163b15610f7c5760405163f23a6e6160e01b81526001600160a01b0385169063f23a6e619061311d90899089908890889088906004016140d3565b6020604051808303816000875af1925050508015613158575060408051601f3d908101601f1916820190925261315591810190613f38565b60015b61316457612873613f55565b6001600160e01b0319811663f23a6e6160e01b14610fa65760405162461bcd60e51b815260206004820152602860248201527f455243313135353a204552433131353552656365697665722072656a656374656044820152676420746f6b656e7360c01b6064820152608401610a2b565b6001600160a01b03811681146122e457600080fd5b600080604083850312156131fd57600080fd5b8235613208816131d5565b946020939093013593505050565b6001600160e01b0319811681146122e457600080fd5b60006020828403121561323e57600080fd5b8135610d5981613216565b60006020828403121561325b57600080fd5b5035919050565b60005b8381101561327d578181015183820152602001613265565b50506000910152565b6000815180845261329e816020860160208601613262565b601f01601f19169290920160200192915050565b602081526000610d596020830184613286565b634e487b7160e01b600052604160045260246000fd5b601f8201601f1916810167ffffffffffffffff81118282101715613301576133016132c5565b6040525050565b600067ffffffffffffffff821115613322576133226132c5565b50601f01601f191660200190565b600082601f83011261334157600080fd5b813561334c81613308565b60405161335982826132db565b82815285602084870101111561336e57600080fd5b82602086016020830137600092810160200192909252509392505050565b600080600080608085870312156133a257600080fd5b843567ffffffffffffffff8111156133b957600080fd5b6133c587828801613330565b94505060208501356133d6816131d5565b925060408501356133e6816131d5565b915060608501356133f6816131d5565b939692955090935050565b600067ffffffffffffffff82111561341b5761341b6132c5565b5060051b60200190565b600082601f83011261343657600080fd5b8135602061344382613401565b60405161345082826132db565b83815260059390931b850182019282810191508684111561347057600080fd5b8286015b8481101561348b5780358352918301918301613474565b509695505050505050565b600080600080600060a086880312156134ae57600080fd5b85356134b9816131d5565b945060208601356134c9816131d5565b9350604086013567ffffffffffffffff808211156134e657600080fd5b6134f289838a01613425565b9450606088013591508082111561350857600080fd5b61351489838a01613425565b9350608088013591508082111561352a57600080fd5b5061353788828901613330565b9150509295509295909350565b6000806040838503121561355757600080fd5b823591506020830135613569816131d5565b809150509250929050565b6000806040838503121561358757600080fd5b823567ffffffffffffffff81111561359e57600080fd5b6135aa85828601613330565b9250506020830135613569816131d5565b600080604083850312156135ce57600080fd5b823567ffffffffffffffff808211156135e657600080fd5b818501915085601f8301126135fa57600080fd5b8135602061360782613401565b60405161361482826132db565b83815260059390931b850182019282810191508984111561363457600080fd5b948201945b8386101561365b57853561364c816131d5565b82529482019490820190613639565b9650508601359250508082111561367157600080fd5b5061367e85828601613425565b9150509250929050565b600081518084526020808501945080840160005b838110156136b85781518752958201959082019060010161369c565b509495945050505050565b602081526000610d596020830184613688565b60008083601f8401126136e857600080fd5b50813567ffffffffffffffff81111561370057600080fd5b60208301915083602082850101111561371857600080fd5b9250929050565b6000806000806060858703121561373557600080fd5b843567ffffffffffffffff8082111561374d57600080fd5b61375988838901613330565b9550602087013591508082111561376f57600080fd5b61377b88838901613330565b9450604087013591508082111561379157600080fd5b5061379e878288016136d6565b95989497509550505050565b6000806000806000608086880312156137c257600080fd5b853567ffffffffffffffff808211156137da57600080fd5b6137e689838a01613330565b965060208801359150808211156137fc57600080fd5b61380889838a01613330565b95506040880135915061381a826131d5565b9093506060870135908082111561383057600080fd5b5061383d888289016136d6565b969995985093965092949392505050565b80151581146122e457600080fd5b6000806040838503121561386f57600080fd5b8235915060208301356135698161384e565b6000806000806060858703121561389757600080fd5b8435935060208501359250604085013567ffffffffffffffff8111156138bc57600080fd5b61379e878288016136d6565b6000602082840312156138da57600080fd5b813567ffffffffffffffff8111156138f157600080fd5b611d8584828501613330565b6000806040838503121561391057600080fd5b823567ffffffffffffffff81111561392757600080fd5b61393385828601613330565b92505060208301356135698161384e565b6000806040838503121561395757600080fd5b50508035926020909101359150565b60008060008060006080868803121561397e57600080fd5b85359450602086013593506040860135613997816131d5565b9250606086013567ffffffffffffffff8111156139b357600080fd5b61383d888289016136d6565b6000806000604084860312156139d457600080fd5b83359250602084013567ffffffffffffffff8111156139f257600080fd5b6139fe868287016136d6565b9497909650939450505050565b60008060408385031215613a1e57600080fd5b8235613a29816131d5565b915060208301356135698161384e565b600080600060408486031215613a4e57600080fd5b833567ffffffffffffffff80821115613a6657600080fd5b613a7287838801613330565b94506020860135915080821115613a8857600080fd5b506139fe868287016136d6565b60008060008060808587031215613aab57600080fd5b8435935060208501356133d6816131d5565b60008060408385031215613ad057600080fd5b8235613adb816131d5565b91506020830135613569816131d5565b600080600080600060a08688031215613b0357600080fd5b8535613b0e816131d5565b94506020860135613b1e816131d5565b93506040860135925060608601359150608086013567ffffffffffffffff811115613b4857600080fd5b61353788828901613330565b600181811c90821680613b6857607f821691505b602082108103613b8857634e487b7160e01b600052602260045260246000fd5b50919050565b634e487b7160e01b600052603260045260246000fd5b634e487b7160e01b600052601160045260246000fd5b600060018201613bcc57613bcc613ba4565b5060010190565b81835281816020850137506000828201602090810191909152601f909101601f19169091010190565b848152836020820152606060408201526000613c1c606083018486613bd3565b9695505050505050565b600060208284031215613c3857600080fd5b8151610d598161384e565b86815285602082015260006001600160a01b03808716604084015280861660608401525060a06080830152613c7c60a083018486613bd3565b98975050505050505050565b8581528460208201526001600160a01b0384166040820152608060608201526000612c29608083018486613bd3565b600080600060608486031215613ccc57600080fd5b8351613cd7816131d5565b602085015160408601519194509250613cef816131d5565b809150509250925092565b600060208284031215613d0c57600080fd5b5051919050565b600060208284031215613d2557600080fd5b8151610d59816131d5565b600060208284031215613d4257600080fd5b815167ffffffffffffffff811115613d5957600080fd5b8201601f81018413613d6a57600080fd5b8051613d7581613308565b604051613d8282826132db565b828152866020848601011115613d9757600080fd5b613c1c836020830160208701613262565b80820180821115610a5957610a59613ba4565b604081526000613dce6040830185613688565b8281036020840152610b9d8185613688565b601f821115610c8657600081815260208120601f850160051c81016020861015613e075750805b601f850160051c820191505b81811015610f7c57828155600101613e13565b67ffffffffffffffff831115613e3e57613e3e6132c5565b613e5283613e4c8354613b54565b83613de0565b6000601f841160018114613e865760008515613e6e5750838201355b600019600387901b1c1916600186901b178355610bbf565b600083815260209020601f19861690835b82811015613eb75786850135825560209485019460019092019101613e97565b5086821015613ed45760001960f88860031b161c19848701351681555b505060018560011b0183555050505050565b60006001600160a01b03808816835280871660208401525060a06040830152613f1260a0830186613688565b8281036060840152613f248186613688565b90508281036080840152613c7c8185613286565b600060208284031215613f4a57600080fd5b8151610d5981613216565b600060033d1115613f6e5760046000803e5060005160e01c5b90565b600060443d1015613f7f5790565b6040516003193d81016004833e81513d67ffffffffffffffff8160248401118184111715613faf57505050505090565b8285019150815181811115613fc75750505050505090565b843d8701016020828501011115613fe15750505050505090565b613ff0602082860101876132db565b509095945050505050565b7f416363657373436f6e74726f6c3a206163636f756e7420000000000000000000815260008351614033816017850160208801613262565b7f206973206d697373696e6720726f6c65200000000000000000000000000000006017918401918201528351614070816028840160208801613262565b01602801949350505050565b8082028115828204841417610a5957610a59613ba4565b6000816140a2576140a2613ba4565b506000190190565b81810381811115610a5957610a59613ba4565b634e487b7160e01b600052603160045260246000fd5b60006001600160a01b03808816835280871660208401525084604083015283606083015260a06080830152612c2960a083018461328656fea164736f6c6343000811000a",
  "devdoc": {
    "kind": "dev",
    "methods": {
      "addr(bytes32)": {
        "params": {
          "node": "The ENS node to query."
        },
        "returns": {
          "_0": "The associated address."
        }
      },
      "balanceOf(address,uint256)": {
        "details": "See {IERC1155-balanceOf}. Requirements: - `account` cannot be the zero address."
      },
      "balanceOfBatch(address[],uint256[])": {
        "details": "See {IERC1155-balanceOfBatch}. Requirements: - `accounts` and `ids` must have the same length."
      },
      "getRoleAdmin(bytes32)": {
        "details": "Returns the admin role that controls `role`. See {grantRole} and {revokeRole}. To change a role's admin, use {_setRoleAdmin}."
      },
      "getRoleMember(bytes32,uint256)": {
        "details": "Returns one of the accounts that have `role`. `index` must be a value between 0 and {getRoleMemberCount}, non-inclusive. Role bearers are not sorted in any particular way, and their ordering may change at any point. WARNING: When using {getRoleMember} and {getRoleMemberCount}, make sure you perform all queries on the same block. See the following https://forum.openzeppelin.com/t/iterating-over-elements-on-enumerableset-in-openzeppelin-contracts/2296[forum post] for more information."
      },
      "getRoleMemberCount(bytes32)": {
        "details": "Returns the number of accounts that have `role`. Can be used together with {getRoleMember} to enumerate all bearers of a role."
      },
      "grantRole(bytes32,address)": {
        "details": "Grants `role` to `account`. If `account` had not been already granted `role`, emits a {RoleGranted} event. Requirements: - the caller must have ``role``'s admin role. May emit a {RoleGranted} event."
      },
      "hasRole(bytes32,address)": {
        "details": "Returns `true` if `account` has been granted `role`."
      },
      "isApprovedForAll(address,address)": {
        "details": "See {IERC1155-isApprovedForAll}."
      },
      "paused()": {
        "details": "Returns true if the contract is paused, and false otherwise."
      },
      "renounceRole(bytes32,address)": {
        "details": "Revokes `role` from the calling account. Roles are often managed via {grantRole} and {revokeRole}: this function's purpose is to provide a mechanism for accounts to lose their privileges if they are compromised (such as when a trusted device is misplaced). If the calling account had been revoked `role`, emits a {RoleRevoked} event. Requirements: - the caller must be `account`. May emit a {RoleRevoked} event."
      },
      "revokeRole(bytes32,address)": {
        "details": "Revokes `role` from `account`. If `account` had been granted `role`, emits a {RoleRevoked} event. Requirements: - the caller must have ``role``'s admin role. May emit a {RoleRevoked} event."
      },
      "safeBatchTransferFrom(address,address,uint256[],uint256[],bytes)": {
        "details": "See {IERC1155-safeBatchTransferFrom}."
      },
      "setApprovalForAll(address,bool)": {
        "details": "See {IERC1155-setApprovalForAll}."
      },
      "supportsInterface(bytes4)": {
        "details": "See {IERC165-supportsInterface}."
      }
    },
    "version": 1
  },
  "userdoc": {
    "errors": {
      "AlreadyRegistered()": [
        {
          "notice": "Errors "
        }
      ]
    },
    "events": {
      "Registered(bytes32)": {
        "notice": "Events "
      }
    },
    "kind": "user",
    "methods": {
      "addr(bytes32)": {
        "notice": "Returns the address associated with an ENS node."
      },
      "ensRegistry()": {
        "notice": "State "
      }
    },
    "version": 1
  },
  "storageLayout": {
    "storage": [
      {
        "astId": 200,
        "contract": "contracts/ensGuilds/ENSGuilds.sol:ENSGuilds",
        "label": "_roles",
        "offset": 0,
        "slot": "0",
        "type": "t_mapping(t_bytes32,t_struct(RoleData)195_storage)"
      },
      {
        "astId": 510,
        "contract": "contracts/ensGuilds/ENSGuilds.sol:ENSGuilds",
        "label": "_roleMembers",
        "offset": 0,
        "slot": "1",
        "type": "t_mapping(t_bytes32,t_struct(AddressSet)4380_storage)"
      },
      {
        "astId": 905,
        "contract": "contracts/ensGuilds/ENSGuilds.sol:ENSGuilds",
        "label": "_balances",
        "offset": 0,
        "slot": "2",
        "type": "t_mapping(t_uint256,t_mapping(t_address,t_uint256))"
      },
      {
        "astId": 911,
        "contract": "contracts/ensGuilds/ENSGuilds.sol:ENSGuilds",
        "label": "_operatorApprovals",
        "offset": 0,
        "slot": "3",
        "type": "t_mapping(t_address,t_mapping(t_address,t_bool))"
      },
      {
        "astId": 913,
        "contract": "contracts/ensGuilds/ENSGuilds.sol:ENSGuilds",
        "label": "_uri",
        "offset": 0,
        "slot": "4",
        "type": "t_string_storage"
      },
      {
        "astId": 6025,
        "contract": "contracts/ensGuilds/ENSGuilds.sol:ENSGuilds",
        "label": "guilds",
        "offset": 0,
        "slot": "5",
        "type": "t_mapping(t_bytes16,t_struct(GuildTokenInfo)6020_storage)"
      },
      {
        "astId": 735,
        "contract": "contracts/ensGuilds/ENSGuilds.sol:ENSGuilds",
        "label": "_paused",
        "offset": 0,
        "slot": "6",
        "type": "t_bool"
      },
      {
        "astId": 6213,
        "contract": "contracts/ensGuilds/ENSGuilds.sol:ENSGuilds",
        "label": "fallbackResolver",
        "offset": 1,
        "slot": "6",
        "type": "t_contract(IAddressResolver)175"
      },
      {
        "astId": 6217,
        "contract": "contracts/ensGuilds/ENSGuilds.sol:ENSGuilds",
        "label": "addresses",
        "offset": 0,
        "slot": "7",
        "type": "t_mapping(t_bytes32,t_address)"
      },
      {
        "astId": 836,
        "contract": "contracts/ensGuilds/ENSGuilds.sol:ENSGuilds",
        "label": "_status",
        "offset": 0,
        "slot": "8",
        "type": "t_uint256"
      },
      {
        "astId": 4719,
        "contract": "contracts/ensGuilds/ENSGuilds.sol:ENSGuilds",
        "label": "ensRegistry",
        "offset": 0,
        "slot": "9",
        "type": "t_contract(ENS)136"
      },
      {
        "astId": 4724,
        "contract": "contracts/ensGuilds/ENSGuilds.sol:ENSGuilds",
        "label": "guilds",
        "offset": 0,
        "slot": "10",
        "type": "t_mapping(t_bytes32,t_struct(GuildInfo)4707_storage)"
      }
    ],
    "types": {
      "t_address": {
        "encoding": "inplace",
        "label": "address",
        "numberOfBytes": "20"
      },
      "t_array(t_bytes32)dyn_storage": {
        "base": "t_bytes32",
        "encoding": "dynamic_array",
        "label": "bytes32[]",
        "numberOfBytes": "32"
      },
      "t_bool": {
        "encoding": "inplace",
        "label": "bool",
        "numberOfBytes": "1"
      },
      "t_bytes16": {
        "encoding": "inplace",
        "label": "bytes16",
        "numberOfBytes": "16"
      },
      "t_bytes32": {
        "encoding": "inplace",
        "label": "bytes32",
        "numberOfBytes": "32"
      },
      "t_contract(ENS)136": {
        "encoding": "inplace",
        "label": "contract ENS",
        "numberOfBytes": "20"
      },
      "t_contract(FeePolicy)6416": {
        "encoding": "inplace",
        "label": "contract FeePolicy",
        "numberOfBytes": "20"
      },
      "t_contract(IAddressResolver)175": {
        "encoding": "inplace",
        "label": "contract IAddressResolver",
        "numberOfBytes": "20"
      },
      "t_contract(TagsAuthPolicy)6600": {
        "encoding": "inplace",
        "label": "contract TagsAuthPolicy",
        "numberOfBytes": "20"
      },
      "t_mapping(t_address,t_bool)": {
        "encoding": "mapping",
        "key": "t_address",
        "label": "mapping(address => bool)",
        "numberOfBytes": "32",
        "value": "t_bool"
      },
      "t_mapping(t_address,t_mapping(t_address,t_bool))": {
        "encoding": "mapping",
        "key": "t_address",
        "label": "mapping(address => mapping(address => bool))",
        "numberOfBytes": "32",
        "value": "t_mapping(t_address,t_bool)"
      },
      "t_mapping(t_address,t_uint256)": {
        "encoding": "mapping",
        "key": "t_address",
        "label": "mapping(address => uint256)",
        "numberOfBytes": "32",
        "value": "t_uint256"
      },
      "t_mapping(t_bytes16,t_struct(GuildTokenInfo)6020_storage)": {
        "encoding": "mapping",
        "key": "t_bytes16",
        "label": "mapping(bytes16 => struct ENSGuildsToken.GuildTokenInfo)",
        "numberOfBytes": "32",
        "value": "t_struct(GuildTokenInfo)6020_storage"
      },
      "t_mapping(t_bytes32,t_address)": {
        "encoding": "mapping",
        "key": "t_bytes32",
        "label": "mapping(bytes32 => address)",
        "numberOfBytes": "32",
        "value": "t_address"
      },
      "t_mapping(t_bytes32,t_struct(AddressSet)4380_storage)": {
        "encoding": "mapping",
        "key": "t_bytes32",
        "label": "mapping(bytes32 => struct EnumerableSet.AddressSet)",
        "numberOfBytes": "32",
        "value": "t_struct(AddressSet)4380_storage"
      },
      "t_mapping(t_bytes32,t_struct(GuildInfo)4707_storage)": {
        "encoding": "mapping",
        "key": "t_bytes32",
        "label": "mapping(bytes32 => struct ENSGuilds.GuildInfo)",
        "numberOfBytes": "32",
        "value": "t_struct(GuildInfo)4707_storage"
      },
      "t_mapping(t_bytes32,t_struct(RoleData)195_storage)": {
        "encoding": "mapping",
        "key": "t_bytes32",
        "label": "mapping(bytes32 => struct AccessControl.RoleData)",
        "numberOfBytes": "32",
        "value": "t_struct(RoleData)195_storage"
      },
      "t_mapping(t_bytes32,t_uint256)": {
        "encoding": "mapping",
        "key": "t_bytes32",
        "label": "mapping(bytes32 => uint256)",
        "numberOfBytes": "32",
        "value": "t_uint256"
      },
      "t_mapping(t_uint256,t_mapping(t_address,t_uint256))": {
        "encoding": "mapping",
        "key": "t_uint256",
        "label": "mapping(uint256 => mapping(address => uint256))",
        "numberOfBytes": "32",
        "value": "t_mapping(t_address,t_uint256)"
      },
      "t_string_storage": {
        "encoding": "bytes",
        "label": "string",
        "numberOfBytes": "32"
      },
      "t_struct(AddressSet)4380_storage": {
        "encoding": "inplace",
        "label": "struct EnumerableSet.AddressSet",
        "members": [
          {
            "astId": 4379,
            "contract": "contracts/ensGuilds/ENSGuilds.sol:ENSGuilds",
            "label": "_inner",
            "offset": 0,
            "slot": "0",
            "type": "t_struct(Set)4065_storage"
          }
        ],
        "numberOfBytes": "64"
      },
      "t_struct(Counter)2716_storage": {
        "encoding": "inplace",
        "label": "struct Counters.Counter",
        "members": [
          {
            "astId": 2715,
            "contract": "contracts/ensGuilds/ENSGuilds.sol:ENSGuilds",
            "label": "_value",
            "offset": 0,
            "slot": "0",
            "type": "t_uint256"
          }
        ],
        "numberOfBytes": "32"
      },
      "t_struct(GuildInfo)4707_storage": {
        "encoding": "inplace",
        "label": "struct ENSGuilds.GuildInfo",
        "members": [
          {
            "astId": 4698,
            "contract": "contracts/ensGuilds/ENSGuilds.sol:ENSGuilds",
            "label": "admin",
            "offset": 0,
            "slot": "0",
            "type": "t_address"
          },
          {
            "astId": 4701,
            "contract": "contracts/ensGuilds/ENSGuilds.sol:ENSGuilds",
            "label": "feePolicy",
            "offset": 0,
            "slot": "1",
            "type": "t_contract(FeePolicy)6416"
          },
          {
            "astId": 4704,
            "contract": "contracts/ensGuilds/ENSGuilds.sol:ENSGuilds",
            "label": "tagsAuthPolicy",
            "offset": 0,
            "slot": "2",
            "type": "t_contract(TagsAuthPolicy)6600"
          },
          {
            "astId": 4706,
            "contract": "contracts/ensGuilds/ENSGuilds.sol:ENSGuilds",
            "label": "active",
            "offset": 20,
            "slot": "2",
            "type": "t_bool"
          }
        ],
        "numberOfBytes": "96"
      },
      "t_struct(GuildTokenInfo)6020_storage": {
        "encoding": "inplace",
        "label": "struct ENSGuildsToken.GuildTokenInfo",
        "members": [
          {
            "astId": 6017,
            "contract": "contracts/ensGuilds/ENSGuilds.sol:ENSGuilds",
            "label": "tokenIdTracker",
            "offset": 0,
            "slot": "0",
            "type": "t_struct(Counter)2716_storage"
          },
          {
            "astId": 6019,
            "contract": "contracts/ensGuilds/ENSGuilds.sol:ENSGuilds",
            "label": "templateURI",
            "offset": 0,
            "slot": "1",
            "type": "t_string_storage"
          }
        ],
        "numberOfBytes": "64"
      },
      "t_struct(RoleData)195_storage": {
        "encoding": "inplace",
        "label": "struct AccessControl.RoleData",
        "members": [
          {
            "astId": 192,
            "contract": "contracts/ensGuilds/ENSGuilds.sol:ENSGuilds",
            "label": "members",
            "offset": 0,
            "slot": "0",
            "type": "t_mapping(t_address,t_bool)"
          },
          {
            "astId": 194,
            "contract": "contracts/ensGuilds/ENSGuilds.sol:ENSGuilds",
            "label": "adminRole",
            "offset": 0,
            "slot": "1",
            "type": "t_bytes32"
          }
        ],
        "numberOfBytes": "64"
      },
      "t_struct(Set)4065_storage": {
        "encoding": "inplace",
        "label": "struct EnumerableSet.Set",
        "members": [
          {
            "astId": 4060,
            "contract": "contracts/ensGuilds/ENSGuilds.sol:ENSGuilds",
            "label": "_values",
            "offset": 0,
            "slot": "0",
            "type": "t_array(t_bytes32)dyn_storage"
          },
          {
            "astId": 4064,
            "contract": "contracts/ensGuilds/ENSGuilds.sol:ENSGuilds",
            "label": "_indexes",
            "offset": 0,
            "slot": "1",
            "type": "t_mapping(t_bytes32,t_uint256)"
          }
        ],
        "numberOfBytes": "64"
      },
      "t_uint256": {
        "encoding": "inplace",
        "label": "uint256",
        "numberOfBytes": "32"
      }
    }
  }
}