{
  "address": "0xac0C325fDc7af8ce362E7b565e908BCc8AB4C821",
  "abi": [
    {
      "inputs": [
        {
          "internalType": "string",
          "name": "defaultTokenMetadataUri",
          "type": "string"
        },
        {
          "internalType": "contract ENS",
          "name": "_ensRegistry",
          "type": "address"
        }
      ],
      "stateMutability": "nonpayable",
      "type": "constructor"
    },
    {
      "inputs": [],
      "name": "AlreadyRegistered",
      "type": "error"
    },
    {
      "inputs": [],
      "name": "ClaimUnauthorized",
      "type": "error"
    },
    {
      "inputs": [],
      "name": "ENSGuildsIsNotRegisteredOperator",
      "type": "error"
    },
    {
      "inputs": [],
      "name": "FeeError",
      "type": "error"
    },
    {
      "inputs": [],
      "name": "GuildAdminOnly",
      "type": "error"
    },
    {
      "inputs": [],
      "name": "GuildNotActive",
      "type": "error"
    },
    {
      "inputs": [],
      "name": "GuildsTokenTransferNotAllowed",
      "type": "error"
    },
    {
      "inputs": [
        {
          "internalType": "address",
          "name": "",
          "type": "address"
        }
      ],
      "name": "InvalidPolicy",
      "type": "error"
    },
    {
      "inputs": [],
      "name": "InvalidWildcardResolver",
      "type": "error"
    },
    {
      "inputs": [],
      "name": "NotDomainOwner",
      "type": "error"
    },
    {
      "inputs": [],
      "name": "RevokeUnauthorized",
      "type": "error"
    },
    {
      "inputs": [],
      "name": "TagAlreadyClaimed",
      "type": "error"
    },
    {
      "anonymous": false,
      "inputs": [
        {
          "indexed": true,
          "internalType": "bytes32",
          "name": "node",
          "type": "bytes32"
        },
        {
          "indexed": false,
          "internalType": "address",
          "name": "a",
          "type": "address"
        }
      ],
      "name": "AddrChanged",
      "type": "event"
    },
    {
      "anonymous": false,
      "inputs": [
        {
          "indexed": true,
          "internalType": "bytes32",
          "name": "node",
          "type": "bytes32"
        },
        {
          "indexed": false,
          "internalType": "uint256",
          "name": "coinType",
          "type": "uint256"
        },
        {
          "indexed": false,
          "internalType": "bytes",
          "name": "newAddress",
          "type": "bytes"
        }
      ],
      "name": "AddressChanged",
      "type": "event"
    },
    {
      "anonymous": false,
      "inputs": [
        {
          "indexed": true,
          "internalType": "bytes32",
          "name": "guildId",
          "type": "bytes32"
        },
        {
          "indexed": false,
          "internalType": "address",
          "name": "newAdmin",
          "type": "address"
        }
      ],
      "name": "AdminTransferred",
      "type": "event"
    },
    {
      "anonymous": false,
      "inputs": [
        {
          "indexed": true,
          "internalType": "address",
          "name": "account",
          "type": "address"
        },
        {
          "indexed": true,
          "internalType": "address",
          "name": "operator",
          "type": "address"
        },
        {
          "indexed": false,
          "internalType": "bool",
          "name": "approved",
          "type": "bool"
        }
      ],
      "name": "ApprovalForAll",
      "type": "event"
    },
    {
      "anonymous": false,
      "inputs": [
        {
          "indexed": true,
          "internalType": "bytes32",
          "name": "guildEnsNode",
          "type": "bytes32"
        }
      ],
      "name": "Deregistered",
      "type": "event"
    },
    {
      "anonymous": false,
      "inputs": [
        {
          "indexed": true,
          "internalType": "bytes32",
          "name": "guildId",
          "type": "bytes32"
        },
        {
          "indexed": false,
          "internalType": "address",
          "name": "feePolicy",
          "type": "address"
        }
      ],
      "name": "FeePolicyUpdated",
      "type": "event"
    },
    {
      "anonymous": false,
      "inputs": [
        {
          "indexed": true,
          "internalType": "bytes32",
          "name": "guildEnsNode",
          "type": "bytes32"
        }
      ],
      "name": "Registered",
      "type": "event"
    },
    {
      "anonymous": false,
      "inputs": [
        {
          "indexed": true,
          "internalType": "bytes32",
          "name": "guildId",
          "type": "bytes32"
        },
        {
          "indexed": false,
          "internalType": "bool",
          "name": "active",
          "type": "bool"
        }
      ],
      "name": "SetActive",
      "type": "event"
    },
    {
      "anonymous": false,
      "inputs": [
        {
          "indexed": true,
          "internalType": "bytes32",
          "name": "guildId",
          "type": "bytes32"
        },
        {
          "indexed": true,
          "internalType": "bytes32",
          "name": "tagHash",
          "type": "bytes32"
        },
        {
          "indexed": false,
          "internalType": "address",
          "name": "recipient",
          "type": "address"
        }
      ],
      "name": "TagClaimed",
      "type": "event"
    },
    {
      "anonymous": false,
      "inputs": [
        {
          "indexed": true,
          "internalType": "bytes32",
          "name": "guildId",
          "type": "bytes32"
        },
        {
          "indexed": true,
          "internalType": "bytes32",
          "name": "tagHash",
          "type": "bytes32"
        }
      ],
      "name": "TagRevoked",
      "type": "event"
    },
    {
      "anonymous": false,
      "inputs": [
        {
          "indexed": true,
          "internalType": "bytes32",
          "name": "guildId",
          "type": "bytes32"
        },
        {
          "indexed": false,
          "internalType": "address",
          "name": "tagsAuthPolicy",
          "type": "address"
        }
      ],
      "name": "TagsAuthPolicyUpdated",
      "type": "event"
    },
    {
      "anonymous": false,
      "inputs": [
        {
          "indexed": true,
          "internalType": "bytes32",
          "name": "guildId",
          "type": "bytes32"
        },
        {
          "indexed": false,
          "internalType": "string",
          "name": "uriTemplate",
          "type": "string"
        }
      ],
      "name": "TokenUriTemplateSet",
      "type": "event"
    },
    {
      "anonymous": false,
      "inputs": [
        {
          "indexed": true,
          "internalType": "address",
          "name": "operator",
          "type": "address"
        },
        {
          "indexed": true,
          "internalType": "address",
          "name": "from",
          "type": "address"
        },
        {
          "indexed": true,
          "internalType": "address",
          "name": "to",
          "type": "address"
        },
        {
          "indexed": false,
          "internalType": "uint256[]",
          "name": "ids",
          "type": "uint256[]"
        },
        {
          "indexed": false,
          "internalType": "uint256[]",
          "name": "values",
          "type": "uint256[]"
        }
      ],
      "name": "TransferBatch",
      "type": "event"
    },
    {
      "anonymous": false,
      "inputs": [
        {
          "indexed": true,
          "internalType": "address",
          "name": "operator",
          "type": "address"
        },
        {
          "indexed": true,
          "internalType": "address",
          "name": "from",
          "type": "address"
        },
        {
          "indexed": true,
          "internalType": "address",
          "name": "to",
          "type": "address"
        },
        {
          "indexed": false,
          "internalType": "uint256",
          "name": "id",
          "type": "uint256"
        },
        {
          "indexed": false,
          "internalType": "uint256",
          "name": "value",
          "type": "uint256"
        }
      ],
      "name": "TransferSingle",
      "type": "event"
    },
    {
      "anonymous": false,
      "inputs": [
        {
          "indexed": false,
          "internalType": "string",
          "name": "value",
          "type": "string"
        },
        {
          "indexed": true,
          "internalType": "uint256",
          "name": "id",
          "type": "uint256"
        }
      ],
      "name": "URI",
      "type": "event"
    },
    {
      "inputs": [
        {
          "internalType": "bytes32",
          "name": "node",
          "type": "bytes32"
        }
      ],
      "name": "addr",
      "outputs": [
        {
          "internalType": "address payable",
          "name": "",
          "type": "address"
        }
      ],
      "stateMutability": "view",
      "type": "function"
    },
    {
      "inputs": [
        {
          "internalType": "bytes32",
          "name": "node",
          "type": "bytes32"
        },
        {
          "internalType": "uint256",
          "name": "coinType",
          "type": "uint256"
        }
      ],
      "name": "addr",
      "outputs": [
        {
          "internalType": "bytes",
          "name": "",
          "type": "bytes"
        }
      ],
      "stateMutability": "view",
      "type": "function"
    },
    {
      "inputs": [
        {
          "internalType": "bytes32",
          "name": "",
          "type": "bytes32"
        }
      ],
      "name": "addresses",
      "outputs": [
        {
          "internalType": "address",
          "name": "",
          "type": "address"
        }
      ],
      "stateMutability": "view",
      "type": "function"
    },
    {
      "inputs": [
        {
          "internalType": "address",
          "name": "account",
          "type": "address"
        },
        {
          "internalType": "uint256",
          "name": "id",
          "type": "uint256"
        }
      ],
      "name": "balanceOf",
      "outputs": [
        {
          "internalType": "uint256",
          "name": "",
          "type": "uint256"
        }
      ],
      "stateMutability": "view",
      "type": "function"
    },
    {
      "inputs": [
        {
          "internalType": "address[]",
          "name": "accounts",
          "type": "address[]"
        },
        {
          "internalType": "uint256[]",
          "name": "ids",
          "type": "uint256[]"
        }
      ],
      "name": "balanceOfBatch",
      "outputs": [
        {
          "internalType": "uint256[]",
          "name": "",
          "type": "uint256[]"
        }
      ],
      "stateMutability": "view",
      "type": "function"
    },
    {
      "inputs": [
        {
          "internalType": "string",
          "name": "guildEnsName",
          "type": "string"
        },
        {
          "internalType": "string",
          "name": "tag",
          "type": "string"
        },
        {
          "internalType": "address",
          "name": "recipient",
          "type": "address"
        },
        {
          "internalType": "bytes",
          "name": "extraClaimArgs",
          "type": "bytes"
        }
      ],
      "name": "claimGuildTag",
      "outputs": [],
      "stateMutability": "payable",
      "type": "function"
    },
    {
      "inputs": [
        {
          "internalType": "bytes32",
          "name": "guildEnsNode",
          "type": "bytes32"
        },
        {
          "internalType": "string",
          "name": "tag",
          "type": "string"
        },
        {
          "internalType": "address",
          "name": "recipient",
          "type": "address"
        },
        {
          "internalType": "bytes",
          "name": "extraClaimArgs",
          "type": "bytes"
        }
      ],
      "name": "claimGuildTag",
      "outputs": [],
      "stateMutability": "payable",
      "type": "function"
    },
    {
      "inputs": [
        {
          "internalType": "bytes32",
          "name": "guildEnsNode",
          "type": "bytes32"
        },
        {
          "internalType": "string[]",
          "name": "tags",
          "type": "string[]"
        },
        {
          "internalType": "address[]",
          "name": "recipients",
          "type": "address[]"
        },
        {
          "internalType": "bytes[]",
          "name": "extraClaimArgs",
          "type": "bytes[]"
        }
      ],
      "name": "claimGuildTagsBatch",
      "outputs": [],
      "stateMutability": "payable",
      "type": "function"
    },
    {
      "inputs": [
        {
          "internalType": "string",
          "name": "guildEnsName",
          "type": "string"
        }
      ],
      "name": "deregisterGuild",
      "outputs": [],
      "stateMutability": "nonpayable",
      "type": "function"
    },
    {
      "inputs": [
        {
          "internalType": "bytes32",
          "name": "ensNode",
          "type": "bytes32"
        }
      ],
      "name": "deregisterGuild",
      "outputs": [],
      "stateMutability": "nonpayable",
      "type": "function"
    },
    {
      "inputs": [],
      "name": "ensRegistry",
      "outputs": [
        {
          "internalType": "contract ENS",
          "name": "",
          "type": "address"
        }
      ],
      "stateMutability": "view",
      "type": "function"
    },
    {
      "inputs": [
        {
          "internalType": "bytes32",
          "name": "guildHash",
          "type": "bytes32"
        }
      ],
      "name": "guildAdmin",
      "outputs": [
        {
          "internalType": "address",
          "name": "",
          "type": "address"
        }
      ],
      "stateMutability": "view",
      "type": "function"
    },
    {
      "inputs": [
        {
          "internalType": "string",
          "name": "guildEnsName",
          "type": "string"
        }
      ],
      "name": "guildAdmin",
      "outputs": [
        {
          "internalType": "address",
          "name": "",
          "type": "address"
        }
      ],
      "stateMutability": "view",
      "type": "function"
    },
    {
      "inputs": [
        {
          "internalType": "bytes32",
          "name": "",
          "type": "bytes32"
        }
      ],
      "name": "guilds",
      "outputs": [
        {
          "internalType": "address",
          "name": "admin",
          "type": "address"
        },
        {
          "internalType": "contract FeePolicy",
          "name": "feePolicy",
          "type": "address"
        },
        {
          "internalType": "contract ITagsAuthPolicy",
          "name": "tagsAuthPolicy",
          "type": "address"
        },
        {
          "internalType": "bool",
          "name": "active",
          "type": "bool"
        },
        {
          "internalType": "bool",
          "name": "deregistered",
          "type": "bool"
        }
      ],
      "stateMutability": "view",
      "type": "function"
    },
    {
      "inputs": [
        {
          "internalType": "address",
          "name": "account",
          "type": "address"
        },
        {
          "internalType": "address",
          "name": "operator",
          "type": "address"
        }
      ],
      "name": "isApprovedForAll",
      "outputs": [
        {
          "internalType": "bool",
          "name": "",
          "type": "bool"
        }
      ],
      "stateMutability": "view",
      "type": "function"
    },
    {
      "inputs": [
        {
          "internalType": "string",
          "name": "ensName",
          "type": "string"
        },
        {
          "internalType": "address",
          "name": "admin",
          "type": "address"
        },
        {
          "internalType": "address",
          "name": "feePolicy",
          "type": "address"
        },
        {
          "internalType": "address",
          "name": "tagsAuthPolicy",
          "type": "address"
        }
      ],
      "name": "registerGuild",
      "outputs": [],
      "stateMutability": "nonpayable",
      "type": "function"
    },
    {
      "inputs": [
        {
          "internalType": "bytes32",
          "name": "ensNode",
          "type": "bytes32"
        },
        {
          "internalType": "address",
          "name": "admin",
          "type": "address"
        },
        {
          "internalType": "address",
          "name": "feePolicy",
          "type": "address"
        },
        {
          "internalType": "address",
          "name": "tagsAuthPolicy",
          "type": "address"
        }
      ],
      "name": "registerGuild",
      "outputs": [],
      "stateMutability": "nonpayable",
      "type": "function"
    },
    {
      "inputs": [
        {
          "internalType": "string",
          "name": "guildEnsName",
          "type": "string"
        },
        {
          "internalType": "string",
          "name": "tag",
          "type": "string"
        },
        {
          "internalType": "bytes",
          "name": "extraData",
          "type": "bytes"
        }
      ],
      "name": "revokeGuildTag",
      "outputs": [],
      "stateMutability": "nonpayable",
      "type": "function"
    },
    {
      "inputs": [
        {
          "internalType": "bytes32",
          "name": "guildEnsNode",
          "type": "bytes32"
        },
        {
          "internalType": "string",
          "name": "tag",
          "type": "string"
        },
        {
          "internalType": "bytes",
          "name": "extraData",
          "type": "bytes"
        }
      ],
      "name": "revokeGuildTag",
      "outputs": [],
      "stateMutability": "nonpayable",
      "type": "function"
    },
    {
      "inputs": [
        {
          "internalType": "bytes32",
          "name": "guildHash",
          "type": "bytes32"
        },
        {
          "internalType": "string[]",
          "name": "tags",
          "type": "string[]"
        },
        {
          "internalType": "bytes[]",
          "name": "extraData",
          "type": "bytes[]"
        }
      ],
      "name": "revokeGuildTagsBatch",
      "outputs": [],
      "stateMutability": "nonpayable",
      "type": "function"
    },
    {
      "inputs": [
        {
          "internalType": "address",
          "name": "from",
          "type": "address"
        },
        {
          "internalType": "address",
          "name": "to",
          "type": "address"
        },
        {
          "internalType": "uint256[]",
          "name": "ids",
          "type": "uint256[]"
        },
        {
          "internalType": "uint256[]",
          "name": "amounts",
          "type": "uint256[]"
        },
        {
          "internalType": "bytes",
          "name": "data",
          "type": "bytes"
        }
      ],
      "name": "safeBatchTransferFrom",
      "outputs": [],
      "stateMutability": "nonpayable",
      "type": "function"
    },
    {
      "inputs": [
        {
          "internalType": "address",
          "name": "",
          "type": "address"
        },
        {
          "internalType": "address",
          "name": "",
          "type": "address"
        },
        {
          "internalType": "uint256",
          "name": "",
          "type": "uint256"
        },
        {
          "internalType": "uint256",
          "name": "",
          "type": "uint256"
        },
        {
          "internalType": "bytes",
          "name": "",
          "type": "bytes"
        }
      ],
      "name": "safeTransferFrom",
      "outputs": [],
      "stateMutability": "nonpayable",
      "type": "function"
    },
    {
      "inputs": [
        {
          "internalType": "address",
          "name": "operator",
          "type": "address"
        },
        {
          "internalType": "bool",
          "name": "approved",
          "type": "bool"
        }
      ],
      "name": "setApprovalForAll",
      "outputs": [],
      "stateMutability": "nonpayable",
      "type": "function"
    },
    {
      "inputs": [
        {
          "internalType": "bytes32",
          "name": "guildEnsNode",
          "type": "bytes32"
        },
        {
          "internalType": "bool",
          "name": "active",
          "type": "bool"
        }
      ],
      "name": "setGuildActive",
      "outputs": [],
      "stateMutability": "nonpayable",
      "type": "function"
    },
    {
      "inputs": [
        {
          "internalType": "string",
          "name": "guildEnsName",
          "type": "string"
        },
        {
          "internalType": "bool",
          "name": "active",
          "type": "bool"
        }
      ],
      "name": "setGuildActive",
      "outputs": [],
      "stateMutability": "nonpayable",
      "type": "function"
    },
    {
      "inputs": [
        {
          "internalType": "bytes32",
          "name": "guildEnsNode",
          "type": "bytes32"
        },
        {
          "internalType": "string",
          "name": "uriTemplate",
          "type": "string"
        }
      ],
      "name": "setGuildTokenUriTemplate",
      "outputs": [],
      "stateMutability": "nonpayable",
      "type": "function"
    },
    {
      "inputs": [
        {
          "internalType": "string",
          "name": "guildEnsName",
          "type": "string"
        },
        {
          "internalType": "string",
          "name": "uriTemplate",
          "type": "string"
        }
      ],
      "name": "setGuildTokenUriTemplate",
      "outputs": [],
      "stateMutability": "nonpayable",
      "type": "function"
    },
    {
      "inputs": [
        {
          "internalType": "bytes32",
          "name": "guildEnsNode",
          "type": "bytes32"
        },
        {
          "internalType": "contract IExtendedResolver",
          "name": "wildcardResolver",
          "type": "address"
        }
      ],
      "name": "setWildcardResolver",
      "outputs": [],
      "stateMutability": "nonpayable",
      "type": "function"
    },
    {
      "inputs": [
        {
          "internalType": "bytes4",
          "name": "interfaceId",
          "type": "bytes4"
        }
      ],
      "name": "supportsInterface",
      "outputs": [
        {
          "internalType": "bool",
          "name": "",
          "type": "bool"
        }
      ],
      "stateMutability": "view",
      "type": "function"
    },
    {
      "inputs": [
        {
          "internalType": "string",
          "name": "guildEnsName",
          "type": "string"
        },
        {
          "internalType": "string",
          "name": "tag",
          "type": "string"
        }
      ],
      "name": "tagOwner",
      "outputs": [
        {
          "internalType": "address",
          "name": "",
          "type": "address"
        }
      ],
      "stateMutability": "view",
      "type": "function"
    },
    {
      "inputs": [
        {
          "internalType": "bytes32",
          "name": "guildEnsNode",
          "type": "bytes32"
        },
        {
          "internalType": "bytes32",
          "name": "tagHash",
          "type": "bytes32"
        }
      ],
      "name": "tagOwner",
      "outputs": [
        {
          "internalType": "address",
          "name": "",
          "type": "address"
        }
      ],
      "stateMutability": "view",
      "type": "function"
    },
    {
      "inputs": [
        {
          "internalType": "string",
          "name": "guildEnsName",
          "type": "string"
        },
        {
          "internalType": "address",
          "name": "newAdmin",
          "type": "address"
        }
      ],
      "name": "transferGuildAdmin",
      "outputs": [],
      "stateMutability": "nonpayable",
      "type": "function"
    },
    {
      "inputs": [
        {
          "internalType": "bytes32",
          "name": "guildEnsNode",
          "type": "bytes32"
        },
        {
          "internalType": "address",
          "name": "newAdmin",
          "type": "address"
        }
      ],
      "name": "transferGuildAdmin",
      "outputs": [],
      "stateMutability": "nonpayable",
      "type": "function"
    },
    {
      "inputs": [
        {
          "internalType": "string",
          "name": "guildEnsName",
          "type": "string"
        },
        {
          "internalType": "address",
          "name": "feePolicy",
          "type": "address"
        }
      ],
      "name": "updateGuildFeePolicy",
      "outputs": [],
      "stateMutability": "nonpayable",
      "type": "function"
    },
    {
      "inputs": [
        {
          "internalType": "bytes32",
          "name": "guildEnsNode",
          "type": "bytes32"
        },
        {
          "internalType": "address",
          "name": "feePolicy",
          "type": "address"
        }
      ],
      "name": "updateGuildFeePolicy",
      "outputs": [],
      "stateMutability": "nonpayable",
      "type": "function"
    },
    {
      "inputs": [
        {
          "internalType": "string",
          "name": "guildEnsName",
          "type": "string"
        },
        {
          "internalType": "address",
          "name": "tagsAuthPolicy",
          "type": "address"
        }
      ],
      "name": "updateGuildTagsAuthPolicy",
      "outputs": [],
      "stateMutability": "nonpayable",
      "type": "function"
    },
    {
      "inputs": [
        {
          "internalType": "bytes32",
          "name": "guildEnsNode",
          "type": "bytes32"
        },
        {
          "internalType": "address",
          "name": "tagsAuthPolicy",
          "type": "address"
        }
      ],
      "name": "updateGuildTagsAuthPolicy",
      "outputs": [],
      "stateMutability": "nonpayable",
      "type": "function"
    },
    {
      "inputs": [
        {
          "internalType": "uint256",
          "name": "tokenId",
          "type": "uint256"
        }
      ],
      "name": "uri",
      "outputs": [
        {
          "internalType": "string",
          "name": "",
          "type": "string"
        }
      ],
      "stateMutability": "view",
      "type": "function"
    }
  ],
  "args": [
    "stubMetadataUri",
    "0x00000000000C2E074eC69A0dFb2997BA6C7d2e1e"
  ],
  "numDeployments": 1,
  "solcInputHash": "3a32f099b226e81e32ffbca8f8873f42",
  "bytecode": "0x60a06040523480156200001157600080fd5b50604051620045353803806200453583398101604081905262000034916200009e565b81620000408162000059565b5060016005556001600160a01b031660805250620002e1565b600262000067828262000215565b5050565b634e487b7160e01b600052604160045260246000fd5b80516001600160a01b03811681146200009957600080fd5b919050565b60008060408385031215620000b257600080fd5b82516001600160401b0380821115620000ca57600080fd5b818501915085601f830112620000df57600080fd5b815181811115620000f457620000f46200006b565b604051601f8201601f19908116603f011681019083821181831017156200011f576200011f6200006b565b816040528281526020935088848487010111156200013c57600080fd5b600091505b8282101562000160578482018401518183018501529083019062000141565b60008484830101528096505050506200017b81860162000081565b925050509250929050565b600181811c908216806200019b57607f821691505b602082108103620001bc57634e487b7160e01b600052602260045260246000fd5b50919050565b601f8211156200021057600081815260208120601f850160051c81016020861015620001eb5750805b601f850160051c820191505b818110156200020c57828155600101620001f7565b5050505b505050565b81516001600160401b038111156200023157620002316200006b565b620002498162000242845462000186565b84620001c2565b602080601f831160018114620002815760008415620002685750858301515b600019600386901b1c1916600185901b1785556200020c565b600085815260208120601f198616915b82811015620002b25788860151825594840194600190910190840162000291565b5085821015620002d15787850151600019600388901b60f8161c191681555b5050505050600190811b01905550565b6080516142076200032e6000396000818161051101528181610ec0015281816114590152818161186601528181611a4201528181611b1701528181611e8f01526127e101526142076000f3fe6080604052600436106102845760003560e01c80638308af0311610153578063cf4c5d69116100cb578063defa45af1161007f578063f1cb7e0611610064578063f1cb7e06146107fc578063f242432a1461081c578063fdfb410c1461083c57600080fd5b8063defa45af14610793578063e985e9c5146107b357600080fd5b8063d4fc16d5116100b0578063d4fc16d5146106b9578063d919713f146106d9578063dc9447201461077357600080fd5b8063cf4c5d6914610679578063d4ec5bbc1461069957600080fd5b8063a22cb46511610122578063bb2b1e8211610107578063bb2b1e8214610626578063c31fcace14610646578063c7b7b6601461065957600080fd5b8063a22cb465146105e6578063a484fba61461060657600080fd5b80638308af03146105665780638a86edba146105865780639c9925f5146105a6578063a062d1f7146105c657600080fd5b80634e1273f411610201578063734d3348116101b55780637d73b2311161019a5780637d73b231146104ff5780637e6536121461053357806380ceca5a1461055357600080fd5b8063734d3348146104bf578063784609f8146104df57600080fd5b8063620440e8116101e6578063620440e8146104565780636913ba8914610469578063699f200f1461048957600080fd5b80634e1273f414610409578063516877f61461043657600080fd5b806310c68cd811610258578063348f18f71161023d578063348f18f7146103a95780633b3b57de146103c95780633f774c4d146103e957600080fd5b806310c68cd8146103675780632eb2c2d61461038957600080fd5b8062fdd58e1461028957806301ffc9a7146102bc578063022c977f146102ec5780630e89341c1461033a575b600080fd5b34801561029557600080fd5b506102a96102a4366004613161565b61085c565b6040519081526020015b60405180910390f35b3480156102c857600080fd5b506102dc6102d73660046131a3565b610908565b60405190151581526020016102b3565b3480156102f857600080fd5b506103226103073660046131c0565b6000908152600660205260409020546001600160a01b031690565b6040516001600160a01b0390911681526020016102b3565b34801561034657600080fd5b5061035a6103553660046131c0565b61095b565b6040516102b3919061321f565b34801561037357600080fd5b5061038761038236600461327b565b610a37565b005b34801561039557600080fd5b506103876103a4366004613444565b610a8e565b3480156103b557600080fd5b506103876103c43660046134f2565b610b30565b3480156103d557600080fd5b506103226103e43660046131c0565b610b83565b3480156103f557600080fd5b506103876104043660046134f2565b610bb5565b34801561041557600080fd5b50610429610424366004613549565b610c02565b6040516102b39190613651565b34801561044257600080fd5b50610387610451366004613664565b610d40565b6103876104643660046136fe565b610d99565b34801561047557600080fd5b506103226104843660046137ad565b610df4565b34801561049557600080fd5b506103226104a43660046131c0565b6004602052600090815260409020546001600160a01b031681565b3480156104cb57600080fd5b506103226104da366004613819565b610e69565b3480156104eb57600080fd5b506103876104fa366004613849565b610f54565b34801561050b57600080fd5b506103227f000000000000000000000000000000000000000000000000000000000000000081565b34801561053f57600080fd5b5061038761054e366004613879565b611013565b610387610561366004613900565b611064565b34801561057257600080fd5b50610387610581366004613991565b6110f4565b34801561059257600080fd5b506103876105a13660046134f2565b611141565b3480156105b257600080fd5b506103876105c13660046139dd565b61118a565b3480156105d257600080fd5b506103876105e1366004613a02565b611265565b3480156105f257600080fd5b50610387610601366004613a4e565b6112e9565b34801561061257600080fd5b506103876106213660046137ad565b6112f8565b34801561063257600080fd5b50610322610641366004613879565b611346565b610387610654366004613a7c565b6113a8565b34801561066557600080fd5b50610387610674366004613aeb565b61191d565b34801561068557600080fd5b50610387610694366004613b65565b611a1f565b3480156106a557600080fd5b506103876106b43660046139dd565b611d63565b3480156106c557600080fd5b506103876106d43660046139dd565b611df9565b3480156106e557600080fd5b506107386106f43660046131c0565b6006602052600090815260409020805460018201546002909201546001600160a01b039182169282169181169060ff600160a01b8204811691600160a81b90041685565b604080516001600160a01b0396871681529486166020860152929094169183019190915215156060820152901515608082015260a0016102b3565b34801561077f57600080fd5b5061038761078e366004613bb8565b611ee7565b34801561079f57600080fd5b506103876107ae3660046131c0565b611f50565b3480156107bf57600080fd5b506102dc6107ce366004613c21565b6001600160a01b03918216600090815260016020908152604080832093909416825291909152205460ff1690565b34801561080857600080fd5b5061035a610817366004613819565b61200c565b34801561082857600080fd5b50610387610837366004613c4f565b612055565b34801561084857600080fd5b506103876108573660046139dd565b61206e565b60006001600160a01b0383166108df5760405162461bcd60e51b815260206004820152602a60248201527f455243313135353a2061646472657373207a65726f206973206e6f742061207660448201527f616c6964206f776e65720000000000000000000000000000000000000000000060648201526084015b60405180910390fd5b506000818152602081815260408083206001600160a01b03861684529091529020545b92915050565b60006001600160e01b031982166340b9de5d60e11b148061092d575061092d82612149565b8061093c575061093c82612185565b8061090257506301ffc9a760e01b6001600160e01b0319831614610902565b6001600160801b0319811660008181526003602052604090206001018054606092918291819061098a90613cb8565b159050610a255780805461099d90613cb8565b80601f01602080910402602001604051908101604052809291908181526020018280546109c990613cb8565b8015610a165780601f106109eb57610100808354040283529160200191610a16565b820191906000526020600020905b8154815290600101906020018083116109f957829003601f168201915b50505050509350505050919050565b610a2e85612190565b95945050505050565b6000610a7886868080601f01602080910402602001604051908101604052809392919081815260200183838082843760009201919091525061222492505050565b9050610a8681858585611a1f565b505050505050565b6001600160a01b038516331480610aaa5750610aaa85336107ce565b610b1c5760405162461bcd60e51b815260206004820152602e60248201527f455243313135353a2063616c6c6572206973206e6f7420746f6b656e206f776e60448201527f6572206f7220617070726f76656400000000000000000000000000000000000060648201526084016108d6565b610b298585858585612231565b5050505050565b6000610b7184848080601f01602080910402602001604051908101604052809392919081815260200183838082843760009201919091525061222492505050565b9050610b7d8183611d63565b50505050565b600080610b9183603c61200c565b90508051600003610ba55750600092915050565b610bae816124c7565b9392505050565b6000610bf684848080601f01602080910402602001604051908101604052809392919081815260200183838082843760009201919091525061222492505050565b9050610b7d818361206e565b60608151835114610c7b5760405162461bcd60e51b815260206004820152602960248201527f455243313135353a206163636f756e747320616e6420696473206c656e67746860448201527f206d69736d61746368000000000000000000000000000000000000000000000060648201526084016108d6565b6000835167ffffffffffffffff811115610c9757610c976132f8565b604051908082528060200260200182016040528015610cc0578160200160208202803683370190505b50905060005b8451811015610d3857610d0b858281518110610ce457610ce4613cf2565b6020026020010151858381518110610cfe57610cfe613cf2565b602002602001015161085c565b828281518110610d1d57610d1d613cf2565b6020908102919091010152610d3181613d1e565b9050610cc6565b509392505050565b6000610d8187878080601f01602080910402602001604051908101604052809392919081815260200183838082843760009201919091525061222492505050565b9050610d90818686868661191d565b50505050505050565b6000610dda88888080601f01602080910402602001604051908101604052809392919081815260200183838082843760009201919091525061222492505050565b9050610dea8187878787876113a8565b5050505050505050565b600080610e3686868080601f01602080910402602001604051908101604052809392919081815260200183838082843760009201919091525061222492505050565b905060008484604051610e4a929190613d37565b60405180910390209050610e5e8282610e69565b979650505050505050565b6000808383604051602001610e88929190918252602082015260400190565b60408051808303601f190181529082905280516020909101206302571be360e01b825260048201819052915030906001600160a01b037f000000000000000000000000000000000000000000000000000000000000000016906302571be390602401602060405180830381865afa158015610f07573d6000803e3d6000fd5b505050506040513d601f19601f82011682018060405250810190610f2b9190613d47565b6001600160a01b031614610f43576000915050610902565b610f4c81610b83565b949350505050565b60008281526006602052604090205482906001600160a01b03163314610f8d57604051630e64a9cf60e21b815260040160405180910390fd5b600083815260066020526040908190206002018054841515600160a01b027fffffffffffffffffffffff00ffffffffffffffffffffffffffffffffffffffff9091161790555183907fcddecc2f17a0c961cfad3af69d94ee8d5ece1542dc95fd53f898ab77781272c49061100690851515815260200190565b60405180910390a2505050565b600061105483838080601f01602080910402602001604051908101604052809392919081815260200183838082843760009201919091525061222492505050565b905061105f81611f50565b505050565b60005b85811015610dea576110e28888888481811061108557611085613cf2565b90506020028101906110979190613d64565b8888868181106110a9576110a9613cf2565b90506020020160208101906110be9190613dab565b8787878181106110d0576110d0613cf2565b90506020028101906106549190613d64565b806110ec81613d1e565b915050611067565b600061113584848080601f01602080910402602001604051908101604052809392919081815260200183838082843760009201919091525061222492505050565b9050610b7d8183610f54565b600061118284848080601f01602080910402602001604051908101604052809392919081815260200183838082843760009201919091525061222492505050565b9050610b7d81835b60008281526006602052604090205482906001600160a01b031633146111c357604051630e64a9cf60e21b815260040160405180910390fd5b6111dd6001600160a01b038316635baf15d960e01b6124ef565b6112055760405163592e05dd60e11b81526001600160a01b03831660048201526024016108d6565b60008381526006602090815260409182902060010180546001600160a01b0319166001600160a01b038616908117909155915191825284917fe3e6191059989ec6f70a99fca0dfbb5c0cac787bba9232a0f364180133d3e7159101611006565b60008381526006602052604090205483906001600160a01b0316331461129e57604051630e64a9cf60e21b815260040160405180910390fd5b6112a984848461250b565b837fcb4872a5cd0e451374911e618bccf95b2ee0f2a1d952582d1721aeff3635217d84846040516112db929190613df1565b60405180910390a250505050565b6112f4338383612534565b5050565b600061133985858080601f01602080910402602001604051908101604052809392919081815260200183838082843760009201919091525061222492505050565b9050610b29818484611265565b60008061138884848080601f01602080910402602001604051908101604052809392919081815260200183838082843760009201919091525061222492505050565b6000818152600660205260409020549091506001600160a01b0316610f4c565b6113b0612628565b600085856040516113c2929190613d37565b6040805191829003909120600089815260066020529190912060020154909150600160a01b900460ff1661140957604051634db8e46160e01b815260040160405180910390fd5b604080516020810189905290810182905260009060600160408051808303601f190181529082905280516020909101206302571be360e01b82526004820181905291506000906001600160a01b037f000000000000000000000000000000000000000000000000000000000000000016906302571be390602401602060405180830381865afa1580156114a0573d6000803e3d6000fd5b505050506040513d601f19601f820116820180604052508101906114c49190613d47565b6001600160a01b0316146114eb57604051630344c41960e11b815260040160405180910390fd5b6000888152600660205260409020600201546001600160a01b031680630910b77f8a8a8a338b8b8b6040518863ffffffff1660e01b81526004016115359796959493929190613e05565b602060405180830381865afa158015611552573d6000803e3d6000fd5b505050506040513d601f19601f820116820180604052508101906115769190613e57565b611593576040516302b7adcd60e11b815260040160405180910390fd5b600089815260066020526040812060010154819081906001600160a01b0316635a50dc7e8d8d8d338d8d6040518763ffffffff1660e01b81526004016115de96959493929190613e74565b606060405180830381865afa1580156115fb573d6000803e3d6000fd5b505050506040513d601f19601f8201168201806040525081019061161f9190613ebd565b92509250925081600014611793576001600160a01b0383166116d55781341461165b576040516320c4d7fb60e21b815260040160405180910390fd5b6000816001600160a01b03163460405160006040518083038185875af1925050503d80600081146116a8576040519150601f19603f3d011682016040523d82523d6000602084013e6116ad565b606091505b50509050806116cf576040516320c4d7fb60e21b815260040160405180910390fd5b50611793565b6001600160a01b0383166323b872dd336040516001600160e01b031960e084901b1681526001600160a01b0391821660048201529084166024820152604481018590526064016020604051808303816000875af1925050508015611756575060408051601f3d908101601f1916820190925261175391810190613e57565b60015b611773576040516320c4d7fb60e21b815260040160405180910390fd5b80611791576040516320c4d7fb60e21b815260040160405180910390fd5b505b61179e8c878b612681565b60006001600160a01b0385166329593e5a8e8e8e338f8f8f6040518863ffffffff1660e01b81526004016117d89796959493929190613e05565b6020604051808303816000875af11580156117f7573d6000803e3d6000fd5b505050506040513d601f19601f8201168201806040525081019061181b9190613ef5565b9050801561182d5761182d8d8261277a565b6040516305ef2c7f60e41b8152600481018e90526024810188905230604482018190526064820152600060848201526001600160a01b037f00000000000000000000000000000000000000000000000000000000000000001690635ef2c7f09060a401600060405180830381600087803b1580156118aa57600080fd5b505af11580156118be573d6000803e3d6000fd5b505050506118cc868b612882565b6040516001600160a01b038b16815287908e907fe8a6fa6264fd384a35210116a2a84bba9f414551a0c0a794dacbf8092d8e99b19060200160405180910390a350505050505050610a866001600555565b611925612628565b600085815260066020526040902060028101546001600160a01b03811690600160a81b900460ff161580156119ce5750604051632cad176760e01b81526001600160a01b03821690632cad17679061198b9033908b908b908b908b908b90600401613f0e565b602060405180830381865afa1580156119a8573d6000803e3d6000fd5b505050506040513d601f19601f820116820180604052508101906119cc9190613e57565b155b156119ec5760405163645b259360e11b815260040160405180910390fd5b600086866040516119fe929190613d37565b60405180910390209050611a12888261277a565b505050610b296001600555565b336040516302571be360e01b8152600481018690526001600160a01b03918216917f000000000000000000000000000000000000000000000000000000000000000016906302571be390602401602060405180830381865afa158015611a89573d6000803e3d6000fd5b505050506040513d601f19601f82011682018060405250810190611aad9190613d47565b6001600160a01b031614611ad4576040516326fdee4b60e11b815260040160405180910390fd5b6000848152600660205260409020600101546001600160a01b031615611b0d57604051630ea075bf60e21b815260040160405180910390fd5b6001600160a01b037f00000000000000000000000000000000000000000000000000000000000000001663e985e9c5336040516001600160e01b031960e084901b1681526001600160a01b039091166004820152306024820152604401602060405180830381865afa158015611b87573d6000803e3d6000fd5b505050506040513d601f19601f82011682018060405250810190611bab9190613e57565b611bc857604051636fd1a8ab60e01b815260040160405180910390fd5b611be26001600160a01b038316635baf15d960e01b6124ef565b611c0a5760405163592e05dd60e11b81526001600160a01b03831660048201526024016108d6565b611c246001600160a01b0382166306724f2160e11b6124ef565b611c4c5760405163592e05dd60e11b81526001600160a01b03821660048201526024016108d6565b6040805160a0810182526001600160a01b03808616825284811660208084019182528583168486019081526001606086018181526000608088018181528d82526006909552888120975188549088166001600160a01b0319918216178955955192880180549388169390961692909217909455905160029095018054935192511515600160a81b027fffffffffffffffffffff00ffffffffffffffffffffffffffffffffffffffffff931515600160a01b027fffffffffffffffffffffff0000000000000000000000000000000000000000009095169690951695909517929092171691909117909155905185917f10906fae603eebfac53ddc0f103bee8a044dd7643c425c7a90f921dfa15ef62c91a250505050565b60008281526006602052604090205482906001600160a01b03163314611d9c57604051630e64a9cf60e21b815260040160405180910390fd5b60008381526006602090815260409182902080546001600160a01b0319166001600160a01b038616908117909155915191825284917f44ae681d782ebebc775c8c23cc18621486d68ac94ae4a8271f59892d6c8cec239101611006565b60008281526006602052604090205482906001600160a01b03163314611e3257604051630e64a9cf60e21b815260040160405180910390fd5b611e4c6001600160a01b038316639061b92360e01b6124ef565b611e6957604051638fd96e1f60e01b815260040160405180910390fd5b604051630c4b7b8560e11b8152600481018490526001600160a01b0383811660248301527f00000000000000000000000000000000000000000000000000000000000000001690631896f70a90604401600060405180830381600087803b158015611ed357600080fd5b505af1158015610d90573d6000803e3d6000fd5b60005b83811015610a8657611f3e86868684818110611f0857611f08613cf2565b9050602002810190611f1a9190613d64565b868686818110611f2c57611f2c613cf2565b90506020028101906106749190613d64565b80611f4881613d1e565b915050611eea565b60008181526006602052604090205481906001600160a01b03163314611f8957604051630e64a9cf60e21b815260040160405180910390fd5b60008281526006602052604080822080546001600160a01b03199081168255600182018054909116905560020180547fffffffffffffffffffff0000000000000000000000000000000000000000000016600160a81b1790555183917fa8167a993f10ce22abac512a74e81171d978a9d52acc66d0a46d3ff05f21ca0b91a25050565b606080603c831461201e579050610902565b6000848152600460205260409020546001600160a01b03168061204357509050610902565b610a2e816001600160a01b0316612932565b6040516338730eb560e11b815260040160405180910390fd5b60008281526006602052604090205482906001600160a01b031633146120a757604051630e64a9cf60e21b815260040160405180910390fd5b6120c16001600160a01b0383166306724f2160e11b6124ef565b6120e95760405163592e05dd60e11b81526001600160a01b03831660048201526024016108d6565b60008381526006602090815260409182902060020180546001600160a01b0319166001600160a01b038616908117909155915191825284917f276dcdaae75cd5831871106265565c93b5a5ba18286a11f7f661826476a89e5d9101611006565b60006001600160e01b03198216631d9dabef60e11b148061217a57506001600160e01b031982166378e5bf0360e11b145b806109025750610902825b60006109028261296b565b60606002805461219f90613cb8565b80601f01602080910402602001604051908101604052809291908181526020018280546121cb90613cb8565b80156122185780601f106121ed57610100808354040283529160200191612218565b820191906000526020600020905b8154815290600101906020018083116121fb57829003601f168201915b50505050509050919050565b60006109028260006129ba565b81518351146122a85760405162461bcd60e51b815260206004820152602860248201527f455243313135353a2069647320616e6420616d6f756e7473206c656e6774682060448201527f6d69736d6174636800000000000000000000000000000000000000000000000060648201526084016108d6565b6001600160a01b0384166123245760405162461bcd60e51b815260206004820152602560248201527f455243313135353a207472616e7366657220746f20746865207a65726f20616460448201527f647265737300000000000000000000000000000000000000000000000000000060648201526084016108d6565b3360005b845181101561246157600085828151811061234557612345613cf2565b60200260200101519050600085838151811061236357612363613cf2565b602090810291909101810151600084815280835260408082206001600160a01b038e1683529093529190912054909150818110156124095760405162461bcd60e51b815260206004820152602a60248201527f455243313135353a20696e73756666696369656e742062616c616e636520666f60448201527f72207472616e736665720000000000000000000000000000000000000000000060648201526084016108d6565b6000838152602081815260408083206001600160a01b038e8116855292528083208585039055908b16825281208054849290612446908490613f4a565b925050819055505050508061245a90613d1e565b9050612328565b50846001600160a01b0316866001600160a01b0316826001600160a01b03167f4a39dc06d4c0dbc64b70af90fd698a233a518aa5d07e595d983b8c0526c8f7fb87876040516124b1929190613f5d565b60405180910390a4610a86818787878787612a34565b600081516014146124d757600080fd5b50602001516c01000000000000000000000000900490565b60006124fa83612bd9565b8015610bae5750610bae8383612c0c565b6001600160801b0319831660009081526003602052604090208390600101610b29838583613fc8565b816001600160a01b0316836001600160a01b0316036125bb5760405162461bcd60e51b815260206004820152602960248201527f455243313135353a2073657474696e6720617070726f76616c2073746174757360448201527f20666f722073656c66000000000000000000000000000000000000000000000060648201526084016108d6565b6001600160a01b03838116600081815260016020908152604080832094871680845294825291829020805460ff191686151590811790915591519182527f17307eab39ab6107e8899845ad3d59bd9653f200f220920489ca2b5937696c31910160405180910390a3505050565b60026005540361267a5760405162461bcd60e51b815260206004820152601f60248201527f5265656e7472616e637947756172643a207265656e7472616e742063616c6c0060448201526064016108d6565b6002600555565b6001600160801b0319831660009081526003602052604090205483906fffffffffffffffffffffffffffffffff81106126fc5760405162461bcd60e51b815260206004820152601460248201527f746f6b656e436f756e7465724f766572666c6f7700000000000000000000000060448201526064016108d6565b6001600160801b031982166000908152600360205260409020805460010190556001600160801b0319851660006127338383613f4a565b905060606127448683600184612ca6565b506001600160801b0319909316600090815260036020908152604080832097835260029097019052949094209190915550505050565b60006127868383610e69565b90506001600160a01b0381166127af5760405163645b259360e11b815260040160405180910390fd5b6040516305ef2c7f60e41b815260048101849052602481018390526000604482018190526064820181905260848201527f00000000000000000000000000000000000000000000000000000000000000006001600160a01b031690635ef2c7f09060a401600060405180830381600087803b15801561282d57600080fd5b505af1158015612841573d6000803e3d6000fd5b50505050612850838383612db1565b604051829084907f208d25d051d04de1de9bf0b973d43dcab4e9f7aad493f0768689beace7864e1790600090a3505050565b60008281526004602090815260409182902080546001600160a01b0319166001600160a01b038516908117909155915191825283917f52d7d861f09ab3d26239d492e8968629f95e9e318cf0b73bfddc441522a15fd2910160405180910390a2817f65412581168e88a1e60c6459d7f44ae83ad0832e670826c05a4e2476b57af752603c612918846001600160a01b0316612932565b604051612926929190614088565b60405180910390a25050565b6040805160148082528183019092526060916020820181803683375050506c010000000000000000000000009290920260208301525090565b60006001600160e01b03198216636cdb3d1360e11b148061093c57506001600160e01b031982166303a24d0760e21b148061090257506301ffc9a760e01b6001600160e01b0319831614610902565b6000818351116129cc57506000610902565b60006129d88484612de7565b90506129f8846129e88386613f4a565b6129f3906001613f4a565b6129ba565b612a03858584612e62565b6040805160208101939093528201526060016040516020818303038152906040528051906020012091505092915050565b6001600160a01b0384163b15610a865760405163bc197c8160e01b81526001600160a01b0385169063bc197c8190612a7890899089908890889088906004016140a1565b6020604051808303816000875af1925050508015612ab3575060408051601f3d908101601f19168201909252612ab0918101906140ff565b60015b612b6857612abf61411c565b806308c379a003612af85750612ad3614138565b80612ade5750612afa565b8060405162461bcd60e51b81526004016108d6919061321f565b505b60405162461bcd60e51b815260206004820152603460248201527f455243313135353a207472616e7366657220746f206e6f6e2d4552433131353560448201527f526563656976657220696d706c656d656e74657200000000000000000000000060648201526084016108d6565b6001600160e01b0319811663bc197c8160e01b14610d905760405162461bcd60e51b815260206004820152602860248201527f455243313135353a204552433131353552656365697665722072656a656374656044820152676420746f6b656e7360c01b60648201526084016108d6565b6000612bec826301ffc9a760e01b612c0c565b80156109025750612c05826001600160e01b0319612c0c565b1592915050565b604080516001600160e01b03198316602480830191909152825180830390910181526044909101909152602080820180517bffffffffffffffffffffffffffffffffffffffffffffffffffffffff166301ffc9a760e01b178152825160009392849283928392918391908a617530fa92503d91506000519050828015612c93575060208210155b8015610e5e575015159695505050505050565b6001600160a01b038416612d065760405162461bcd60e51b815260206004820152602160248201527f455243313135353a206d696e7420746f20746865207a65726f206164647265736044820152607360f81b60648201526084016108d6565b336000612d1285612e86565b90506000612d1f85612e86565b90506000868152602081815260408083206001600160a01b038b16845290915281208054879290612d51908490613f4a565b909155505060408051878152602081018790526001600160a01b03808a1692600092918716917fc3d58168c5ae7397731d063d5bbf3d657854427343f4c083240f7aacaa2d0f62910160405180910390a4610d9083600089898989612ed1565b6001600160801b0319831660009081526003602090815260408083208584526002019091529020548390610b2983826001612fcd565b6000805b8351612df78285613f4a565b14158015612e4b575083612e0b8285613f4a565b81518110612e1b57612e1b613cf2565b6020910101517fff0000000000000000000000000000000000000000000000000000000000000016601760f91b14155b15610bae5780612e5a81613d1e565b915050612deb565b8251600090612e718385613f4a565b1115612e7c57600080fd5b5091016020012090565b60408051600180825281830190925260609160009190602080830190803683370190505090508281600081518110612ec057612ec0613cf2565b602090810291909101015292915050565b6001600160a01b0384163b15610a865760405163f23a6e6160e01b81526001600160a01b0385169063f23a6e6190612f1590899089908890889088906004016141c2565b6020604051808303816000875af1925050508015612f50575060408051601f3d908101601f19168201909252612f4d918101906140ff565b60015b612f5c57612abf61411c565b6001600160e01b0319811663f23a6e6160e01b14610d905760405162461bcd60e51b815260206004820152602860248201527f455243313135353a204552433131353552656365697665722072656a656374656044820152676420746f6b656e7360c01b60648201526084016108d6565b6001600160a01b03831661302f5760405162461bcd60e51b815260206004820152602360248201527f455243313135353a206275726e2066726f6d20746865207a65726f206164647260448201526265737360e81b60648201526084016108d6565b33600061303b84612e86565b9050600061304884612e86565b60408051602080820183526000918290528882528181528282206001600160a01b038b16835290522054909150848110156130d15760405162461bcd60e51b8152602060048201526024808201527f455243313135353a206275726e20616d6f756e7420657863656564732062616c604482015263616e636560e01b60648201526084016108d6565b6000868152602081815260408083206001600160a01b038b81168086529184528285208a8703905582518b81529384018a90529092908816917fc3d58168c5ae7397731d063d5bbf3d657854427343f4c083240f7aacaa2d0f62910160405180910390a4604080516020810190915260009052610d90565b6001600160a01b038116811461315e57600080fd5b50565b6000806040838503121561317457600080fd5b823561317f81613149565b946020939093013593505050565b6001600160e01b03198116811461315e57600080fd5b6000602082840312156131b557600080fd5b8135610bae8161318d565b6000602082840312156131d257600080fd5b5035919050565b6000815180845260005b818110156131ff576020818501810151868301820152016131e3565b506000602082860101526020601f19601f83011685010191505092915050565b602081526000610bae60208301846131d9565b60008083601f84011261324457600080fd5b50813567ffffffffffffffff81111561325c57600080fd5b60208301915083602082850101111561327457600080fd5b9250929050565b60008060008060006080868803121561329357600080fd5b853567ffffffffffffffff8111156132aa57600080fd5b6132b688828901613232565b90965094505060208601356132ca81613149565b925060408601356132da81613149565b915060608601356132ea81613149565b809150509295509295909350565b634e487b7160e01b600052604160045260246000fd5b601f8201601f1916810167ffffffffffffffff81118282101715613334576133346132f8565b6040525050565b600067ffffffffffffffff821115613355576133556132f8565b5060051b60200190565b600082601f83011261337057600080fd5b8135602061337d8261333b565b60405161338a828261330e565b83815260059390931b85018201928281019150868411156133aa57600080fd5b8286015b848110156133c557803583529183019183016133ae565b509695505050505050565b600082601f8301126133e157600080fd5b813567ffffffffffffffff8111156133fb576133fb6132f8565b604051613412601f8301601f19166020018261330e565b81815284602083860101111561342757600080fd5b816020850160208301376000918101602001919091529392505050565b600080600080600060a0868803121561345c57600080fd5b853561346781613149565b9450602086013561347781613149565b9350604086013567ffffffffffffffff8082111561349457600080fd5b6134a089838a0161335f565b945060608801359150808211156134b657600080fd5b6134c289838a0161335f565b935060808801359150808211156134d857600080fd5b506134e5888289016133d0565b9150509295509295909350565b60008060006040848603121561350757600080fd5b833567ffffffffffffffff81111561351e57600080fd5b61352a86828701613232565b909450925050602084013561353e81613149565b809150509250925092565b6000806040838503121561355c57600080fd5b823567ffffffffffffffff8082111561357457600080fd5b818501915085601f83011261358857600080fd5b813560206135958261333b565b6040516135a2828261330e565b83815260059390931b85018201928281019150898411156135c257600080fd5b948201945b838610156135e95785356135da81613149565b825294820194908201906135c7565b965050860135925050808211156135ff57600080fd5b5061360c8582860161335f565b9150509250929050565b600081518084526020808501945080840160005b838110156136465781518752958201959082019060010161362a565b509495945050505050565b602081526000610bae6020830184613616565b6000806000806000806060878903121561367d57600080fd5b863567ffffffffffffffff8082111561369557600080fd5b6136a18a838b01613232565b909850965060208901359150808211156136ba57600080fd5b6136c68a838b01613232565b909650945060408901359150808211156136df57600080fd5b506136ec89828a01613232565b979a9699509497509295939492505050565b60008060008060008060006080888a03121561371957600080fd5b873567ffffffffffffffff8082111561373157600080fd5b61373d8b838c01613232565b909950975060208a013591508082111561375657600080fd5b6137628b838c01613232565b909750955060408a0135915061377782613149565b9093506060890135908082111561378d57600080fd5b5061379a8a828b01613232565b989b979a50959850939692959293505050565b600080600080604085870312156137c357600080fd5b843567ffffffffffffffff808211156137db57600080fd5b6137e788838901613232565b9096509450602087013591508082111561380057600080fd5b5061380d87828801613232565b95989497509550505050565b6000806040838503121561382c57600080fd5b50508035926020909101359150565b801515811461315e57600080fd5b6000806040838503121561385c57600080fd5b82359150602083013561386e8161383b565b809150509250929050565b6000806020838503121561388c57600080fd5b823567ffffffffffffffff8111156138a357600080fd5b6138af85828601613232565b90969095509350505050565b60008083601f8401126138cd57600080fd5b50813567ffffffffffffffff8111156138e557600080fd5b6020830191508360208260051b850101111561327457600080fd5b60008060008060008060006080888a03121561391b57600080fd5b87359650602088013567ffffffffffffffff8082111561393a57600080fd5b6139468b838c016138bb565b909850965060408a013591508082111561395f57600080fd5b61396b8b838c016138bb565b909650945060608a013591508082111561398457600080fd5b5061379a8a828b016138bb565b6000806000604084860312156139a657600080fd5b833567ffffffffffffffff8111156139bd57600080fd5b6139c986828701613232565b909450925050602084013561353e8161383b565b600080604083850312156139f057600080fd5b82359150602083013561386e81613149565b600080600060408486031215613a1757600080fd5b83359250602084013567ffffffffffffffff811115613a3557600080fd5b613a4186828701613232565b9497909650939450505050565b60008060408385031215613a6157600080fd5b8235613a6c81613149565b9150602083013561386e8161383b565b60008060008060008060808789031215613a9557600080fd5b86359550602087013567ffffffffffffffff80821115613ab457600080fd5b613ac08a838b01613232565b909750955060408901359150613ad582613149565b909350606088013590808211156136df57600080fd5b600080600080600060608688031215613b0357600080fd5b85359450602086013567ffffffffffffffff80821115613b2257600080fd5b613b2e89838a01613232565b90965094506040880135915080821115613b4757600080fd5b50613b5488828901613232565b969995985093965092949392505050565b60008060008060808587031215613b7b57600080fd5b843593506020850135613b8d81613149565b92506040850135613b9d81613149565b91506060850135613bad81613149565b939692955090935050565b600080600080600060608688031215613bd057600080fd5b85359450602086013567ffffffffffffffff80821115613bef57600080fd5b613bfb89838a016138bb565b90965094506040880135915080821115613c1457600080fd5b50613b54888289016138bb565b60008060408385031215613c3457600080fd5b8235613c3f81613149565b9150602083013561386e81613149565b600080600080600060a08688031215613c6757600080fd5b8535613c7281613149565b94506020860135613c8281613149565b93506040860135925060608601359150608086013567ffffffffffffffff811115613cac57600080fd5b6134e5888289016133d0565b600181811c90821680613ccc57607f821691505b602082108103613cec57634e487b7160e01b600052602260045260246000fd5b50919050565b634e487b7160e01b600052603260045260246000fd5b634e487b7160e01b600052601160045260246000fd5b600060018201613d3057613d30613d08565b5060010190565b8183823760009101908152919050565b600060208284031215613d5957600080fd5b8151610bae81613149565b6000808335601e19843603018112613d7b57600080fd5b83018035915067ffffffffffffffff821115613d9657600080fd5b60200191503681900382131561327457600080fd5b600060208284031215613dbd57600080fd5b8135610bae81613149565b81835281816020850137506000828201602090810191909152601f909101601f19169091010190565b602081526000610f4c602083018486613dc8565b87815260a060208201526000613e1f60a08301888a613dc8565b6001600160a01b038781166040850152861660608401528281036080840152613e49818587613dc8565b9a9950505050505050505050565b600060208284031215613e6957600080fd5b8151610bae8161383b565b868152608060208201526000613e8e608083018789613dc8565b6001600160a01b03861660408401528281036060840152613eb0818587613dc8565b9998505050505050505050565b600080600060608486031215613ed257600080fd5b8351613edd81613149565b60208501516040860151919450925061353e81613149565b600060208284031215613f0757600080fd5b5051919050565b6001600160a01b0387168152856020820152608060408201526000613f37608083018688613dc8565b8281036060840152613eb0818587613dc8565b8082018082111561090257610902613d08565b604081526000613f706040830185613616565b8281036020840152610a2e8185613616565b601f82111561105f57600081815260208120601f850160051c81016020861015613fa95750805b601f850160051c820191505b81811015610a8657828155600101613fb5565b67ffffffffffffffff831115613fe057613fe06132f8565b613ff483613fee8354613cb8565b83613f82565b6000601f84116001811461402857600085156140105750838201355b600019600387901b1c1916600186901b178355610b29565b600083815260209020601f19861690835b828110156140595786850135825560209485019460019092019101614039565b50868210156140765760001960f88860031b161c19848701351681555b505060018560011b0183555050505050565b828152604060208201526000610f4c60408301846131d9565b60006001600160a01b03808816835280871660208401525060a060408301526140cd60a0830186613616565b82810360608401526140df8186613616565b905082810360808401526140f381856131d9565b98975050505050505050565b60006020828403121561411157600080fd5b8151610bae8161318d565b600060033d11156141355760046000803e5060005160e01c5b90565b600060443d10156141465790565b6040516003193d81016004833e81513d67ffffffffffffffff816024840111818411171561417657505050505090565b828501915081518181111561418e5750505050505090565b843d87010160208285010111156141a85750505050505090565b6141b76020828601018761330e565b509095945050505050565b60006001600160a01b03808816835280871660208401525084604083015283606083015260a06080830152610e5e60a08301846131d956fea164736f6c6343000811000a",
  "devdoc": {
    "kind": "dev",
    "methods": {
      "addr(bytes32)": {
        "params": {
          "node": "The ENS node to query."
        },
        "returns": {
          "_0": "The associated address."
        }
      },
      "addr(bytes32,uint256)": {
        "params": {
          "coinType": "The coin type",
          "node": "The ENS node to query."
        },
        "returns": {
          "_0": "The associated address."
        }
      },
      "balanceOf(address,uint256)": {
        "details": "See {IERC1155-balanceOf}. Requirements: - `account` cannot be the zero address."
      },
      "balanceOfBatch(address[],uint256[])": {
        "details": "See {IERC1155-balanceOfBatch}. Requirements: - `accounts` and `ids` must have the same length."
      },
      "claimGuildTag(bytes32,string,address,bytes)": {
        "params": {
          "extraClaimArgs": "[Optional] Any additional arguments necessary for guild-specific logic,  such as authorization",
          "guildEnsNode": "The namehash of the guild for which the tag should be claimed (e.g. namehash('my-guild.eth'))",
          "recipient": "The address that will receive this guild tag (usually same as the caller)",
          "tag": "The tag name to claim (e.g. 'foo' for foo.my-guild.eth). Assumes `tag` is already normalized per            ENS Name Processing rules"
        }
      },
      "claimGuildTag(string,string,address,bytes)": {
        "params": {
          "extraClaimArgs": "[Optional] Any additional arguments necessary for guild-specific logic,  such as authorization",
          "guildEnsName": "The guild's full domain name (e.g. 'my-guild.eth')",
          "recipient": "The address that will receive this guild tag (usually same as the caller)",
          "tag": "The tag to claim (e.g. 'foobar')"
        }
      },
      "claimGuildTagsBatch(bytes32,string[],address[],bytes[])": {
        "params": {
          "extraClaimArgs": "Per-tag extra arguments required for guild-specific logic, such as authorization. Must have same length as array of tagHashes, even if each array element is itself empty bytes",
          "guildEnsNode": "The ENS namehash of the guild's domain",
          "recipients": "Recipients of each tag to be claimed",
          "tags": "Tags to be claimed"
        }
      },
      "deregisterGuild(bytes32)": {
        "params": {
          "guildEnsNode": "The ENS namehash of the guild's domain"
        }
      },
      "deregisterGuild(string)": {
        "params": {
          "guildEnsName": "The guild's full domain name (e.g. 'my-guild.eth')"
        }
      },
      "guildAdmin(bytes32)": {
        "params": {
          "guildEnsNode": "The ENS namehash of the guild's domain"
        }
      },
      "guildAdmin(string)": {
        "params": {
          "guildEnsName": "The guild's full domain name (e.g. 'my-guild.eth')"
        }
      },
      "isApprovedForAll(address,address)": {
        "details": "See {IERC1155-isApprovedForAll}."
      },
      "registerGuild(bytes32,address,address,address)": {
        "params": {
          "feePolicy": "The address of an implementation of FeePolicy to use for minting new tags within this guild",
          "guildAdmin": "The address that will administrate this guild",
          "guildEnsNode": "The ENS namehash of the guild's domain",
          "tagsAuthPolicy": "The address of an implementation of TagsAuthPolicy to use for minting new tags within this guild"
        }
      },
      "registerGuild(string,address,address,address)": {
        "params": {
          "admin": "The address that will administrate this guild",
          "ensName": "The guild's full domain name (e.g. 'my-guild.eth')",
          "feePolicy": "The address of an implementation of FeePolicy to use for minting new tags within this guild",
          "tagsAuthPolicy": "The address of an implementation of TagsAuthPolicy to use for minting new tags within this guild"
        }
      },
      "revokeGuildTag(bytes32,string,bytes)": {
        "params": {
          "extraData": "[Optional] Any additional arguments necessary for assessing whether a tag may be revoked",
          "guildEnsNode": "The ENS namehash of the guild's domain",
          "tag": "The tag to revoke"
        }
      },
      "revokeGuildTag(string,string,bytes)": {
        "params": {
          "extraData": "[Optional] Any additional arguments necessary for assessing whether a tag may be revoked",
          "guildEnsName": "The guild's full domain name (e.g. 'my-guild.eth')",
          "tag": "The tag to revoke (e.g. 'foobar')"
        }
      },
      "revokeGuildTagsBatch(bytes32,string[],bytes[])": {
        "params": {
          "extraData": "Additional arguments necessary for assessing whether a tag may be revoked",
          "guildEnsNode": "The ENS namehash of the guild's domain",
          "tagHashes": "ENS namehashes of all tags to revoke"
        }
      },
      "safeBatchTransferFrom(address,address,uint256[],uint256[],bytes)": {
        "details": "See {IERC1155-safeBatchTransferFrom}."
      },
      "safeTransferFrom(address,address,uint256,uint256,bytes)": {
        "details": "ENSGuilds NFTs are non-transferrable and may only be directly minted and burned with their corresponding guild tags."
      },
      "setApprovalForAll(address,bool)": {
        "details": "See {IERC1155-setApprovalForAll}."
      },
      "setGuildActive(bytes32,bool)": {
        "params": {
          "active": "The new status",
          "guildEnsNode": "The ENS namehash of the guild's domain"
        }
      },
      "setGuildActive(string,bool)": {
        "params": {
          "active": "The new status",
          "guildEnsName": "The guild's full domain name (e.g. 'my-guild.eth')"
        }
      },
      "setGuildTokenUriTemplate(bytes32,string)": {
        "params": {
          "guildEnsNode": "The ENS namehash of the guild's domain",
          "uriTemplate": "The ERC1155 metadata URL template"
        }
      },
      "setGuildTokenUriTemplate(string,string)": {
        "params": {
          "guildEnsName": "The guild's full domain name (e.g. 'my-guild.eth')",
          "uriTemplate": "The ERC1155 metadata URL template"
        }
      },
      "setWildcardResolver(bytes32,address)": {
        "params": {
          "guildEnsNode": "The ENS namehash of the guild's domain"
        }
      },
      "supportsInterface(bytes4)": {
        "details": "See {IERC165-supportsInterface}."
      },
      "tagOwner(bytes32,bytes32)": {
        "params": {
          "guildEnsNode": "The ENS namehash of the guild's domain",
          "tagHash": "The ENS namehash of the tag (e.g. keccak256('foo') for foo.my-guild.eth)"
        }
      },
      "tagOwner(string,string)": {
        "params": {
          "guildEnsName": "The guild's full domain name (e.g. 'my-guild.eth')",
          "tag": "The tag (e.g. 'foobar')"
        }
      },
      "transferGuildAdmin(bytes32,address)": {
        "params": {
          "guildEnsNode": "The ENS namehash of the guild's domain",
          "newAdmin": "The new admin"
        }
      },
      "transferGuildAdmin(string,address)": {
        "params": {
          "guildEnsName": "The guild's full domain name (e.g. 'my-guild.eth')",
          "newAdmin": "The new admin"
        }
      },
      "updateGuildFeePolicy(bytes32,address)": {
        "params": {
          "feePolicy": "The address of an implementation of FeePolicy to use for minting new tags within this guild",
          "guildEnsNode": "The ENS namehash of the guild's domain"
        }
      },
      "updateGuildFeePolicy(string,address)": {
        "params": {
          "feePolicy": "The address of an implementation of FeePolicy to use for minting new tags within this guild",
          "guildEnsName": "The guild's full domain name (e.g. 'my-guild.eth')"
        }
      },
      "updateGuildTagsAuthPolicy(bytes32,address)": {
        "params": {
          "guildEnsNode": "The ENS namehash of the guild's domain",
          "tagsAuthPolicy": "The address of an implementation of TagsAuthPolicy to use for minting new tags within this guild"
        }
      },
      "updateGuildTagsAuthPolicy(string,address)": {
        "params": {
          "guildEnsName": "The guild's full domain name (e.g. 'my-guild.eth')",
          "tagsAuthPolicy": "The address of an implementation of TagsAuthPolicy to use for minting new tags within this guild"
        }
      },
      "uri(uint256)": {
        "details": "See {IERC1155MetadataURI-uri}.",
        "params": {
          "tokenId": "The token whose URI is returned"
        }
      }
    },
    "version": 1
  },
  "userdoc": {
    "errors": {
      "AlreadyRegistered()": [
        {
          "notice": "Errors "
        }
      ]
    },
    "events": {
      "Registered(bytes32)": {
        "notice": "Events "
      }
    },
    "kind": "user",
    "methods": {
      "addr(bytes32)": {
        "notice": "Returns the address associated with an ENS node."
      },
      "addr(bytes32,uint256)": {
        "notice": "Returns the address associated with an ENS node."
      },
      "claimGuildTag(bytes32,string,address,bytes)": {
        "notice": "Claims a guild tag"
      },
      "claimGuildTag(string,string,address,bytes)": {
        "notice": "Claims a guild tag"
      },
      "claimGuildTagsBatch(bytes32,string[],address[],bytes[])": {
        "notice": "Claims multiple tags for a guild at once"
      },
      "deregisterGuild(bytes32)": {
        "notice": "De-registers a registered guild. Designates guild as inactive and marks all tags previously minted for that guild as eligible for revocation."
      },
      "deregisterGuild(string)": {
        "notice": "De-registers a registered guild. Designates guild as inactive and marks all tags previously minted for that guild as eligible for revocation."
      },
      "ensRegistry()": {
        "notice": "State "
      },
      "guildAdmin(bytes32)": {
        "notice": "Returns the current admin registered for the given guild."
      },
      "guildAdmin(string)": {
        "notice": "Returns the current admin registered for the given guild."
      },
      "registerGuild(bytes32,address,address,address)": {
        "notice": "Registers a new guild from an existing ENS domain. Caller must be the ENS node's owner and ENSGuilds must have been designated an \"operator\" for the caller."
      },
      "registerGuild(string,address,address,address)": {
        "notice": "Registers a new guild from an existing ENS domain. Caller must be the ENS node's owner and ENSGuilds must have been designated an \"operator\" for the caller."
      },
      "revokeGuildTag(bytes32,string,bytes)": {
        "notice": "Attempts to revoke an existing guild tag, if authorized by the guild's AuthPolicy. Deregistered guilds will bypass auth checks for revocation of all tags."
      },
      "revokeGuildTag(string,string,bytes)": {
        "notice": "Attempts to revoke an existing guild tag, if authorized by the guild's AuthPolicy. Deregistered guilds will bypass auth checks for revocation of all tags."
      },
      "revokeGuildTagsBatch(bytes32,string[],bytes[])": {
        "notice": "Attempts to revoke multiple guild tags"
      },
      "setGuildActive(bytes32,bool)": {
        "notice": "Sets a guild as active or inactive. May only be called by the guild's registered admin."
      },
      "setGuildActive(string,bool)": {
        "notice": "Sets a guild as active or inactive. May only be called by the guild's registered admin."
      },
      "setGuildTokenUriTemplate(bytes32,string)": {
        "notice": "Sets the metadata URI template string for fetching metadata for a guild's tag NFTs. May only be called by the guild's registered admin."
      },
      "setGuildTokenUriTemplate(string,string)": {
        "notice": "Sets the metadata URI template string for fetching metadata for a guild's tag NFTs. May only be called by the guild's registered admin."
      },
      "setWildcardResolver(bytes32,address)": {
        "notice": "Registers a resolver for the guild's root ENS name that will dynamically resolve the guild's child names"
      },
      "tagOwner(bytes32,bytes32)": {
        "notice": "Returns the current owner of the given guild tag. Returns address(0) if no such guild or tag exists, or if the guild has been deregistered."
      },
      "tagOwner(string,string)": {
        "notice": "Returns the current owner of the given guild tag. Returns address(0) if no such guild or tag exists, or if the guild has been deregistered."
      },
      "transferGuildAdmin(bytes32,address)": {
        "notice": "Transfers the role of guild admin to the given address. May only be called by the guild's registered admin."
      },
      "transferGuildAdmin(string,address)": {
        "notice": "Transfers the role of guild admin to the given address. May only be called by the guild's registered admin."
      },
      "updateGuildFeePolicy(bytes32,address)": {
        "notice": "Updates the FeePolicy for an existing guild. May only be called by the guild's registered admin."
      },
      "updateGuildFeePolicy(string,address)": {
        "notice": "Updates the FeePolicy for an existing guild. May only be called by the guild's registered admin."
      },
      "updateGuildTagsAuthPolicy(bytes32,address)": {
        "notice": "Updates the TagsAuthPolicy for an existing guild. May only be called by the guild's registered admin."
      },
      "updateGuildTagsAuthPolicy(string,address)": {
        "notice": "Updates the TagsAuthPolicy for an existing guild. May only be called by the guild's registered admin."
      }
    },
    "version": 1
  },
  "storageLayout": {
    "storage": [
      {
        "astId": 1636,
        "contract": "contracts/ensGuilds/ENSGuilds.sol:ENSGuilds",
        "label": "_balances",
        "offset": 0,
        "slot": "0",
        "type": "t_mapping(t_uint256,t_mapping(t_address,t_uint256))"
      },
      {
        "astId": 1642,
        "contract": "contracts/ensGuilds/ENSGuilds.sol:ENSGuilds",
        "label": "_operatorApprovals",
        "offset": 0,
        "slot": "1",
        "type": "t_mapping(t_address,t_mapping(t_address,t_bool))"
      },
      {
        "astId": 1644,
        "contract": "contracts/ensGuilds/ENSGuilds.sol:ENSGuilds",
        "label": "_uri",
        "offset": 0,
        "slot": "2",
        "type": "t_string_storage"
      },
      {
        "astId": 8015,
        "contract": "contracts/ensGuilds/ENSGuilds.sol:ENSGuilds",
        "label": "guilds",
        "offset": 0,
        "slot": "3",
        "type": "t_mapping(t_bytes16,t_struct(GuildTokenInfo)8010_storage)"
      },
      {
        "astId": 7844,
        "contract": "contracts/ensGuilds/ENSGuilds.sol:ENSGuilds",
        "label": "addresses",
        "offset": 0,
        "slot": "4",
        "type": "t_mapping(t_bytes32,t_address)"
      },
      {
        "astId": 1556,
        "contract": "contracts/ensGuilds/ENSGuilds.sol:ENSGuilds",
        "label": "_status",
        "offset": 0,
        "slot": "5",
        "type": "t_uint256"
      },
      {
        "astId": 6236,
        "contract": "contracts/ensGuilds/ENSGuilds.sol:ENSGuilds",
        "label": "guilds",
        "offset": 0,
        "slot": "6",
        "type": "t_mapping(t_bytes32,t_struct(GuildInfo)6224_storage)"
      }
    ],
    "types": {
      "t_address": {
        "encoding": "inplace",
        "label": "address",
        "numberOfBytes": "20"
      },
      "t_bool": {
        "encoding": "inplace",
        "label": "bool",
        "numberOfBytes": "1"
      },
      "t_bytes16": {
        "encoding": "inplace",
        "label": "bytes16",
        "numberOfBytes": "16"
      },
      "t_bytes32": {
        "encoding": "inplace",
        "label": "bytes32",
        "numberOfBytes": "32"
      },
      "t_contract(FeePolicy)9631": {
        "encoding": "inplace",
        "label": "contract FeePolicy",
        "numberOfBytes": "20"
      },
      "t_contract(ITagsAuthPolicy)10358": {
        "encoding": "inplace",
        "label": "contract ITagsAuthPolicy",
        "numberOfBytes": "20"
      },
      "t_mapping(t_address,t_bool)": {
        "encoding": "mapping",
        "key": "t_address",
        "label": "mapping(address => bool)",
        "numberOfBytes": "32",
        "value": "t_bool"
      },
      "t_mapping(t_address,t_mapping(t_address,t_bool))": {
        "encoding": "mapping",
        "key": "t_address",
        "label": "mapping(address => mapping(address => bool))",
        "numberOfBytes": "32",
        "value": "t_mapping(t_address,t_bool)"
      },
      "t_mapping(t_address,t_uint256)": {
        "encoding": "mapping",
        "key": "t_address",
        "label": "mapping(address => uint256)",
        "numberOfBytes": "32",
        "value": "t_uint256"
      },
      "t_mapping(t_bytes16,t_struct(GuildTokenInfo)8010_storage)": {
        "encoding": "mapping",
        "key": "t_bytes16",
        "label": "mapping(bytes16 => struct GuildTagTokens.GuildTokenInfo)",
        "numberOfBytes": "32",
        "value": "t_struct(GuildTokenInfo)8010_storage"
      },
      "t_mapping(t_bytes32,t_address)": {
        "encoding": "mapping",
        "key": "t_bytes32",
        "label": "mapping(bytes32 => address)",
        "numberOfBytes": "32",
        "value": "t_address"
      },
      "t_mapping(t_bytes32,t_struct(GuildInfo)6224_storage)": {
        "encoding": "mapping",
        "key": "t_bytes32",
        "label": "mapping(bytes32 => struct ENSGuilds.GuildInfo)",
        "numberOfBytes": "32",
        "value": "t_struct(GuildInfo)6224_storage"
      },
      "t_mapping(t_bytes32,t_uint256)": {
        "encoding": "mapping",
        "key": "t_bytes32",
        "label": "mapping(bytes32 => uint256)",
        "numberOfBytes": "32",
        "value": "t_uint256"
      },
      "t_mapping(t_uint256,t_mapping(t_address,t_uint256))": {
        "encoding": "mapping",
        "key": "t_uint256",
        "label": "mapping(uint256 => mapping(address => uint256))",
        "numberOfBytes": "32",
        "value": "t_mapping(t_address,t_uint256)"
      },
      "t_string_storage": {
        "encoding": "bytes",
        "label": "string",
        "numberOfBytes": "32"
      },
      "t_struct(Counter)4691_storage": {
        "encoding": "inplace",
        "label": "struct Counters.Counter",
        "members": [
          {
            "astId": 4690,
            "contract": "contracts/ensGuilds/ENSGuilds.sol:ENSGuilds",
            "label": "_value",
            "offset": 0,
            "slot": "0",
            "type": "t_uint256"
          }
        ],
        "numberOfBytes": "32"
      },
      "t_struct(GuildInfo)6224_storage": {
        "encoding": "inplace",
        "label": "struct ENSGuilds.GuildInfo",
        "members": [
          {
            "astId": 6213,
            "contract": "contracts/ensGuilds/ENSGuilds.sol:ENSGuilds",
            "label": "admin",
            "offset": 0,
            "slot": "0",
            "type": "t_address"
          },
          {
            "astId": 6216,
            "contract": "contracts/ensGuilds/ENSGuilds.sol:ENSGuilds",
            "label": "feePolicy",
            "offset": 0,
            "slot": "1",
            "type": "t_contract(FeePolicy)9631"
          },
          {
            "astId": 6219,
            "contract": "contracts/ensGuilds/ENSGuilds.sol:ENSGuilds",
            "label": "tagsAuthPolicy",
            "offset": 0,
            "slot": "2",
            "type": "t_contract(ITagsAuthPolicy)10358"
          },
          {
            "astId": 6221,
            "contract": "contracts/ensGuilds/ENSGuilds.sol:ENSGuilds",
            "label": "active",
            "offset": 20,
            "slot": "2",
            "type": "t_bool"
          },
          {
            "astId": 6223,
            "contract": "contracts/ensGuilds/ENSGuilds.sol:ENSGuilds",
            "label": "deregistered",
            "offset": 21,
            "slot": "2",
            "type": "t_bool"
          }
        ],
        "numberOfBytes": "96"
      },
      "t_struct(GuildTokenInfo)8010_storage": {
        "encoding": "inplace",
        "label": "struct GuildTagTokens.GuildTokenInfo",
        "members": [
          {
            "astId": 8003,
            "contract": "contracts/ensGuilds/ENSGuilds.sol:ENSGuilds",
            "label": "tokenIdTracker",
            "offset": 0,
            "slot": "0",
            "type": "t_struct(Counter)4691_storage"
          },
          {
            "astId": 8005,
            "contract": "contracts/ensGuilds/ENSGuilds.sol:ENSGuilds",
            "label": "templateURI",
            "offset": 0,
            "slot": "1",
            "type": "t_string_storage"
          },
          {
            "astId": 8009,
            "contract": "contracts/ensGuilds/ENSGuilds.sol:ENSGuilds",
            "label": "guildTagsToTokenIds",
            "offset": 0,
            "slot": "2",
            "type": "t_mapping(t_bytes32,t_uint256)"
          }
        ],
        "numberOfBytes": "96"
      },
      "t_uint256": {
        "encoding": "inplace",
        "label": "uint256",
        "numberOfBytes": "32"
      }
    }
  }
}