{
  "address": "0x2518c0DbADB4915BcB4Da639d6A2b0701ca56F4C",
  "abi": [
    {
      "inputs": [
        {
          "internalType": "string",
          "name": "defaultTokenMetadataUri",
          "type": "string"
        },
        {
          "internalType": "contract ENS",
          "name": "_ensRegistry",
          "type": "address"
        }
      ],
      "stateMutability": "nonpayable",
      "type": "constructor"
    },
    {
      "inputs": [],
      "name": "AlreadyRegistered",
      "type": "error"
    },
    {
      "inputs": [],
      "name": "ClaimUnauthorized",
      "type": "error"
    },
    {
      "inputs": [],
      "name": "ENSGuildsIsNotRegisteredOperator",
      "type": "error"
    },
    {
      "inputs": [],
      "name": "FeeError",
      "type": "error"
    },
    {
      "inputs": [],
      "name": "GuildAdminOnly",
      "type": "error"
    },
    {
      "inputs": [],
      "name": "GuildNotActive",
      "type": "error"
    },
    {
      "inputs": [],
      "name": "GuildsTokenTransferNotAllowed",
      "type": "error"
    },
    {
      "inputs": [
        {
          "internalType": "address",
          "name": "",
          "type": "address"
        }
      ],
      "name": "InvalidPolicy",
      "type": "error"
    },
    {
      "inputs": [],
      "name": "NotDomainOwner",
      "type": "error"
    },
    {
      "inputs": [],
      "name": "RevokeUnauthorized",
      "type": "error"
    },
    {
      "inputs": [],
      "name": "TagAlreadyClaimed",
      "type": "error"
    },
    {
      "anonymous": false,
      "inputs": [
        {
          "indexed": true,
          "internalType": "bytes32",
          "name": "node",
          "type": "bytes32"
        },
        {
          "indexed": false,
          "internalType": "address",
          "name": "a",
          "type": "address"
        }
      ],
      "name": "AddrChanged",
      "type": "event"
    },
    {
      "anonymous": false,
      "inputs": [
        {
          "indexed": true,
          "internalType": "bytes32",
          "name": "node",
          "type": "bytes32"
        },
        {
          "indexed": false,
          "internalType": "uint256",
          "name": "coinType",
          "type": "uint256"
        },
        {
          "indexed": false,
          "internalType": "bytes",
          "name": "newAddress",
          "type": "bytes"
        }
      ],
      "name": "AddressChanged",
      "type": "event"
    },
    {
      "anonymous": false,
      "inputs": [
        {
          "indexed": true,
          "internalType": "bytes32",
          "name": "guildId",
          "type": "bytes32"
        },
        {
          "indexed": false,
          "internalType": "address",
          "name": "newAdmin",
          "type": "address"
        }
      ],
      "name": "AdminTransferred",
      "type": "event"
    },
    {
      "anonymous": false,
      "inputs": [
        {
          "indexed": true,
          "internalType": "address",
          "name": "account",
          "type": "address"
        },
        {
          "indexed": true,
          "internalType": "address",
          "name": "operator",
          "type": "address"
        },
        {
          "indexed": false,
          "internalType": "bool",
          "name": "approved",
          "type": "bool"
        }
      ],
      "name": "ApprovalForAll",
      "type": "event"
    },
    {
      "anonymous": false,
      "inputs": [
        {
          "indexed": true,
          "internalType": "bytes32",
          "name": "guildHash",
          "type": "bytes32"
        }
      ],
      "name": "Deregistered",
      "type": "event"
    },
    {
      "anonymous": false,
      "inputs": [
        {
          "indexed": true,
          "internalType": "bytes32",
          "name": "guildId",
          "type": "bytes32"
        },
        {
          "indexed": false,
          "internalType": "address",
          "name": "feePolicy",
          "type": "address"
        }
      ],
      "name": "FeePolicyUpdated",
      "type": "event"
    },
    {
      "anonymous": false,
      "inputs": [
        {
          "indexed": true,
          "internalType": "bytes32",
          "name": "guildHash",
          "type": "bytes32"
        }
      ],
      "name": "Registered",
      "type": "event"
    },
    {
      "anonymous": false,
      "inputs": [
        {
          "indexed": true,
          "internalType": "bytes32",
          "name": "guildId",
          "type": "bytes32"
        },
        {
          "indexed": false,
          "internalType": "bool",
          "name": "active",
          "type": "bool"
        }
      ],
      "name": "SetActive",
      "type": "event"
    },
    {
      "anonymous": false,
      "inputs": [
        {
          "indexed": true,
          "internalType": "bytes32",
          "name": "guildId",
          "type": "bytes32"
        },
        {
          "indexed": true,
          "internalType": "bytes32",
          "name": "tagHash",
          "type": "bytes32"
        },
        {
          "indexed": false,
          "internalType": "address",
          "name": "recipient",
          "type": "address"
        }
      ],
      "name": "TagClaimed",
      "type": "event"
    },
    {
      "anonymous": false,
      "inputs": [
        {
          "indexed": true,
          "internalType": "bytes32",
          "name": "guildId",
          "type": "bytes32"
        },
        {
          "indexed": true,
          "internalType": "bytes32",
          "name": "tagHash",
          "type": "bytes32"
        }
      ],
      "name": "TagRevoked",
      "type": "event"
    },
    {
      "anonymous": false,
      "inputs": [
        {
          "indexed": true,
          "internalType": "bytes32",
          "name": "guildId",
          "type": "bytes32"
        },
        {
          "indexed": false,
          "internalType": "address",
          "name": "tagsAuthPolicy",
          "type": "address"
        }
      ],
      "name": "TagsAuthPolicyUpdated",
      "type": "event"
    },
    {
      "anonymous": false,
      "inputs": [
        {
          "indexed": true,
          "internalType": "bytes32",
          "name": "guildId",
          "type": "bytes32"
        },
        {
          "indexed": false,
          "internalType": "string",
          "name": "uriTemplate",
          "type": "string"
        }
      ],
      "name": "TokenUriTemplateSet",
      "type": "event"
    },
    {
      "anonymous": false,
      "inputs": [
        {
          "indexed": true,
          "internalType": "address",
          "name": "operator",
          "type": "address"
        },
        {
          "indexed": true,
          "internalType": "address",
          "name": "from",
          "type": "address"
        },
        {
          "indexed": true,
          "internalType": "address",
          "name": "to",
          "type": "address"
        },
        {
          "indexed": false,
          "internalType": "uint256[]",
          "name": "ids",
          "type": "uint256[]"
        },
        {
          "indexed": false,
          "internalType": "uint256[]",
          "name": "values",
          "type": "uint256[]"
        }
      ],
      "name": "TransferBatch",
      "type": "event"
    },
    {
      "anonymous": false,
      "inputs": [
        {
          "indexed": true,
          "internalType": "address",
          "name": "operator",
          "type": "address"
        },
        {
          "indexed": true,
          "internalType": "address",
          "name": "from",
          "type": "address"
        },
        {
          "indexed": true,
          "internalType": "address",
          "name": "to",
          "type": "address"
        },
        {
          "indexed": false,
          "internalType": "uint256",
          "name": "id",
          "type": "uint256"
        },
        {
          "indexed": false,
          "internalType": "uint256",
          "name": "value",
          "type": "uint256"
        }
      ],
      "name": "TransferSingle",
      "type": "event"
    },
    {
      "anonymous": false,
      "inputs": [
        {
          "indexed": false,
          "internalType": "string",
          "name": "value",
          "type": "string"
        },
        {
          "indexed": true,
          "internalType": "uint256",
          "name": "id",
          "type": "uint256"
        }
      ],
      "name": "URI",
      "type": "event"
    },
    {
      "inputs": [
        {
          "internalType": "bytes32",
          "name": "node",
          "type": "bytes32"
        }
      ],
      "name": "addr",
      "outputs": [
        {
          "internalType": "address payable",
          "name": "",
          "type": "address"
        }
      ],
      "stateMutability": "view",
      "type": "function"
    },
    {
      "inputs": [
        {
          "internalType": "bytes32",
          "name": "node",
          "type": "bytes32"
        },
        {
          "internalType": "uint256",
          "name": "coinType",
          "type": "uint256"
        }
      ],
      "name": "addr",
      "outputs": [
        {
          "internalType": "bytes",
          "name": "",
          "type": "bytes"
        }
      ],
      "stateMutability": "view",
      "type": "function"
    },
    {
      "inputs": [
        {
          "internalType": "bytes32",
          "name": "",
          "type": "bytes32"
        }
      ],
      "name": "addresses",
      "outputs": [
        {
          "internalType": "address",
          "name": "",
          "type": "address"
        }
      ],
      "stateMutability": "view",
      "type": "function"
    },
    {
      "inputs": [
        {
          "internalType": "address",
          "name": "account",
          "type": "address"
        },
        {
          "internalType": "uint256",
          "name": "id",
          "type": "uint256"
        }
      ],
      "name": "balanceOf",
      "outputs": [
        {
          "internalType": "uint256",
          "name": "",
          "type": "uint256"
        }
      ],
      "stateMutability": "view",
      "type": "function"
    },
    {
      "inputs": [
        {
          "internalType": "address[]",
          "name": "accounts",
          "type": "address[]"
        },
        {
          "internalType": "uint256[]",
          "name": "ids",
          "type": "uint256[]"
        }
      ],
      "name": "balanceOfBatch",
      "outputs": [
        {
          "internalType": "uint256[]",
          "name": "",
          "type": "uint256[]"
        }
      ],
      "stateMutability": "view",
      "type": "function"
    },
    {
      "inputs": [
        {
          "internalType": "string",
          "name": "guildEnsName",
          "type": "string"
        },
        {
          "internalType": "string",
          "name": "tag",
          "type": "string"
        },
        {
          "internalType": "address",
          "name": "recipient",
          "type": "address"
        },
        {
          "internalType": "bytes",
          "name": "extraClaimArgs",
          "type": "bytes"
        }
      ],
      "name": "claimGuildTag",
      "outputs": [],
      "stateMutability": "payable",
      "type": "function"
    },
    {
      "inputs": [
        {
          "internalType": "bytes32",
          "name": "guildEnsNode",
          "type": "bytes32"
        },
        {
          "internalType": "bytes32",
          "name": "tagHash",
          "type": "bytes32"
        },
        {
          "internalType": "address",
          "name": "recipient",
          "type": "address"
        },
        {
          "internalType": "bytes",
          "name": "extraClaimArgs",
          "type": "bytes"
        }
      ],
      "name": "claimGuildTag",
      "outputs": [],
      "stateMutability": "payable",
      "type": "function"
    },
    {
      "inputs": [
        {
          "internalType": "bytes32",
          "name": "guildEnsNode",
          "type": "bytes32"
        },
        {
          "internalType": "bytes32[]",
          "name": "tagHashes",
          "type": "bytes32[]"
        },
        {
          "internalType": "address[]",
          "name": "recipients",
          "type": "address[]"
        },
        {
          "internalType": "bytes[]",
          "name": "extraClaimArgs",
          "type": "bytes[]"
        }
      ],
      "name": "claimGuildTagsBatch",
      "outputs": [],
      "stateMutability": "payable",
      "type": "function"
    },
    {
      "inputs": [
        {
          "internalType": "string",
          "name": "guildEnsName",
          "type": "string"
        }
      ],
      "name": "deregisterGuild",
      "outputs": [],
      "stateMutability": "nonpayable",
      "type": "function"
    },
    {
      "inputs": [
        {
          "internalType": "bytes32",
          "name": "ensNode",
          "type": "bytes32"
        }
      ],
      "name": "deregisterGuild",
      "outputs": [],
      "stateMutability": "nonpayable",
      "type": "function"
    },
    {
      "inputs": [],
      "name": "ensRegistry",
      "outputs": [
        {
          "internalType": "contract ENS",
          "name": "",
          "type": "address"
        }
      ],
      "stateMutability": "view",
      "type": "function"
    },
    {
      "inputs": [
        {
          "internalType": "bytes32",
          "name": "guildHash",
          "type": "bytes32"
        }
      ],
      "name": "guildAdmin",
      "outputs": [
        {
          "internalType": "address",
          "name": "",
          "type": "address"
        }
      ],
      "stateMutability": "view",
      "type": "function"
    },
    {
      "inputs": [
        {
          "internalType": "string",
          "name": "guildEnsName",
          "type": "string"
        }
      ],
      "name": "guildAdmin",
      "outputs": [
        {
          "internalType": "address",
          "name": "",
          "type": "address"
        }
      ],
      "stateMutability": "view",
      "type": "function"
    },
    {
      "inputs": [
        {
          "internalType": "bytes32",
          "name": "",
          "type": "bytes32"
        }
      ],
      "name": "guilds",
      "outputs": [
        {
          "internalType": "address",
          "name": "admin",
          "type": "address"
        },
        {
          "internalType": "contract FeePolicy",
          "name": "feePolicy",
          "type": "address"
        },
        {
          "internalType": "contract ITagsAuthPolicy",
          "name": "tagsAuthPolicy",
          "type": "address"
        },
        {
          "internalType": "bool",
          "name": "active",
          "type": "bool"
        },
        {
          "internalType": "bool",
          "name": "deregistered",
          "type": "bool"
        }
      ],
      "stateMutability": "view",
      "type": "function"
    },
    {
      "inputs": [
        {
          "internalType": "address",
          "name": "account",
          "type": "address"
        },
        {
          "internalType": "address",
          "name": "operator",
          "type": "address"
        }
      ],
      "name": "isApprovedForAll",
      "outputs": [
        {
          "internalType": "bool",
          "name": "",
          "type": "bool"
        }
      ],
      "stateMutability": "view",
      "type": "function"
    },
    {
      "inputs": [
        {
          "internalType": "string",
          "name": "ensName",
          "type": "string"
        },
        {
          "internalType": "address",
          "name": "admin",
          "type": "address"
        },
        {
          "internalType": "address",
          "name": "feePolicy",
          "type": "address"
        },
        {
          "internalType": "address",
          "name": "tagsAuthPolicy",
          "type": "address"
        }
      ],
      "name": "registerGuild",
      "outputs": [],
      "stateMutability": "nonpayable",
      "type": "function"
    },
    {
      "inputs": [
        {
          "internalType": "bytes32",
          "name": "ensNode",
          "type": "bytes32"
        },
        {
          "internalType": "address",
          "name": "admin",
          "type": "address"
        },
        {
          "internalType": "address",
          "name": "feePolicy",
          "type": "address"
        },
        {
          "internalType": "address",
          "name": "tagsAuthPolicy",
          "type": "address"
        }
      ],
      "name": "registerGuild",
      "outputs": [],
      "stateMutability": "nonpayable",
      "type": "function"
    },
    {
      "inputs": [
        {
          "internalType": "string",
          "name": "guildEnsName",
          "type": "string"
        },
        {
          "internalType": "string",
          "name": "tag",
          "type": "string"
        },
        {
          "internalType": "bytes",
          "name": "extraData",
          "type": "bytes"
        }
      ],
      "name": "revokeGuildTag",
      "outputs": [],
      "stateMutability": "nonpayable",
      "type": "function"
    },
    {
      "inputs": [
        {
          "internalType": "bytes32",
          "name": "guildEnsNode",
          "type": "bytes32"
        },
        {
          "internalType": "bytes32",
          "name": "tagHash",
          "type": "bytes32"
        },
        {
          "internalType": "bytes",
          "name": "extraData",
          "type": "bytes"
        }
      ],
      "name": "revokeGuildTag",
      "outputs": [],
      "stateMutability": "nonpayable",
      "type": "function"
    },
    {
      "inputs": [
        {
          "internalType": "bytes32",
          "name": "guildHash",
          "type": "bytes32"
        },
        {
          "internalType": "bytes32[]",
          "name": "tagHashes",
          "type": "bytes32[]"
        },
        {
          "internalType": "bytes[]",
          "name": "extraData",
          "type": "bytes[]"
        }
      ],
      "name": "revokeGuildTagsBatch",
      "outputs": [],
      "stateMutability": "nonpayable",
      "type": "function"
    },
    {
      "inputs": [
        {
          "internalType": "address",
          "name": "from",
          "type": "address"
        },
        {
          "internalType": "address",
          "name": "to",
          "type": "address"
        },
        {
          "internalType": "uint256[]",
          "name": "ids",
          "type": "uint256[]"
        },
        {
          "internalType": "uint256[]",
          "name": "amounts",
          "type": "uint256[]"
        },
        {
          "internalType": "bytes",
          "name": "data",
          "type": "bytes"
        }
      ],
      "name": "safeBatchTransferFrom",
      "outputs": [],
      "stateMutability": "nonpayable",
      "type": "function"
    },
    {
      "inputs": [
        {
          "internalType": "address",
          "name": "",
          "type": "address"
        },
        {
          "internalType": "address",
          "name": "",
          "type": "address"
        },
        {
          "internalType": "uint256",
          "name": "",
          "type": "uint256"
        },
        {
          "internalType": "uint256",
          "name": "",
          "type": "uint256"
        },
        {
          "internalType": "bytes",
          "name": "",
          "type": "bytes"
        }
      ],
      "name": "safeTransferFrom",
      "outputs": [],
      "stateMutability": "nonpayable",
      "type": "function"
    },
    {
      "inputs": [
        {
          "internalType": "address",
          "name": "operator",
          "type": "address"
        },
        {
          "internalType": "bool",
          "name": "approved",
          "type": "bool"
        }
      ],
      "name": "setApprovalForAll",
      "outputs": [],
      "stateMutability": "nonpayable",
      "type": "function"
    },
    {
      "inputs": [
        {
          "internalType": "bytes32",
          "name": "guildEnsNode",
          "type": "bytes32"
        },
        {
          "internalType": "bool",
          "name": "active",
          "type": "bool"
        }
      ],
      "name": "setGuildActive",
      "outputs": [],
      "stateMutability": "nonpayable",
      "type": "function"
    },
    {
      "inputs": [
        {
          "internalType": "string",
          "name": "guildEnsName",
          "type": "string"
        },
        {
          "internalType": "bool",
          "name": "active",
          "type": "bool"
        }
      ],
      "name": "setGuildActive",
      "outputs": [],
      "stateMutability": "nonpayable",
      "type": "function"
    },
    {
      "inputs": [
        {
          "internalType": "bytes32",
          "name": "guildEnsNode",
          "type": "bytes32"
        },
        {
          "internalType": "string",
          "name": "uriTemplate",
          "type": "string"
        }
      ],
      "name": "setGuildTokenUriTemplate",
      "outputs": [],
      "stateMutability": "nonpayable",
      "type": "function"
    },
    {
      "inputs": [
        {
          "internalType": "string",
          "name": "guildEnsName",
          "type": "string"
        },
        {
          "internalType": "string",
          "name": "uriTemplate",
          "type": "string"
        }
      ],
      "name": "setGuildTokenUriTemplate",
      "outputs": [],
      "stateMutability": "nonpayable",
      "type": "function"
    },
    {
      "inputs": [
        {
          "internalType": "bytes4",
          "name": "interfaceId",
          "type": "bytes4"
        }
      ],
      "name": "supportsInterface",
      "outputs": [
        {
          "internalType": "bool",
          "name": "",
          "type": "bool"
        }
      ],
      "stateMutability": "view",
      "type": "function"
    },
    {
      "inputs": [
        {
          "internalType": "string",
          "name": "guildEnsName",
          "type": "string"
        },
        {
          "internalType": "string",
          "name": "tag",
          "type": "string"
        }
      ],
      "name": "tagOwner",
      "outputs": [
        {
          "internalType": "address",
          "name": "",
          "type": "address"
        }
      ],
      "stateMutability": "view",
      "type": "function"
    },
    {
      "inputs": [
        {
          "internalType": "bytes32",
          "name": "guildEnsNode",
          "type": "bytes32"
        },
        {
          "internalType": "bytes32",
          "name": "tagHash",
          "type": "bytes32"
        }
      ],
      "name": "tagOwner",
      "outputs": [
        {
          "internalType": "address",
          "name": "",
          "type": "address"
        }
      ],
      "stateMutability": "view",
      "type": "function"
    },
    {
      "inputs": [
        {
          "internalType": "string",
          "name": "guildEnsName",
          "type": "string"
        },
        {
          "internalType": "address",
          "name": "newAdmin",
          "type": "address"
        }
      ],
      "name": "transferGuildAdmin",
      "outputs": [],
      "stateMutability": "nonpayable",
      "type": "function"
    },
    {
      "inputs": [
        {
          "internalType": "bytes32",
          "name": "guildEnsNode",
          "type": "bytes32"
        },
        {
          "internalType": "address",
          "name": "newAdmin",
          "type": "address"
        }
      ],
      "name": "transferGuildAdmin",
      "outputs": [],
      "stateMutability": "nonpayable",
      "type": "function"
    },
    {
      "inputs": [
        {
          "internalType": "string",
          "name": "guildEnsName",
          "type": "string"
        },
        {
          "internalType": "address",
          "name": "feePolicy",
          "type": "address"
        }
      ],
      "name": "updateGuildFeePolicy",
      "outputs": [],
      "stateMutability": "nonpayable",
      "type": "function"
    },
    {
      "inputs": [
        {
          "internalType": "bytes32",
          "name": "guildEnsNode",
          "type": "bytes32"
        },
        {
          "internalType": "address",
          "name": "feePolicy",
          "type": "address"
        }
      ],
      "name": "updateGuildFeePolicy",
      "outputs": [],
      "stateMutability": "nonpayable",
      "type": "function"
    },
    {
      "inputs": [
        {
          "internalType": "string",
          "name": "guildEnsName",
          "type": "string"
        },
        {
          "internalType": "address",
          "name": "tagsAuthPolicy",
          "type": "address"
        }
      ],
      "name": "updateGuildTagsAuthPolicy",
      "outputs": [],
      "stateMutability": "nonpayable",
      "type": "function"
    },
    {
      "inputs": [
        {
          "internalType": "bytes32",
          "name": "guildEnsNode",
          "type": "bytes32"
        },
        {
          "internalType": "address",
          "name": "tagsAuthPolicy",
          "type": "address"
        }
      ],
      "name": "updateGuildTagsAuthPolicy",
      "outputs": [],
      "stateMutability": "nonpayable",
      "type": "function"
    },
    {
      "inputs": [
        {
          "internalType": "uint256",
          "name": "tokenId",
          "type": "uint256"
        }
      ],
      "name": "uri",
      "outputs": [
        {
          "internalType": "string",
          "name": "",
          "type": "string"
        }
      ],
      "stateMutability": "view",
      "type": "function"
    }
  ],
  "transactionHash": "0xd0ba673aad0ede9734e09968c4e3026ac061c951296d7c94670586d680904a9a",
  "args": [
    "stubMetadataUri",
    "0x00000000000C2E074eC69A0dFb2997BA6C7d2e1e"
  ],
  "numDeployments": 1,
  "solcInputHash": "3cd3409becb6f2f8c62daba91550c490",
  "bytecode": "0x60806040523480156200001157600080fd5b5060405162003fbb38038062003fbb8339810160408190526200003491620000b2565b8162000040816200006d565b506001600555600680546001600160a01b0319166001600160a01b039290921691909117905550620002f5565b60026200007b828262000229565b5050565b634e487b7160e01b600052604160045260246000fd5b80516001600160a01b0381168114620000ad57600080fd5b919050565b60008060408385031215620000c657600080fd5b82516001600160401b0380821115620000de57600080fd5b818501915085601f830112620000f357600080fd5b8151818111156200010857620001086200007f565b604051601f8201601f19908116603f011681019083821181831017156200013357620001336200007f565b816040528281526020935088848487010111156200015057600080fd5b600091505b8282101562000174578482018401518183018501529083019062000155565b60008484830101528096505050506200018f81860162000095565b925050509250929050565b600181811c90821680620001af57607f821691505b602082108103620001d057634e487b7160e01b600052602260045260246000fd5b50919050565b601f8211156200022457600081815260208120601f850160051c81016020861015620001ff5750805b601f850160051c820191505b8181101562000220578281556001016200020b565b5050505b505050565b81516001600160401b038111156200024557620002456200007f565b6200025d816200025684546200019a565b84620001d6565b602080601f8311600181146200029557600084156200027c5750858301515b600019600386901b1c1916600185901b17855562000220565b600085815260208120601f198616915b82811015620002c657888601518255948401946001909101908401620002a5565b5085821015620002e55787850151600019600388901b60f8161c191681555b5050505050600190811b01905550565b613cb680620003056000396000f3fe6080604052600436106102695760003560e01c80637d73b23111610153578063bb2b1e82116100cb578063e985e9c51161007f578063f1cb7e0611610064578063f1cb7e06146107ad578063f242432a146107cd578063fdfb410c146107ed57600080fd5b8063e985e9c514610751578063edc147a41461079a57600080fd5b8063d4ec5bbc116100b0578063d4ec5bbc14610677578063d919713f14610697578063defa45af1461073157600080fd5b8063bb2b1e8214610637578063cf4c5d691461065757600080fd5b80639c9925f511610122578063a062d1f711610107578063a062d1f7146105d7578063a22cb465146105f7578063a484fba61461061757600080fd5b80639c9925f5146105a45780639e5388ba146105c457600080fd5b80637d73b231146105245780637e653612146105445780638308af03146105645780638a86edba1461058457600080fd5b80633f774c4d116101e65780636913ba89116101b5578063734d33481161019a578063734d3348146104c4578063784609f8146104e4578063784beff21461050457600080fd5b80636913ba891461046e578063699f200f1461048e57600080fd5b80633f774c4d146103ee5780634e1273f41461040e578063516877f61461043b578063620440e81461045b57600080fd5b80630e89341c1161023d5780632eb2c2d6116102225780632eb2c2d61461038e578063348f18f7146103ae5780633b3b57de146103ce57600080fd5b80630e89341c1461034157806310c68cd81461036e57600080fd5b8062fdd58e1461026e57806301ffc9a7146102a1578063022c977f146102d15780630e0a51ef1461031f575b600080fd5b34801561027a57600080fd5b5061028e610289366004612cb0565b61080d565b6040519081526020015b60405180910390f35b3480156102ad57600080fd5b506102c16102bc366004612cf2565b6108b9565b6040519015158152602001610298565b3480156102dd57600080fd5b506103076102ec366004612d0f565b6000908152600760205260409020546001600160a01b031690565b6040516001600160a01b039091168152602001610298565b34801561032b57600080fd5b5061033f61033a366004612d74565b61090c565b005b34801561034d57600080fd5b5061036161035c366004612d0f565b610972565b6040516102989190612e34565b34801561037a57600080fd5b5061033f610389366004612efe565b610a4e565b34801561039a57600080fd5b5061033f6103a9366004613008565b610a6e565b3480156103ba57600080fd5b5061033f6103c93660046130b6565b610b09565b3480156103da57600080fd5b506103076103e9366004612d0f565b610b25565b3480156103fa57600080fd5b5061033f6104093660046130b6565b610b57565b34801561041a57600080fd5b5061042e610429366004613108565b610b6e565b6040516102989190613210565b34801561044757600080fd5b5061033f610456366004613265565b610cac565b61033f6104693660046132f0565b610ccd565b34801561047a57600080fd5b50610307610489366004613383565b610cf8565b34801561049a57600080fd5b506103076104a9366004612d0f565b6004602052600090815260409020546001600160a01b031681565b3480156104d057600080fd5b506103076104df3660046133dd565b610d14565b3480156104f057600080fd5b5061033f6104ff36600461340d565b610de4565b34801561051057600080fd5b5061033f61051f366004613432565b610ea3565b34801561053057600080fd5b50600654610307906001600160a01b031681565b34801561055057600080fd5b5061033f61055f366004613479565b610f8e565b34801561057057600080fd5b5061033f61057f3660046134ae565b610fa8565b34801561059057600080fd5b5061033f61059f3660046130b6565b610fbf565b3480156105b057600080fd5b5061033f6105bf3660046134f5565b610fd2565b61033f6105d236600461351a565b6110ad565b3480156105e357600080fd5b5061033f6105f2366004613573565b6115c7565b34801561060357600080fd5b5061033f6106123660046135bf565b61164b565b34801561062357600080fd5b5061033f6106323660046135ed565b611656565b34801561064357600080fd5b50610307610652366004613479565b61166e565b34801561066357600080fd5b5061033f610672366004613649565b61169a565b34801561068357600080fd5b5061033f6106923660046134f5565b6119a4565b3480156106a357600080fd5b506106f66106b2366004612d0f565b6007602052600090815260409020805460018201546002909201546001600160a01b039182169282169181169060ff600160a01b8204811691600160a81b90041685565b604080516001600160a01b0396871681529486166020860152929094169183019190915215156060820152901515608082015260a001610298565b34801561073d57600080fd5b5061033f61074c366004612d0f565b611a3a565b34801561075d57600080fd5b506102c161076c366004613671565b6001600160a01b03918216600090815260016020908152604080832093909416825291909152205460ff1690565b61033f6107a836600461369f565b611af6565b3480156107b957600080fd5b506103616107c83660046133dd565b611b85565b3480156107d957600080fd5b5061033f6107e8366004613743565b611bc5565b3480156107f957600080fd5b5061033f6108083660046134f5565b611bde565b60006001600160a01b0383166108905760405162461bcd60e51b815260206004820152602a60248201527f455243313135353a2061646472657373207a65726f206973206e6f742061207660448201527f616c6964206f776e65720000000000000000000000000000000000000000000060648201526084015b60405180910390fd5b506000818152602081815260408083206001600160a01b03861684529091529020545b92915050565b60006001600160e01b03198216630115c55760e31b14806108de57506108de82611cb9565b806108ed57506108ed82611cf5565b806108b357506301ffc9a760e01b6001600160e01b03198316146108b3565b60005b8381101561096a576109588686868481811061092d5761092d6137ac565b90506020020135858585818110610946576109466137ac565b905060200281019061051f91906137c2565b806109628161381f565b91505061090f565b505050505050565b6001600160801b031981166000818152600360205260409020600101805460609291829181906109a190613838565b159050610a3c578080546109b490613838565b80601f01602080910402602001604051908101604052809291908181526020018280546109e090613838565b8015610a2d5780601f10610a0257610100808354040283529160200191610a2d565b820191906000526020600020905b815481529060010190602001808311610a1057829003601f168201915b50505050509350505050919050565b610a4585611d00565b95945050505050565b6000610a5985611d94565b9050610a678185858561169a565b5050505050565b6001600160a01b038516331480610a8a5750610a8a853361076c565b610afc5760405162461bcd60e51b815260206004820152602e60248201527f455243313135353a2063616c6c6572206973206e6f7420746f6b656e206f776e60448201527f6572206f7220617070726f7665640000000000000000000000000000000000006064820152608401610887565b610a678585858585611da1565b6000610b1483611d94565b9050610b2081836119a4565b505050565b600080610b3383603c611b85565b90508051600003610b475750600092915050565b610b5081612037565b9392505050565b6000610b6283611d94565b9050610b208183611bde565b60608151835114610be75760405162461bcd60e51b815260206004820152602960248201527f455243313135353a206163636f756e747320616e6420696473206c656e67746860448201527f206d69736d6174636800000000000000000000000000000000000000000000006064820152608401610887565b6000835167ffffffffffffffff811115610c0357610c03612e47565b604051908082528060200260200182016040528015610c2c578160200160208202803683370190505b50905060005b8451811015610ca457610c77858281518110610c5057610c506137ac565b6020026020010151858381518110610c6a57610c6a6137ac565b602002602001015161080d565b828281518110610c8957610c896137ac565b6020908102919091010152610c9d8161381f565b9050610c32565b509392505050565b6000610cb785611d94565b8451602086012090915061096a82828686610ea3565b6000610cd886611d94565b85516020870120909150610cef82828787876110ad565b50505050505050565b600080610d0484611d94565b83516020850120909150610a4582825b6000808383604051602001610d33929190918252602082015260400190565b60408051808303601f190181529082905280516020909101206006546302571be360e01b83526004830182905290925030916001600160a01b03909116906302571be390602401602060405180830381865afa158015610d97573d6000803e3d6000fd5b505050506040513d601f19601f82011682018060405250810190610dbb9190613872565b6001600160a01b031614610dd35760009150506108b3565b610ddc81610b25565b949350505050565b60008281526007602052604090205482906001600160a01b03163314610e1d57604051630e64a9cf60e21b815260040160405180910390fd5b600083815260076020526040908190206002018054841515600160a01b027fffffffffffffffffffffff00ffffffffffffffffffffffffffffffffffffffff9091161790555183907fcddecc2f17a0c961cfad3af69d94ee8d5ece1542dc95fd53f898ab77781272c490610e9690851515815260200190565b60405180910390a2505050565b610eab61205f565b600084815260076020526040902060028101546001600160a01b03811690600160a81b900460ff16158015610f545750604051636e083a8160e11b81526001600160a01b0382169063dc10750290610f0f9033908a908a908a908a906004016138b8565b6020604051808303816000875af1158015610f2e573d6000803e3d6000fd5b505050506040513d601f19601f82011682018060405250810190610f5291906138e7565b155b15610f725760405163645b259360e11b815260040160405180910390fd5b610f7c86866120b8565b5050610f886001600555565b50505050565b6000610f9982611d94565b9050610fa481611a3a565b5050565b6000610fb383611d94565b9050610b208183610de4565b6000610fca83611d94565b9050610b2081835b60008281526007602052604090205482906001600160a01b0316331461100b57604051630e64a9cf60e21b815260040160405180910390fd5b6110256001600160a01b038316632763ed8d60e21b6121a4565b61104d5760405163592e05dd60e11b81526001600160a01b0383166004820152602401610887565b60008381526007602090815260409182902060010180546001600160a01b0319166001600160a01b038616908117909155915191825284917fe3e6191059989ec6f70a99fca0dfbb5c0cac787bba9232a0f364180133d3e7159101610e96565b6110b561205f565b600085815260076020526040902060020154600160a01b900460ff166110ee57604051634db8e46160e01b815260040160405180910390fd5b604080516020810187905290810185905260009060600160408051808303601f190181529082905280516020909101206006546302571be360e01b8352600483018290529092506000916001600160a01b03909116906302571be390602401602060405180830381865afa15801561116a573d6000803e3d6000fd5b505050506040513d601f19601f8201168201806040525081019061118e9190613872565b6001600160a01b0316146111b557604051630344c41960e11b815260040160405180910390fd5b6000868152600760205260409020600201546001600160a01b03168063f02cbfbb8888338989896040518763ffffffff1660e01b81526004016111fd96959493929190613904565b6020604051808303816000875af115801561121c573d6000803e3d6000fd5b505050506040513d601f19601f8201168201806040525081019061124091906138e7565b61125d576040516302b7adcd60e11b815260040160405180910390fd5b600087815260076020526040812060010154819081906001600160a01b0316639c707f938b8b338b8b6040518663ffffffff1660e01b81526004016112a6959493929190613949565b606060405180830381865afa1580156112c3573d6000803e3d6000fd5b505050506040513d601f19601f820116820180604052508101906112e79190613978565b9250925092508160001461145b576001600160a01b03831661139d57813414611323576040516320c4d7fb60e21b815260040160405180910390fd5b6000816001600160a01b03163460405160006040518083038185875af1925050503d8060008114611370576040519150601f19603f3d011682016040523d82523d6000602084013e611375565b606091505b5050905080611397576040516320c4d7fb60e21b815260040160405180910390fd5b5061145b565b6001600160a01b0383166323b872dd336040516001600160e01b031960e084901b1681526001600160a01b0391821660048201529084166024820152604481018590526064016020604051808303816000875af192505050801561141e575060408051601f3d908101601f1916820190925261141b918101906138e7565b60015b61143b576040516320c4d7fb60e21b815260040160405180910390fd5b80611459576040516320c4d7fb60e21b815260040160405180910390fd5b505b6114668a8a8a6121c0565b604051638fcae51d60e01b81526000906001600160a01b03861690638fcae51d9061149f908e908e9033908f908f908f90600401613904565b6020604051808303816000875af11580156114be573d6000803e3d6000fd5b505050506040513d601f19601f820116820180604052508101906114e291906139bb565b905080156114f4576114f48b826120b8565b6006546040516305ef2c7f60e41b8152600481018d9052602481018c905230604482018190526064820152600060848201526001600160a01b0390911690635ef2c7f09060a401600060405180830381600087803b15801561155557600080fd5b505af1158015611569573d6000803e3d6000fd5b50505050611577868a6122b9565b6040516001600160a01b038a1681528a908c907fe8a6fa6264fd384a35210116a2a84bba9f414551a0c0a794dacbf8092d8e99b19060200160405180910390a3505050505050610a676001600555565b60008381526007602052604090205483906001600160a01b0316331461160057604051630e64a9cf60e21b815260040160405180910390fd5b61160b848484612360565b837fcb4872a5cd0e451374911e618bccf95b2ee0f2a1d952582d1721aeff3635217d848460405161163d9291906139d4565b60405180910390a250505050565b610fa4338383612389565b600061166184611d94565b9050610f888184846115c7565b60008061167a83611d94565b6000818152600760205260409020549091506001600160a01b0316610b50565b336006546040516302571be360e01b8152600481018790526001600160a01b0392831692909116906302571be390602401602060405180830381865afa1580156116e8573d6000803e3d6000fd5b505050506040513d601f19601f8201168201806040525081019061170c9190613872565b6001600160a01b031614611733576040516326fdee4b60e11b815260040160405180910390fd5b6000848152600760205260409020600101546001600160a01b03161561176c57604051630ea075bf60e21b815260040160405180910390fd5b6006546001600160a01b031663e985e9c5336040516001600160e01b031960e084901b1681526001600160a01b039091166004820152306024820152604401602060405180830381865afa1580156117c8573d6000803e3d6000fd5b505050506040513d601f19601f820116820180604052508101906117ec91906138e7565b61180957604051636fd1a8ab60e01b815260040160405180910390fd5b6118236001600160a01b038316632763ed8d60e21b6121a4565b61184b5760405163592e05dd60e11b81526001600160a01b0383166004820152602401610887565b6118656001600160a01b0382166328fd8be960e21b6121a4565b61188d5760405163592e05dd60e11b81526001600160a01b0382166004820152602401610887565b6040805160a0810182526001600160a01b03808616825284811660208084019182528583168486019081526001606086018181526000608088018181528d82526007909552888120975188549088166001600160a01b0319918216178955955192880180549388169390961692909217909455905160029095018054935192511515600160a81b027fffffffffffffffffffff00ffffffffffffffffffffffffffffffffffffffffff931515600160a01b027fffffffffffffffffffffff0000000000000000000000000000000000000000009095169690951695909517929092171691909117909155905185917f10906fae603eebfac53ddc0f103bee8a044dd7643c425c7a90f921dfa15ef62c91a250505050565b60008281526007602052604090205482906001600160a01b031633146119dd57604051630e64a9cf60e21b815260040160405180910390fd5b60008381526007602090815260409182902080546001600160a01b0319166001600160a01b038616908117909155915191825284917f44ae681d782ebebc775c8c23cc18621486d68ac94ae4a8271f59892d6c8cec239101610e96565b60008181526007602052604090205481906001600160a01b03163314611a7357604051630e64a9cf60e21b815260040160405180910390fd5b60008281526007602052604080822080546001600160a01b03199081168255600182018054909116905560020180547fffffffffffffffffffff0000000000000000000000000000000000000000000016600160a81b1790555183917fa8167a993f10ce22abac512a74e81171d978a9d52acc66d0a46d3ff05f21ca0b91a25050565b60005b85811015611b7b57611b6988888884818110611b1757611b176137ac565b90506020020135878785818110611b3057611b306137ac565b9050602002016020810190611b4591906139e8565b868686818110611b5757611b576137ac565b90506020028101906105d291906137c2565b80611b738161381f565b915050611af9565b5050505050505050565b606080603c8314611b975790506108b3565b6000848152600460205260409020546001600160a01b031680611bbc575090506108b3565b610a458161247d565b6040516338730eb560e11b815260040160405180910390fd5b60008281526007602052604090205482906001600160a01b03163314611c1757604051630e64a9cf60e21b815260040160405180910390fd5b611c316001600160a01b0383166328fd8be960e21b6121a4565b611c595760405163592e05dd60e11b81526001600160a01b0383166004820152602401610887565b60008381526007602090815260409182902060020180546001600160a01b0319166001600160a01b038616908117909155915191825284917f276dcdaae75cd5831871106265565c93b5a5ba18286a11f7f661826476a89e5d9101610e96565b60006001600160e01b03198216631d9dabef60e11b1480611cea57506001600160e01b031982166378e5bf0360e11b145b806108b357506108b3825b60006108b3826124b6565b606060028054611d0f90613838565b80601f0160208091040260200160405190810160405280929190818152602001828054611d3b90613838565b8015611d885780601f10611d5d57610100808354040283529160200191611d88565b820191906000526020600020905b815481529060010190602001808311611d6b57829003601f168201915b50505050509050919050565b60006108b3826000612505565b8151835114611e185760405162461bcd60e51b815260206004820152602860248201527f455243313135353a2069647320616e6420616d6f756e7473206c656e6774682060448201527f6d69736d617463680000000000000000000000000000000000000000000000006064820152608401610887565b6001600160a01b038416611e945760405162461bcd60e51b815260206004820152602560248201527f455243313135353a207472616e7366657220746f20746865207a65726f20616460448201527f64726573730000000000000000000000000000000000000000000000000000006064820152608401610887565b3360005b8451811015611fd1576000858281518110611eb557611eb56137ac565b602002602001015190506000858381518110611ed357611ed36137ac565b602090810291909101810151600084815280835260408082206001600160a01b038e168352909352919091205490915081811015611f795760405162461bcd60e51b815260206004820152602a60248201527f455243313135353a20696e73756666696369656e742062616c616e636520666f60448201527f72207472616e73666572000000000000000000000000000000000000000000006064820152608401610887565b6000838152602081815260408083206001600160a01b038e8116855292528083208585039055908b16825281208054849290611fb6908490613a05565b9250508190555050505080611fca9061381f565b9050611e98565b50846001600160a01b0316866001600160a01b0316826001600160a01b03167f4a39dc06d4c0dbc64b70af90fd698a233a518aa5d07e595d983b8c0526c8f7fb8787604051612021929190613a18565b60405180910390a461096a81878787878761257f565b6000815160141461204757600080fd5b50602001516c01000000000000000000000000900490565b6002600554036120b15760405162461bcd60e51b815260206004820152601f60248201527f5265656e7472616e637947756172643a207265656e7472616e742063616c6c006044820152606401610887565b6002600555565b60006120c48383610d14565b90506001600160a01b0381166120ed5760405163645b259360e11b815260040160405180910390fd5b6006546040516305ef2c7f60e41b815260048101859052602481018490526000604482018190526064820181905260848201526001600160a01b0390911690635ef2c7f09060a401600060405180830381600087803b15801561214f57600080fd5b505af1158015612163573d6000803e3d6000fd5b50505050612172838383612724565b604051829084907f208d25d051d04de1de9bf0b973d43dcab4e9f7aad493f0768689beace7864e1790600090a3505050565b60006121af8361275a565b8015610b505750610b50838361278d565b6001600160801b0319831660009081526003602052604090205483906fffffffffffffffffffffffffffffffff811061223b5760405162461bcd60e51b815260206004820152601460248201527f746f6b656e436f756e7465724f766572666c6f770000000000000000000000006044820152606401610887565b6001600160801b031982166000908152600360205260409020805460010190556001600160801b0319851660006122728383613a05565b90506060612283868360018461282b565b506001600160801b0319909316600090815260036020908152604080832097835260029097019052949094209190915550505050565b60008281526004602090815260409182902080546001600160a01b0319166001600160a01b038516908117909155915191825283917f52d7d861f09ab3d26239d492e8968629f95e9e318cf0b73bfddc441522a15fd2910160405180910390a2817f65412581168e88a1e60c6459d7f44ae83ad0832e670826c05a4e2476b57af752603c6123468461247d565b604051612354929190613a3d565b60405180910390a25050565b6001600160801b0319831660009081526003602052604090208390600101610a67838583613a9c565b816001600160a01b0316836001600160a01b0316036124105760405162461bcd60e51b815260206004820152602960248201527f455243313135353a2073657474696e6720617070726f76616c2073746174757360448201527f20666f722073656c6600000000000000000000000000000000000000000000006064820152608401610887565b6001600160a01b03838116600081815260016020908152604080832094871680845294825291829020805460ff191686151590811790915591519182527f17307eab39ab6107e8899845ad3d59bd9653f200f220920489ca2b5937696c31910160405180910390a3505050565b6040805160148082528183019092526060916020820181803683375050506c010000000000000000000000009290920260208301525090565b60006001600160e01b03198216636cdb3d1360e11b14806108ed57506001600160e01b031982166303a24d0760e21b14806108b357506301ffc9a760e01b6001600160e01b03198316146108b3565b600081835111612517575060006108b3565b60006125238484612936565b9050612543846125338386613a05565b61253e906001613a05565b612505565b61254e8585846129b1565b6040805160208101939093528201526060016040516020818303038152906040528051906020012091505092915050565b6001600160a01b0384163b1561096a5760405163bc197c8160e01b81526001600160a01b0385169063bc197c81906125c39089908990889088908890600401613b5c565b6020604051808303816000875af19250505080156125fe575060408051601f3d908101601f191682019092526125fb91810190613bae565b60015b6126b35761260a613bcb565b806308c379a003612643575061261e613be7565b806126295750612645565b8060405162461bcd60e51b81526004016108879190612e34565b505b60405162461bcd60e51b815260206004820152603460248201527f455243313135353a207472616e7366657220746f206e6f6e2d4552433131353560448201527f526563656976657220696d706c656d656e7465720000000000000000000000006064820152608401610887565b6001600160e01b0319811663bc197c8160e01b14610cef5760405162461bcd60e51b815260206004820152602860248201527f455243313135353a204552433131353552656365697665722072656a656374656044820152676420746f6b656e7360c01b6064820152608401610887565b6001600160801b0319831660009081526003602090815260408083208584526002019091529020548390610a67838260016129d5565b600061276d826301ffc9a760e01b61278d565b80156108b35750612786826001600160e01b031961278d565b1592915050565b604080516001600160e01b03198316602480830191909152825180830390910181526044909101909152602080820180517bffffffffffffffffffffffffffffffffffffffffffffffffffffffff166301ffc9a760e01b178152825160009392849283928392918391908a617530fa92503d91506000519050828015612814575060208210155b80156128205750600081115b979650505050505050565b6001600160a01b03841661288b5760405162461bcd60e51b815260206004820152602160248201527f455243313135353a206d696e7420746f20746865207a65726f206164647265736044820152607360f81b6064820152608401610887565b33600061289785612b51565b905060006128a485612b51565b90506000868152602081815260408083206001600160a01b038b168452909152812080548792906128d6908490613a05565b909155505060408051878152602081018790526001600160a01b03808a1692600092918716917fc3d58168c5ae7397731d063d5bbf3d657854427343f4c083240f7aacaa2d0f62910160405180910390a4610cef83600089898989612b9c565b6000805b83516129468285613a05565b1415801561299a57508361295a8285613a05565b8151811061296a5761296a6137ac565b6020910101517fff0000000000000000000000000000000000000000000000000000000000000016601760f91b14155b15610b5057806129a98161381f565b91505061293a565b82516000906129c08385613a05565b11156129cb57600080fd5b5091016020012090565b6001600160a01b038316612a375760405162461bcd60e51b815260206004820152602360248201527f455243313135353a206275726e2066726f6d20746865207a65726f206164647260448201526265737360e81b6064820152608401610887565b336000612a4384612b51565b90506000612a5084612b51565b60408051602080820183526000918290528882528181528282206001600160a01b038b1683529052205490915084811015612ad95760405162461bcd60e51b8152602060048201526024808201527f455243313135353a206275726e20616d6f756e7420657863656564732062616c604482015263616e636560e01b6064820152608401610887565b6000868152602081815260408083206001600160a01b038b81168086529184528285208a8703905582518b81529384018a90529092908816917fc3d58168c5ae7397731d063d5bbf3d657854427343f4c083240f7aacaa2d0f62910160405180910390a4604080516020810190915260009052610cef565b60408051600180825281830190925260609160009190602080830190803683370190505090508281600081518110612b8b57612b8b6137ac565b602090810291909101015292915050565b6001600160a01b0384163b1561096a5760405163f23a6e6160e01b81526001600160a01b0385169063f23a6e6190612be09089908990889088908890600401613c71565b6020604051808303816000875af1925050508015612c1b575060408051601f3d908101601f19168201909252612c1891810190613bae565b60015b612c275761260a613bcb565b6001600160e01b0319811663f23a6e6160e01b14610cef5760405162461bcd60e51b815260206004820152602860248201527f455243313135353a204552433131353552656365697665722072656a656374656044820152676420746f6b656e7360c01b6064820152608401610887565b6001600160a01b0381168114612cad57600080fd5b50565b60008060408385031215612cc357600080fd5b8235612cce81612c98565b946020939093013593505050565b6001600160e01b031981168114612cad57600080fd5b600060208284031215612d0457600080fd5b8135610b5081612cdc565b600060208284031215612d2157600080fd5b5035919050565b60008083601f840112612d3a57600080fd5b50813567ffffffffffffffff811115612d5257600080fd5b6020830191508360208260051b8501011115612d6d57600080fd5b9250929050565b600080600080600060608688031215612d8c57600080fd5b85359450602086013567ffffffffffffffff80821115612dab57600080fd5b612db789838a01612d28565b90965094506040880135915080821115612dd057600080fd5b50612ddd88828901612d28565b969995985093965092949392505050565b6000815180845260005b81811015612e1457602081850181015186830182015201612df8565b506000602082860101526020601f19601f83011685010191505092915050565b602081526000610b506020830184612dee565b634e487b7160e01b600052604160045260246000fd5b601f8201601f1916810167ffffffffffffffff81118282101715612e8357612e83612e47565b6040525050565b600082601f830112612e9b57600080fd5b813567ffffffffffffffff811115612eb557612eb5612e47565b604051612ecc601f8301601f191660200182612e5d565b818152846020838601011115612ee157600080fd5b816020850160208301376000918101602001919091529392505050565b60008060008060808587031215612f1457600080fd5b843567ffffffffffffffff811115612f2b57600080fd5b612f3787828801612e8a565b9450506020850135612f4881612c98565b92506040850135612f5881612c98565b91506060850135612f6881612c98565b939692955090935050565b600067ffffffffffffffff821115612f8d57612f8d612e47565b5060051b60200190565b600082601f830112612fa857600080fd5b81356020612fb582612f73565b604051612fc28282612e5d565b83815260059390931b8501820192828101915086841115612fe257600080fd5b8286015b84811015612ffd5780358352918301918301612fe6565b509695505050505050565b600080600080600060a0868803121561302057600080fd5b853561302b81612c98565b9450602086013561303b81612c98565b9350604086013567ffffffffffffffff8082111561305857600080fd5b61306489838a01612f97565b9450606088013591508082111561307a57600080fd5b61308689838a01612f97565b9350608088013591508082111561309c57600080fd5b506130a988828901612e8a565b9150509295509295909350565b600080604083850312156130c957600080fd5b823567ffffffffffffffff8111156130e057600080fd5b6130ec85828601612e8a565b92505060208301356130fd81612c98565b809150509250929050565b6000806040838503121561311b57600080fd5b823567ffffffffffffffff8082111561313357600080fd5b818501915085601f83011261314757600080fd5b8135602061315482612f73565b6040516131618282612e5d565b83815260059390931b850182019282810191508984111561318157600080fd5b948201945b838610156131a857853561319981612c98565b82529482019490820190613186565b965050860135925050808211156131be57600080fd5b506131cb85828601612f97565b9150509250929050565b600081518084526020808501945080840160005b83811015613205578151875295820195908201906001016131e9565b509495945050505050565b602081526000610b5060208301846131d5565b60008083601f84011261323557600080fd5b50813567ffffffffffffffff81111561324d57600080fd5b602083019150836020828501011115612d6d57600080fd5b6000806000806060858703121561327b57600080fd5b843567ffffffffffffffff8082111561329357600080fd5b61329f88838901612e8a565b955060208701359150808211156132b557600080fd5b6132c188838901612e8a565b945060408701359150808211156132d757600080fd5b506132e487828801613223565b95989497509550505050565b60008060008060006080868803121561330857600080fd5b853567ffffffffffffffff8082111561332057600080fd5b61332c89838a01612e8a565b9650602088013591508082111561334257600080fd5b61334e89838a01612e8a565b95506040880135915061336082612c98565b9093506060870135908082111561337657600080fd5b50612ddd88828901613223565b6000806040838503121561339657600080fd5b823567ffffffffffffffff808211156133ae57600080fd5b6133ba86838701612e8a565b935060208501359150808211156133d057600080fd5b506131cb85828601612e8a565b600080604083850312156133f057600080fd5b50508035926020909101359150565b8015158114612cad57600080fd5b6000806040838503121561342057600080fd5b8235915060208301356130fd816133ff565b6000806000806060858703121561344857600080fd5b8435935060208501359250604085013567ffffffffffffffff81111561346d57600080fd5b6132e487828801613223565b60006020828403121561348b57600080fd5b813567ffffffffffffffff8111156134a257600080fd5b610ddc84828501612e8a565b600080604083850312156134c157600080fd5b823567ffffffffffffffff8111156134d857600080fd5b6134e485828601612e8a565b92505060208301356130fd816133ff565b6000806040838503121561350857600080fd5b8235915060208301356130fd81612c98565b60008060008060006080868803121561353257600080fd5b8535945060208601359350604086013561354b81612c98565b9250606086013567ffffffffffffffff81111561356757600080fd5b612ddd88828901613223565b60008060006040848603121561358857600080fd5b83359250602084013567ffffffffffffffff8111156135a657600080fd5b6135b286828701613223565b9497909650939450505050565b600080604083850312156135d257600080fd5b82356135dd81612c98565b915060208301356130fd816133ff565b60008060006040848603121561360257600080fd5b833567ffffffffffffffff8082111561361a57600080fd5b61362687838801612e8a565b9450602086013591508082111561363c57600080fd5b506135b286828701613223565b6000806000806080858703121561365f57600080fd5b843593506020850135612f4881612c98565b6000806040838503121561368457600080fd5b823561368f81612c98565b915060208301356130fd81612c98565b60008060008060008060006080888a0312156136ba57600080fd5b87359650602088013567ffffffffffffffff808211156136d957600080fd5b6136e58b838c01612d28565b909850965060408a01359150808211156136fe57600080fd5b61370a8b838c01612d28565b909650945060608a013591508082111561372357600080fd5b506137308a828b01612d28565b989b979a50959850939692959293505050565b600080600080600060a0868803121561375b57600080fd5b853561376681612c98565b9450602086013561377681612c98565b93506040860135925060608601359150608086013567ffffffffffffffff8111156137a057600080fd5b6130a988828901612e8a565b634e487b7160e01b600052603260045260246000fd5b6000808335601e198436030181126137d957600080fd5b83018035915067ffffffffffffffff8211156137f457600080fd5b602001915036819003821315612d6d57600080fd5b634e487b7160e01b600052601160045260246000fd5b60006001820161383157613831613809565b5060010190565b600181811c9082168061384c57607f821691505b60208210810361386c57634e487b7160e01b600052602260045260246000fd5b50919050565b60006020828403121561388457600080fd5b8151610b5081612c98565b81835281816020850137506000828201602090810191909152601f909101601f19169091010190565b6001600160a01b038616815284602082015283604082015260806060820152600061282060808301848661388f565b6000602082840312156138f957600080fd5b8151610b50816133ff565b86815285602082015260006001600160a01b03808716604084015280861660608401525060a0608083015261393d60a08301848661388f565b98975050505050505050565b8581528460208201526001600160a01b038416604082015260806060820152600061282060808301848661388f565b60008060006060848603121561398d57600080fd5b835161399881612c98565b6020850151604086015191945092506139b081612c98565b809150509250925092565b6000602082840312156139cd57600080fd5b5051919050565b602081526000610ddc60208301848661388f565b6000602082840312156139fa57600080fd5b8135610b5081612c98565b808201808211156108b3576108b3613809565b604081526000613a2b60408301856131d5565b8281036020840152610a4581856131d5565b828152604060208201526000610ddc6040830184612dee565b601f821115610b2057600081815260208120601f850160051c81016020861015613a7d5750805b601f850160051c820191505b8181101561096a57828155600101613a89565b67ffffffffffffffff831115613ab457613ab4612e47565b613ac883613ac28354613838565b83613a56565b6000601f841160018114613afc5760008515613ae45750838201355b600019600387901b1c1916600186901b178355610a67565b600083815260209020601f19861690835b82811015613b2d5786850135825560209485019460019092019101613b0d565b5086821015613b4a5760001960f88860031b161c19848701351681555b505060018560011b0183555050505050565b60006001600160a01b03808816835280871660208401525060a06040830152613b8860a08301866131d5565b8281036060840152613b9a81866131d5565b9050828103608084015261393d8185612dee565b600060208284031215613bc057600080fd5b8151610b5081612cdc565b600060033d1115613be45760046000803e5060005160e01c5b90565b600060443d1015613bf55790565b6040516003193d81016004833e81513d67ffffffffffffffff8160248401118184111715613c2557505050505090565b8285019150815181811115613c3d5750505050505090565b843d8701016020828501011115613c575750505050505090565b613c6660208286010187612e5d565b509095945050505050565b60006001600160a01b03808816835280871660208401525084604083015283606083015260a0608083015261282060a0830184612dee56fea164736f6c6343000811000a",
  "devdoc": {
    "kind": "dev",
    "methods": {
      "addr(bytes32)": {
        "params": {
          "node": "The ENS node to query."
        },
        "returns": {
          "_0": "The associated address."
        }
      },
      "addr(bytes32,uint256)": {
        "params": {
          "coinType": "The coin type",
          "node": "The ENS node to query."
        },
        "returns": {
          "_0": "The associated address."
        }
      },
      "balanceOf(address,uint256)": {
        "details": "See {IERC1155-balanceOf}. Requirements: - `account` cannot be the zero address."
      },
      "balanceOfBatch(address[],uint256[])": {
        "details": "See {IERC1155-balanceOfBatch}. Requirements: - `accounts` and `ids` must have the same length."
      },
      "claimGuildTag(bytes32,bytes32,address,bytes)": {
        "params": {
          "extraClaimArgs": "[Optional] Any additional arguments necessary for guild-specific logic,  such as authorization",
          "guildHash": "The namehash of the guild for which the tag should be claimed (e.g. namehash('my-guild.eth'))",
          "recipient": "The address that will receive this guild tag (usually same as the caller)",
          "tagHash": "The ENS namehash of the tag being claimed (e.g. keccak256('foo') for foo.my-guild.eth)"
        }
      },
      "claimGuildTag(string,string,address,bytes)": {
        "params": {
          "extraClaimArgs": "[Optional] Any additional arguments necessary for guild-specific logic,  such as authorization",
          "guildEnsName": "The guild's full domain name (e.g. 'my-guild.eth')",
          "recipient": "The address that will receive this guild tag (usually same as the caller)",
          "tag": "The tag to claim (e.g. 'foobar')"
        }
      },
      "claimGuildTagsBatch(bytes32,bytes32[],address[],bytes[])": {
        "params": {
          "extraClaimArgs": "Per-tag extra arguments required for guild-specific logic, such as authorization. Must have same length as array of tagHashes, even if each array element is itself empty bytes",
          "guildHash": "The ENS namehash of the guild's domain",
          "recipients": "Recipients of each tag to be claimed",
          "tagHashes": "Namehashes of each tag to be claimed"
        }
      },
      "deregisterGuild(bytes32)": {
        "params": {
          "guildHash": "The ENS namehash of the guild's domain"
        }
      },
      "deregisterGuild(string)": {
        "params": {
          "guildEnsName": "The guild's full domain name (e.g. 'my-guild.eth')"
        }
      },
      "guildAdmin(bytes32)": {
        "params": {
          "guildHash": "The ENS namehash of the guild's domain"
        }
      },
      "guildAdmin(string)": {
        "params": {
          "guildEnsName": "The guild's full domain name (e.g. 'my-guild.eth')"
        }
      },
      "isApprovedForAll(address,address)": {
        "details": "See {IERC1155-isApprovedForAll}."
      },
      "registerGuild(bytes32,address,address,address)": {
        "params": {
          "feePolicy": "The address of an implementation of FeePolicy to use for minting new tags within this guild",
          "guildAdmin": "The address that will administrate this guild",
          "guildHash": "The ENS namehash of the guild's domain",
          "tagsAuthPolicy": "The address of an implementaition of TagsAuthPolicy to use for minting new tags within this guild"
        }
      },
      "registerGuild(string,address,address,address)": {
        "params": {
          "admin": "The address that will administrate this guild",
          "ensName": "The guild's full domain name (e.g. 'my-guild.eth')",
          "feePolicy": "The address of an implementation of FeePolicy to use for minting new tags within this guild",
          "tagsAuthPolicy": "The address of an implementaition of TagsAuthPolicy to use for minting new tags within this guild"
        }
      },
      "revokeGuildTag(bytes32,bytes32,bytes)": {
        "params": {
          "extraData": "[Optional] Any additional arguments necessary for assessing whether a tag may be revoked",
          "guildHash": "The ENS namehash of the guild's domain",
          "tagHash": "The ENS namehash of the tag (e.g. keccak256('foo') for foo.my-guild.eth)"
        }
      },
      "revokeGuildTag(string,string,bytes)": {
        "params": {
          "extraData": "[Optional] Any additional arguments necessary for assessing whether a tag may be revoked",
          "guildEnsName": "The guild's full domain name (e.g. 'my-guild.eth')",
          "tag": "The tag to revoke (e.g. 'foobar')"
        }
      },
      "revokeGuildTagsBatch(bytes32,bytes32[],bytes[])": {
        "params": {
          "extraData": "Additional arguments necessary for assessing whether a tag may be revoked",
          "guildHash": "The ENS namehash of the guild's domain",
          "tagHashes": "ENS namehashes of all tags to revoke"
        }
      },
      "safeBatchTransferFrom(address,address,uint256[],uint256[],bytes)": {
        "details": "See {IERC1155-safeBatchTransferFrom}."
      },
      "safeTransferFrom(address,address,uint256,uint256,bytes)": {
        "details": "ENSGuilds NFTs are non-transferrable and may only be directly minted and burned with their corresonding guild tags."
      },
      "setApprovalForAll(address,bool)": {
        "details": "See {IERC1155-setApprovalForAll}."
      },
      "setGuildActive(bytes32,bool)": {
        "params": {
          "active": "The new status",
          "guildHash": "The ENS namehash of the guild's domain"
        }
      },
      "setGuildActive(string,bool)": {
        "params": {
          "active": "The new status",
          "guildEnsName": "The guild's full domain name (e.g. 'my-guild.eth')"
        }
      },
      "setGuildTokenUriTemplate(bytes32,string)": {
        "params": {
          "guildHash": "The ENS namehash of the guild's domain",
          "uriTemplate": "The ERC1155 metadata URL template"
        }
      },
      "setGuildTokenUriTemplate(string,string)": {
        "params": {
          "guildEnsName": "The guild's full domain name (e.g. 'my-guild.eth')",
          "uriTemplate": "The ERC1155 metadata URL template"
        }
      },
      "supportsInterface(bytes4)": {
        "details": "See {IERC165-supportsInterface}."
      },
      "tagOwner(bytes32,bytes32)": {
        "params": {
          "guildHash": "The ENS namehash of the guild's domain",
          "tagHash": "The ENS namehash of the tag (e.g. keccak256('foo') for foo.my-guild.eth)"
        }
      },
      "tagOwner(string,string)": {
        "params": {
          "guildEnsName": "The guild's full domain name (e.g. 'my-guild.eth')",
          "tag": "The tag (e.g. 'foobar')"
        }
      },
      "transferGuildAdmin(bytes32,address)": {
        "params": {
          "guildHash": "The ENS namehash of the guild's domain",
          "newAdmin": "The new admin"
        }
      },
      "transferGuildAdmin(string,address)": {
        "params": {
          "guildEnsName": "The guild's full domain name (e.g. 'my-guild.eth')",
          "newAdmin": "The new admin"
        }
      },
      "updateGuildFeePolicy(bytes32,address)": {
        "params": {
          "feePolicy": "The address of an implementation of FeePolicy to use for minting new tags within this guild",
          "guildHash": "The ENS namehash of the guild's domain"
        }
      },
      "updateGuildFeePolicy(string,address)": {
        "params": {
          "feePolicy": "The address of an implementation of FeePolicy to use for minting new tags within this guild",
          "guildEnsName": "The guild's full domain name (e.g. 'my-guild.eth')"
        }
      },
      "updateGuildTagsAuthPolicy(bytes32,address)": {
        "params": {
          "guildHash": "The ENS namehash of the guild's domain",
          "tagsAuthPolicy": "The address of an implementaition of TagsAuthPolicy to use for minting new tags within this guild"
        }
      },
      "updateGuildTagsAuthPolicy(string,address)": {
        "params": {
          "guildEnsName": "The guild's full domain name (e.g. 'my-guild.eth')",
          "tagsAuthPolicy": "The address of an implementaition of TagsAuthPolicy to use for minting new tags within this guild"
        }
      },
      "uri(uint256)": {
        "details": "See {IERC1155MetadataURI-uri}.",
        "params": {
          "tokenId": "The token whose URI is returned"
        }
      }
    },
    "version": 1
  },
  "userdoc": {
    "errors": {
      "AlreadyRegistered()": [
        {
          "notice": "Errors "
        }
      ]
    },
    "events": {
      "Registered(bytes32)": {
        "notice": "Events "
      }
    },
    "kind": "user",
    "methods": {
      "addr(bytes32)": {
        "notice": "Returns the address associated with an ENS node."
      },
      "addr(bytes32,uint256)": {
        "notice": "Returns the address associated with an ENS node."
      },
      "claimGuildTag(bytes32,bytes32,address,bytes)": {
        "notice": "Claims a guild tag"
      },
      "claimGuildTag(string,string,address,bytes)": {
        "notice": "Claims a guild tag"
      },
      "claimGuildTagsBatch(bytes32,bytes32[],address[],bytes[])": {
        "notice": "Claims multiple tags for a guild at once"
      },
      "deregisterGuild(bytes32)": {
        "notice": "Deregisters a registered guild. Designates guild as inactive and marks all tags previously minted for that guild as eligible for revocation."
      },
      "deregisterGuild(string)": {
        "notice": "Deregisters a registered guild. Designates guild as inactive and marks all tags previously minted for that guild as eligible for revocation."
      },
      "ensRegistry()": {
        "notice": "State "
      },
      "guildAdmin(bytes32)": {
        "notice": "Returns the current admin registered for the given guild."
      },
      "guildAdmin(string)": {
        "notice": "Returns the current admin registered for the given guild."
      },
      "registerGuild(bytes32,address,address,address)": {
        "notice": "Registers a new guild from an existing ENS domain. Caller must be the ENS node's owner and ENSGuilds must have been designated an \"operator\" for the caller."
      },
      "registerGuild(string,address,address,address)": {
        "notice": "Registers a new guild from an existing ENS domain. Caller must be the ENS node's owner and ENSGuilds must have been designated an \"operator\" for the caller."
      },
      "revokeGuildTag(bytes32,bytes32,bytes)": {
        "notice": "Attempts to revoke an existing guild tag, if authorized by the guild's AuthPolicy. Deregistered guilds will bypass auth checks for revocation of all tags."
      },
      "revokeGuildTag(string,string,bytes)": {
        "notice": "Attempts to revoke an existing guild tag, if authorized by the guild's AuthPolicy. Deregistered guilds will bypass auth checks for revocation of all tags."
      },
      "revokeGuildTagsBatch(bytes32,bytes32[],bytes[])": {
        "notice": "Attempts to revoke multiple guild tags"
      },
      "setGuildActive(bytes32,bool)": {
        "notice": "Sets a guild as active or inactive. May only be called by the guild's registered admin."
      },
      "setGuildActive(string,bool)": {
        "notice": "Sets a guild as active or inactive. May only be called by the guild's registered admin."
      },
      "setGuildTokenUriTemplate(bytes32,string)": {
        "notice": "Sets the metadata URI template string for fetching metadata for a guild's tag NFTs. May only be called by the guild's registered admin."
      },
      "setGuildTokenUriTemplate(string,string)": {
        "notice": "Sets the metadata URI template string for fetching metadata for a guild's tag NFTs. May only be called by the guild's registered admin."
      },
      "tagOwner(bytes32,bytes32)": {
        "notice": "Returns the current owner of the given guild tag. Returns address(0) if no such guild or tag exists, or if the guild has been deregistered."
      },
      "tagOwner(string,string)": {
        "notice": "Returns the current owner of the given guild tag. Returns address(0) if no such guild or tag exists, or if the guild has been deregistered."
      },
      "transferGuildAdmin(bytes32,address)": {
        "notice": "Transfers the role of guild admin to the given address. May only be called by the guild's registered admin."
      },
      "transferGuildAdmin(string,address)": {
        "notice": "Transfers the role of guild admin to the given address. May only be called by the guild's registered admin."
      },
      "updateGuildFeePolicy(bytes32,address)": {
        "notice": "Updates the FeePolicy for an existing guild. May only be called by the guild's registered admin."
      },
      "updateGuildFeePolicy(string,address)": {
        "notice": "Updates the FeePolicy for an existing guild. May only be called by the guild's registered admin."
      },
      "updateGuildTagsAuthPolicy(bytes32,address)": {
        "notice": "Updates the TagsAuthPolicy for an existing guild. May only be called by the guild's registered admin."
      },
      "updateGuildTagsAuthPolicy(string,address)": {
        "notice": "Updates the TagsAuthPolicy for an existing guild. May only be called by the guild's registered admin."
      }
    },
    "version": 1
  },
  "storageLayout": {
    "storage": [
      {
        "astId": 258,
        "contract": "contracts/ensGuilds/ENSGuilds.sol:ENSGuilds",
        "label": "_balances",
        "offset": 0,
        "slot": "0",
        "type": "t_mapping(t_uint256,t_mapping(t_address,t_uint256))"
      },
      {
        "astId": 264,
        "contract": "contracts/ensGuilds/ENSGuilds.sol:ENSGuilds",
        "label": "_operatorApprovals",
        "offset": 0,
        "slot": "1",
        "type": "t_mapping(t_address,t_mapping(t_address,t_bool))"
      },
      {
        "astId": 266,
        "contract": "contracts/ensGuilds/ENSGuilds.sol:ENSGuilds",
        "label": "_uri",
        "offset": 0,
        "slot": "2",
        "type": "t_string_storage"
      },
      {
        "astId": 3985,
        "contract": "contracts/ensGuilds/ENSGuilds.sol:ENSGuilds",
        "label": "guilds",
        "offset": 0,
        "slot": "3",
        "type": "t_mapping(t_bytes16,t_struct(GuildTokenInfo)3980_storage)"
      },
      {
        "astId": 4219,
        "contract": "contracts/ensGuilds/ENSGuilds.sol:ENSGuilds",
        "label": "addresses",
        "offset": 0,
        "slot": "4",
        "type": "t_mapping(t_bytes32,t_address)"
      },
      {
        "astId": 189,
        "contract": "contracts/ensGuilds/ENSGuilds.sol:ENSGuilds",
        "label": "_status",
        "offset": 0,
        "slot": "5",
        "type": "t_uint256"
      },
      {
        "astId": 2409,
        "contract": "contracts/ensGuilds/ENSGuilds.sol:ENSGuilds",
        "label": "ensRegistry",
        "offset": 0,
        "slot": "6",
        "type": "t_contract(ENS)136"
      },
      {
        "astId": 2414,
        "contract": "contracts/ensGuilds/ENSGuilds.sol:ENSGuilds",
        "label": "guilds",
        "offset": 0,
        "slot": "7",
        "type": "t_mapping(t_bytes32,t_struct(GuildInfo)2402_storage)"
      }
    ],
    "types": {
      "t_address": {
        "encoding": "inplace",
        "label": "address",
        "numberOfBytes": "20"
      },
      "t_bool": {
        "encoding": "inplace",
        "label": "bool",
        "numberOfBytes": "1"
      },
      "t_bytes16": {
        "encoding": "inplace",
        "label": "bytes16",
        "numberOfBytes": "16"
      },
      "t_bytes32": {
        "encoding": "inplace",
        "label": "bytes32",
        "numberOfBytes": "32"
      },
      "t_contract(ENS)136": {
        "encoding": "inplace",
        "label": "contract ENS",
        "numberOfBytes": "20"
      },
      "t_contract(FeePolicy)4430": {
        "encoding": "inplace",
        "label": "contract FeePolicy",
        "numberOfBytes": "20"
      },
      "t_contract(ITagsAuthPolicy)4598": {
        "encoding": "inplace",
        "label": "contract ITagsAuthPolicy",
        "numberOfBytes": "20"
      },
      "t_mapping(t_address,t_bool)": {
        "encoding": "mapping",
        "key": "t_address",
        "label": "mapping(address => bool)",
        "numberOfBytes": "32",
        "value": "t_bool"
      },
      "t_mapping(t_address,t_mapping(t_address,t_bool))": {
        "encoding": "mapping",
        "key": "t_address",
        "label": "mapping(address => mapping(address => bool))",
        "numberOfBytes": "32",
        "value": "t_mapping(t_address,t_bool)"
      },
      "t_mapping(t_address,t_uint256)": {
        "encoding": "mapping",
        "key": "t_address",
        "label": "mapping(address => uint256)",
        "numberOfBytes": "32",
        "value": "t_uint256"
      },
      "t_mapping(t_bytes16,t_struct(GuildTokenInfo)3980_storage)": {
        "encoding": "mapping",
        "key": "t_bytes16",
        "label": "mapping(bytes16 => struct ENSGuildsToken.GuildTokenInfo)",
        "numberOfBytes": "32",
        "value": "t_struct(GuildTokenInfo)3980_storage"
      },
      "t_mapping(t_bytes32,t_address)": {
        "encoding": "mapping",
        "key": "t_bytes32",
        "label": "mapping(bytes32 => address)",
        "numberOfBytes": "32",
        "value": "t_address"
      },
      "t_mapping(t_bytes32,t_struct(GuildInfo)2402_storage)": {
        "encoding": "mapping",
        "key": "t_bytes32",
        "label": "mapping(bytes32 => struct ENSGuilds.GuildInfo)",
        "numberOfBytes": "32",
        "value": "t_struct(GuildInfo)2402_storage"
      },
      "t_mapping(t_bytes32,t_uint256)": {
        "encoding": "mapping",
        "key": "t_bytes32",
        "label": "mapping(bytes32 => uint256)",
        "numberOfBytes": "32",
        "value": "t_uint256"
      },
      "t_mapping(t_uint256,t_mapping(t_address,t_uint256))": {
        "encoding": "mapping",
        "key": "t_uint256",
        "label": "mapping(uint256 => mapping(address => uint256))",
        "numberOfBytes": "32",
        "value": "t_mapping(t_address,t_uint256)"
      },
      "t_string_storage": {
        "encoding": "bytes",
        "label": "string",
        "numberOfBytes": "32"
      },
      "t_struct(Counter)2069_storage": {
        "encoding": "inplace",
        "label": "struct Counters.Counter",
        "members": [
          {
            "astId": 2068,
            "contract": "contracts/ensGuilds/ENSGuilds.sol:ENSGuilds",
            "label": "_value",
            "offset": 0,
            "slot": "0",
            "type": "t_uint256"
          }
        ],
        "numberOfBytes": "32"
      },
      "t_struct(GuildInfo)2402_storage": {
        "encoding": "inplace",
        "label": "struct ENSGuilds.GuildInfo",
        "members": [
          {
            "astId": 2391,
            "contract": "contracts/ensGuilds/ENSGuilds.sol:ENSGuilds",
            "label": "admin",
            "offset": 0,
            "slot": "0",
            "type": "t_address"
          },
          {
            "astId": 2394,
            "contract": "contracts/ensGuilds/ENSGuilds.sol:ENSGuilds",
            "label": "feePolicy",
            "offset": 0,
            "slot": "1",
            "type": "t_contract(FeePolicy)4430"
          },
          {
            "astId": 2397,
            "contract": "contracts/ensGuilds/ENSGuilds.sol:ENSGuilds",
            "label": "tagsAuthPolicy",
            "offset": 0,
            "slot": "2",
            "type": "t_contract(ITagsAuthPolicy)4598"
          },
          {
            "astId": 2399,
            "contract": "contracts/ensGuilds/ENSGuilds.sol:ENSGuilds",
            "label": "active",
            "offset": 20,
            "slot": "2",
            "type": "t_bool"
          },
          {
            "astId": 2401,
            "contract": "contracts/ensGuilds/ENSGuilds.sol:ENSGuilds",
            "label": "deregistered",
            "offset": 21,
            "slot": "2",
            "type": "t_bool"
          }
        ],
        "numberOfBytes": "96"
      },
      "t_struct(GuildTokenInfo)3980_storage": {
        "encoding": "inplace",
        "label": "struct ENSGuildsToken.GuildTokenInfo",
        "members": [
          {
            "astId": 3973,
            "contract": "contracts/ensGuilds/ENSGuilds.sol:ENSGuilds",
            "label": "tokenIdTracker",
            "offset": 0,
            "slot": "0",
            "type": "t_struct(Counter)2069_storage"
          },
          {
            "astId": 3975,
            "contract": "contracts/ensGuilds/ENSGuilds.sol:ENSGuilds",
            "label": "templateURI",
            "offset": 0,
            "slot": "1",
            "type": "t_string_storage"
          },
          {
            "astId": 3979,
            "contract": "contracts/ensGuilds/ENSGuilds.sol:ENSGuilds",
            "label": "guildTagsToTokenIds",
            "offset": 0,
            "slot": "2",
            "type": "t_mapping(t_bytes32,t_uint256)"
          }
        ],
        "numberOfBytes": "96"
      },
      "t_uint256": {
        "encoding": "inplace",
        "label": "uint256",
        "numberOfBytes": "32"
      }
    }
  }
}