{
  "address": "0xcF97D3BDD65d03DC7e00b1C92B9ed9eF30C27E7B",
  "abi": [
    {
      "inputs": [
        {
          "internalType": "contract ENS",
          "name": "_ensRegistry",
          "type": "address"
        },
        {
          "internalType": "contract INameWrapper",
          "name": "_ensNameWrapper",
          "type": "address"
        },
        {
          "internalType": "address",
          "name": "reverseRecordOwner",
          "type": "address"
        }
      ],
      "stateMutability": "nonpayable",
      "type": "constructor"
    },
    {
      "inputs": [],
      "name": "CallerNotAuthorised",
      "type": "error"
    },
    {
      "inputs": [],
      "name": "InvalidOperation",
      "type": "error"
    },
    {
      "inputs": [],
      "name": "InvalidTokenContract",
      "type": "error"
    },
    {
      "inputs": [
        {
          "internalType": "address",
          "name": "sender",
          "type": "address"
        },
        {
          "internalType": "string[]",
          "name": "urls",
          "type": "string[]"
        },
        {
          "internalType": "bytes",
          "name": "callData",
          "type": "bytes"
        },
        {
          "internalType": "bytes4",
          "name": "callbackFunction",
          "type": "bytes4"
        },
        {
          "internalType": "bytes",
          "name": "extraData",
          "type": "bytes"
        }
      ],
      "name": "OffchainLookup",
      "type": "error"
    },
    {
      "inputs": [],
      "name": "RecordTypeNotSupported",
      "type": "error"
    },
    {
      "anonymous": false,
      "inputs": [
        {
          "indexed": true,
          "internalType": "bytes32",
          "name": "node",
          "type": "bytes32"
        },
        {
          "indexed": true,
          "internalType": "uint256",
          "name": "contentType",
          "type": "uint256"
        }
      ],
      "name": "ABIChanged",
      "type": "event"
    },
    {
      "anonymous": false,
      "inputs": [
        {
          "indexed": true,
          "internalType": "bytes32",
          "name": "node",
          "type": "bytes32"
        },
        {
          "indexed": false,
          "internalType": "address",
          "name": "a",
          "type": "address"
        }
      ],
      "name": "AddrChanged",
      "type": "event"
    },
    {
      "anonymous": false,
      "inputs": [
        {
          "indexed": true,
          "internalType": "bytes32",
          "name": "node",
          "type": "bytes32"
        },
        {
          "indexed": false,
          "internalType": "uint256",
          "name": "coinType",
          "type": "uint256"
        },
        {
          "indexed": false,
          "internalType": "bytes",
          "name": "newAddress",
          "type": "bytes"
        }
      ],
      "name": "AddressChanged",
      "type": "event"
    },
    {
      "anonymous": false,
      "inputs": [
        {
          "indexed": true,
          "internalType": "bytes32",
          "name": "node",
          "type": "bytes32"
        },
        {
          "indexed": false,
          "internalType": "bytes",
          "name": "hash",
          "type": "bytes"
        }
      ],
      "name": "ContenthashChanged",
      "type": "event"
    },
    {
      "anonymous": false,
      "inputs": [
        {
          "indexed": true,
          "internalType": "bytes32",
          "name": "node",
          "type": "bytes32"
        },
        {
          "indexed": false,
          "internalType": "bytes",
          "name": "name",
          "type": "bytes"
        },
        {
          "indexed": false,
          "internalType": "uint16",
          "name": "resource",
          "type": "uint16"
        },
        {
          "indexed": false,
          "internalType": "bytes",
          "name": "record",
          "type": "bytes"
        }
      ],
      "name": "DNSRecordChanged",
      "type": "event"
    },
    {
      "anonymous": false,
      "inputs": [
        {
          "indexed": true,
          "internalType": "bytes32",
          "name": "node",
          "type": "bytes32"
        },
        {
          "indexed": false,
          "internalType": "bytes",
          "name": "name",
          "type": "bytes"
        },
        {
          "indexed": false,
          "internalType": "uint16",
          "name": "resource",
          "type": "uint16"
        }
      ],
      "name": "DNSRecordDeleted",
      "type": "event"
    },
    {
      "anonymous": false,
      "inputs": [
        {
          "indexed": true,
          "internalType": "bytes32",
          "name": "node",
          "type": "bytes32"
        },
        {
          "indexed": false,
          "internalType": "bytes",
          "name": "lastzonehash",
          "type": "bytes"
        },
        {
          "indexed": false,
          "internalType": "bytes",
          "name": "zonehash",
          "type": "bytes"
        }
      ],
      "name": "DNSZonehashChanged",
      "type": "event"
    },
    {
      "anonymous": false,
      "inputs": [
        {
          "indexed": true,
          "internalType": "bytes32",
          "name": "node",
          "type": "bytes32"
        },
        {
          "indexed": true,
          "internalType": "bytes4",
          "name": "interfaceID",
          "type": "bytes4"
        },
        {
          "indexed": false,
          "internalType": "address",
          "name": "implementer",
          "type": "address"
        }
      ],
      "name": "InterfaceChanged",
      "type": "event"
    },
    {
      "anonymous": false,
      "inputs": [
        {
          "indexed": true,
          "internalType": "bytes32",
          "name": "node",
          "type": "bytes32"
        },
        {
          "indexed": false,
          "internalType": "string",
          "name": "name",
          "type": "string"
        }
      ],
      "name": "NameChanged",
      "type": "event"
    },
    {
      "anonymous": false,
      "inputs": [
        {
          "indexed": true,
          "internalType": "bytes32",
          "name": "node",
          "type": "bytes32"
        },
        {
          "indexed": false,
          "internalType": "bytes32",
          "name": "x",
          "type": "bytes32"
        },
        {
          "indexed": false,
          "internalType": "bytes32",
          "name": "y",
          "type": "bytes32"
        }
      ],
      "name": "PubkeyChanged",
      "type": "event"
    },
    {
      "anonymous": false,
      "inputs": [
        {
          "indexed": true,
          "internalType": "bytes32",
          "name": "node",
          "type": "bytes32"
        },
        {
          "indexed": true,
          "internalType": "string",
          "name": "indexedKey",
          "type": "string"
        },
        {
          "indexed": false,
          "internalType": "string",
          "name": "key",
          "type": "string"
        },
        {
          "indexed": false,
          "internalType": "string",
          "name": "value",
          "type": "string"
        }
      ],
      "name": "TextChanged",
      "type": "event"
    },
    {
      "anonymous": false,
      "inputs": [
        {
          "indexed": true,
          "internalType": "bytes32",
          "name": "node",
          "type": "bytes32"
        },
        {
          "indexed": false,
          "internalType": "uint64",
          "name": "newVersion",
          "type": "uint64"
        }
      ],
      "name": "VersionChanged",
      "type": "event"
    },
    {
      "inputs": [
        {
          "internalType": "bytes32",
          "name": "node",
          "type": "bytes32"
        },
        {
          "internalType": "uint256",
          "name": "contentTypes",
          "type": "uint256"
        }
      ],
      "name": "ABI",
      "outputs": [
        {
          "internalType": "uint256",
          "name": "a",
          "type": "uint256"
        },
        {
          "internalType": "bytes",
          "name": "b",
          "type": "bytes"
        }
      ],
      "stateMutability": "view",
      "type": "function"
    },
    {
      "inputs": [],
      "name": "RESOLVER_SIGNATURE__ADDR",
      "outputs": [
        {
          "internalType": "bytes4",
          "name": "",
          "type": "bytes4"
        }
      ],
      "stateMutability": "view",
      "type": "function"
    },
    {
      "inputs": [],
      "name": "RESOLVER_SIGNATURE__ADDR_WITH_COINTYPE",
      "outputs": [
        {
          "internalType": "bytes4",
          "name": "",
          "type": "bytes4"
        }
      ],
      "stateMutability": "view",
      "type": "function"
    },
    {
      "inputs": [],
      "name": "RESOLVER_SIGNATURE__TEXT",
      "outputs": [
        {
          "internalType": "bytes4",
          "name": "",
          "type": "bytes4"
        }
      ],
      "stateMutability": "view",
      "type": "function"
    },
    {
      "inputs": [
        {
          "internalType": "bytes32",
          "name": "node",
          "type": "bytes32"
        }
      ],
      "name": "addr",
      "outputs": [
        {
          "internalType": "address payable",
          "name": "result",
          "type": "address"
        }
      ],
      "stateMutability": "view",
      "type": "function"
    },
    {
      "inputs": [
        {
          "internalType": "bytes32",
          "name": "node",
          "type": "bytes32"
        },
        {
          "internalType": "uint256",
          "name": "coinType",
          "type": "uint256"
        }
      ],
      "name": "addr",
      "outputs": [
        {
          "internalType": "bytes",
          "name": "result",
          "type": "bytes"
        }
      ],
      "stateMutability": "view",
      "type": "function"
    },
    {
      "inputs": [
        {
          "internalType": "bytes32",
          "name": "",
          "type": "bytes32"
        },
        {
          "internalType": "address",
          "name": "",
          "type": "address"
        }
      ],
      "name": "approvedDelegates",
      "outputs": [
        {
          "internalType": "bool",
          "name": "",
          "type": "bool"
        }
      ],
      "stateMutability": "view",
      "type": "function"
    },
    {
      "inputs": [
        {
          "internalType": "bytes32",
          "name": "node",
          "type": "bytes32"
        }
      ],
      "name": "clearRecords",
      "outputs": [],
      "stateMutability": "nonpayable",
      "type": "function"
    },
    {
      "inputs": [
        {
          "internalType": "bytes32",
          "name": "node",
          "type": "bytes32"
        }
      ],
      "name": "contenthash",
      "outputs": [
        {
          "internalType": "bytes",
          "name": "result",
          "type": "bytes"
        }
      ],
      "stateMutability": "view",
      "type": "function"
    },
    {
      "inputs": [
        {
          "internalType": "bytes32",
          "name": "node",
          "type": "bytes32"
        },
        {
          "internalType": "bytes32",
          "name": "name",
          "type": "bytes32"
        },
        {
          "internalType": "uint16",
          "name": "resource",
          "type": "uint16"
        }
      ],
      "name": "dnsRecord",
      "outputs": [
        {
          "internalType": "bytes",
          "name": "result",
          "type": "bytes"
        }
      ],
      "stateMutability": "view",
      "type": "function"
    },
    {
      "inputs": [],
      "name": "ensNameWrapper",
      "outputs": [
        {
          "internalType": "contract INameWrapper",
          "name": "",
          "type": "address"
        }
      ],
      "stateMutability": "view",
      "type": "function"
    },
    {
      "inputs": [],
      "name": "ensRegistry",
      "outputs": [
        {
          "internalType": "contract ENS",
          "name": "",
          "type": "address"
        }
      ],
      "stateMutability": "view",
      "type": "function"
    },
    {
      "inputs": [
        {
          "internalType": "bytes32",
          "name": "node",
          "type": "bytes32"
        }
      ],
      "name": "getPassthroughTarget",
      "outputs": [
        {
          "internalType": "address",
          "name": "resolver",
          "type": "address"
        }
      ],
      "stateMutability": "view",
      "type": "function"
    },
    {
      "inputs": [
        {
          "internalType": "bytes32",
          "name": "node",
          "type": "bytes32"
        },
        {
          "internalType": "bytes4",
          "name": "interfaceID",
          "type": "bytes4"
        }
      ],
      "name": "interfaceImplementer",
      "outputs": [
        {
          "internalType": "address",
          "name": "result",
          "type": "address"
        }
      ],
      "stateMutability": "view",
      "type": "function"
    },
    {
      "inputs": [
        {
          "internalType": "address",
          "name": "",
          "type": "address"
        },
        {
          "internalType": "bytes32",
          "name": "node",
          "type": "bytes32"
        },
        {
          "internalType": "address",
          "name": "delegate",
          "type": "address"
        }
      ],
      "name": "isApprovedFor",
      "outputs": [
        {
          "internalType": "bool",
          "name": "",
          "type": "bool"
        }
      ],
      "stateMutability": "view",
      "type": "function"
    },
    {
      "inputs": [
        {
          "internalType": "bytes32",
          "name": "node",
          "type": "bytes32"
        }
      ],
      "name": "name",
      "outputs": [
        {
          "internalType": "string",
          "name": "result",
          "type": "string"
        }
      ],
      "stateMutability": "view",
      "type": "function"
    },
    {
      "inputs": [
        {
          "internalType": "bytes32",
          "name": "node",
          "type": "bytes32"
        }
      ],
      "name": "pubkey",
      "outputs": [
        {
          "internalType": "bytes32",
          "name": "x",
          "type": "bytes32"
        },
        {
          "internalType": "bytes32",
          "name": "y",
          "type": "bytes32"
        }
      ],
      "stateMutability": "view",
      "type": "function"
    },
    {
      "inputs": [
        {
          "internalType": "bytes32",
          "name": "",
          "type": "bytes32"
        }
      ],
      "name": "recordVersions",
      "outputs": [
        {
          "internalType": "uint64",
          "name": "",
          "type": "uint64"
        }
      ],
      "stateMutability": "view",
      "type": "function"
    },
    {
      "inputs": [
        {
          "internalType": "bytes",
          "name": "dnsEncodedName",
          "type": "bytes"
        },
        {
          "internalType": "bytes",
          "name": "resolverCalldata",
          "type": "bytes"
        }
      ],
      "name": "resolve",
      "outputs": [
        {
          "internalType": "bytes",
          "name": "",
          "type": "bytes"
        }
      ],
      "stateMutability": "view",
      "type": "function"
    },
    {
      "inputs": [
        {
          "internalType": "bytes",
          "name": "response",
          "type": "bytes"
        },
        {
          "internalType": "bytes",
          "name": "extraData",
          "type": "bytes"
        }
      ],
      "name": "resolveCallback",
      "outputs": [
        {
          "internalType": "bytes",
          "name": "",
          "type": "bytes"
        }
      ],
      "stateMutability": "nonpayable",
      "type": "function"
    },
    {
      "inputs": [
        {
          "internalType": "bytes32",
          "name": "node",
          "type": "bytes32"
        },
        {
          "internalType": "uint256",
          "name": "contentType",
          "type": "uint256"
        },
        {
          "internalType": "bytes",
          "name": "data",
          "type": "bytes"
        }
      ],
      "name": "setABI",
      "outputs": [],
      "stateMutability": "nonpayable",
      "type": "function"
    },
    {
      "inputs": [
        {
          "internalType": "bytes32",
          "name": "node",
          "type": "bytes32"
        },
        {
          "internalType": "uint256",
          "name": "coinType",
          "type": "uint256"
        },
        {
          "internalType": "bytes",
          "name": "a",
          "type": "bytes"
        }
      ],
      "name": "setAddr",
      "outputs": [],
      "stateMutability": "nonpayable",
      "type": "function"
    },
    {
      "inputs": [
        {
          "internalType": "bytes32",
          "name": "node",
          "type": "bytes32"
        },
        {
          "internalType": "address",
          "name": "a",
          "type": "address"
        }
      ],
      "name": "setAddr",
      "outputs": [],
      "stateMutability": "nonpayable",
      "type": "function"
    },
    {
      "inputs": [
        {
          "internalType": "bytes32",
          "name": "node",
          "type": "bytes32"
        },
        {
          "internalType": "address",
          "name": "delegate",
          "type": "address"
        },
        {
          "internalType": "bool",
          "name": "approved",
          "type": "bool"
        }
      ],
      "name": "setApprovedFor",
      "outputs": [],
      "stateMutability": "nonpayable",
      "type": "function"
    },
    {
      "inputs": [
        {
          "internalType": "bytes32",
          "name": "node",
          "type": "bytes32"
        },
        {
          "internalType": "bytes",
          "name": "hash",
          "type": "bytes"
        }
      ],
      "name": "setContenthash",
      "outputs": [],
      "stateMutability": "nonpayable",
      "type": "function"
    },
    {
      "inputs": [
        {
          "internalType": "bytes32",
          "name": "node",
          "type": "bytes32"
        },
        {
          "internalType": "bytes",
          "name": "data",
          "type": "bytes"
        }
      ],
      "name": "setDNSRecords",
      "outputs": [],
      "stateMutability": "nonpayable",
      "type": "function"
    },
    {
      "inputs": [
        {
          "internalType": "bytes32",
          "name": "node",
          "type": "bytes32"
        },
        {
          "internalType": "bytes4",
          "name": "interfaceID",
          "type": "bytes4"
        },
        {
          "internalType": "address",
          "name": "implementer",
          "type": "address"
        }
      ],
      "name": "setInterface",
      "outputs": [],
      "stateMutability": "nonpayable",
      "type": "function"
    },
    {
      "inputs": [
        {
          "internalType": "bytes32",
          "name": "node",
          "type": "bytes32"
        },
        {
          "internalType": "string",
          "name": "newName",
          "type": "string"
        }
      ],
      "name": "setName",
      "outputs": [],
      "stateMutability": "nonpayable",
      "type": "function"
    },
    {
      "inputs": [
        {
          "internalType": "bytes32",
          "name": "node",
          "type": "bytes32"
        },
        {
          "internalType": "bytes32",
          "name": "x",
          "type": "bytes32"
        },
        {
          "internalType": "bytes32",
          "name": "y",
          "type": "bytes32"
        }
      ],
      "name": "setPubkey",
      "outputs": [],
      "stateMutability": "nonpayable",
      "type": "function"
    },
    {
      "inputs": [
        {
          "internalType": "bytes32",
          "name": "node",
          "type": "bytes32"
        },
        {
          "internalType": "string",
          "name": "key",
          "type": "string"
        },
        {
          "internalType": "string",
          "name": "value",
          "type": "string"
        }
      ],
      "name": "setText",
      "outputs": [],
      "stateMutability": "nonpayable",
      "type": "function"
    },
    {
      "inputs": [
        {
          "internalType": "string",
          "name": "ensName",
          "type": "string"
        },
        {
          "internalType": "address",
          "name": "tokenContract",
          "type": "address"
        },
        {
          "internalType": "address",
          "name": "fallbackResolver",
          "type": "address"
        }
      ],
      "name": "setTokenContract",
      "outputs": [],
      "stateMutability": "nonpayable",
      "type": "function"
    },
    {
      "inputs": [
        {
          "internalType": "bytes32",
          "name": "node",
          "type": "bytes32"
        },
        {
          "internalType": "bytes",
          "name": "hash",
          "type": "bytes"
        }
      ],
      "name": "setZonehash",
      "outputs": [],
      "stateMutability": "nonpayable",
      "type": "function"
    },
    {
      "inputs": [
        {
          "internalType": "bytes4",
          "name": "interfaceID",
          "type": "bytes4"
        }
      ],
      "name": "supportsInterface",
      "outputs": [
        {
          "internalType": "bool",
          "name": "",
          "type": "bool"
        }
      ],
      "stateMutability": "view",
      "type": "function"
    },
    {
      "inputs": [
        {
          "internalType": "bytes32",
          "name": "node",
          "type": "bytes32"
        },
        {
          "internalType": "string",
          "name": "key",
          "type": "string"
        }
      ],
      "name": "text",
      "outputs": [
        {
          "internalType": "string",
          "name": "result",
          "type": "string"
        }
      ],
      "stateMutability": "view",
      "type": "function"
    },
    {
      "inputs": [
        {
          "internalType": "bytes",
          "name": "",
          "type": "bytes"
        }
      ],
      "name": "tokens",
      "outputs": [
        {
          "internalType": "contract IERC721",
          "name": "",
          "type": "address"
        }
      ],
      "stateMutability": "view",
      "type": "function"
    },
    {
      "inputs": [
        {
          "internalType": "bytes32",
          "name": "node",
          "type": "bytes32"
        }
      ],
      "name": "zonehash",
      "outputs": [
        {
          "internalType": "bytes",
          "name": "result",
          "type": "bytes"
        }
      ],
      "stateMutability": "view",
      "type": "function"
    }
  ],
  "transactionHash": "0x3e6189e0a20d2ed43835b73dbdeed1e4633480d4fc73a37dd221c6074d3a79f5",
  "args": [
    "0x00000000000C2E074eC69A0dFb2997BA6C7d2e1e",
    "0x114D4603199df73e7D157787f8778E21fCd13066",
    "0xE72285aee8Ad0b545DD6287Aab9EbE8237D4e7Cf"
  ],
  "numDeployments": 1,
  "solcInputHash": "add0a899e7b1c12e84f38c3f1f2b39c9",
  "bytecode": "0x60c06040523480156200001157600080fd5b50604051620039a0380380620039a083398101604081905262000034916200016b565b6001600160a01b03838116608081905290831660a0526040516302571be360e01b81527f91d1777781884d03a6757a803996e38de2a42967fb37eeaca72729271025a9e2600482015284918391600091906302571be390602401602060405180830381865afa158015620000ac573d6000803e3d6000fd5b505050506040513d601f19601f82011682018060405250810190620000d29190620001bf565b604051630f41a04d60e11b81526001600160a01b03848116600483015291925090821690631e83409a906024016020604051808303816000875af11580156200011f573d6000803e3d6000fd5b505050506040513d601f19601f82011682018060405250810190620001459190620001e6565b5050505050505062000200565b6001600160a01b03811681146200016857600080fd5b50565b6000806000606084860312156200018157600080fd5b83516200018e8162000152565b6020850151909350620001a18162000152565b6040850151909250620001b48162000152565b809150509250925092565b600060208284031215620001d257600080fd5b8151620001df8162000152565b9392505050565b600060208284031215620001f957600080fd5b5051919050565b60805160a0516137656200023b600039600081816103ff01528181611fc9015261201601526000818161050c0152611f5a01526137656000f3fe608060405234801561001057600080fd5b506004361061025c5760003560e01c8063691f343111610145578063b4a85801116100bd578063d5fa2b001161008c578063e59d895d11610071578063e59d895d146106a0578063ef47ee62146106b3578063f1cb7e061461070f57600080fd5b8063d5fa2b001461064a578063d700ff331461065d57600080fd5b8063b4a85801146105e9578063bc1c58d1146105fc578063c86902331461060f578063ce3decdc1461063757600080fd5b80639061b923116101145780639bce71d0116100f95780639bce71d014610567578063a8fa56821461059b578063a9784b3e146105ae57600080fd5b80639061b9231461054157806396a4835c1461055457600080fd5b8063691f3431146104e157806377372213146104f45780637d73b231146105075780638b95dd711461052e57600080fd5b80633603d758116101d85780635048cea0116101a75780635c98042b1161018c5780635c98042b1461048d5780635d1044a6146104a0578063623195b0146104ce57600080fd5b80635048cea01461042157806359d1d43c1461046d57600080fd5b80633603d758146103c15780633b3b57de146103d45780633f5bc277146103e757806347c5da98146103fa57600080fd5b8063124a319c1161022f57806329cd62ea1161021457806329cd62ea146103265780632d17053914610339578063304e6ade146103ae57600080fd5b8063124a319c146102f25780632203ab561461030557600080fd5b806301ffc9a71461026157806302001702146102895780630af179d7146102ca57806310f13a8c146102df575b600080fd5b61027461026f366004612b6c565b610722565b60405190151581526020015b60405180910390f35b6102b2610297366004612b89565b6000908152600160205260409020546001600160a01b031690565b6040516001600160a01b039091168152602001610280565b6102dd6102d8366004612be4565b61074d565b005b6102dd6102ed366004612c30565b6107df565b6102b2610300366004612caa565b610877565b610318610313366004612cda565b61092d565b604051610280929190612d4c565b6102dd610334366004612d65565b6109e5565b60408051808201909152601481527f7465787428627974657333322c737472696e67290000000000000000000000006020909101526103957f59d1d43c37707a29830be065fcabd05d6e536466c5159d2e46cb27bda8e98d6581565b6040516001600160e01b03199091168152602001610280565b6102dd6103bc366004612be4565b610a44565b6102dd6103cf366004612b89565b610a9e565b6102b26103e2366004612b89565b610b41565b6102dd6103f5366004612da6565b610be5565b6102b27f000000000000000000000000000000000000000000000000000000000000000081565b60408051808201909152600d81526c6164647228627974657333322960981b6020909101526103957f3b3b57de213591bb50e06975ea011e4c8c4b3e6de4009450c1a9e55f66e4bfa481565b61048061047b366004612be4565b610d35565b6040516102809190612e0e565b61048061049b366004612b89565b610deb565b6102746104ae366004612e21565b600460209081526000928352604080842090915290825290205460ff1681565b6102dd6104dc366004612e46565b610e8a565b6104806104ef366004612b89565b610f1f565b6102dd610502366004612be4565b610f7d565b6102b27f000000000000000000000000000000000000000000000000000000000000000081565b6102dd61053c366004612f5e565b610fd7565b61048061054f366004612fae565b611031565b6102dd61056236600461300e565b611255565b6102b2610575366004613055565b80516020818301810180516003825292820191909301209152546001600160a01b031681565b6104806105a936600461308a565b6112c4565b6102746105bc3660046130bf565b60008281526004602090815260408083206001600160a01b038516845290915290205460ff169392505050565b6104806105f7366004612fae565b611333565b61048061060a366004612b89565b611447565b61062261061d366004612b89565b6114a5565b60408051928352602083019190915201610280565b6102dd610645366004612be4565b61154d565b6102dd610658366004612e21565b6115a7565b61068761066b366004612b89565b60006020819052908152604090205467ffffffffffffffff1681565b60405167ffffffffffffffff9091168152602001610280565b6102dd6106ae3660046130f6565b61163a565b60408051808201909152601581527f6164647228627974657333322c75696e743235362900000000000000000000006020909101526103957ff1cb7e06eed69ff6b1133c27a055176e5b0f641e8f94df2da7711eae8558f7b181565b61048061071d366004612cda565b6116a3565b60006001600160e01b03198216639061b92360e01b1480610747575061074782611748565b92915050565b8261075781611860565b61076057600080fd5b6000848152600160205260409020546001600160a01b03166001600160a01b0316630af179d78585856040518463ffffffff1660e01b81526004016107a793929190613156565b600060405180830381600087803b1580156107c157600080fd5b505af11580156107d5573d6000803e3d6000fd5b5050505050505050565b846107e981611860565b6107f257600080fd5b6000868152600160205260409020546001600160a01b03166001600160a01b03166310f13a8c87878787876040518663ffffffff1660e01b815260040161083d959493929190613179565b600060405180830381600087803b15801561085757600080fd5b505af115801561086b573d6000803e3d6000fd5b50505050505050505050565b6000828152600160205260408120546001600160a01b03166108a0816304928c6760e21b6118ac565b15610926576040516304928c6760e21b8152600481018590526001600160e01b0319841660248201526001600160a01b0382169063124a319c90604401602060405180830381865afa1580156108fa573d6000803e3d6000fd5b505050506040513d601f19601f8201168201806040525081019061091e91906131a6565b915050610747565b5092915050565b6000828152600160205260408120546060906001600160a01b031661095981631101d5ab60e11b6118ac565b156109dc57604051631101d5ab60e11b815260048101869052602481018590526001600160a01b03821690632203ab5690604401600060405180830381865afa1580156109aa573d6000803e3d6000fd5b505050506040513d6000823e601f3d908101601f191682016040526109d29190810190613208565b92509250506109de565b505b9250929050565b826109ef81611860565b6109f857600080fd5b600084815260016020526040908190205490516314e6b17560e11b81526004810186905260248101859052604481018490526001600160a01b03909116906329cd62ea906064016107a7565b82610a4e81611860565b610a5757600080fd5b6000848152600160205260409020546001600160a01b03166001600160a01b031663304e6ade8585856040518463ffffffff1660e01b81526004016107a793929190613156565b80610aa881611860565b610ab157600080fd5b6000828152602081905260408120805467ffffffffffffffff1691610ad583613265565b82546101009290920a67ffffffffffffffff818102199093169183160217909155600084815260208181526040918290205491519190921681528492507fc6621ccb8f3f5a04bb6502154b2caf6adf5983fe76dfef1cfc9c42e3579db444910160405180910390a25050565b6000818152600160205260408120546001600160a01b0316610b6a81631d9dabef60e11b6118ac565b15610bdf57604051631d9dabef60e11b8152600481018490526001600160a01b03821690633b3b57de90602401602060405180830381865afa158015610bb4573d6000803e3d6000fd5b505050506040513d601f19601f82011682018060405250810190610bd891906131a6565b9392505050565b50919050565b610bff6001600160a01b0383166380ac58cd60e01b6118ac565b610c1c57604051630a6f7ecd60e21b815260040160405180910390fd5b600080610c5e86868080601f0160208091040260200160405190810160405280939291908181526020018383808284376000920191909152506118c892505050565b91509150610c6b81611860565b610c885760405163fc28781360e01b815260040160405180910390fd5b83600383604051610c99919061328c565b908152602001604051809103902060006101000a8154816001600160a01b0302191690836001600160a01b0316021790555080600283604051610cdc919061328c565b908152604080516020928190038301902092909255600083815260019091522080547fffffffffffffffffffffffff0000000000000000000000000000000000000000166001600160a01b038516179055505050505050565b6000838152600160205260409020546060906001600160a01b0316610d6181631674750f60e21b6118ac565b15610de357604051631674750f60e21b81526001600160a01b038216906359d1d43c90610d9690889088908890600401613156565b600060405180830381865afa158015610db3573d6000803e3d6000fd5b505050506040513d6000823e601f3d908101601f19168201604052610ddb91908101906132a8565b915050610bd8565b509392505050565b6000818152600160205260409020546060906001600160a01b0316610e1781635c98042b60e01b6118ac565b15610bdf57604051635c98042b60e01b8152600481018490526001600160a01b03821690635c98042b906024015b600060405180830381865afa158015610e62573d6000803e3d6000fd5b505050506040513d6000823e601f3d908101601f19168201604052610bd891908101906132a8565b83610e9481611860565b610e9d57600080fd5b6000858152600160205260409020546001600160a01b03166001600160a01b031663623195b0868686866040518563ffffffff1660e01b8152600401610ee694939291906132dd565b600060405180830381600087803b158015610f0057600080fd5b505af1158015610f14573d6000803e3d6000fd5b505050505050505050565b6000818152600160205260409020546060906001600160a01b0316610f4b8163691f343160e01b6118ac565b15610bdf5760405163691f343160e01b8152600481018490526001600160a01b0382169063691f343190602401610e45565b82610f8781611860565b610f9057600080fd5b6000848152600160205260409020546001600160a01b03166001600160a01b031663773722138585856040518463ffffffff1660e01b81526004016107a793929190613156565b82610fe181611860565b610fea57600080fd5b6000848152600160205260409020546001600160a01b03166001600160a01b0316638b95dd718585856040518463ffffffff1660e01b81526004016107a7939291906132fd565b60606000611042600482858761331c565b61104b91613346565b60408051808201909152600d81526c6164647228627974657333322960981b6020909101529050636262541160e11b6001600160e01b03198216016110c757600061109887878787611ad5565b604080516001600160a01b0383166020820152919250016040516020818303038152906040529250505061124d565b60408051808201909152601581527f6164647228627974657333322c75696e7432353629000000000000000000000060209091015263071a40fd60e11b6001600160e01b0319821601611199576000611123846004818861331c565b8101906111309190612cda565b915050603c810361118657600061114988888888611ad5565b905061115d816001600160a01b0316611d23565b60405160200161116d9190612e0e565b604051602081830303815290604052935050505061124d565b60608060405160200161116d9190612e0e565b60408051808201909152601481527f7465787428627974657333322c737472696e672900000000000000000000000060209091015263298b8af160e21b6001600160e01b0319821601611234573660006111f38686611d5c565b915091506000611207898985858b8b611db4565b90508060405160200161121a9190612e0e565b60405160208183030381529060405294505050505061124d565b60405163dfbcb35160e01b815260040160405180910390fd5b949350505050565b61125e83611f37565b6001600160a01b0316336001600160a01b03161461128f5760405163fc28781360e01b815260040160405180910390fd5b60009283526004602090815260408085206001600160a01b039490941685529290529120805460ff1916911515919091179055565b6000838152600160205260409020546060906001600160a01b03166112f08163547d2b4160e11b6118ac565b15610de35760405163547d2b4160e11b8152600481018690526024810185905261ffff841660448201526001600160a01b0382169063a8fa568290606401610d96565b60606000808061134585870187613376565b925092509250600080846001600160a01b0316848b8b8660405160240161136e939291906133c2565b60408051601f198184030181529181526020820180517bffffffffffffffffffffffffffffffffffffffffffffffffffffffff166001600160e01b03199094169390931790925290516113c1919061328c565b6000604051808303816000865af19150503d80600081146113fe576040519150601f19603f3d011682016040523d82523d6000602084013e611403565b606091505b5091509150811561142e578080602001905181019061142291906132a8565b9550505050505061124d565b604051631cc6a69960e11b815260040160405180910390fd5b6000818152600160205260409020546060906001600160a01b03166114738163bc1c58d160e01b6118ac565b15610bdf5760405163bc1c58d160e01b8152600481018490526001600160a01b0382169063bc1c58d190602401610e45565b60008181526001602052604081205481906001600160a01b03166114d08163c869023360e01b6118ac565b156115475760405163c869023360e01b8152600481018590526001600160a01b0382169063c8690233906024016040805180830381865afa158015611519573d6000803e3d6000fd5b505050506040513d601f19601f8201168201806040525081019061153d91906133e8565b9250925050915091565b50915091565b8261155781611860565b61156057600080fd5b6000848152600160205260409020546001600160a01b03166001600160a01b031663ce3decdc8585856040518463ffffffff1660e01b81526004016107a793929190613156565b816115b181611860565b6115ba57600080fd5b6000838152600160205260409020546001600160a01b031660405162d5fa2b60e81b8152600481018590526001600160a01b038481166024830152919091169063d5fa2b0090604401600060405180830381600087803b15801561161d57600080fd5b505af1158015611631573d6000803e3d6000fd5b50505050505050565b8261164481611860565b61164d57600080fd5b6000848152600160205260409081902054905163e59d895d60e01b8152600481018690526001600160e01b0319851660248201526001600160a01b0384811660448301529091169063e59d895d906064016107a7565b6000828152600160205260409020546060906001600160a01b03166116cf816378e5bf0360e11b6118ac565b15610926576040516378e5bf0360e11b815260048101859052602481018490526001600160a01b0382169063f1cb7e0690604401600060405180830381865afa158015611720573d6000803e3d6000fd5b505050506040513d6000823e601f3d908101601f1916820160405261091e91908101906132a8565b60006001600160e01b03198216631101d5ab60e11b148061177957506001600160e01b03198216631d9dabef60e11b145b8061179457506001600160e01b031982166378e5bf0360e11b145b806117af57506001600160e01b0319821663bc1c58d160e01b145b806117ca57506001600160e01b0319821663547d2b4160e11b145b806117e557506001600160e01b03198216635c98042b60e01b145b8061180057506001600160e01b031982166304928c6760e21b145b8061181b57506001600160e01b0319821663691f343160e01b145b8061183657506001600160e01b0319821663c869023360e01b145b8061185157506001600160e01b03198216631674750f60e21b145b80610747575061074782612065565b60008061186c83611f37565b9050336001600160a01b03821681148061124d575060008481526004602090815260408083206001600160a01b038516845290915290205460ff1661124d565b60006118b78361209a565b8015610bd85750610bd883836120cd565b8051606090600090819084906118df81600261340c565b67ffffffffffffffff8111156118f7576118f7612e99565b6040519080825280601f01601f191660200182016040528015611921576020820181803683370190505b5094506000935080840361196657600060f81b856000815181106119475761194761341f565b60200101906001600160f81b031916908160001a905350505050915091565b60001981015b82818151811061197e5761197e61341f565b01602001517fff0000000000000000000000000000000000000000000000000000000000000016601760f91b03611a24578360f81b8682600101815181106119c8576119c861341f565b60200101906001600160f81b031916908160001a905350846119f1846001840160ff881661216b565b60408051602081019390935282015260600160405160208183030381529060405280519060200120945060009350611a74565b600184019350828181518110611a3c57611a3c61341f565b602001015160f81c60f81b868260010181518110611a5c57611a5c61341f565b60200101906001600160f81b031916908160001a9053505b8015611a83576000190161196c565b5083611a9483600060ff871661216b565b6040805160208101939093528201526060016040516020818303038152906040528051906020012093508260f81b856000815181106119475761194761341f565b6000806000611ae4878761218f565b915091508115611b3257611af781610b41565b92506001600160a01b038316611b2d576000611b1482603c6116a3565b90508051600014611b2b57611b28816121c2565b93505b505b611b80565b366000366000611b428b8b6121ea565b935093509350935060028282604051611b5c929190613435565b9081526020016040518091039020549450611b798484848461225e565b9650505050505b6000818152600160205260408120546001600160a01b031690506001600160a01b038416158015611bc65750611bc66001600160a01b038216639061b92360e01b6118ac565b15611d1857604051639061b92360e01b81526001600160a01b03821690639061b92390611bfd908b908b908b908b90600401613445565b600060405180830381865afa925050508015611c3b57506040513d6000823e601f3d908101601f19168201604052611c3891908101906132a8565b60015b611d00573d808015611c69576040519150601f19603f3d011682016040523d82523d6000602084013e611c6e565b606091505b506000806000806000611c8f866004808951611c8a919061346c565b61233e565b806020019051810190611ca2919061348f565b9450945094509450945030848463b4a8580160e01b888686604051602001611ccc939291906135c2565b60408051601f1981840301815290829052630556f18360e41b8252611cf795949392916004016135f3565b60405180910390fd5b80806020019051810190611d1491906131a6565b9450505b505050949350505050565b6040805160148082528183019092526060916020820181803683375050506c010000000000000000000000009290920260208301525090565b366000604481611d6d82602061340c565b90506000611d7d8684818a61331c565b810190611d8a9190612b89565b9050868287611d99848361340c565b92611da69392919061331c565b945094505050509250929050565b6060600080611dc3898961218f565b915091508115611ddf57611dd8818888610d35565b9250611e2f565b366000366000611def8d8d6121ea565b935093509350935060028282604051611e09929190613435565b9081526020016040518091039020549450611e28848484848f8f612466565b9650505050505b6000818152600160205260408120546001600160a01b0316905083516000148015611e6f5750611e6f6001600160a01b038216639061b92360e01b6118ac565b15611f2a57604051639061b92360e01b81526001600160a01b03821690639061b92390611ea6908d908d908b908b90600401613445565b600060405180830381865afa925050508015611ee457506040513d6000823e601f3d908101601f19168201604052611ee191908101906132a8565b60015b611f12573d808015611c69576040519150601f19603f3d011682016040523d82523d6000602084013e611c6e565b80806020019051810190611f2691906132a8565b9450505b5050509695505050505050565b6040516302571be360e01b81526004810182905260009081906001600160a01b037f000000000000000000000000000000000000000000000000000000000000000016906302571be390602401602060405180830381865afa158015611fa1573d6000803e3d6000fd5b505050506040513d601f19601f82011682018060405250810190611fc591906131a6565b90507f00000000000000000000000000000000000000000000000000000000000000006001600160a01b0316816001600160a01b031603610747576040516331a9108f60e11b8152600481018490527f00000000000000000000000000000000000000000000000000000000000000006001600160a01b031690636352211e90602401602060405180830381865afa158015610bb4573d6000803e3d6000fd5b60006001600160e01b0319821663d700ff3360e01b148061074757506301ffc9a760e01b6001600160e01b0319831614610747565b60006120ad826301ffc9a760e01b6120cd565b801561074757506120c6826001600160e01b03196120cd565b1592915050565b604080516001600160e01b03198316602480830191909152825180830390910181526044909101909152602080820180517bffffffffffffffffffffffffffffffffffffffffffffffffffffffff166301ffc9a760e01b178152825160009392849283928392918391908a617530fa92503d91506000519050828015612154575060208210155b80156121605750600081115b979650505050505050565b825160009061217a838561340c565b111561218557600080fd5b5091016020012090565b600080600284846040516121a4929190613435565b90815260405190819003602001902054801515925090509250929050565b600081516014146121d257600080fd5b50602001516c01000000000000000000000000900490565b36600036600080868660008181106122045761220461341f565b919091013560f81c915087905060018761221e8483613693565b60ff169261222e9392919061331c565b888861223b856001613693565b60ff1690809261224d9392919061331c565b929a91995097509095509350505050565b60008060038484604051612273929190613435565b908152604051908190036020019020546001600160a01b031690508061229d57600091505061124d565b6000806122aa8888612737565b91509150816122bf576000935050505061124d565b6040516331a9108f60e11b8152600481018290526000906001600160a01b03851690636352211e90602401602060405180830381865afa925050508015612323575060408051601f3d908101601f19168201909252612320918101906131a6565b60015b61232f57506000612332565b90505b98975050505050505050565b60608161234c81601f61340c565b101561239a5760405162461bcd60e51b815260206004820152600e60248201527f736c6963655f6f766572666c6f770000000000000000000000000000000000006044820152606401611cf7565b6123a4828461340c565b845110156123f45760405162461bcd60e51b815260206004820152601160248201527f736c6963655f6f75744f66426f756e64730000000000000000000000000000006044820152606401611cf7565b606082158015612413576040519150600082526020820160405261245d565b6040519150601f8416801560200281840101858101878315602002848b0101015b8183101561244c578051835260209283019201612434565b5050858452601f01601f1916604052505b50949350505050565b606060006003868660405161247c929190613435565b908152604051908190036020019020546001600160a01b03169050806124b257505060408051602081019091526000815261272d565b6000806124bf8a8a612737565b91509150816124e25760405180602001604052806000815250935050505061272d565b6040516331a9108f60e11b8152600481018290526001600160a01b03841690636352211e90602401602060405180830381865afa925050508015612543575060408051601f3d908101601f19168201909252612540918101906131a6565b60015b6125615760405180602001604052806000815250935050505061272d565b506125da6040518060400160405280600681526020017f617661746172000000000000000000000000000000000000000000000000000081525087878080601f01602080910402602001604051908101604052809392919081815260200183838082843760009201919091525092939250506128169050565b15612624576125f1836001600160a01b031661282c565b6125fa82612842565b60405160200161260b9291906136ac565b604051602081830303815290604052935050505061272d565b612682604051806040016040528060038152602001621d5c9b60ea1b81525087878080601f01602080910402602001604051908101604052809392919081815260200183838082843760009201919091525092939250506128169050565b156127175760405163c87b56dd60e01b8152600481018290526060906001600160a01b0385169063c87b56dd90602401600060405180830381865afa9250505080156126f057506040513d6000823e601f3d908101601f191682016040526126ed91908101906132a8565b60015b612709575060408051602081019091526000815261270c565b90505b935061272d92505050565b6040518060200160405280600081525093505050505b9695505050505050565b600080805b8381101561280a57600360fc1b85858381811061275b5761275b61341f565b9050013560f81c60f81b6001600160f81b03191610806127a35750603960f81b85858381811061278d5761278d61341f565b9050013560f81c60f81b6001600160f81b031916115b156127b55760008092509250506109de565b600060308686848181106127cb576127cb61341f565b6127dc9392013560f81c905061346c565b9050806127ea84600a613711565b6127f4919061340c565b925050808061280290613728565b91505061273c565b60019250509250929050565b8051602091820120825192909101919091201490565b60606107476001600160a01b03831660146128d5565b6060600061284f83612a71565b600101905060008167ffffffffffffffff81111561286f5761286f612e99565b6040519080825280601f01601f191660200182016040528015612899576020820181803683370190505b5090508181016020015b600019016f181899199a1a9b1b9c1cb0b131b232b360811b600a86061a8153600a85049450846128a357509392505050565b606060006128e4836002613711565b6128ef90600261340c565b67ffffffffffffffff81111561290757612907612e99565b6040519080825280601f01601f191660200182016040528015612931576020820181803683370190505b509050600360fc1b8160008151811061294c5761294c61341f565b60200101906001600160f81b031916908160001a905350600f60fb1b8160018151811061297b5761297b61341f565b60200101906001600160f81b031916908160001a905350600061299f846002613711565b6129aa90600161340c565b90505b6001811115612a22576f181899199a1a9b1b9c1cb0b131b232b360811b85600f16601081106129de576129de61341f565b1a60f81b8282815181106129f4576129f461341f565b60200101906001600160f81b031916908160001a90535060049490941c93612a1b81613741565b90506129ad565b508315610bd85760405162461bcd60e51b815260206004820181905260248201527f537472696e67733a20686578206c656e67746820696e73756666696369656e746044820152606401611cf7565b6000807a184f03e93ff9f4daa797ed6e38ed64bf6a1f0100000000000000008310612aba577a184f03e93ff9f4daa797ed6e38ed64bf6a1f010000000000000000830492506040015b6d04ee2d6d415b85acef81000000008310612ae6576d04ee2d6d415b85acef8100000000830492506020015b662386f26fc100008310612b0457662386f26fc10000830492506010015b6305f5e1008310612b1c576305f5e100830492506008015b6127108310612b3057612710830492506004015b60648310612b42576064830492506002015b600a83106107475760010192915050565b6001600160e01b031981168114612b6957600080fd5b50565b600060208284031215612b7e57600080fd5b8135610bd881612b53565b600060208284031215612b9b57600080fd5b5035919050565b60008083601f840112612bb457600080fd5b50813567ffffffffffffffff811115612bcc57600080fd5b6020830191508360208285010111156109de57600080fd5b600080600060408486031215612bf957600080fd5b83359250602084013567ffffffffffffffff811115612c1757600080fd5b612c2386828701612ba2565b9497909650939450505050565b600080600080600060608688031215612c4857600080fd5b85359450602086013567ffffffffffffffff80821115612c6757600080fd5b612c7389838a01612ba2565b90965094506040880135915080821115612c8c57600080fd5b50612c9988828901612ba2565b969995985093965092949392505050565b60008060408385031215612cbd57600080fd5b823591506020830135612ccf81612b53565b809150509250929050565b60008060408385031215612ced57600080fd5b50508035926020909101359150565b60005b83811015612d17578181015183820152602001612cff565b50506000910152565b60008151808452612d38816020860160208601612cfc565b601f01601f19169290920160200192915050565b82815260406020820152600061124d6040830184612d20565b600080600060608486031215612d7a57600080fd5b505081359360208301359350604090920135919050565b6001600160a01b0381168114612b6957600080fd5b60008060008060608587031215612dbc57600080fd5b843567ffffffffffffffff811115612dd357600080fd5b612ddf87828801612ba2565b9095509350506020850135612df381612d91565b91506040850135612e0381612d91565b939692955090935050565b602081526000610bd86020830184612d20565b60008060408385031215612e3457600080fd5b823591506020830135612ccf81612d91565b60008060008060608587031215612e5c57600080fd5b8435935060208501359250604085013567ffffffffffffffff811115612e8157600080fd5b612e8d87828801612ba2565b95989497509550505050565b634e487b7160e01b600052604160045260246000fd5b604051601f8201601f1916810167ffffffffffffffff81118282101715612ed857612ed8612e99565b604052919050565b600067ffffffffffffffff821115612efa57612efa612e99565b50601f01601f191660200190565b600082601f830112612f1957600080fd5b8135612f2c612f2782612ee0565b612eaf565b818152846020838601011115612f4157600080fd5b816020850160208301376000918101602001919091529392505050565b600080600060608486031215612f7357600080fd5b8335925060208401359150604084013567ffffffffffffffff811115612f9857600080fd5b612fa486828701612f08565b9150509250925092565b60008060008060408587031215612fc457600080fd5b843567ffffffffffffffff80821115612fdc57600080fd5b612fe888838901612ba2565b9096509450602087013591508082111561300157600080fd5b50612e8d87828801612ba2565b60008060006060848603121561302357600080fd5b83359250602084013561303581612d91565b91506040840135801515811461304a57600080fd5b809150509250925092565b60006020828403121561306757600080fd5b813567ffffffffffffffff81111561307e57600080fd5b61124d84828501612f08565b60008060006060848603121561309f57600080fd5b8335925060208401359150604084013561ffff8116811461304a57600080fd5b6000806000606084860312156130d457600080fd5b83356130df81612d91565b925060208401359150604084013561304a81612d91565b60008060006060848603121561310b57600080fd5b83359250602084013561311d81612b53565b9150604084013561304a81612d91565b81835281816020850137506000828201602090810191909152601f909101601f19169091010190565b83815260406020820152600061317060408301848661312d565b95945050505050565b85815260606020820152600061319360608301868861312d565b828103604084015261233281858761312d565b6000602082840312156131b857600080fd5b8151610bd881612d91565b600082601f8301126131d457600080fd5b81516131e2612f2782612ee0565b8181528460208386010111156131f757600080fd5b61124d826020830160208701612cfc565b6000806040838503121561321b57600080fd5b82519150602083015167ffffffffffffffff81111561323957600080fd5b613245858286016131c3565b9150509250929050565b634e487b7160e01b600052601160045260246000fd5b600067ffffffffffffffff8083168181036132825761328261324f565b6001019392505050565b6000825161329e818460208701612cfc565b9190910192915050565b6000602082840312156132ba57600080fd5b815167ffffffffffffffff8111156132d157600080fd5b61124d848285016131c3565b84815283602082015260606040820152600061272d60608301848661312d565b8381528260208201526060604082015260006131706060830184612d20565b6000808585111561332c57600080fd5b8386111561333957600080fd5b5050820193919092039150565b6001600160e01b0319813581811691600485101561336e5780818660040360031b1b83161692505b505092915050565b60008060006060848603121561338b57600080fd5b833561339681612d91565b925060208401356133a681612b53565b9150604084013567ffffffffffffffff811115612f9857600080fd5b6040815260006133d660408301858761312d565b828103602084015261272d8185612d20565b600080604083850312156133fb57600080fd5b505080516020909101519092909150565b808201808211156107475761074761324f565b634e487b7160e01b600052603260045260246000fd5b8183823760009101908152919050565b60408152600061345960408301868861312d565b828103602084015261216081858761312d565b818103818111156107475761074761324f565b805161348a81612b53565b919050565b600080600080600060a086880312156134a757600080fd5b85516134b281612d91565b8095505060208087015167ffffffffffffffff808211156134d257600080fd5b818901915089601f8301126134e657600080fd5b8151818111156134f8576134f8612e99565b8060051b613507858201612eaf565b918252838101850191858101908d84111561352157600080fd5b86860192505b8383101561355d5782518581111561353f5760008081fd5b61354d8f89838a01016131c3565b8352509186019190860190613527565b60408d0151909a5095505050508083111561357757600080fd5b6135838a848b016131c3565b955061359160608a0161347f565b945060808901519250808311156135a757600080fd5b50506135b5888289016131c3565b9150509295509295909350565b6001600160a01b038416815263ffffffff60e01b831660208201526060604082015260006131706060830184612d20565b600060a082016001600160a01b0388168352602060a08185015281885180845260c08601915060c08160051b8701019350828a0160005b828110156136585760bf19888703018452613646868351612d20565b9550928401929084019060010161362a565b5050505050828103604084015261366f8187612d20565b6001600160e01b031986166060850152905082810360808401526123328185612d20565b60ff81811683821601908111156107475761074761324f565b7f6569703135353a312f6572633732313a000000000000000000000000000000008152600083516136e4816010850160208801612cfc565b602f60f81b6010918401918201528351613705816011840160208801612cfc565b01601101949350505050565b80820281158282048414176107475761074761324f565b60006001820161373a5761373a61324f565b5060010190565b6000816137505761375061324f565b50600019019056fea164736f6c6343000811000a",
  "libraries": {
    "ERC165Checker": "0xE868e957bb5F053e84D2DC0C047776E0331E6218",
    "StringParsing": "0x781E147ecE78D418635A6Ce630fe73B291Fe394e",
    "Strings": "0x2F14B1439837DD741959AB598F907d8149E2e525",
    "NameEncoder": "0xF42832b9758B65e97fc7Cc74b902fA9913B296AA",
    "ENSNameHash": "0x667d1a4A6d18a4D107FCB7543aA8691fE1C4fF23",
    "ENSByteUtils": "0x62a47aFC54D58873e2799AAF259560203Ff728E5",
    "ENSParentName": "0x53FCA1B491D1f4Ce9be997636a90306D01DeAd06"
  },
  "devdoc": {
    "kind": "dev",
    "methods": {
      "ABI(bytes32,uint256)": {
        "params": {
          "contentTypes": "A bitwise OR of the ABI formats accepted by the caller.",
          "node": "The ENS node to query"
        },
        "returns": {
          "a": "contentType The content type of the return value",
          "b": "data The ABI data"
        }
      },
      "addr(bytes32)": {
        "params": {
          "node": "The ENS node to query."
        },
        "returns": {
          "result": "The associated address."
        }
      },
      "clearRecords(bytes32)": {
        "params": {
          "node": "The node to update."
        }
      },
      "contenthash(bytes32)": {
        "params": {
          "node": "The ENS node to query."
        },
        "returns": {
          "result": "The associated contenthash."
        }
      },
      "dnsRecord(bytes32,bytes32,uint16)": {
        "params": {
          "name": "the keccak-256 hash of the fully-qualified name for which to fetch the record",
          "node": "the namehash of the node for which to fetch the record",
          "resource": "the ID of the resource as per https://en.wikipedia.org/wiki/List_of_DNS_record_types"
        },
        "returns": {
          "result": "the DNS record in wire format if present, otherwise empty"
        }
      },
      "interfaceImplementer(bytes32,bytes4)": {
        "params": {
          "interfaceID": "The EIP 165 interface ID to check for.",
          "node": "The ENS node to query."
        },
        "returns": {
          "result": "The address that implements this interface, or 0 if the interface is unsupported."
        }
      },
      "name(bytes32)": {
        "params": {
          "node": "The ENS node to query."
        },
        "returns": {
          "result": "The associated name."
        }
      },
      "pubkey(bytes32)": {
        "params": {
          "node": "The ENS node to query"
        },
        "returns": {
          "x": "The X coordinate of the curve point for the public key.",
          "y": "The Y coordinate of the curve point for the public key."
        }
      },
      "text(bytes32,string)": {
        "params": {
          "key": "The text data key to query.",
          "node": "The ENS node to query."
        },
        "returns": {
          "result": "The associated text data."
        }
      },
      "zonehash(bytes32)": {
        "params": {
          "node": "The ENS node to query."
        },
        "returns": {
          "result": "The associated contenthash."
        }
      }
    },
    "version": 1
  },
  "userdoc": {
    "kind": "user",
    "methods": {
      "ABI(bytes32,uint256)": {
        "notice": "Returns the ABI associated with an ENS node. Defined in EIP205."
      },
      "addr(bytes32)": {
        "notice": "Returns the address associated with an ENS node."
      },
      "clearRecords(bytes32)": {
        "notice": "Increments the record version associated with an ENS node. May only be called by the owner of that node in the ENS registry."
      },
      "contenthash(bytes32)": {
        "notice": "Returns the contenthash associated with an ENS node."
      },
      "dnsRecord(bytes32,bytes32,uint16)": {
        "notice": "Obtain a DNS record."
      },
      "interfaceImplementer(bytes32,bytes4)": {
        "notice": "Returns the address of a contract that implements the specified interface for this name. If an implementer has not been set for this interfaceID and name, the resolver will query the contract at `addr()`. If `addr()` is set, a contract exists at that address, and that contract implements EIP165 and returns `true` for the specified interfaceID, its address will be returned."
      },
      "name(bytes32)": {
        "notice": "Returns the name associated with an ENS node, for reverse records. Defined in EIP181."
      },
      "pubkey(bytes32)": {
        "notice": "Returns the SECP256k1 public key associated with an ENS node. Defined in EIP 619."
      },
      "text(bytes32,string)": {
        "notice": "Returns the text data associated with an ENS node and key."
      },
      "zonehash(bytes32)": {
        "notice": "zonehash obtains the hash for the zone."
      }
    },
    "version": 1
  },
  "storageLayout": {
    "storage": [
      {
        "astId": 243,
        "contract": "contracts/ensWildcardResolvers/Erc721WildcardResolver.sol:Erc721WildcardResolver",
        "label": "recordVersions",
        "offset": 0,
        "slot": "0",
        "type": "t_mapping(t_bytes32,t_uint64)"
      },
      {
        "astId": 9955,
        "contract": "contracts/ensWildcardResolvers/Erc721WildcardResolver.sol:Erc721WildcardResolver",
        "label": "_passthroughTargets",
        "offset": 0,
        "slot": "1",
        "type": "t_mapping(t_bytes32,t_address)"
      },
      {
        "astId": 10732,
        "contract": "contracts/ensWildcardResolvers/Erc721WildcardResolver.sol:Erc721WildcardResolver",
        "label": "parentEnsNodes",
        "offset": 0,
        "slot": "2",
        "type": "t_mapping(t_bytes_memory_ptr,t_bytes32)"
      },
      {
        "astId": 9441,
        "contract": "contracts/ensWildcardResolvers/Erc721WildcardResolver.sol:Erc721WildcardResolver",
        "label": "tokens",
        "offset": 0,
        "slot": "3",
        "type": "t_mapping(t_bytes_memory_ptr,t_contract(IERC721)4490)"
      },
      {
        "astId": 9447,
        "contract": "contracts/ensWildcardResolvers/Erc721WildcardResolver.sol:Erc721WildcardResolver",
        "label": "approvedDelegates",
        "offset": 0,
        "slot": "4",
        "type": "t_mapping(t_bytes32,t_mapping(t_address,t_bool))"
      }
    ],
    "types": {
      "t_address": {
        "encoding": "inplace",
        "label": "address",
        "numberOfBytes": "20"
      },
      "t_bool": {
        "encoding": "inplace",
        "label": "bool",
        "numberOfBytes": "1"
      },
      "t_bytes32": {
        "encoding": "inplace",
        "label": "bytes32",
        "numberOfBytes": "32"
      },
      "t_bytes_memory_ptr": {
        "encoding": "bytes",
        "label": "bytes",
        "numberOfBytes": "32"
      },
      "t_contract(IERC721)4490": {
        "encoding": "inplace",
        "label": "contract IERC721",
        "numberOfBytes": "20"
      },
      "t_mapping(t_address,t_bool)": {
        "encoding": "mapping",
        "key": "t_address",
        "label": "mapping(address => bool)",
        "numberOfBytes": "32",
        "value": "t_bool"
      },
      "t_mapping(t_bytes32,t_address)": {
        "encoding": "mapping",
        "key": "t_bytes32",
        "label": "mapping(bytes32 => address)",
        "numberOfBytes": "32",
        "value": "t_address"
      },
      "t_mapping(t_bytes32,t_mapping(t_address,t_bool))": {
        "encoding": "mapping",
        "key": "t_bytes32",
        "label": "mapping(bytes32 => mapping(address => bool))",
        "numberOfBytes": "32",
        "value": "t_mapping(t_address,t_bool)"
      },
      "t_mapping(t_bytes32,t_uint64)": {
        "encoding": "mapping",
        "key": "t_bytes32",
        "label": "mapping(bytes32 => uint64)",
        "numberOfBytes": "32",
        "value": "t_uint64"
      },
      "t_mapping(t_bytes_memory_ptr,t_bytes32)": {
        "encoding": "mapping",
        "key": "t_bytes_memory_ptr",
        "label": "mapping(bytes => bytes32)",
        "numberOfBytes": "32",
        "value": "t_bytes32"
      },
      "t_mapping(t_bytes_memory_ptr,t_contract(IERC721)4490)": {
        "encoding": "mapping",
        "key": "t_bytes_memory_ptr",
        "label": "mapping(bytes => contract IERC721)",
        "numberOfBytes": "32",
        "value": "t_contract(IERC721)4490"
      },
      "t_uint64": {
        "encoding": "inplace",
        "label": "uint64",
        "numberOfBytes": "8"
      }
    }
  }
}