{
  "address": "0x4478277cA571aCE7286A99255558C7C19D22b0d3",
  "abi": [
    {
      "inputs": [
        {
          "internalType": "contract ENS",
          "name": "_ens",
          "type": "address"
        },
        {
          "internalType": "contract INameWrapper",
          "name": "wrapperAddress",
          "type": "address"
        }
      ],
      "stateMutability": "nonpayable",
      "type": "constructor"
    },
    {
      "inputs": [],
      "name": "CallerNotAuthorised",
      "type": "error"
    },
    {
      "inputs": [],
      "name": "InvalidTokenContract",
      "type": "error"
    },
    {
      "inputs": [],
      "name": "RecordTypeNotSupported",
      "type": "error"
    },
    {
      "anonymous": false,
      "inputs": [
        {
          "indexed": true,
          "internalType": "bytes32",
          "name": "node",
          "type": "bytes32"
        },
        {
          "indexed": true,
          "internalType": "uint256",
          "name": "contentType",
          "type": "uint256"
        }
      ],
      "name": "ABIChanged",
      "type": "event"
    },
    {
      "anonymous": false,
      "inputs": [
        {
          "indexed": true,
          "internalType": "bytes32",
          "name": "node",
          "type": "bytes32"
        },
        {
          "indexed": false,
          "internalType": "address",
          "name": "a",
          "type": "address"
        }
      ],
      "name": "AddrChanged",
      "type": "event"
    },
    {
      "anonymous": false,
      "inputs": [
        {
          "indexed": true,
          "internalType": "bytes32",
          "name": "node",
          "type": "bytes32"
        },
        {
          "indexed": false,
          "internalType": "uint256",
          "name": "coinType",
          "type": "uint256"
        },
        {
          "indexed": false,
          "internalType": "bytes",
          "name": "newAddress",
          "type": "bytes"
        }
      ],
      "name": "AddressChanged",
      "type": "event"
    },
    {
      "anonymous": false,
      "inputs": [
        {
          "indexed": true,
          "internalType": "bytes32",
          "name": "node",
          "type": "bytes32"
        },
        {
          "indexed": false,
          "internalType": "bytes",
          "name": "hash",
          "type": "bytes"
        }
      ],
      "name": "ContenthashChanged",
      "type": "event"
    },
    {
      "anonymous": false,
      "inputs": [
        {
          "indexed": true,
          "internalType": "bytes32",
          "name": "node",
          "type": "bytes32"
        },
        {
          "indexed": false,
          "internalType": "bytes",
          "name": "name",
          "type": "bytes"
        },
        {
          "indexed": false,
          "internalType": "uint16",
          "name": "resource",
          "type": "uint16"
        },
        {
          "indexed": false,
          "internalType": "bytes",
          "name": "record",
          "type": "bytes"
        }
      ],
      "name": "DNSRecordChanged",
      "type": "event"
    },
    {
      "anonymous": false,
      "inputs": [
        {
          "indexed": true,
          "internalType": "bytes32",
          "name": "node",
          "type": "bytes32"
        },
        {
          "indexed": false,
          "internalType": "bytes",
          "name": "name",
          "type": "bytes"
        },
        {
          "indexed": false,
          "internalType": "uint16",
          "name": "resource",
          "type": "uint16"
        }
      ],
      "name": "DNSRecordDeleted",
      "type": "event"
    },
    {
      "anonymous": false,
      "inputs": [
        {
          "indexed": true,
          "internalType": "bytes32",
          "name": "node",
          "type": "bytes32"
        },
        {
          "indexed": false,
          "internalType": "bytes",
          "name": "lastzonehash",
          "type": "bytes"
        },
        {
          "indexed": false,
          "internalType": "bytes",
          "name": "zonehash",
          "type": "bytes"
        }
      ],
      "name": "DNSZonehashChanged",
      "type": "event"
    },
    {
      "anonymous": false,
      "inputs": [
        {
          "indexed": true,
          "internalType": "bytes32",
          "name": "node",
          "type": "bytes32"
        },
        {
          "indexed": true,
          "internalType": "bytes4",
          "name": "interfaceID",
          "type": "bytes4"
        },
        {
          "indexed": false,
          "internalType": "address",
          "name": "implementer",
          "type": "address"
        }
      ],
      "name": "InterfaceChanged",
      "type": "event"
    },
    {
      "anonymous": false,
      "inputs": [
        {
          "indexed": true,
          "internalType": "bytes32",
          "name": "node",
          "type": "bytes32"
        },
        {
          "indexed": false,
          "internalType": "string",
          "name": "name",
          "type": "string"
        }
      ],
      "name": "NameChanged",
      "type": "event"
    },
    {
      "anonymous": false,
      "inputs": [
        {
          "indexed": true,
          "internalType": "bytes32",
          "name": "node",
          "type": "bytes32"
        },
        {
          "indexed": false,
          "internalType": "bytes32",
          "name": "x",
          "type": "bytes32"
        },
        {
          "indexed": false,
          "internalType": "bytes32",
          "name": "y",
          "type": "bytes32"
        }
      ],
      "name": "PubkeyChanged",
      "type": "event"
    },
    {
      "anonymous": false,
      "inputs": [
        {
          "indexed": true,
          "internalType": "bytes32",
          "name": "node",
          "type": "bytes32"
        },
        {
          "indexed": true,
          "internalType": "string",
          "name": "indexedKey",
          "type": "string"
        },
        {
          "indexed": false,
          "internalType": "string",
          "name": "key",
          "type": "string"
        },
        {
          "indexed": false,
          "internalType": "string",
          "name": "value",
          "type": "string"
        }
      ],
      "name": "TextChanged",
      "type": "event"
    },
    {
      "anonymous": false,
      "inputs": [
        {
          "indexed": true,
          "internalType": "bytes32",
          "name": "node",
          "type": "bytes32"
        },
        {
          "indexed": false,
          "internalType": "uint64",
          "name": "newVersion",
          "type": "uint64"
        }
      ],
      "name": "VersionChanged",
      "type": "event"
    },
    {
      "inputs": [
        {
          "internalType": "bytes32",
          "name": "node",
          "type": "bytes32"
        },
        {
          "internalType": "uint256",
          "name": "contentTypes",
          "type": "uint256"
        }
      ],
      "name": "ABI",
      "outputs": [
        {
          "internalType": "uint256",
          "name": "",
          "type": "uint256"
        },
        {
          "internalType": "bytes",
          "name": "",
          "type": "bytes"
        }
      ],
      "stateMutability": "view",
      "type": "function"
    },
    {
      "inputs": [],
      "name": "RESOLVER_SIGNATURE__ADDR",
      "outputs": [
        {
          "internalType": "bytes4",
          "name": "",
          "type": "bytes4"
        }
      ],
      "stateMutability": "view",
      "type": "function"
    },
    {
      "inputs": [],
      "name": "RESOLVER_SIGNATURE__ADDR_WITH_COINTYPE",
      "outputs": [
        {
          "internalType": "bytes4",
          "name": "",
          "type": "bytes4"
        }
      ],
      "stateMutability": "view",
      "type": "function"
    },
    {
      "inputs": [],
      "name": "RESOLVER_SIGNATURE__TEXT",
      "outputs": [
        {
          "internalType": "bytes4",
          "name": "",
          "type": "bytes4"
        }
      ],
      "stateMutability": "view",
      "type": "function"
    },
    {
      "inputs": [
        {
          "internalType": "bytes32",
          "name": "node",
          "type": "bytes32"
        }
      ],
      "name": "addr",
      "outputs": [
        {
          "internalType": "address payable",
          "name": "",
          "type": "address"
        }
      ],
      "stateMutability": "view",
      "type": "function"
    },
    {
      "inputs": [
        {
          "internalType": "bytes32",
          "name": "node",
          "type": "bytes32"
        },
        {
          "internalType": "uint256",
          "name": "coinType",
          "type": "uint256"
        }
      ],
      "name": "addr",
      "outputs": [
        {
          "internalType": "bytes",
          "name": "",
          "type": "bytes"
        }
      ],
      "stateMutability": "view",
      "type": "function"
    },
    {
      "inputs": [
        {
          "internalType": "bytes32",
          "name": "",
          "type": "bytes32"
        },
        {
          "internalType": "address",
          "name": "",
          "type": "address"
        }
      ],
      "name": "approvedDelegates",
      "outputs": [
        {
          "internalType": "bool",
          "name": "",
          "type": "bool"
        }
      ],
      "stateMutability": "view",
      "type": "function"
    },
    {
      "inputs": [
        {
          "internalType": "bytes32",
          "name": "node",
          "type": "bytes32"
        }
      ],
      "name": "clearRecords",
      "outputs": [],
      "stateMutability": "nonpayable",
      "type": "function"
    },
    {
      "inputs": [
        {
          "internalType": "bytes32",
          "name": "node",
          "type": "bytes32"
        }
      ],
      "name": "contenthash",
      "outputs": [
        {
          "internalType": "bytes",
          "name": "",
          "type": "bytes"
        }
      ],
      "stateMutability": "view",
      "type": "function"
    },
    {
      "inputs": [
        {
          "internalType": "bytes32",
          "name": "node",
          "type": "bytes32"
        },
        {
          "internalType": "bytes32",
          "name": "name",
          "type": "bytes32"
        },
        {
          "internalType": "uint16",
          "name": "resource",
          "type": "uint16"
        }
      ],
      "name": "dnsRecord",
      "outputs": [
        {
          "internalType": "bytes",
          "name": "",
          "type": "bytes"
        }
      ],
      "stateMutability": "view",
      "type": "function"
    },
    {
      "inputs": [],
      "name": "ens",
      "outputs": [
        {
          "internalType": "contract ENS",
          "name": "",
          "type": "address"
        }
      ],
      "stateMutability": "view",
      "type": "function"
    },
    {
      "inputs": [
        {
          "internalType": "bytes32",
          "name": "node",
          "type": "bytes32"
        },
        {
          "internalType": "bytes32",
          "name": "name",
          "type": "bytes32"
        }
      ],
      "name": "hasDNSRecords",
      "outputs": [
        {
          "internalType": "bool",
          "name": "",
          "type": "bool"
        }
      ],
      "stateMutability": "view",
      "type": "function"
    },
    {
      "inputs": [
        {
          "internalType": "bytes32",
          "name": "node",
          "type": "bytes32"
        },
        {
          "internalType": "bytes4",
          "name": "interfaceID",
          "type": "bytes4"
        }
      ],
      "name": "interfaceImplementer",
      "outputs": [
        {
          "internalType": "address",
          "name": "",
          "type": "address"
        }
      ],
      "stateMutability": "view",
      "type": "function"
    },
    {
      "inputs": [
        {
          "internalType": "bytes32",
          "name": "node",
          "type": "bytes32"
        }
      ],
      "name": "name",
      "outputs": [
        {
          "internalType": "string",
          "name": "",
          "type": "string"
        }
      ],
      "stateMutability": "view",
      "type": "function"
    },
    {
      "inputs": [],
      "name": "nameWrapper",
      "outputs": [
        {
          "internalType": "contract INameWrapper",
          "name": "",
          "type": "address"
        }
      ],
      "stateMutability": "view",
      "type": "function"
    },
    {
      "inputs": [
        {
          "internalType": "bytes",
          "name": "",
          "type": "bytes"
        }
      ],
      "name": "parentEnsNodes",
      "outputs": [
        {
          "internalType": "bytes32",
          "name": "",
          "type": "bytes32"
        }
      ],
      "stateMutability": "view",
      "type": "function"
    },
    {
      "inputs": [
        {
          "internalType": "bytes32",
          "name": "node",
          "type": "bytes32"
        }
      ],
      "name": "pubkey",
      "outputs": [
        {
          "internalType": "bytes32",
          "name": "x",
          "type": "bytes32"
        },
        {
          "internalType": "bytes32",
          "name": "y",
          "type": "bytes32"
        }
      ],
      "stateMutability": "view",
      "type": "function"
    },
    {
      "inputs": [
        {
          "internalType": "bytes32",
          "name": "",
          "type": "bytes32"
        }
      ],
      "name": "recordVersions",
      "outputs": [
        {
          "internalType": "uint64",
          "name": "",
          "type": "uint64"
        }
      ],
      "stateMutability": "view",
      "type": "function"
    },
    {
      "inputs": [
        {
          "internalType": "bytes",
          "name": "dnsEncodedName",
          "type": "bytes"
        },
        {
          "internalType": "bytes",
          "name": "resolverCalldata",
          "type": "bytes"
        }
      ],
      "name": "resolve",
      "outputs": [
        {
          "internalType": "bytes",
          "name": "",
          "type": "bytes"
        }
      ],
      "stateMutability": "view",
      "type": "function"
    },
    {
      "inputs": [
        {
          "internalType": "bytes32",
          "name": "node",
          "type": "bytes32"
        },
        {
          "internalType": "uint256",
          "name": "contentType",
          "type": "uint256"
        },
        {
          "internalType": "bytes",
          "name": "data",
          "type": "bytes"
        }
      ],
      "name": "setABI",
      "outputs": [],
      "stateMutability": "nonpayable",
      "type": "function"
    },
    {
      "inputs": [
        {
          "internalType": "bytes32",
          "name": "node",
          "type": "bytes32"
        },
        {
          "internalType": "uint256",
          "name": "coinType",
          "type": "uint256"
        },
        {
          "internalType": "bytes",
          "name": "a",
          "type": "bytes"
        }
      ],
      "name": "setAddr",
      "outputs": [],
      "stateMutability": "nonpayable",
      "type": "function"
    },
    {
      "inputs": [
        {
          "internalType": "bytes32",
          "name": "node",
          "type": "bytes32"
        },
        {
          "internalType": "address",
          "name": "a",
          "type": "address"
        }
      ],
      "name": "setAddr",
      "outputs": [],
      "stateMutability": "nonpayable",
      "type": "function"
    },
    {
      "inputs": [
        {
          "internalType": "bytes32",
          "name": "node",
          "type": "bytes32"
        },
        {
          "internalType": "bytes",
          "name": "hash",
          "type": "bytes"
        }
      ],
      "name": "setContenthash",
      "outputs": [],
      "stateMutability": "nonpayable",
      "type": "function"
    },
    {
      "inputs": [
        {
          "internalType": "bytes32",
          "name": "node",
          "type": "bytes32"
        },
        {
          "internalType": "bytes",
          "name": "data",
          "type": "bytes"
        }
      ],
      "name": "setDNSRecords",
      "outputs": [],
      "stateMutability": "nonpayable",
      "type": "function"
    },
    {
      "inputs": [
        {
          "internalType": "bytes32",
          "name": "node",
          "type": "bytes32"
        },
        {
          "internalType": "address",
          "name": "delegate",
          "type": "address"
        },
        {
          "internalType": "bool",
          "name": "approved",
          "type": "bool"
        }
      ],
      "name": "setDelegate",
      "outputs": [],
      "stateMutability": "nonpayable",
      "type": "function"
    },
    {
      "inputs": [
        {
          "internalType": "bytes32",
          "name": "node",
          "type": "bytes32"
        },
        {
          "internalType": "bytes4",
          "name": "interfaceID",
          "type": "bytes4"
        },
        {
          "internalType": "address",
          "name": "implementer",
          "type": "address"
        }
      ],
      "name": "setInterface",
      "outputs": [],
      "stateMutability": "nonpayable",
      "type": "function"
    },
    {
      "inputs": [
        {
          "internalType": "bytes32",
          "name": "node",
          "type": "bytes32"
        },
        {
          "internalType": "string",
          "name": "newName",
          "type": "string"
        }
      ],
      "name": "setName",
      "outputs": [],
      "stateMutability": "nonpayable",
      "type": "function"
    },
    {
      "inputs": [
        {
          "internalType": "bytes32",
          "name": "node",
          "type": "bytes32"
        },
        {
          "internalType": "bytes32",
          "name": "x",
          "type": "bytes32"
        },
        {
          "internalType": "bytes32",
          "name": "y",
          "type": "bytes32"
        }
      ],
      "name": "setPubkey",
      "outputs": [],
      "stateMutability": "nonpayable",
      "type": "function"
    },
    {
      "inputs": [
        {
          "internalType": "bytes32",
          "name": "node",
          "type": "bytes32"
        },
        {
          "internalType": "string",
          "name": "key",
          "type": "string"
        },
        {
          "internalType": "string",
          "name": "value",
          "type": "string"
        }
      ],
      "name": "setText",
      "outputs": [],
      "stateMutability": "nonpayable",
      "type": "function"
    },
    {
      "inputs": [
        {
          "internalType": "string",
          "name": "ensName",
          "type": "string"
        },
        {
          "internalType": "address",
          "name": "tokenContract",
          "type": "address"
        },
        {
          "internalType": "contract IPublicResolver",
          "name": "fallbackResolver",
          "type": "address"
        }
      ],
      "name": "setTokenContract",
      "outputs": [],
      "stateMutability": "nonpayable",
      "type": "function"
    },
    {
      "inputs": [
        {
          "internalType": "bytes32",
          "name": "node",
          "type": "bytes32"
        },
        {
          "internalType": "bytes",
          "name": "hash",
          "type": "bytes"
        }
      ],
      "name": "setZonehash",
      "outputs": [],
      "stateMutability": "nonpayable",
      "type": "function"
    },
    {
      "inputs": [
        {
          "internalType": "bytes4",
          "name": "interfaceID",
          "type": "bytes4"
        }
      ],
      "name": "supportsInterface",
      "outputs": [
        {
          "internalType": "bool",
          "name": "",
          "type": "bool"
        }
      ],
      "stateMutability": "view",
      "type": "function"
    },
    {
      "inputs": [
        {
          "internalType": "bytes32",
          "name": "node",
          "type": "bytes32"
        },
        {
          "internalType": "string",
          "name": "key",
          "type": "string"
        }
      ],
      "name": "text",
      "outputs": [
        {
          "internalType": "string",
          "name": "",
          "type": "string"
        }
      ],
      "stateMutability": "view",
      "type": "function"
    },
    {
      "inputs": [
        {
          "internalType": "bytes",
          "name": "",
          "type": "bytes"
        }
      ],
      "name": "tokens",
      "outputs": [
        {
          "internalType": "contract IERC721",
          "name": "",
          "type": "address"
        }
      ],
      "stateMutability": "view",
      "type": "function"
    },
    {
      "inputs": [
        {
          "internalType": "bytes32",
          "name": "node",
          "type": "bytes32"
        }
      ],
      "name": "zonehash",
      "outputs": [
        {
          "internalType": "bytes",
          "name": "",
          "type": "bytes"
        }
      ],
      "stateMutability": "view",
      "type": "function"
    }
  ],
  "transactionHash": "0xe8a8e2daf1ee25ff83828acb012f574053a1ff93fbb9907348ac6ddba15467cf",
  "args": [
    "0x00000000000C2E074eC69A0dFb2997BA6C7d2e1e",
    "0x114D4603199df73e7D157787f8778E21fCd13066"
  ],
  "numDeployments": 1,
  "solcInputHash": "3a32f099b226e81e32ffbca8f8873f42",
  "bytecode": "0x60c06040523480156200001157600080fd5b5060405162002f7e38038062002f7e833981016040819052620000349162000065565b6001600160a01b039182166080521660a052620000a4565b6001600160a01b03811681146200006257600080fd5b50565b600080604083850312156200007957600080fd5b825162000086816200004c565b602084015190925062000099816200004c565b809150509250929050565b60805160a051612e9f620000df6000396000818161056e01528181611e620152611eaf0152600081816103a80152611df30152612e9f6000f3fe608060405234801561001057600080fd5b50600436106102415760003560e01c8063623195b011610145578063bc1c58d1116100bd578063d5fa2b001161008c578063e59d895d11610071578063e59d895d1461065a578063ef47ee621461066d578063f1cb7e06146106c957600080fd5b8063d5fa2b0014610604578063d700ff331461061757600080fd5b8063bc1c58d1146105a3578063c74d8c05146105b6578063c8690233146105c9578063ce3decdc146105f157600080fd5b80639061b923116101145780639bce71d0116100f95780639bce71d014610535578063a8e5fbc014610569578063a8fa56821461059057600080fd5b80639061b923146104e95780639ba47309146104fc57600080fd5b8063623195b01461049d578063691f3431146104b057806377372213146104c35780638b95dd71146104d657600080fd5b80633603d758116101d85780634cbf6ba4116101a757806359d1d43c1161018c57806359d1d43c1461043c5780635c98042b1461045c5780635d1044a61461046f57600080fd5b80634cbf6ba4146103dd5780635048cea0146103f057600080fd5b80633603d7581461037d5780633b3b57de146103905780633f15457f146103a35780633f5bc277146103ca57600080fd5b80632203ab56116102145780632203ab56146102c157806329cd62ea146102e25780632d170539146102f5578063304e6ade1461036a57600080fd5b806301ffc9a7146102465780630af179d71461026e57806310f13a8c14610283578063124a319c14610296575b600080fd5b6102596102543660046124f4565b6106dc565b60405190151581526020015b60405180910390f35b61028161027c366004612551565b610707565b005b61028161029136600461259d565b610793565b6102a96102a4366004612617565b610825565b6040516001600160a01b039091168152602001610265565b6102d46102cf366004612643565b6108b6565b6040516102659291906126b5565b6102816102f03660046126ce565b610947565b60408051808201909152601481527f7465787428627974657333322c737472696e67290000000000000000000000006020909101526103517f59d1d43c37707a29830be065fcabd05d6e536466c5159d2e46cb27bda8e98d6581565b6040516001600160e01b03199091168152602001610265565b610281610378366004612551565b6109a6565b61028161038b3660046126fa565b6109fa565b6102a961039e3660046126fa565b610a9d565b6102a97f000000000000000000000000000000000000000000000000000000000000000081565b6102816103d836600461272b565b610b16565b6102596103eb366004612643565b610c6a565b60408051808201909152600d81526c6164647228627974657333322960981b6020909101526103517f3b3b57de213591bb50e06975ea011e4c8c4b3e6de4009450c1a9e55f66e4bfa481565b61044f61044a366004612551565b610cea565b6040516102659190612793565b61044f61046a3660046126fa565b610d79565b61025961047d3660046127a6565b600460209081526000928352604080842090915290825290205460ff1681565b6102816104ab3660046127d6565b610df9565b61044f6104be3660046126fa565b610e88565b6102816104d1366004612551565b610f07565b6102816104e43660046128ee565b610f5b565b61044f6104f736600461293e565b610faf565b61052761050a36600461299e565b805160208183018101805160038252928201919093012091525481565b604051908152602001610265565b6102a961054336600461299e565b80516020818301810180516002825292820191909301209152546001600160a01b031681565b6102a97f000000000000000000000000000000000000000000000000000000000000000081565b61044f61059e3660046129d3565b6111c5565b61044f6105b13660046126fa565b611255565b6102816105c4366004612a21565b611294565b6105dc6105d73660046126fa565b611303565b60408051928352602083019190915201610265565b6102816105ff366004612551565b611384565b6102816106123660046127a6565b6113d8565b6106416106253660046126fa565b60006020819052908152604090205467ffffffffffffffff1681565b60405167ffffffffffffffff9091168152602001610265565b610281610668366004612a58565b611462565b60408051808201909152601581527f6164647228627974657333322c75696e743235362900000000000000000000006020909101526103517ff1cb7e06eed69ff6b1133c27a055176e5b0f641e8f94df2da7711eae8558f7b181565b61044f6106d7366004612643565b6114cb565b60006001600160e01b03198216639061b92360e01b1480610701575061070182611551565b92915050565b8261071181611669565b61071a57600080fd5b60008481526001602052604090819020549051630af179d760e01b81526001600160a01b0390911690630af179d79061075b90879087908790600401612ab6565b600060405180830381600087803b15801561077557600080fd5b505af1158015610789573d6000803e3d6000fd5b5050505050505050565b8461079d81611669565b6107a657600080fd5b6000868152600160205260409081902054905163043c4ea360e21b81526001600160a01b03909116906310f13a8c906107eb9089908990899089908990600401612ad9565b600060405180830381600087803b15801561080557600080fd5b505af1158015610819573d6000803e3d6000fd5b50505050505050505050565b6000828152600160205260408082205490516304928c6760e21b8152600481018590526001600160e01b0319841660248201526001600160a01b039091169063124a319c906044015b602060405180830381865afa15801561088b573d6000803e3d6000fd5b505050506040513d601f19601f820116820180604052508101906108af9190612b12565b9392505050565b600082815260016020526040808220549051631101d5ab60e11b815260048101859052602481018490526060916001600160a01b031690632203ab5690604401600060405180830381865afa158015610913573d6000803e3d6000fd5b505050506040513d6000823e601f3d908101601f1916820160405261093b9190810190612b7f565b915091505b9250929050565b8261095181611669565b61095a57600080fd5b600084815260016020526040908190205490516314e6b17560e11b81526004810186905260248101859052604481018490526001600160a01b03909116906329cd62ea9060640161075b565b826109b081611669565b6109b957600080fd5b60008481526001602052604090819020549051631827356f60e11b81526001600160a01b039091169063304e6ade9061075b90879087908790600401612ab6565b80610a0481611669565b610a0d57600080fd5b6000828152602081905260408120805467ffffffffffffffff1691610a3183612bdc565b82546101009290920a67ffffffffffffffff818102199093169183160217909155600084815260208181526040918290205491519190921681528492507fc6621ccb8f3f5a04bb6502154b2caf6adf5983fe76dfef1cfc9c42e3579db444910160405180910390a25050565b600081815260016020526040808220549051631d9dabef60e11b8152600481018490526001600160a01b0390911690633b3b57de90602401602060405180830381865afa158015610af2573d6000803e3d6000fd5b505050506040513d601f19601f820116820180604052508101906107019190612b12565b610b306001600160a01b0383166380ac58cd60e01b6116af565b610b4d57604051630a6f7ecd60e21b815260040160405180910390fd5b600080610b8f86868080601f0160208091040260200160405190810160405280939291908181526020018383808284376000920191909152506116cb92505050565b91509150610b9c81611669565b610bb95760405163fc28781360e01b815260040160405180910390fd5b83600283604051610bca9190612c03565b908152602001604051809103902060006101000a8154816001600160a01b0302191690836001600160a01b0316021790555080600383604051610c0d9190612c03565b908152604080516020928190038301902092909255600092835260019052902080547fffffffffffffffffffffffff0000000000000000000000000000000000000000166001600160a01b03939093169290921790915550505050565b60008281526001602052604080822054905163132fdae960e21b815260048101859052602481018490526001600160a01b0390911690634cbf6ba490604401602060405180830381865afa158015610cc6573d6000803e3d6000fd5b505050506040513d601f19601f820116820180604052508101906108af9190612c1f565b60008381526001602052604090819020549051631674750f60e21b81526060916001600160a01b0316906359d1d43c90610d2c90879087908790600401612ab6565b600060405180830381865afa158015610d49573d6000803e3d6000fd5b505050506040513d6000823e601f3d908101601f19168201604052610d719190810190612c3c565b949350505050565b60008181526001602052604090819020549051635c98042b60e01b8152600481018390526060916001600160a01b031690635c98042b906024015b600060405180830381865afa158015610dd1573d6000803e3d6000fd5b505050506040513d6000823e601f3d908101601f191682016040526107019190810190612c85565b83610e0381611669565b610e0c57600080fd5b60008581526001602052604090819020549051630623195b60e41b81526001600160a01b039091169063623195b090610e4f908890889088908890600401612cba565b600060405180830381600087803b158015610e6957600080fd5b505af1158015610e7d573d6000803e3d6000fd5b505050505050505050565b6000818152600160205260409081902054905163691f343160e01b8152600481018390526060916001600160a01b03169063691f343190602401600060405180830381865afa158015610edf573d6000803e3d6000fd5b505050506040513d6000823e601f3d908101601f191682016040526107019190810190612c3c565b82610f1181611669565b610f1a57600080fd5b60008481526001602052604090819020549051637737221360e01b81526001600160a01b039091169063773722139061075b90879087908790600401612ab6565b82610f6581611669565b610f6e57600080fd5b60008481526001602052604090819020549051638b95dd7160e01b81526001600160a01b0390911690638b95dd719061075b90879087908790600401612ce4565b60606000610fc06004828587612d03565b610fc991612d2d565b60408051808201909152600d81526c6164647228627974657333322960981b6020909101529050636262541160e11b6001600160e01b031982160161104357600061101487876118d8565b604080516001600160a01b03831660208201529192500160405160208183030381529060405292505050610d71565b60408051808201909152601581527f6164647228627974657333322c75696e7432353629000000000000000000000060209091015263071a40fd60e11b6001600160e01b031982160161111357600061109f8460048188612d03565b8101906110ac9190612643565b915050603c81036111005760006110c388886118d8565b90506110d7816001600160a01b0316611a0a565b6040516020016110e79190612793565b6040516020818303038152906040529350505050610d71565b6060806040516020016110e79190612793565b60408051808201909152601481527f7465787428627974657333322c737472696e672900000000000000000000000060209091015263298b8af160e21b6001600160e01b03198216016111ac5736600061116d8686611a43565b91509150600061117f89898585611a9b565b9050806040516020016111929190612793565b604051602081830303815290604052945050505050610d71565b60405163dfbcb35160e01b815260040160405180910390fd5b6000838152600160205260409081902054905163547d2b4160e11b8152600481018590526024810184905261ffff831660448201526060916001600160a01b03169063a8fa568290606401600060405180830381865afa15801561122d573d6000803e3d6000fd5b505050506040513d6000823e601f3d908101601f19168201604052610d719190810190612c85565b6000818152600160205260409081902054905163bc1c58d160e01b8152600481018390526060916001600160a01b03169063bc1c58d190602401610db4565b61129d83611dd0565b6001600160a01b0316336001600160a01b0316146112ce5760405163fc28781360e01b815260040160405180910390fd5b60009283526004602090815260408085206001600160a01b039490941685529290529120805460ff1916911515919091179055565b60008181526001602052604080822054905163c869023360e01b81526004810184905282916001600160a01b03169063c8690233906024016040805180830381865afa158015611357573d6000803e3d6000fd5b505050506040513d601f19601f8201168201806040525081019061137b9190612d5d565b91509150915091565b8261138e81611669565b61139757600080fd5b6000848152600160205260409081902054905163338f7b3760e21b81526001600160a01b039091169063ce3decdc9061075b90879087908790600401612ab6565b816113e281611669565b6113eb57600080fd5b6000838152600160205260409081902054905162d5fa2b60e81b8152600481018590526001600160a01b0384811660248301529091169063d5fa2b0090604401600060405180830381600087803b15801561144557600080fd5b505af1158015611459573d6000803e3d6000fd5b50505050505050565b8261146c81611669565b61147557600080fd5b6000848152600160205260409081902054905163e59d895d60e01b8152600481018690526001600160e01b0319851660248201526001600160a01b0384811660448301529091169063e59d895d9060640161075b565b600082815260016020526040908190205490516378e5bf0360e11b815260048101849052602481018390526060916001600160a01b03169063f1cb7e0690604401600060405180830381865afa158015611529573d6000803e3d6000fd5b505050506040513d6000823e601f3d908101601f191682016040526108af9190810190612c85565b60006001600160e01b03198216631101d5ab60e11b148061158257506001600160e01b03198216631d9dabef60e11b145b8061159d57506001600160e01b031982166378e5bf0360e11b145b806115b857506001600160e01b0319821663bc1c58d160e01b145b806115d357506001600160e01b0319821663547d2b4160e11b145b806115ee57506001600160e01b03198216635c98042b60e01b145b8061160957506001600160e01b031982166304928c6760e21b145b8061162457506001600160e01b0319821663691f343160e01b145b8061163f57506001600160e01b0319821663c869023360e01b145b8061165a57506001600160e01b03198216631674750f60e21b145b80610701575061070182611ee6565b600061167482611dd0565b6001600160a01b0316336001600160a01b03161480610701575050600090815260046020908152604080832033845290915290205460ff1690565b60006116ba83611f1b565b80156108af57506108af8383611f4e565b8051606090600090819084906116e2816002612d81565b67ffffffffffffffff8111156116fa576116fa612829565b6040519080825280601f01601f191660200182016040528015611724576020820181803683370190505b5094506000935080840361176957600060f81b8560008151811061174a5761174a612d94565b60200101906001600160f81b031916908160001a905350505050915091565b60001981015b82818151811061178157611781612d94565b01602001517fff0000000000000000000000000000000000000000000000000000000000000016601760f91b03611827578360f81b8682600101815181106117cb576117cb612d94565b60200101906001600160f81b031916908160001a905350846117f4846001840160ff8816611fec565b60408051602081019390935282015260600160405160208183030381529060405280519060200120945060009350611877565b60018401935082818151811061183f5761183f612d94565b602001015160f81c60f81b86826001018151811061185f5761185f612d94565b60200101906001600160f81b031916908160001a9053505b8015611886576000190161176f565b508361189783600060ff8716611fec565b6040805160208101939093528201526060016040516020818303038152906040528051906020012093508260f81b8560008151811061174a5761174a612d94565b60008060006118e78585612010565b915091508115611903576118fa81610a9d565b92505050610701565b3660003660006119138989612043565b935093509350935060006002838360405161192f929190612daa565b908152604051908190036020019020546001600160a01b031690508061195f576000975050505050505050610701565b60008061196c87876120b7565b91509150816119875760009950505050505050505050610701565b6040516331a9108f60e11b8152600481018290526000906001600160a01b03851690636352211e90602401602060405180830381865afa9250505080156119eb575060408051601f3d908101601f191682019092526119e891810190612b12565b60015b6119f7575060006119fa565b90505b9c9b505050505050505050505050565b6040805160148082528183019092526060916020820181803683375050506c010000000000000000000000009290920260208301525090565b366000604481611a54826020612d81565b90506000611a648684818a612d03565b810190611a7191906126fa565b9050868287611a808483612d81565b92611a8d93929190612d03565b945094505050509250929050565b6060600080611aaa8787612010565b915091508115611ac857611abf818686610cea565b92505050610d71565b366000366000611ad88b8b612043565b9350935093509350600060028383604051611af4929190612daa565b908152604051908190036020019020546001600160a01b0316905080611b325760405180602001604052806000815250975050505050505050610d71565b600080611b3f87876120b7565b9150915081611b6857604051806020016040528060008152509950505050505050505050610d71565b6040516331a9108f60e11b8152600481018290526001600160a01b03841690636352211e90602401602060405180830381865afa925050508015611bc9575060408051601f3d908101601f19168201909252611bc691810190612b12565b60015b611bed57604051806020016040528060008152509950505050505050505050610d71565b50611c666040518060400160405280600681526020017f61766174617200000000000000000000000000000000000000000000000000008152508d8d8080601f01602080910402602001604051908101604052809392919081815260200183838082843760009201919091525092939250506121969050565b15611cb657611c7d836001600160a01b03166121ac565b611c86826121c2565b604051602001611c97929190612dba565b6040516020818303038152906040529950505050505050505050610d71565b611d14604051806040016040528060038152602001621d5c9b60ea1b8152508d8d8080601f01602080910402602001604051908101604052809392919081815260200183838082843760009201919091525092939250506121969050565b15611daf5760405163c87b56dd60e01b8152600481018290526060906001600160a01b0385169063c87b56dd90602401600060405180830381865afa925050508015611d8257506040513d6000823e601f3d908101601f19168201604052611d7f9190810190612c3c565b60015b611d9b5750604080516020810190915260008152611d9e565b90505b9950610d7198505050505050505050565b50506040805160208101909152600081529c9b505050505050505050505050565b6040516302571be360e01b81526004810182905260009081906001600160a01b037f000000000000000000000000000000000000000000000000000000000000000016906302571be390602401602060405180830381865afa158015611e3a573d6000803e3d6000fd5b505050506040513d601f19601f82011682018060405250810190611e5e9190612b12565b90507f00000000000000000000000000000000000000000000000000000000000000006001600160a01b0316816001600160a01b031603610701576040516331a9108f60e11b8152600481018490527f00000000000000000000000000000000000000000000000000000000000000006001600160a01b031690636352211e9060240161086e565b60006001600160e01b0319821663d700ff3360e01b148061070157506301ffc9a760e01b6001600160e01b0319831614610701565b6000611f2e826301ffc9a760e01b611f4e565b80156107015750611f47826001600160e01b0319611f4e565b1592915050565b604080516001600160e01b03198316602480830191909152825180830390910181526044909101909152602080820180517bffffffffffffffffffffffffffffffffffffffffffffffffffffffff166301ffc9a760e01b178152825160009392849283928392918391908a617530fa92503d91506000519050828015611fd5575060208210155b8015611fe15750600081115b979650505050505050565b8251600090611ffb8385612d81565b111561200657600080fd5b5091016020012090565b60008060038484604051612025929190612daa565b90815260405190819003602001902054801515925090509250929050565b366000366000808686600081811061205d5761205d612d94565b919091013560f81c91508790506001876120778483612e1f565b60ff169261208793929190612d03565b8888612094856001612e1f565b60ff169080926120a693929190612d03565b929a91995097509095509350505050565b600080805b8381101561218a57600360fc1b8585838181106120db576120db612d94565b9050013560f81c60f81b6001600160f81b03191610806121235750603960f81b85858381811061210d5761210d612d94565b9050013560f81c60f81b6001600160f81b031916115b15612135576000809250925050610940565b6000603086868481811061214b5761214b612d94565b61215c9392013560f81c9050612e38565b90508061216a84600a612e4b565b6121749190612d81565b925050808061218290612e62565b9150506120bc565b60019250509250929050565b8051602091820120825192909101919091201490565b60606107016001600160a01b0383166014612255565b606060006121cf836123f5565b600101905060008167ffffffffffffffff8111156121ef576121ef612829565b6040519080825280601f01601f191660200182016040528015612219576020820181803683370190505b5090508181016020015b600019016f181899199a1a9b1b9c1cb0b131b232b360811b600a86061a8153600a850494508461222357509392505050565b60606000612264836002612e4b565b61226f906002612d81565b67ffffffffffffffff81111561228757612287612829565b6040519080825280601f01601f1916602001820160405280156122b1576020820181803683370190505b509050600360fc1b816000815181106122cc576122cc612d94565b60200101906001600160f81b031916908160001a905350600f60fb1b816001815181106122fb576122fb612d94565b60200101906001600160f81b031916908160001a905350600061231f846002612e4b565b61232a906001612d81565b90505b60018111156123a2576f181899199a1a9b1b9c1cb0b131b232b360811b85600f166010811061235e5761235e612d94565b1a60f81b82828151811061237457612374612d94565b60200101906001600160f81b031916908160001a90535060049490941c9361239b81612e7b565b905061232d565b5083156108af5760405162461bcd60e51b815260206004820181905260248201527f537472696e67733a20686578206c656e67746820696e73756666696369656e74604482015260640160405180910390fd5b6000807a184f03e93ff9f4daa797ed6e38ed64bf6a1f010000000000000000831061243e577a184f03e93ff9f4daa797ed6e38ed64bf6a1f010000000000000000830492506040015b6d04ee2d6d415b85acef8100000000831061246a576d04ee2d6d415b85acef8100000000830492506020015b662386f26fc10000831061248857662386f26fc10000830492506010015b6305f5e10083106124a0576305f5e100830492506008015b61271083106124b457612710830492506004015b606483106124c6576064830492506002015b600a83106107015760010192915050565b80356001600160e01b0319811681146124ef57600080fd5b919050565b60006020828403121561250657600080fd5b6108af826124d7565b60008083601f84011261252157600080fd5b50813567ffffffffffffffff81111561253957600080fd5b60208301915083602082850101111561094057600080fd5b60008060006040848603121561256657600080fd5b83359250602084013567ffffffffffffffff81111561258457600080fd5b6125908682870161250f565b9497909650939450505050565b6000806000806000606086880312156125b557600080fd5b85359450602086013567ffffffffffffffff808211156125d457600080fd5b6125e089838a0161250f565b909650945060408801359150808211156125f957600080fd5b506126068882890161250f565b969995985093965092949392505050565b6000806040838503121561262a57600080fd5b8235915061263a602084016124d7565b90509250929050565b6000806040838503121561265657600080fd5b50508035926020909101359150565b60005b83811015612680578181015183820152602001612668565b50506000910152565b600081518084526126a1816020860160208601612665565b601f01601f19169290920160200192915050565b828152604060208201526000610d716040830184612689565b6000806000606084860312156126e357600080fd5b505081359360208301359350604090920135919050565b60006020828403121561270c57600080fd5b5035919050565b6001600160a01b038116811461272857600080fd5b50565b6000806000806060858703121561274157600080fd5b843567ffffffffffffffff81111561275857600080fd5b6127648782880161250f565b909550935050602085013561277881612713565b9150604085013561278881612713565b939692955090935050565b6020815260006108af6020830184612689565b600080604083850312156127b957600080fd5b8235915060208301356127cb81612713565b809150509250929050565b600080600080606085870312156127ec57600080fd5b8435935060208501359250604085013567ffffffffffffffff81111561281157600080fd5b61281d8782880161250f565b95989497509550505050565b634e487b7160e01b600052604160045260246000fd5b604051601f8201601f1916810167ffffffffffffffff8111828210171561286857612868612829565b604052919050565b600067ffffffffffffffff82111561288a5761288a612829565b50601f01601f191660200190565b600082601f8301126128a957600080fd5b81356128bc6128b782612870565b61283f565b8181528460208386010111156128d157600080fd5b816020850160208301376000918101602001919091529392505050565b60008060006060848603121561290357600080fd5b8335925060208401359150604084013567ffffffffffffffff81111561292857600080fd5b61293486828701612898565b9150509250925092565b6000806000806040858703121561295457600080fd5b843567ffffffffffffffff8082111561296c57600080fd5b6129788883890161250f565b9096509450602087013591508082111561299157600080fd5b5061281d8782880161250f565b6000602082840312156129b057600080fd5b813567ffffffffffffffff8111156129c757600080fd5b610d7184828501612898565b6000806000606084860312156129e857600080fd5b8335925060208401359150604084013561ffff81168114612a0857600080fd5b809150509250925092565b801515811461272857600080fd5b600080600060608486031215612a3657600080fd5b833592506020840135612a4881612713565b91506040840135612a0881612a13565b600080600060608486031215612a6d57600080fd5b83359250612a7d602085016124d7565b91506040840135612a0881612713565b81835281816020850137506000828201602090810191909152601f909101601f19169091010190565b838152604060208201526000612ad0604083018486612a8d565b95945050505050565b858152606060208201526000612af3606083018688612a8d565b8281036040840152612b06818587612a8d565b98975050505050505050565b600060208284031215612b2457600080fd5b81516108af81612713565b6000612b3d6128b784612870565b9050828152838383011115612b5157600080fd5b6108af836020830184612665565b600082601f830112612b7057600080fd5b6108af83835160208501612b2f565b60008060408385031215612b9257600080fd5b82519150602083015167ffffffffffffffff811115612bb057600080fd5b612bbc85828601612b5f565b9150509250929050565b634e487b7160e01b600052601160045260246000fd5b600067ffffffffffffffff808316818103612bf957612bf9612bc6565b6001019392505050565b60008251612c15818460208701612665565b9190910192915050565b600060208284031215612c3157600080fd5b81516108af81612a13565b600060208284031215612c4e57600080fd5b815167ffffffffffffffff811115612c6557600080fd5b8201601f81018413612c7657600080fd5b610d7184825160208401612b2f565b600060208284031215612c9757600080fd5b815167ffffffffffffffff811115612cae57600080fd5b610d7184828501612b5f565b848152836020820152606060408201526000612cda606083018486612a8d565b9695505050505050565b838152826020820152606060408201526000612ad06060830184612689565b60008085851115612d1357600080fd5b83861115612d2057600080fd5b5050820193919092039150565b6001600160e01b03198135818116916004851015612d555780818660040360031b1b83161692505b505092915050565b60008060408385031215612d7057600080fd5b505080516020909101519092909150565b8082018082111561070157610701612bc6565b634e487b7160e01b600052603260045260246000fd5b8183823760009101908152919050565b7f6569703135353a312f6572633732313a00000000000000000000000000000000815260008351612df2816010850160208801612665565b602f60f81b6010918401918201528351612e13816011840160208801612665565b01601101949350505050565b60ff818116838216019081111561070157610701612bc6565b8181038181111561070157610701612bc6565b808202811582820484141761070157610701612bc6565b600060018201612e7457612e74612bc6565b5060010190565b600081612e8a57612e8a612bc6565b50600019019056fea164736f6c6343000811000a",
  "devdoc": {
    "kind": "dev",
    "methods": {
      "ABI(bytes32,uint256)": {
        "params": {
          "contentTypes": "A bitwise OR of the ABI formats accepted by the caller.",
          "node": "The ENS node to query"
        },
        "returns": {
          "_0": "contentType The content type of the return value",
          "_1": "data The ABI data"
        }
      },
      "addr(bytes32)": {
        "params": {
          "node": "The ENS node to query."
        },
        "returns": {
          "_0": "The associated address."
        }
      },
      "clearRecords(bytes32)": {
        "params": {
          "node": "The node to update."
        }
      },
      "contenthash(bytes32)": {
        "params": {
          "node": "The ENS node to query."
        },
        "returns": {
          "_0": "The associated contenthash."
        }
      },
      "dnsRecord(bytes32,bytes32,uint16)": {
        "params": {
          "name": "the keccak-256 hash of the fully-qualified name for which to fetch the record",
          "node": "the namehash of the node for which to fetch the record",
          "resource": "the ID of the resource as per https://en.wikipedia.org/wiki/List_of_DNS_record_types"
        },
        "returns": {
          "_0": "the DNS record in wire format if present, otherwise empty"
        }
      },
      "interfaceImplementer(bytes32,bytes4)": {
        "params": {
          "interfaceID": "The EIP 165 interface ID to check for.",
          "node": "The ENS node to query."
        },
        "returns": {
          "_0": "The address that implements this interface, or 0 if the interface is unsupported."
        }
      },
      "name(bytes32)": {
        "params": {
          "node": "The ENS node to query."
        },
        "returns": {
          "_0": "The associated name."
        }
      },
      "pubkey(bytes32)": {
        "params": {
          "node": "The ENS node to query"
        },
        "returns": {
          "x": "The X coordinate of the curve point for the public key.",
          "y": "The Y coordinate of the curve point for the public key."
        }
      },
      "text(bytes32,string)": {
        "params": {
          "key": "The text data key to query.",
          "node": "The ENS node to query."
        },
        "returns": {
          "_0": "The associated text data."
        }
      },
      "zonehash(bytes32)": {
        "params": {
          "node": "The ENS node to query."
        },
        "returns": {
          "_0": "The associated contenthash."
        }
      }
    },
    "version": 1
  },
  "userdoc": {
    "kind": "user",
    "methods": {
      "ABI(bytes32,uint256)": {
        "notice": "Returns the ABI associated with an ENS node. Defined in EIP205."
      },
      "addr(bytes32)": {
        "notice": "Returns the address associated with an ENS node."
      },
      "clearRecords(bytes32)": {
        "notice": "Increments the record version associated with an ENS node. May only be called by the owner of that node in the ENS registry."
      },
      "contenthash(bytes32)": {
        "notice": "Returns the contenthash associated with an ENS node."
      },
      "dnsRecord(bytes32,bytes32,uint16)": {
        "notice": "Obtain a DNS record."
      },
      "interfaceImplementer(bytes32,bytes4)": {
        "notice": "Returns the address of a contract that implements the specified interface for this name. If an implementer has not been set for this interfaceID and name, the resolver will query the contract at `addr()`. If `addr()` is set, a contract exists at that address, and that contract implements EIP165 and returns `true` for the specified interfaceID, its address will be returned."
      },
      "name(bytes32)": {
        "notice": "Returns the name associated with an ENS node, for reverse records. Defined in EIP181."
      },
      "pubkey(bytes32)": {
        "notice": "Returns the SECP256k1 public key associated with an ENS node. Defined in EIP 619."
      },
      "text(bytes32,string)": {
        "notice": "Returns the text data associated with an ENS node and key."
      },
      "zonehash(bytes32)": {
        "notice": "zonehash obtains the hash for the zone."
      }
    },
    "version": 1
  },
  "storageLayout": {
    "storage": [
      {
        "astId": 243,
        "contract": "contracts/ensWildcardResolvers/Erc721WildcardResolver.sol:Erc721WildcardResolver",
        "label": "recordVersions",
        "offset": 0,
        "slot": "0",
        "type": "t_mapping(t_bytes32,t_uint64)"
      },
      {
        "astId": 9086,
        "contract": "contracts/ensWildcardResolvers/Erc721WildcardResolver.sol:Erc721WildcardResolver",
        "label": "passthroughTargets",
        "offset": 0,
        "slot": "1",
        "type": "t_mapping(t_bytes32,t_contract(IPublicResolver)9072)"
      },
      {
        "astId": 8334,
        "contract": "contracts/ensWildcardResolvers/Erc721WildcardResolver.sol:Erc721WildcardResolver",
        "label": "tokens",
        "offset": 0,
        "slot": "2",
        "type": "t_mapping(t_bytes_memory_ptr,t_contract(IERC721)4132)"
      },
      {
        "astId": 8338,
        "contract": "contracts/ensWildcardResolvers/Erc721WildcardResolver.sol:Erc721WildcardResolver",
        "label": "parentEnsNodes",
        "offset": 0,
        "slot": "3",
        "type": "t_mapping(t_bytes_memory_ptr,t_bytes32)"
      },
      {
        "astId": 8344,
        "contract": "contracts/ensWildcardResolvers/Erc721WildcardResolver.sol:Erc721WildcardResolver",
        "label": "approvedDelegates",
        "offset": 0,
        "slot": "4",
        "type": "t_mapping(t_bytes32,t_mapping(t_address,t_bool))"
      }
    ],
    "types": {
      "t_address": {
        "encoding": "inplace",
        "label": "address",
        "numberOfBytes": "20"
      },
      "t_bool": {
        "encoding": "inplace",
        "label": "bool",
        "numberOfBytes": "1"
      },
      "t_bytes32": {
        "encoding": "inplace",
        "label": "bytes32",
        "numberOfBytes": "32"
      },
      "t_bytes_memory_ptr": {
        "encoding": "bytes",
        "label": "bytes",
        "numberOfBytes": "32"
      },
      "t_contract(IERC721)4132": {
        "encoding": "inplace",
        "label": "contract IERC721",
        "numberOfBytes": "20"
      },
      "t_contract(IPublicResolver)9072": {
        "encoding": "inplace",
        "label": "contract IPublicResolver",
        "numberOfBytes": "20"
      },
      "t_mapping(t_address,t_bool)": {
        "encoding": "mapping",
        "key": "t_address",
        "label": "mapping(address => bool)",
        "numberOfBytes": "32",
        "value": "t_bool"
      },
      "t_mapping(t_bytes32,t_contract(IPublicResolver)9072)": {
        "encoding": "mapping",
        "key": "t_bytes32",
        "label": "mapping(bytes32 => contract IPublicResolver)",
        "numberOfBytes": "32",
        "value": "t_contract(IPublicResolver)9072"
      },
      "t_mapping(t_bytes32,t_mapping(t_address,t_bool))": {
        "encoding": "mapping",
        "key": "t_bytes32",
        "label": "mapping(bytes32 => mapping(address => bool))",
        "numberOfBytes": "32",
        "value": "t_mapping(t_address,t_bool)"
      },
      "t_mapping(t_bytes32,t_uint64)": {
        "encoding": "mapping",
        "key": "t_bytes32",
        "label": "mapping(bytes32 => uint64)",
        "numberOfBytes": "32",
        "value": "t_uint64"
      },
      "t_mapping(t_bytes_memory_ptr,t_bytes32)": {
        "encoding": "mapping",
        "key": "t_bytes_memory_ptr",
        "label": "mapping(bytes => bytes32)",
        "numberOfBytes": "32",
        "value": "t_bytes32"
      },
      "t_mapping(t_bytes_memory_ptr,t_contract(IERC721)4132)": {
        "encoding": "mapping",
        "key": "t_bytes_memory_ptr",
        "label": "mapping(bytes => contract IERC721)",
        "numberOfBytes": "32",
        "value": "t_contract(IERC721)4132"
      },
      "t_uint64": {
        "encoding": "inplace",
        "label": "uint64",
        "numberOfBytes": "8"
      }
    }
  }
}