{
  "address": "0xa4A0B6d5c2f11Fa1A1F2A12Ceaa00284e1eF5228",
  "abi": [
    {
      "inputs": [
        {
          "internalType": "address",
          "name": "_ensGuilds",
          "type": "address"
        }
      ],
      "stateMutability": "nonpayable",
      "type": "constructor"
    },
    {
      "inputs": [
        {
          "internalType": "bytes32",
          "name": "",
          "type": "bytes32"
        }
      ],
      "name": "guildFees",
      "outputs": [
        {
          "internalType": "address",
          "name": "feeToken",
          "type": "address"
        },
        {
          "internalType": "uint256",
          "name": "fee",
          "type": "uint256"
        },
        {
          "internalType": "address",
          "name": "feePaidTo",
          "type": "address"
        }
      ],
      "stateMutability": "view",
      "type": "function"
    },
    {
      "inputs": [
        {
          "internalType": "bytes32",
          "name": "guildHash",
          "type": "bytes32"
        },
        {
          "internalType": "address",
          "name": "feeToken",
          "type": "address"
        },
        {
          "internalType": "uint256",
          "name": "fee",
          "type": "uint256"
        },
        {
          "internalType": "address",
          "name": "feePaidTo",
          "type": "address"
        }
      ],
      "name": "setFlatFee",
      "outputs": [],
      "stateMutability": "nonpayable",
      "type": "function"
    },
    {
      "inputs": [
        {
          "internalType": "bytes4",
          "name": "interfaceID",
          "type": "bytes4"
        }
      ],
      "name": "supportsInterface",
      "outputs": [
        {
          "internalType": "bool",
          "name": "",
          "type": "bool"
        }
      ],
      "stateMutability": "view",
      "type": "function"
    },
    {
      "inputs": [
        {
          "internalType": "bytes32",
          "name": "guildHash",
          "type": "bytes32"
        },
        {
          "internalType": "bytes32",
          "name": "",
          "type": "bytes32"
        },
        {
          "internalType": "address",
          "name": "",
          "type": "address"
        },
        {
          "internalType": "bytes",
          "name": "",
          "type": "bytes"
        }
      ],
      "name": "tagClaimFee",
      "outputs": [
        {
          "internalType": "address",
          "name": "tokenContract",
          "type": "address"
        },
        {
          "internalType": "uint256",
          "name": "fee",
          "type": "uint256"
        },
        {
          "internalType": "address",
          "name": "feePaidTo",
          "type": "address"
        }
      ],
      "stateMutability": "view",
      "type": "function"
    }
  ],
  "args": [
    "0x21Ca61a68969620A326431e17a72a292b19F5edF"
  ],
  "numDeployments": 1,
  "solcInputHash": "3ed54fb3374fcea5f11209f663dcf047",
  "bytecode": "0x608060405234801561001057600080fd5b5060405161066938038061066983398101604081905261002f91610164565b6100566398280fbb60e01b826001600160a01b031661008460201b6102741790919060201c565b61005f57600080fd5b600080546001600160a01b0319166001600160a01b039290921691909117905561018d565b600061008f836100a7565b80156100a057506100a083836100db565b9392505050565b60006100ba826301ffc9a760e01b6100db565b80156100d557506100d3826001600160e01b03196100db565b155b92915050565b604080516001600160e01b03198316602480830191909152825180830390910181526044909101909152602080820180516001600160e01b03166301ffc9a760e01b178152825160009392849283928392918391908a617530fa92503d9150600051905082801561014d575060208210155b80156101595750600081115b979650505050505050565b60006020828403121561017657600080fd5b81516001600160a01b03811681146100a057600080fd5b6104cd8061019c6000396000f3fe608060405234801561001057600080fd5b506004361061004c5760003560e01c806301ffc9a71461005157806303eb8bf71461007957806337f83f341461008e5780639c707f93146100f3575b600080fd5b61006461005f366004610368565b610134565b60405190151581526020015b60405180910390f35b61008c6100873660046103aa565b61016b565b005b6100c961009c3660046103f4565b60016020819052600091825260409091208054918101546002909101546001600160a01b03928316921683565b604080516001600160a01b0394851681526020810193909352921691810191909152606001610070565b6100c961010136600461040d565b5050506000918252506001602081905260409091208054918101546002909101546001600160a01b039283169391921690565b60006001600160e01b03198216632763ed8d60e21b148061016557506301ffc9a760e01b6001600160e01b03198316145b92915050565b3360005460405163022c977f60e01b8152600481018790526001600160a01b03928316929091169063022c977f90602401602060405180830381865afa1580156101b9573d6000803e3d6000fd5b505050506040513d601f19601f820116820180604052508101906101dd91906104a3565b6001600160a01b0316146101f057600080fd5b604080516060810182526001600160a01b0394851681526020808201948552928516818301908152600096875260019384905291909520945185549085167fffffffffffffffffffffffff00000000000000000000000000000000000000009182161786559251918501919091555160029093018054939092169216919091179055565b600061027f83610297565b8015610290575061029083836102ca565b9392505050565b60006102aa826301ffc9a760e01b6102ca565b801561016557506102c3826001600160e01b03196102ca565b1592915050565b604080516001600160e01b03198316602480830191909152825180830390910181526044909101909152602080820180517bffffffffffffffffffffffffffffffffffffffffffffffffffffffff166301ffc9a760e01b178152825160009392849283928392918391908a617530fa92503d91506000519050828015610351575060208210155b801561035d5750600081115b979650505050505050565b60006020828403121561037a57600080fd5b81356001600160e01b03198116811461029057600080fd5b6001600160a01b03811681146103a757600080fd5b50565b600080600080608085870312156103c057600080fd5b8435935060208501356103d281610392565b92506040850135915060608501356103e981610392565b939692955090935050565b60006020828403121561040657600080fd5b5035919050565b60008060008060006080868803121561042557600080fd5b8535945060208601359350604086013561043e81610392565b9250606086013567ffffffffffffffff8082111561045b57600080fd5b818801915088601f83011261046f57600080fd5b81358181111561047e57600080fd5b89602082850101111561049057600080fd5b9699959850939650602001949392505050565b6000602082840312156104b557600080fd5b81516102908161039256fea164736f6c6343000811000a",
  "devdoc": {
    "kind": "dev",
    "methods": {},
    "version": 1
  },
  "userdoc": {
    "kind": "user",
    "methods": {},
    "version": 1
  },
  "storageLayout": {
    "storage": [
      {
        "astId": 6546,
        "contract": "contracts/feePolicies/FlatFeePolicy.sol:FlatFeePolicy",
        "label": "ensGuilds",
        "offset": 0,
        "slot": "0",
        "type": "t_contract(IENSGuilds)5688"
      },
      {
        "astId": 6558,
        "contract": "contracts/feePolicies/FlatFeePolicy.sol:FlatFeePolicy",
        "label": "guildFees",
        "offset": 0,
        "slot": "1",
        "type": "t_mapping(t_bytes32,t_struct(FeeInfo)6553_storage)"
      }
    ],
    "types": {
      "t_address": {
        "encoding": "inplace",
        "label": "address",
        "numberOfBytes": "20"
      },
      "t_bytes32": {
        "encoding": "inplace",
        "label": "bytes32",
        "numberOfBytes": "32"
      },
      "t_contract(IENSGuilds)5688": {
        "encoding": "inplace",
        "label": "contract IENSGuilds",
        "numberOfBytes": "20"
      },
      "t_mapping(t_bytes32,t_struct(FeeInfo)6553_storage)": {
        "encoding": "mapping",
        "key": "t_bytes32",
        "label": "mapping(bytes32 => struct FlatFeePolicy.FeeInfo)",
        "numberOfBytes": "32",
        "value": "t_struct(FeeInfo)6553_storage"
      },
      "t_struct(FeeInfo)6553_storage": {
        "encoding": "inplace",
        "label": "struct FlatFeePolicy.FeeInfo",
        "members": [
          {
            "astId": 6548,
            "contract": "contracts/feePolicies/FlatFeePolicy.sol:FlatFeePolicy",
            "label": "feeToken",
            "offset": 0,
            "slot": "0",
            "type": "t_address"
          },
          {
            "astId": 6550,
            "contract": "contracts/feePolicies/FlatFeePolicy.sol:FlatFeePolicy",
            "label": "fee",
            "offset": 0,
            "slot": "1",
            "type": "t_uint256"
          },
          {
            "astId": 6552,
            "contract": "contracts/feePolicies/FlatFeePolicy.sol:FlatFeePolicy",
            "label": "feePaidTo",
            "offset": 0,
            "slot": "2",
            "type": "t_address"
          }
        ],
        "numberOfBytes": "96"
      },
      "t_uint256": {
        "encoding": "inplace",
        "label": "uint256",
        "numberOfBytes": "32"
      }
    }
  }
}