{
  "address": "0x87258Ba9087238D3D1Db54B0ea60307971721191",
  "abi": [
    {
      "inputs": [
        {
          "internalType": "address",
          "name": "_ensGuilds",
          "type": "address"
        }
      ],
      "stateMutability": "nonpayable",
      "type": "constructor"
    },
    {
      "inputs": [
        {
          "internalType": "bytes32",
          "name": "",
          "type": "bytes32"
        }
      ],
      "name": "guildFees",
      "outputs": [
        {
          "internalType": "address",
          "name": "feeToken",
          "type": "address"
        },
        {
          "internalType": "uint256",
          "name": "fee",
          "type": "uint256"
        },
        {
          "internalType": "address",
          "name": "feePaidTo",
          "type": "address"
        }
      ],
      "stateMutability": "view",
      "type": "function"
    },
    {
      "inputs": [
        {
          "internalType": "bytes32",
          "name": "guildHash",
          "type": "bytes32"
        },
        {
          "internalType": "address",
          "name": "feeToken",
          "type": "address"
        },
        {
          "internalType": "uint256",
          "name": "fee",
          "type": "uint256"
        },
        {
          "internalType": "address",
          "name": "feePaidTo",
          "type": "address"
        }
      ],
      "name": "setFlatFee",
      "outputs": [],
      "stateMutability": "nonpayable",
      "type": "function"
    },
    {
      "inputs": [
        {
          "internalType": "bytes4",
          "name": "interfaceID",
          "type": "bytes4"
        }
      ],
      "name": "supportsInterface",
      "outputs": [
        {
          "internalType": "bool",
          "name": "",
          "type": "bool"
        }
      ],
      "stateMutability": "view",
      "type": "function"
    },
    {
      "inputs": [
        {
          "internalType": "bytes32",
          "name": "guildHash",
          "type": "bytes32"
        },
        {
          "internalType": "string",
          "name": "",
          "type": "string"
        },
        {
          "internalType": "address",
          "name": "",
          "type": "address"
        },
        {
          "internalType": "bytes",
          "name": "",
          "type": "bytes"
        }
      ],
      "name": "tagClaimFee",
      "outputs": [
        {
          "internalType": "address",
          "name": "tokenContract",
          "type": "address"
        },
        {
          "internalType": "uint256",
          "name": "fee",
          "type": "uint256"
        },
        {
          "internalType": "address",
          "name": "feePaidTo",
          "type": "address"
        }
      ],
      "stateMutability": "view",
      "type": "function"
    }
  ],
  "args": [
    "0xac0C325fDc7af8ce362E7b565e908BCc8AB4C821"
  ],
  "numDeployments": 1,
  "solcInputHash": "3a32f099b226e81e32ffbca8f8873f42",
  "bytecode": "0x60a060405234801561001057600080fd5b506040516106b53803806106b583398101604081905261002f91610150565b6100566340b9de5d60e11b826001600160a01b031661007060201b6102871790919060201c565b61005f57600080fd5b6001600160a01b0316608052610179565b600061007b83610093565b801561008c575061008c83836100c7565b9392505050565b60006100a6826301ffc9a760e01b6100c7565b80156100c157506100bf826001600160e01b03196100c7565b155b92915050565b604080516001600160e01b03198316602480830191909152825180830390910181526044909101909152602080820180516001600160e01b03166301ffc9a760e01b178152825160009392849283928392918391908a617530fa92503d91506000519050828015610139575060208210155b80156101455750600081115b979650505050505050565b60006020828403121561016257600080fd5b81516001600160a01b038116811461008c57600080fd5b608051610521610194600039600061018b01526105216000f3fe608060405234801561001057600080fd5b506004361061004c5760003560e01c806301ffc9a71461005157806303eb8bf71461007957806337f83f341461008e5780635a50dc7e146100f2575b600080fd5b61006461005f36600461037b565b610131565b60405190151581526020015b60405180910390f35b61008c6100873660046103bd565b610168565b005b6100c861009c366004610407565b6000602081905290815260409020805460018201546002909201546001600160a01b0391821692911683565b604080516001600160a01b0394851681526020810193909352921691810191909152606001610070565b6100c8610100366004610469565b50505060009283525050602081905260409020805460018201546002909201546001600160a01b0391821693911690565b60006001600160e01b03198216635baf15d960e01b148061016257506301ffc9a760e01b6001600160e01b03198316145b92915050565b3360405163022c977f60e01b8152600481018690526001600160a01b03918216917f0000000000000000000000000000000000000000000000000000000000000000169063022c977f90602401602060405180830381865afa1580156101d2573d6000803e3d6000fd5b505050506040513d601f19601f820116820180604052508101906101f691906104f7565b6001600160a01b03161461020957600080fd5b604080516060810182526001600160a01b03948516815260208082019485529285168183019081526000968752928690529420935184549084167fffffffffffffffffffffffff0000000000000000000000000000000000000000918216178555915160018501555160029093018054939092169216919091179055565b6000610292836102aa565b80156102a357506102a383836102dd565b9392505050565b60006102bd826301ffc9a760e01b6102dd565b801561016257506102d6826001600160e01b03196102dd565b1592915050565b604080516001600160e01b03198316602480830191909152825180830390910181526044909101909152602080820180517bffffffffffffffffffffffffffffffffffffffffffffffffffffffff166301ffc9a760e01b178152825160009392849283928392918391908a617530fa92503d91506000519050828015610364575060208210155b80156103705750600081115b979650505050505050565b60006020828403121561038d57600080fd5b81356001600160e01b0319811681146102a357600080fd5b6001600160a01b03811681146103ba57600080fd5b50565b600080600080608085870312156103d357600080fd5b8435935060208501356103e5816103a5565b92506040850135915060608501356103fc816103a5565b939692955090935050565b60006020828403121561041957600080fd5b5035919050565b60008083601f84011261043257600080fd5b50813567ffffffffffffffff81111561044a57600080fd5b60208301915083602082850101111561046257600080fd5b9250929050565b6000806000806000806080878903121561048257600080fd5b86359550602087013567ffffffffffffffff808211156104a157600080fd5b6104ad8a838b01610420565b9097509550604089013591506104c2826103a5565b909350606088013590808211156104d857600080fd5b506104e589828a01610420565b979a9699509497509295939492505050565b60006020828403121561050957600080fd5b81516102a3816103a556fea164736f6c6343000811000a",
  "devdoc": {
    "kind": "dev",
    "methods": {
      "setFlatFee(bytes32,address,uint256,address)": {
        "params": {
          "fee": "The amount (in base unit) that must be paid",
          "feePaidTo": "The address that should receive payment of the fee",
          "feeToken": "The token contract the fee must be paid in (if any). Address(0) designates native Ether.",
          "guildHash": "The ENS namehash of the guild's domain"
        }
      },
      "tagClaimFee(bytes32,string,address,bytes)": {
        "params": {
          "claimant": "The address attempting to claim the tag (not necessarily the address that will receive it)",
          "extraClaimArgs": "Any additional arguments that would be passed by the minter to the claimGuildTag() function",
          "guildHash": "The ENS namehash of the guild's domain",
          "tag": "The tag being claimed (e.g. 'foo' for foo.my-guild.eth)"
        },
        "returns": {
          "fee": "The amount (in base unit) that must be paid",
          "feePaidTo": "The address that should receive payment of the fee",
          "tokenContract": "The token contract the fee must be paid in (if any). Address(0) designates native Ether."
        }
      }
    },
    "title": "FlatFeePolicy",
    "version": 1
  },
  "userdoc": {
    "kind": "user",
    "methods": {
      "setFlatFee(bytes32,address,uint256,address)": {
        "notice": "Configures a flat fee for the given guild. The caller must be the guild's admin"
      },
      "tagClaimFee(bytes32,string,address,bytes)": {
        "notice": "Returns the fee required to mint the given guild tag by the given minter"
      }
    },
    "notice": "A common implementation of FeePolicy that can be used to configure flat-rate fees for multiple guilds simultaneously",
    "version": 1
  },
  "storageLayout": {
    "storage": [
      {
        "astId": 9661,
        "contract": "contracts/feePolicies/FlatFeePolicy.sol:FlatFeePolicy",
        "label": "guildFees",
        "offset": 0,
        "slot": "0",
        "type": "t_mapping(t_bytes32,t_struct(FeeInfo)9656_storage)"
      }
    ],
    "types": {
      "t_address": {
        "encoding": "inplace",
        "label": "address",
        "numberOfBytes": "20"
      },
      "t_bytes32": {
        "encoding": "inplace",
        "label": "bytes32",
        "numberOfBytes": "32"
      },
      "t_mapping(t_bytes32,t_struct(FeeInfo)9656_storage)": {
        "encoding": "mapping",
        "key": "t_bytes32",
        "label": "mapping(bytes32 => struct FlatFeePolicy.FeeInfo)",
        "numberOfBytes": "32",
        "value": "t_struct(FeeInfo)9656_storage"
      },
      "t_struct(FeeInfo)9656_storage": {
        "encoding": "inplace",
        "label": "struct FlatFeePolicy.FeeInfo",
        "members": [
          {
            "astId": 9651,
            "contract": "contracts/feePolicies/FlatFeePolicy.sol:FlatFeePolicy",
            "label": "feeToken",
            "offset": 0,
            "slot": "0",
            "type": "t_address"
          },
          {
            "astId": 9653,
            "contract": "contracts/feePolicies/FlatFeePolicy.sol:FlatFeePolicy",
            "label": "fee",
            "offset": 0,
            "slot": "1",
            "type": "t_uint256"
          },
          {
            "astId": 9655,
            "contract": "contracts/feePolicies/FlatFeePolicy.sol:FlatFeePolicy",
            "label": "feePaidTo",
            "offset": 0,
            "slot": "2",
            "type": "t_address"
          }
        ],
        "numberOfBytes": "96"
      },
      "t_uint256": {
        "encoding": "inplace",
        "label": "uint256",
        "numberOfBytes": "32"
      }
    }
  }
}