{
  "address": "0x57DE485672801108FDf12888fA0cc694bDFCAaf8",
  "abi": [
    {
      "inputs": [
        {
          "internalType": "contract IENSGuilds",
          "name": "ensGuilds",
          "type": "address"
        }
      ],
      "stateMutability": "nonpayable",
      "type": "constructor"
    },
    {
      "inputs": [
        {
          "internalType": "bytes32",
          "name": "guildHash",
          "type": "bytes32"
        },
        {
          "internalType": "bytes32",
          "name": "",
          "type": "bytes32"
        },
        {
          "internalType": "address",
          "name": "claimant",
          "type": "address"
        },
        {
          "internalType": "address",
          "name": "",
          "type": "address"
        },
        {
          "internalType": "bytes",
          "name": "extraClaimArgs",
          "type": "bytes"
        }
      ],
      "name": "canClaimTag",
      "outputs": [
        {
          "internalType": "bool",
          "name": "",
          "type": "bool"
        }
      ],
      "stateMutability": "nonpayable",
      "type": "function"
    },
    {
      "inputs": [
        {
          "internalType": "bytes32",
          "name": "",
          "type": "bytes32"
        }
      ],
      "name": "guilds",
      "outputs": [
        {
          "internalType": "address",
          "name": "tokenContract",
          "type": "address"
        },
        {
          "internalType": "enum NFTTagsAuthPolicy.TokenStandard",
          "name": "tokenStandard",
          "type": "uint8"
        }
      ],
      "stateMutability": "view",
      "type": "function"
    },
    {
      "inputs": [
        {
          "internalType": "bytes32",
          "name": "guildHash",
          "type": "bytes32"
        },
        {
          "internalType": "bytes32",
          "name": "tagHash",
          "type": "bytes32"
        },
        {
          "internalType": "address",
          "name": "claimant",
          "type": "address"
        },
        {
          "internalType": "address",
          "name": "recipient",
          "type": "address"
        },
        {
          "internalType": "bytes",
          "name": "extraClaimArgs",
          "type": "bytes"
        }
      ],
      "name": "onTagClaimed",
      "outputs": [
        {
          "internalType": "bytes32",
          "name": "tagToRevoke",
          "type": "bytes32"
        }
      ],
      "stateMutability": "nonpayable",
      "type": "function"
    },
    {
      "inputs": [
        {
          "internalType": "bytes32",
          "name": "guildHash",
          "type": "bytes32"
        },
        {
          "internalType": "address",
          "name": "tokenContract",
          "type": "address"
        }
      ],
      "name": "setTokenContract",
      "outputs": [],
      "stateMutability": "nonpayable",
      "type": "function"
    },
    {
      "inputs": [
        {
          "internalType": "bytes4",
          "name": "interfaceID",
          "type": "bytes4"
        }
      ],
      "name": "supportsInterface",
      "outputs": [
        {
          "internalType": "bool",
          "name": "",
          "type": "bool"
        }
      ],
      "stateMutability": "view",
      "type": "function"
    },
    {
      "inputs": [
        {
          "internalType": "address",
          "name": "",
          "type": "address"
        },
        {
          "internalType": "bytes32",
          "name": "guildHash",
          "type": "bytes32"
        },
        {
          "internalType": "bytes32",
          "name": "tagHash",
          "type": "bytes32"
        },
        {
          "internalType": "bytes",
          "name": "extraRevokeArgs",
          "type": "bytes"
        }
      ],
      "name": "tagCanBeRevoked",
      "outputs": [
        {
          "internalType": "bool",
          "name": "",
          "type": "bool"
        }
      ],
      "stateMutability": "nonpayable",
      "type": "function"
    }
  ],
  "transactionHash": "0xf194525685f939560c836efa20667d87d7476c3b7652fec71bccf8cb10b756c9",
  "args": [
    "0x2518c0DbADB4915BcB4Da639d6A2b0701ca56F4C"
  ],
  "numDeployments": 1,
  "solcInputHash": "0631b431846be4ff98a1da75bde425c1",
  "bytecode": "0x608060405234801561001057600080fd5b50604051610b98380380610b9883398101604081905261002f916100d4565b60016000556040516301ffc9a760e01b8152630115c55760e31b600482015281906001600160a01b038216906301ffc9a790602401602060405180830381865afa158015610081573d6000803e3d6000fd5b505050506040513d601f19601f820116820180604052508101906100a59190610104565b6100ae57600080fd5b600180546001600160a01b0319166001600160a01b039290921691909117905550610126565b6000602082840312156100e657600080fd5b81516001600160a01b03811681146100fd57600080fd5b9392505050565b60006020828403121561011657600080fd5b815180151581146100fd57600080fd5b610a63806101356000396000f3fe608060405234801561001057600080fd5b50600436106100725760003560e01c8063d919713f11610050578063d919713f146100d5578063dc10750214610118578063f02cbfbb1461012b57600080fd5b806301ffc9a714610077578063513388491461009f5780638fcae51d146100b4575b600080fd5b61008a6100853660046107f7565b61013e565b60405190151581526020015b60405180910390f35b6100b26100ad366004610839565b610175565b005b6100c76100c23660046108b2565b6102c1565b604051908152602001610096565b61010a6100e336600461092e565b6002602052600090815260409020546001600160a01b03811690600160a01b900460ff1682565b60405161009692919061095d565b61008a610126366004610998565b61030f565b61008a6101393660046108b2565b6104bf565b60006001600160e01b031982166328fd8be960e21b148061016f57506301ffc9a760e01b6001600160e01b03198316145b92915050565b3360015460405163022c977f60e01b8152600481018590526001600160a01b03928316929091169063022c977f90602401602060405180830381865afa1580156101c3573d6000803e3d6000fd5b505050506040513d601f19601f820116820180604052508101906101e79190610a02565b6001600160a01b0316146101fa57600080fd5b6102146001600160a01b0382166380ac58cd60e01b61063c565b15610241576000828152600260205260408120805460ff60a01b1916600160a01b835b0217905550610286565b61025b6001600160a01b038216636cdb3d1360e11b61063c565b1561007257600082815260026020526040902080546001919060ff60a01b1916600160a01b83610237565b600091825260026020526040909120805473ffffffffffffffffffffffffffffffffffffffff19166001600160a01b03909216919091179055565b60006102cb61065f565b6001546001600160a01b0316336001600160a01b0316146102eb57600080fd5b6102f98787878787876106bc565b90506103056001600055565b9695505050505050565b600060208214610321575060006104b6565b600061032d8385610a1f565b600087815260026020908152604080832080548585526001820190935292205492935090916001600160a01b0390911690871461037057600093505050506104b6565b600083815260018084016020526040822001546001600160a01b0316908354600160a01b900460ff1660018111156103aa576103aa610947565b0361043f576040516331a9108f60e11b8152600481018590526000906001600160a01b03841690636352211e90602401602060405180830381865afa1580156103f7573d6000803e3d6000fd5b505050506040513d601f19601f8201168201806040525081019061041b9190610a02565b9050816001600160a01b0316816001600160a01b03161415955050505050506104b6565b604051627eeac760e11b81526001600160a01b0382811660048301526024820186905283169062fdd58e90604401602060405180830381865afa15801561048a573d6000803e3d6000fd5b505050506040513d601f19601f820116820180604052508101906104ae9190610a3d565b159450505050505b95945050505050565b60008681526002602090815260408220805490916001600160a01b039091169084146104f057600092505050610305565b60006104fc8587610a1f565b90506000808454600160a01b900460ff16600181111561051e5761051e610947565b036105a2576040516331a9108f60e11b8152600481018390526001600160a01b03808b169190851690636352211e90602401602060405180830381865afa15801561056d573d6000803e3d6000fd5b505050506040513d601f19601f820116820180604052508101906105919190610a02565b6001600160a01b0316149050610619565b604051627eeac760e11b81526001600160a01b038a81166004830152602482018490526000919085169062fdd58e90604401602060405180830381865afa1580156105f1573d6000803e3d6000fd5b505050506040513d601f19601f820116820180604052508101906106159190610a3d565b1190505b8061062b576000945050505050610305565b5060019a9950505050505050505050565b600061064783610726565b801561065857506106588383610759565b9392505050565b6002600054036106b55760405162461bcd60e51b815260206004820152601f60248201527f5265656e7472616e637947756172643a207265656e7472616e742063616c6c00604482015260640160405180910390fd5b6002600055565b6000806106c98385610a1f565b6000988952600260209081526040808b20928b5260019283019091529098208054978155909701805473ffffffffffffffffffffffffffffffffffffffff19166001600160a01b0396909616959095179094555092949350505050565b6000610739826301ffc9a760e01b610759565b801561016f5750610752826001600160e01b0319610759565b1592915050565b604080516001600160e01b03198316602480830191909152825180830390910181526044909101909152602080820180517bffffffffffffffffffffffffffffffffffffffffffffffffffffffff166301ffc9a760e01b178152825160009392849283928392918391908a617530fa92503d915060005190508280156107e0575060208210155b80156107ec5750600081115b979650505050505050565b60006020828403121561080957600080fd5b81356001600160e01b03198116811461065857600080fd5b6001600160a01b038116811461083657600080fd5b50565b6000806040838503121561084c57600080fd5b82359150602083013561085e81610821565b809150509250929050565b60008083601f84011261087b57600080fd5b50813567ffffffffffffffff81111561089357600080fd5b6020830191508360208285010111156108ab57600080fd5b9250929050565b60008060008060008060a087890312156108cb57600080fd5b863595506020870135945060408701356108e481610821565b935060608701356108f481610821565b9250608087013567ffffffffffffffff81111561091057600080fd5b61091c89828a01610869565b979a9699509497509295939492505050565b60006020828403121561094057600080fd5b5035919050565b634e487b7160e01b600052602160045260246000fd5b6001600160a01b0383168152604081016002831061098b57634e487b7160e01b600052602160045260246000fd5b8260208301529392505050565b6000806000806000608086880312156109b057600080fd5b85356109bb81610821565b94506020860135935060408601359250606086013567ffffffffffffffff8111156109e557600080fd5b6109f188828901610869565b969995985093965092949392505050565b600060208284031215610a1457600080fd5b815161065881610821565b8035602083101561016f57600019602084900360031b1b1692915050565b600060208284031215610a4f57600080fd5b505191905056fea164736f6c6343000811000a",
  "devdoc": {
    "kind": "dev",
    "methods": {
      "canClaimTag(bytes32,bytes32,address,address,bytes)": {
        "details": "Expects that the caller will supply the NFT's TokenID in `extraClaimArgs`. The caller must own the given TokenID.",
        "params": {
          "claimant": "The address attempting to claim the tag (not necessarily the address that will receive it)",
          "extraClaimArgs": "[Optional] Any guild-specific additional arguments required",
          "guildHash": "The ENS namehash of the guild's domain",
          "recipient": "The address that would receive the tag",
          "tagHash": "The ENS namehash of the tag being claimed (e.g. keccak256('foo') for foo.my-guild.eth)"
        }
      },
      "onTagClaimed(bytes32,bytes32,address,address,bytes)": {
        "details": "protects against reentrancy and checks that caller is the Guilds contract. Updating any state is deferred to the implementation.",
        "params": {
          "claimant": "The address that claimed the tag (not necessarily the address that received it)",
          "extraClaimArgs": "[Optional] Any guild-specific additional arguments required",
          "guildHash": "The ENS namehash of the guild's domain",
          "recipient": "The address that received receive the tag",
          "tagHash": "The ENS namehash of the tag being claimed (e.g. keccak256('foo') for foo.my-guild.eth)"
        }
      },
      "setTokenContract(bytes32,address)": {
        "params": {
          "guildHash": "The ENS namehash of the guild's domain",
          "tokenContract": "The ERC721 or ERC1155 collection to use"
        }
      },
      "tagCanBeRevoked(address,bytes32,bytes32,bytes)": {
        "params": {
          "extraRevokeArgs": "Any additional arguments necessary for assessing whether a tag may be revoked",
          "guildHash": "The ENS namehash of the guild's domain",
          "revokedBy": "The address that would attempt to revoke it",
          "tagHash": "The ENS namehash of the tag being claimed (e.g. keccak256('foo') for foo.my-guild.eth)"
        }
      }
    },
    "title": "NFTTagsAuthPolicy",
    "version": 1
  },
  "userdoc": {
    "kind": "user",
    "methods": {
      "canClaimTag(bytes32,bytes32,address,address,bytes)": {
        "notice": "Checks whether a certain address (claimant) may claim a given guild tag"
      },
      "setTokenContract(bytes32,address)": {
        "notice": "Registers the specific NFT collection that a user must be a member of to mint a guild tag"
      },
      "tagCanBeRevoked(address,bytes32,bytes32,bytes)": {
        "notice": "Checks whether a given guild tag is elligible to be revoked"
      }
    },
    "notice": "A common implementation of TagsAuthPolicy that can be used to restrict minting guild tags to only addresses that own an NFT from a given collection, configured per-guild by each guild's admin. An address may mint a tag once per each item in the collection that it owns. Minting two tags from the same TokenID will result in the first being revoked once the second is minted, regardless of whether ownership of that TokenID has changed. A user's guild tag is eligible for revocation once that user ceases to own the TokenID used in minting that tag.",
    "version": 1
  },
  "storageLayout": {
    "storage": [
      {
        "astId": 49,
        "contract": "contracts/tagsAuthPolicies/NFTTagsAuthPolicy.sol:NFTTagsAuthPolicy",
        "label": "_status",
        "offset": 0,
        "slot": "0",
        "type": "t_uint256"
      },
      {
        "astId": 957,
        "contract": "contracts/tagsAuthPolicies/NFTTagsAuthPolicy.sol:NFTTagsAuthPolicy",
        "label": "_ensGuilds",
        "offset": 0,
        "slot": "1",
        "type": "t_contract(IENSGuilds)787"
      },
      {
        "astId": 1145,
        "contract": "contracts/tagsAuthPolicies/NFTTagsAuthPolicy.sol:NFTTagsAuthPolicy",
        "label": "guilds",
        "offset": 0,
        "slot": "2",
        "type": "t_mapping(t_bytes32,t_struct(GuildInfo)1140_storage)"
      }
    ],
    "types": {
      "t_address": {
        "encoding": "inplace",
        "label": "address",
        "numberOfBytes": "20"
      },
      "t_bytes32": {
        "encoding": "inplace",
        "label": "bytes32",
        "numberOfBytes": "32"
      },
      "t_contract(IENSGuilds)787": {
        "encoding": "inplace",
        "label": "contract IENSGuilds",
        "numberOfBytes": "20"
      },
      "t_enum(TokenStandard)1124": {
        "encoding": "inplace",
        "label": "enum NFTTagsAuthPolicy.TokenStandard",
        "numberOfBytes": "1"
      },
      "t_mapping(t_bytes32,t_struct(GuildInfo)1140_storage)": {
        "encoding": "mapping",
        "key": "t_bytes32",
        "label": "mapping(bytes32 => struct NFTTagsAuthPolicy.GuildInfo)",
        "numberOfBytes": "32",
        "value": "t_struct(GuildInfo)1140_storage"
      },
      "t_mapping(t_uint256,t_struct(TagClaim)1129_storage)": {
        "encoding": "mapping",
        "key": "t_uint256",
        "label": "mapping(uint256 => struct NFTTagsAuthPolicy.TagClaim)",
        "numberOfBytes": "32",
        "value": "t_struct(TagClaim)1129_storage"
      },
      "t_struct(GuildInfo)1140_storage": {
        "encoding": "inplace",
        "label": "struct NFTTagsAuthPolicy.GuildInfo",
        "members": [
          {
            "astId": 1131,
            "contract": "contracts/tagsAuthPolicies/NFTTagsAuthPolicy.sol:NFTTagsAuthPolicy",
            "label": "tokenContract",
            "offset": 0,
            "slot": "0",
            "type": "t_address"
          },
          {
            "astId": 1134,
            "contract": "contracts/tagsAuthPolicies/NFTTagsAuthPolicy.sol:NFTTagsAuthPolicy",
            "label": "tokenStandard",
            "offset": 20,
            "slot": "0",
            "type": "t_enum(TokenStandard)1124"
          },
          {
            "astId": 1139,
            "contract": "contracts/tagsAuthPolicies/NFTTagsAuthPolicy.sol:NFTTagsAuthPolicy",
            "label": "tagClaims",
            "offset": 0,
            "slot": "1",
            "type": "t_mapping(t_uint256,t_struct(TagClaim)1129_storage)"
          }
        ],
        "numberOfBytes": "64"
      },
      "t_struct(TagClaim)1129_storage": {
        "encoding": "inplace",
        "label": "struct NFTTagsAuthPolicy.TagClaim",
        "members": [
          {
            "astId": 1126,
            "contract": "contracts/tagsAuthPolicies/NFTTagsAuthPolicy.sol:NFTTagsAuthPolicy",
            "label": "tagHash",
            "offset": 0,
            "slot": "0",
            "type": "t_bytes32"
          },
          {
            "astId": 1128,
            "contract": "contracts/tagsAuthPolicies/NFTTagsAuthPolicy.sol:NFTTagsAuthPolicy",
            "label": "claimedBy",
            "offset": 0,
            "slot": "1",
            "type": "t_address"
          }
        ],
        "numberOfBytes": "64"
      },
      "t_uint256": {
        "encoding": "inplace",
        "label": "uint256",
        "numberOfBytes": "32"
      }
    }
  }
}