{
  "address": "0xD47d35Af31B8dAE47008Ee98cB782D35Aff44A6f",
  "abi": [
    {
      "inputs": [
        {
          "internalType": "address",
          "name": "_ensGuilds",
          "type": "address"
        }
      ],
      "stateMutability": "nonpayable",
      "type": "constructor"
    },
    {
      "inputs": [
        {
          "internalType": "bytes32",
          "name": "guildHash",
          "type": "bytes32"
        },
        {
          "internalType": "bytes32",
          "name": "",
          "type": "bytes32"
        },
        {
          "internalType": "address",
          "name": "claimant",
          "type": "address"
        },
        {
          "internalType": "address",
          "name": "",
          "type": "address"
        },
        {
          "internalType": "bytes",
          "name": "extraClaimArgs",
          "type": "bytes"
        }
      ],
      "name": "canClaimTag",
      "outputs": [
        {
          "internalType": "bool",
          "name": "",
          "type": "bool"
        }
      ],
      "stateMutability": "nonpayable",
      "type": "function"
    },
    {
      "inputs": [
        {
          "internalType": "bytes32",
          "name": "",
          "type": "bytes32"
        }
      ],
      "name": "guilds",
      "outputs": [
        {
          "internalType": "address",
          "name": "tokenContract",
          "type": "address"
        },
        {
          "internalType": "enum NFTTagsAuthPolicy.TokenStandard",
          "name": "tokenStandard",
          "type": "uint8"
        }
      ],
      "stateMutability": "view",
      "type": "function"
    },
    {
      "inputs": [
        {
          "internalType": "bytes32",
          "name": "guildHash",
          "type": "bytes32"
        },
        {
          "internalType": "bytes32",
          "name": "tagHash",
          "type": "bytes32"
        },
        {
          "internalType": "address",
          "name": "claimant",
          "type": "address"
        },
        {
          "internalType": "address",
          "name": "",
          "type": "address"
        },
        {
          "internalType": "bytes",
          "name": "extraClaimArgs",
          "type": "bytes"
        }
      ],
      "name": "onTagClaimed",
      "outputs": [
        {
          "internalType": "bytes32",
          "name": "tagToRevoke",
          "type": "bytes32"
        }
      ],
      "stateMutability": "nonpayable",
      "type": "function"
    },
    {
      "inputs": [
        {
          "internalType": "bytes32",
          "name": "guildHash",
          "type": "bytes32"
        },
        {
          "internalType": "address",
          "name": "tokenContract",
          "type": "address"
        }
      ],
      "name": "setTokenContract",
      "outputs": [],
      "stateMutability": "nonpayable",
      "type": "function"
    },
    {
      "inputs": [
        {
          "internalType": "bytes4",
          "name": "interfaceID",
          "type": "bytes4"
        }
      ],
      "name": "supportsInterface",
      "outputs": [
        {
          "internalType": "bool",
          "name": "",
          "type": "bool"
        }
      ],
      "stateMutability": "view",
      "type": "function"
    },
    {
      "inputs": [
        {
          "internalType": "bytes32",
          "name": "guildHash",
          "type": "bytes32"
        },
        {
          "internalType": "bytes32",
          "name": "tagHash",
          "type": "bytes32"
        },
        {
          "internalType": "bytes",
          "name": "extraRevokeArgs",
          "type": "bytes"
        }
      ],
      "name": "tagCanBeRevoked",
      "outputs": [
        {
          "internalType": "bool",
          "name": "",
          "type": "bool"
        }
      ],
      "stateMutability": "nonpayable",
      "type": "function"
    }
  ],
  "transactionHash": "0x7f9a6accbe07b2dbb9b6e32343641d05410ebd671fcfc84d4f0150db35af4874",
  "args": [
    "0x21Ca61a68969620A326431e17a72a292b19F5edF"
  ],
  "numDeployments": 1,
  "solcInputHash": "3ed54fb3374fcea5f11209f663dcf047",
  "bytecode": "0x608060405234801561001057600080fd5b50604051610bc7380380610bc783398101604081905261002f91610167565b60016000556100596001600160a01b0382166398280fbb60e01b610087602090811b61068217901c565b61006257600080fd5b600280546001600160a01b0319166001600160a01b0392909216919091179055610190565b6000610092836100aa565b80156100a357506100a383836100de565b9392505050565b60006100bd826301ffc9a760e01b6100de565b80156100d857506100d6826001600160e01b03196100de565b155b92915050565b604080516001600160e01b03198316602480830191909152825180830390910181526044909101909152602080820180516001600160e01b03166301ffc9a760e01b178152825160009392849283928392918391908a617530fa92503d91506000519050828015610150575060208210155b801561015c5750600081115b979650505050505050565b60006020828403121561017957600080fd5b81516001600160a01b03811681146100a357600080fd5b610a288061019f6000396000f3fe608060405234801561001057600080fd5b50600436106100725760003560e01c8063c5f23c3011610050578063c5f23c30146100d5578063d919713f146100e8578063f02cbfbb1461012b57600080fd5b806301ffc9a714610077578063513388491461009f5780638fcae51d146100b4575b600080fd5b61008a6100853660046107d3565b61013e565b60405190151581526020015b60405180910390f35b6100b26100ad366004610815565b610175565b005b6100c76100c236600461088e565b6102c0565b604051908152602001610096565b61008a6100e336600461090a565b610356565b61011d6100f636600461095d565b6001602052600090815260409020546001600160a01b03811690600160a01b900460ff1682565b60405161009692919061098c565b61008a61013936600461088e565b610505565b60006001600160e01b0319821663bbebaf3160e01b148061016f57506301ffc9a760e01b6001600160e01b03198316145b92915050565b3360025460405163022c977f60e01b8152600481018590526001600160a01b03928316929091169063022c977f90602401602060405180830381865afa1580156101c3573d6000803e3d6000fd5b505050506040513d601f19601f820116820180604052508101906101e791906109c7565b6001600160a01b0316146101fa57600080fd5b6102146001600160a01b0382166380ac58cd60e01b610682565b15610241576000828152600160205260408120805460ff60a01b1916600160a01b835b0217905550610285565b61025b6001600160a01b038216636cdb3d1360e11b610682565b15610072576000828152600160208190526040909120805460ff60a01b1916600160a01b83610237565b600091825260016020526040909120805473ffffffffffffffffffffffffffffffffffffffff19166001600160a01b03909216919091179055565b60006102ca6106a5565b6002546001600160a01b0316336001600160a01b0316146102ea57600080fd5b60006102f683856109e4565b6000898152600160208181526040808420948452938201905291812080548a8255908301805473ffffffffffffffffffffffffffffffffffffffff19166001600160a01b038b16179055919055915061034c9050565b9695505050505050565b600060208214610368575060006104fd565b600061037483856109e4565b600087815260016020818152604080842080548686529381019092529092205492935090916001600160a01b039091169087146103b757600093505050506104fd565b600083815260018084016020526040822001546001600160a01b0316908354600160a01b900460ff1660018111156103f1576103f1610976565b03610486576040516331a9108f60e11b8152600481018590526000906001600160a01b03841690636352211e90602401602060405180830381865afa15801561043e573d6000803e3d6000fd5b505050506040513d601f19601f8201168201806040525081019061046291906109c7565b9050816001600160a01b0316816001600160a01b03161415955050505050506104fd565b604051627eeac760e11b81526001600160a01b0382811660048301526024820186905283169062fdd58e90604401602060405180830381865afa1580156104d1573d6000803e3d6000fd5b505050506040513d601f19601f820116820180604052508101906104f59190610a02565b159450505050505b949350505050565b60008681526001602090815260408220805490916001600160a01b039091169084146105365760009250505061034c565b600061054285876109e4565b90506000808454600160a01b900460ff16600181111561056457610564610976565b036105e8576040516331a9108f60e11b8152600481018390526001600160a01b03808b169190851690636352211e90602401602060405180830381865afa1580156105b3573d6000803e3d6000fd5b505050506040513d601f19601f820116820180604052508101906105d791906109c7565b6001600160a01b031614905061065f565b604051627eeac760e11b81526001600160a01b038a81166004830152602482018490526000919085169062fdd58e90604401602060405180830381865afa158015610637573d6000803e3d6000fd5b505050506040513d601f19601f8201168201806040525081019061065b9190610a02565b1190505b8061067157600094505050505061034c565b5060019a9950505050505050505050565b600061068d83610702565b801561069e575061069e8383610735565b9392505050565b6002600054036106fb5760405162461bcd60e51b815260206004820152601f60248201527f5265656e7472616e637947756172643a207265656e7472616e742063616c6c00604482015260640160405180910390fd5b6002600055565b6000610715826301ffc9a760e01b610735565b801561016f575061072e826001600160e01b0319610735565b1592915050565b604080516001600160e01b03198316602480830191909152825180830390910181526044909101909152602080820180517bffffffffffffffffffffffffffffffffffffffffffffffffffffffff166301ffc9a760e01b178152825160009392849283928392918391908a617530fa92503d915060005190508280156107bc575060208210155b80156107c85750600081115b979650505050505050565b6000602082840312156107e557600080fd5b81356001600160e01b03198116811461069e57600080fd5b6001600160a01b038116811461081257600080fd5b50565b6000806040838503121561082857600080fd5b82359150602083013561083a816107fd565b809150509250929050565b60008083601f84011261085757600080fd5b50813567ffffffffffffffff81111561086f57600080fd5b60208301915083602082850101111561088757600080fd5b9250929050565b60008060008060008060a087890312156108a757600080fd5b863595506020870135945060408701356108c0816107fd565b935060608701356108d0816107fd565b9250608087013567ffffffffffffffff8111156108ec57600080fd5b6108f889828a01610845565b979a9699509497509295939492505050565b6000806000806060858703121561092057600080fd5b8435935060208501359250604085013567ffffffffffffffff81111561094557600080fd5b61095187828801610845565b95989497509550505050565b60006020828403121561096f57600080fd5b5035919050565b634e487b7160e01b600052602160045260246000fd5b6001600160a01b038316815260408101600283106109ba57634e487b7160e01b600052602160045260246000fd5b8260208301529392505050565b6000602082840312156109d957600080fd5b815161069e816107fd565b8035602083101561016f57600019602084900360031b1b1692915050565b600060208284031215610a1457600080fd5b505191905056fea164736f6c6343000811000a",
  "devdoc": {
    "kind": "dev",
    "methods": {},
    "version": 1
  },
  "userdoc": {
    "kind": "user",
    "methods": {},
    "version": 1
  },
  "storageLayout": {
    "storage": [
      {
        "astId": 839,
        "contract": "contracts/tagsAuthPolicies/NFTTagsAuthPolicy.sol:NFTTagsAuthPolicy",
        "label": "_status",
        "offset": 0,
        "slot": "0",
        "type": "t_uint256"
      },
      {
        "astId": 6955,
        "contract": "contracts/tagsAuthPolicies/NFTTagsAuthPolicy.sol:NFTTagsAuthPolicy",
        "label": "guilds",
        "offset": 0,
        "slot": "1",
        "type": "t_mapping(t_bytes32,t_struct(GuildInfo)6950_storage)"
      },
      {
        "astId": 6958,
        "contract": "contracts/tagsAuthPolicies/NFTTagsAuthPolicy.sol:NFTTagsAuthPolicy",
        "label": "ensGuilds",
        "offset": 0,
        "slot": "2",
        "type": "t_contract(IENSGuilds)5688"
      }
    ],
    "types": {
      "t_address": {
        "encoding": "inplace",
        "label": "address",
        "numberOfBytes": "20"
      },
      "t_bytes32": {
        "encoding": "inplace",
        "label": "bytes32",
        "numberOfBytes": "32"
      },
      "t_contract(IENSGuilds)5688": {
        "encoding": "inplace",
        "label": "contract IENSGuilds",
        "numberOfBytes": "20"
      },
      "t_enum(TokenStandard)6934": {
        "encoding": "inplace",
        "label": "enum NFTTagsAuthPolicy.TokenStandard",
        "numberOfBytes": "1"
      },
      "t_mapping(t_bytes32,t_struct(GuildInfo)6950_storage)": {
        "encoding": "mapping",
        "key": "t_bytes32",
        "label": "mapping(bytes32 => struct NFTTagsAuthPolicy.GuildInfo)",
        "numberOfBytes": "32",
        "value": "t_struct(GuildInfo)6950_storage"
      },
      "t_mapping(t_uint256,t_struct(TagClaim)6939_storage)": {
        "encoding": "mapping",
        "key": "t_uint256",
        "label": "mapping(uint256 => struct NFTTagsAuthPolicy.TagClaim)",
        "numberOfBytes": "32",
        "value": "t_struct(TagClaim)6939_storage"
      },
      "t_struct(GuildInfo)6950_storage": {
        "encoding": "inplace",
        "label": "struct NFTTagsAuthPolicy.GuildInfo",
        "members": [
          {
            "astId": 6941,
            "contract": "contracts/tagsAuthPolicies/NFTTagsAuthPolicy.sol:NFTTagsAuthPolicy",
            "label": "tokenContract",
            "offset": 0,
            "slot": "0",
            "type": "t_address"
          },
          {
            "astId": 6944,
            "contract": "contracts/tagsAuthPolicies/NFTTagsAuthPolicy.sol:NFTTagsAuthPolicy",
            "label": "tokenStandard",
            "offset": 20,
            "slot": "0",
            "type": "t_enum(TokenStandard)6934"
          },
          {
            "astId": 6949,
            "contract": "contracts/tagsAuthPolicies/NFTTagsAuthPolicy.sol:NFTTagsAuthPolicy",
            "label": "tagClaims",
            "offset": 0,
            "slot": "1",
            "type": "t_mapping(t_uint256,t_struct(TagClaim)6939_storage)"
          }
        ],
        "numberOfBytes": "64"
      },
      "t_struct(TagClaim)6939_storage": {
        "encoding": "inplace",
        "label": "struct NFTTagsAuthPolicy.TagClaim",
        "members": [
          {
            "astId": 6936,
            "contract": "contracts/tagsAuthPolicies/NFTTagsAuthPolicy.sol:NFTTagsAuthPolicy",
            "label": "tagHash",
            "offset": 0,
            "slot": "0",
            "type": "t_bytes32"
          },
          {
            "astId": 6938,
            "contract": "contracts/tagsAuthPolicies/NFTTagsAuthPolicy.sol:NFTTagsAuthPolicy",
            "label": "claimedBy",
            "offset": 0,
            "slot": "1",
            "type": "t_address"
          }
        ],
        "numberOfBytes": "64"
      },
      "t_uint256": {
        "encoding": "inplace",
        "label": "uint256",
        "numberOfBytes": "32"
      }
    }
  }
}