{
  "address": "0xA232CAe91476FF52A7A5FfeEB27d38e2933a94C6",
  "abi": [
    {
      "inputs": [
        {
          "internalType": "bytes32",
          "name": "",
          "type": "bytes32"
        },
        {
          "internalType": "string",
          "name": "",
          "type": "string"
        },
        {
          "internalType": "address",
          "name": "",
          "type": "address"
        },
        {
          "internalType": "address",
          "name": "",
          "type": "address"
        },
        {
          "internalType": "bytes",
          "name": "",
          "type": "bytes"
        }
      ],
      "name": "canClaimTag",
      "outputs": [
        {
          "internalType": "bool",
          "name": "",
          "type": "bool"
        }
      ],
      "stateMutability": "view",
      "type": "function"
    },
    {
      "inputs": [
        {
          "internalType": "bytes32",
          "name": "",
          "type": "bytes32"
        },
        {
          "internalType": "string",
          "name": "",
          "type": "string"
        },
        {
          "internalType": "address",
          "name": "",
          "type": "address"
        },
        {
          "internalType": "address",
          "name": "",
          "type": "address"
        },
        {
          "internalType": "bytes",
          "name": "",
          "type": "bytes"
        }
      ],
      "name": "onTagClaimed",
      "outputs": [
        {
          "internalType": "bytes32",
          "name": "tagToRevoke",
          "type": "bytes32"
        }
      ],
      "stateMutability": "nonpayable",
      "type": "function"
    },
    {
      "inputs": [
        {
          "internalType": "bytes4",
          "name": "interfaceID",
          "type": "bytes4"
        }
      ],
      "name": "supportsInterface",
      "outputs": [
        {
          "internalType": "bool",
          "name": "",
          "type": "bool"
        }
      ],
      "stateMutability": "view",
      "type": "function"
    },
    {
      "inputs": [
        {
          "internalType": "address",
          "name": "",
          "type": "address"
        },
        {
          "internalType": "bytes32",
          "name": "",
          "type": "bytes32"
        },
        {
          "internalType": "string",
          "name": "",
          "type": "string"
        },
        {
          "internalType": "bytes",
          "name": "",
          "type": "bytes"
        }
      ],
      "name": "tagCanBeRevoked",
      "outputs": [
        {
          "internalType": "bool",
          "name": "",
          "type": "bool"
        }
      ],
      "stateMutability": "view",
      "type": "function"
    }
  ],
  "args": [],
  "numDeployments": 1,
  "solcInputHash": "3a32f099b226e81e32ffbca8f8873f42",
  "bytecode": "0x608060405234801561001057600080fd5b506102e6806100206000396000f3fe608060405234801561001057600080fd5b506004361061004c5760003560e01c806301ffc9a7146100515780630910b77f1461007957806329593e5a146100945780632cad1767146100bd575b600080fd5b61006461005f36600461010e565b6100d7565b60405190151581526020015b60405180910390f35b6100646100873660046101b1565b6001979650505050505050565b6100af6100a23660046101b1565b6000979650505050505050565b604051908152602001610070565b6100646100cb36600461024f565b60009695505050505050565b60006001600160e01b031982166306724f2160e11b148061010857506301ffc9a760e01b6001600160e01b03198316145b92915050565b60006020828403121561012057600080fd5b81356001600160e01b03198116811461013857600080fd5b9392505050565b60008083601f84011261015157600080fd5b50813567ffffffffffffffff81111561016957600080fd5b60208301915083602082850101111561018157600080fd5b9250929050565b803573ffffffffffffffffffffffffffffffffffffffff811681146101ac57600080fd5b919050565b600080600080600080600060a0888a0312156101cc57600080fd5b87359650602088013567ffffffffffffffff808211156101eb57600080fd5b6101f78b838c0161013f565b909850965086915061020b60408b01610188565b955061021960608b01610188565b945060808a013591508082111561022f57600080fd5b5061023c8a828b0161013f565b989b979a50959850939692959293505050565b6000806000806000806080878903121561026857600080fd5b61027187610188565b955060208701359450604087013567ffffffffffffffff8082111561029557600080fd5b6102a18a838b0161013f565b909650945060608901359150808211156102ba57600080fd5b506102c789828a0161013f565b979a969950949750929593949250505056fea164736f6c6343000811000a",
  "devdoc": {
    "kind": "dev",
    "methods": {},
    "version": 1
  },
  "userdoc": {
    "kind": "user",
    "methods": {},
    "version": 1
  },
  "storageLayout": {
    "storage": [],
    "types": null
  }
}