{
  "address": "0x4278bDa062d6b6c2FA68e3B9C0cA022419401216",
  "abi": [
    {
      "inputs": [
        {
          "internalType": "bytes32",
          "name": "",
          "type": "bytes32"
        },
        {
          "internalType": "bytes32",
          "name": "",
          "type": "bytes32"
        },
        {
          "internalType": "address",
          "name": "",
          "type": "address"
        },
        {
          "internalType": "address",
          "name": "",
          "type": "address"
        },
        {
          "internalType": "bytes",
          "name": "",
          "type": "bytes"
        }
      ],
      "name": "canClaimTag",
      "outputs": [
        {
          "internalType": "bool",
          "name": "",
          "type": "bool"
        }
      ],
      "stateMutability": "nonpayable",
      "type": "function"
    },
    {
      "inputs": [
        {
          "internalType": "bytes32",
          "name": "",
          "type": "bytes32"
        },
        {
          "internalType": "bytes32",
          "name": "",
          "type": "bytes32"
        },
        {
          "internalType": "address",
          "name": "",
          "type": "address"
        },
        {
          "internalType": "address",
          "name": "",
          "type": "address"
        },
        {
          "internalType": "bytes",
          "name": "",
          "type": "bytes"
        }
      ],
      "name": "onTagClaimed",
      "outputs": [
        {
          "internalType": "bytes32",
          "name": "tagToRevoke",
          "type": "bytes32"
        }
      ],
      "stateMutability": "nonpayable",
      "type": "function"
    },
    {
      "inputs": [
        {
          "internalType": "bytes4",
          "name": "interfaceID",
          "type": "bytes4"
        }
      ],
      "name": "supportsInterface",
      "outputs": [
        {
          "internalType": "bool",
          "name": "",
          "type": "bool"
        }
      ],
      "stateMutability": "view",
      "type": "function"
    },
    {
      "inputs": [
        {
          "internalType": "bytes32",
          "name": "",
          "type": "bytes32"
        },
        {
          "internalType": "bytes32",
          "name": "",
          "type": "bytes32"
        },
        {
          "internalType": "bytes",
          "name": "",
          "type": "bytes"
        }
      ],
      "name": "tagCanBeRevoked",
      "outputs": [
        {
          "internalType": "bool",
          "name": "",
          "type": "bool"
        }
      ],
      "stateMutability": "nonpayable",
      "type": "function"
    }
  ],
  "transactionHash": "0x747857a769b968b46f318baded8d6ee4dbbb14c2013cdc7ead4a59f82dfb8e18",
  "args": [],
  "numDeployments": 1,
  "solcInputHash": "290b0ffdff03afb2ef4429b15915ceb0",
  "bytecode": "0x608060405234801561001057600080fd5b50610285806100206000396000f3fe608060405234801561001057600080fd5b506004361061004c5760003560e01c806301ffc9a7146100515780638fcae51d14610079578063c5f23c30146100a1578063f02cbfbb146100b9575b600080fd5b61006461005f36600461010a565b6100d3565b60405190151581526020015b60405180910390f35b6100936100873660046101ad565b60009695505050505050565b604051908152602001610070565b6100646100af366004610225565b6000949350505050565b6100646100c73660046101ad565b60019695505050505050565b60006001600160e01b0319821663bbebaf3160e01b148061010457506301ffc9a760e01b6001600160e01b03198316145b92915050565b60006020828403121561011c57600080fd5b81356001600160e01b03198116811461013457600080fd5b9392505050565b803573ffffffffffffffffffffffffffffffffffffffff8116811461015f57600080fd5b919050565b60008083601f84011261017657600080fd5b50813567ffffffffffffffff81111561018e57600080fd5b6020830191508360208285010111156101a657600080fd5b9250929050565b60008060008060008060a087890312156101c657600080fd5b86359550602087013594506101dd6040880161013b565b93506101eb6060880161013b565b9250608087013567ffffffffffffffff81111561020757600080fd5b61021389828a01610164565b979a9699509497509295939492505050565b6000806000806060858703121561023b57600080fd5b8435935060208501359250604085013567ffffffffffffffff81111561026057600080fd5b61026c87828801610164565b9598949750955050505056fea164736f6c6343000811000a",
  "devdoc": {
    "kind": "dev",
    "methods": {},
    "version": 1
  },
  "userdoc": {
    "kind": "user",
    "methods": {},
    "version": 1
  },
  "storageLayout": {
    "storage": [],
    "types": null
  }
}