{
  "address": "0xB65733be62624E6E8136aFd5ecBf31C1CD871B8D",
  "abi": [
    {
      "inputs": [
        {
          "internalType": "bytes32",
          "name": "",
          "type": "bytes32"
        },
        {
          "internalType": "bytes32",
          "name": "",
          "type": "bytes32"
        },
        {
          "internalType": "address",
          "name": "",
          "type": "address"
        },
        {
          "internalType": "address",
          "name": "",
          "type": "address"
        },
        {
          "internalType": "bytes",
          "name": "",
          "type": "bytes"
        }
      ],
      "name": "canClaimTag",
      "outputs": [
        {
          "internalType": "bool",
          "name": "",
          "type": "bool"
        }
      ],
      "stateMutability": "nonpayable",
      "type": "function"
    },
    {
      "inputs": [
        {
          "internalType": "bytes32",
          "name": "",
          "type": "bytes32"
        },
        {
          "internalType": "bytes32",
          "name": "",
          "type": "bytes32"
        },
        {
          "internalType": "address",
          "name": "",
          "type": "address"
        },
        {
          "internalType": "address",
          "name": "",
          "type": "address"
        },
        {
          "internalType": "bytes",
          "name": "",
          "type": "bytes"
        }
      ],
      "name": "onTagClaimed",
      "outputs": [
        {
          "internalType": "bytes32",
          "name": "tagToRevoke",
          "type": "bytes32"
        }
      ],
      "stateMutability": "nonpayable",
      "type": "function"
    },
    {
      "inputs": [
        {
          "internalType": "bytes4",
          "name": "interfaceID",
          "type": "bytes4"
        }
      ],
      "name": "supportsInterface",
      "outputs": [
        {
          "internalType": "bool",
          "name": "",
          "type": "bool"
        }
      ],
      "stateMutability": "view",
      "type": "function"
    },
    {
      "inputs": [
        {
          "internalType": "address",
          "name": "",
          "type": "address"
        },
        {
          "internalType": "bytes32",
          "name": "",
          "type": "bytes32"
        },
        {
          "internalType": "bytes32",
          "name": "",
          "type": "bytes32"
        },
        {
          "internalType": "bytes",
          "name": "",
          "type": "bytes"
        }
      ],
      "name": "tagCanBeRevoked",
      "outputs": [
        {
          "internalType": "bool",
          "name": "",
          "type": "bool"
        }
      ],
      "stateMutability": "nonpayable",
      "type": "function"
    }
  ],
  "transactionHash": "0xb992a0488e67b3e3a02992161228340313ddea0635c7c8ecb044e9749d77d70a",
  "args": [],
  "numDeployments": 1,
  "solcInputHash": "bcdb56a6a5c3ed55cb47cbcfc650cf49",
  "bytecode": "0x608060405234801561001057600080fd5b5061029b806100206000396000f3fe608060405234801561001057600080fd5b506004361061004c5760003560e01c806301ffc9a7146100515780638fcae51d14610079578063dc107502146100a1578063f02cbfbb146100ba575b600080fd5b61006461005f36600461010b565b6100d4565b60405190151581526020015b60405180910390f35b6100936100873660046101ae565b60009695505050505050565b604051908152602001610070565b6100646100af366004610226565b600095945050505050565b6100646100c83660046101ae565b60019695505050505050565b60006001600160e01b031982166328fd8be960e21b148061010557506301ffc9a760e01b6001600160e01b03198316145b92915050565b60006020828403121561011d57600080fd5b81356001600160e01b03198116811461013557600080fd5b9392505050565b803573ffffffffffffffffffffffffffffffffffffffff8116811461016057600080fd5b919050565b60008083601f84011261017757600080fd5b50813567ffffffffffffffff81111561018f57600080fd5b6020830191508360208285010111156101a757600080fd5b9250929050565b60008060008060008060a087890312156101c757600080fd5b86359550602087013594506101de6040880161013c565b93506101ec6060880161013c565b9250608087013567ffffffffffffffff81111561020857600080fd5b61021489828a01610165565b979a9699509497509295939492505050565b60008060008060006080868803121561023e57600080fd5b6102478661013c565b94506020860135935060408601359250606086013567ffffffffffffffff81111561027157600080fd5b61027d88828901610165565b96999598509396509294939250505056fea164736f6c6343000811000a",
  "devdoc": {
    "kind": "dev",
    "methods": {},
    "version": 1
  },
  "userdoc": {
    "kind": "user",
    "methods": {},
    "version": 1
  },
  "storageLayout": {
    "storage": [],
    "types": null
  }
}